:020000040800F2
:1000000000200020D92C0008F52B0008FD2B00084B
:1000100000000000000000000000000000000000E0
:10002000000000000000000000000000052C000897
:1000300000000000000000000F2C0008192C000830
:10004000292D000800000000292D0008292D000896
:10005000292D0008292D0008292D0008292D000828
:1000600000000000292D0008292D0008292D000876
:10007000292D0008292D0008292D00080000000066
:10008000292D0008292D000800000000292D000856
:10009000292D0008292D0008292D0008292D0008E8
:1000A000292D0008292D0008292D0008292C0008D9
:1000B000452C0008000000000000000000000000C7
:1000C0000448054B10B5834203D0044B002B00D0ED
:1000D000984710BDC4030020C403002000000000A6
:1000E00006480749091A8B10C90FC91810B54910DD
:1000F00003D0044B002B00D0984710BDC403002050
:10010000C40300200000000010B5074C2378002B2A
:1001100009D1FFF7D5FF054B002B02D0044800E0C2
:1001200000BF0123237010BDC403002000000000A5
:100130006C4D0008054B10B5002B03D00449054851
:1001400000E000BFFFF7CCFF10BDC046000000007C
:10015000C80300206C4D000810B583070AD00300C7
:10016000032102E001330B4205D01A78002AF9D1AD
:10017000181A10BD030019680C4A0D4C8A188A43DE
:1001800022420FD15968094A04338A188A4322420D
:1001900008D15968054A04338A188A432242F1D0AB
:1001A00000E001331A78002AFBD1E1E7FFFEFEFEF2
:1001B00080808080014B18687047C0460000002096
:1001C000F0B557464E464546DE468846E0B50C003B
:1001D00092461E00082183B00190464823001D78F6
:1001E0000134425D1142F9D12D2D5ED0002293469B
:1001F0002B2D33D0002E07D1302D62D00A230521BC
:1002000099463D4F0A360DE0102E53D001203100A3
:10021000404200F0B3FF0700012031004042B146E8
:1002200001F032F8002200202B00303B092B07D9C7
:10023000113B192B03D92B00613B192B11D80A3321
:100240009E420EDD551C06D0B84221D81ED04A462B
:1002500050430122181825780134E5E725789C1CC5
:10026000C8E7531C17D05B46002B00D040425346D2
:10027000002B04D0002A15D1534642461A6003B021
:10028000F0BCBB46B246A946A046F0BD8B42DEDDBF
:1002900001225242DFE72223019910000B605346EE
:1002A000002BECD0631E9846E6E725789C1C0123C2
:1002B0009B469FE7302D0FD010230F2199460F4FFB
:1002C000B0E7202223789343582B0AD00823072134
:1002D000994608260A4FA5E7202223789343582BF6
:1002E000EAD1102365780F2199461026034F023476
:1002F00098E7C046154E000899999919FFFFFF0F1E
:10030000FFFFFF1F10B5FFF75BFF10BD10B5040026
:100310001300034A10680A002100FFF751FF10BDC7
:100320000000002010B504001300034A10680A0002
:100330002100FFF745FF10BD0000002070B50D4BF8
:100340000D4D5E1BB610AB4205D0002408CD013424
:100350009847A642FAD804F009FD084B084D5E1BE9
:10036000B610AB4205D0002408CD01349847A64210
:10037000FAD870BD5C5000085C500008605000085E
:100380005C500008F0B50500830749D0541E002AD0
:1003900045D003000326CAB202E00135013C3ED33A
:1003A00001332A703342F8D1032C30D9FF220A409E
:1003B0001502AD182A04AD180F2C34D92700103FB0
:1003C0003F093E01B4461E001A001036664415600F
:1003D00055609560D56010329642F8D101373F01E3
:1003E000DB190F270C22274022403C00002A0ED0A8
:1003F0003E1FB608B400A4461A001C1D644420C267
:10040000A242FCD103240136B6009B193C40002CCB
:1004100005D0C9B21C19197001339C42FBD1F0BD43
:1004200003001400C0E72700E2E7C046F0B505006E
:100430000F2A31D903273E000D430C0003002E4044
:100440002F4234D11500103D2D09AC462F013F1825
:1004500065685D60A5689D60E568DD6025681034AD
:100460001D601D001033BD42F2D165460F230C24E0
:1004700001352D0149191340451914421AD0043B86
:100480009B0801339B008C59AC5104369E42FAD133
:100490000323AD1989191A40561E002A06D00023DD
:1004A000CC5C1A00EC5401339642F9D1F0BD050042
:1004B000561EF4E71A00EFE708B410B504009DB02B
:1004C000002A32DB822368469B008382002302914C
:1004D0001B930691002A13D0013A013BC382049278
:1004E00020AB079220001F9A02A9019300F058F94F
:1004F000431C01DA8B2323600022029B1A700FE059
:1005000001235B42C382049220AB079220001F9A12
:1005100002A9019300F044F9431C01DA8B23236004
:100520001DB010BC08BC01B018478B23036001202C
:100530004042F5E70CB410B51E4B9CB01C68002976
:1005400033DB82236A469B009382002302901B9335
:100550000690002913D00139013BD38204911FABCF
:10056000079120001E9A02A9019300F019F9431C7B
:1005700001DA8B2323600022029B1A7010E0012312
:100580006A465B42D38204911FAB079120001E9AFA
:1005900002A9019300F004F9431C01DA8B232360C4
:1005A0001CB010BC08BC02B018478B23012023608C
:1005B0004042F5E700000020F0B546464F46D646DB
:1005C000C0B58E6880460C0091461D0008689E42AA
:1005D00039D80C228B5E9022D200134210D1350004
:1005E0002A00494600F056FD0020A3689B1BA3602B
:1005F00023685B192360E0BCBA46B146A846F0BD4B
:100600000969421A9246606942001218D70FBF1852
:10061000681C7F1050443A00B84201D9070002001C
:100620005B0512D51100404600F03CFA061E1FD0B3
:1006300052462169FFF7FAFEA389124A134080222D
:100640001343A38106E01E00CAE7404600F00EFBFC
:10065000061E09D03000534650446761FF1A2661D8
:1006600020602E00A760BBE74046216900F0A2FA97
:100670000C234246136040220120A38940421343C9
:10068000A381B8E77FFBFFFFF0B545465746DE463E
:100690004E46E0B5136883B0984693680D009246C5
:1006A0000190002B6FD0002300249B460A688B68C2
:1006B00049E00C216B5E9021C9000B422BD0686988
:1006C0002969561A42001218D00F8218701C521055
:1006D00000199146904201D9814602008020C00055
:1006E00003423AD01100019800F0DCF9071E3DD01A
:1006F00032002969FFF79AFEAB89284A134080220D
:100700001343AB814B46B8199E1B2F61AE60270087
:10071000260028606B613200594600F0BBFC514650
:100720005046AB682A688968DB1B9219091BAB60CD
:100730002A60816027D0414609688B4641464C6853
:1007400008218C46E0441F001000002CF3D01E004E
:100750009C42AED227002600DDE7019800F086FA21
:10076000071ECFD12969019800F024FA0C23019AC1
:10077000012013604022AB8940421343AB815246B3
:100780000023936000E0002000235246536003B032
:10079000F0BCBB46B246A946A046F0BD7FFBFFFFBA
:1007A000F0B5DE4657464E464546E0B51C008B89FF
:1007B0008246894693469DB01B0603D50B69002BE4
:1007C00000D1F5E0002304AD6B6120336B7610336C
:1007D000AB765B461B787F4F0394002B78D05C464A
:1007E00004E063780134002B00D17EE0252BF8D1A2
:1007F0005B46E61A5C4500D07BE02378002B67D08F
:10080000012300225B4204920593002200230692FA
:10081000079300234332AB54AB6501339B4601344D
:1008200006E05A46C01B82401C0029680A432A6021
:1008300005223800217800F0D7F8631C1E0000283C
:10084000EFD12A68D10602D5432120306854110720
:1008500002D543212B20685421782A2955D1039BA6
:10086000191D1B680391002B00DA7CE0EB606178B6
:100870002E2960D0584C0322200000F0B5F8002843
:1008800006D04023001B83402A68013613432B60A7
:100890003178731C062251489B46297600F0A4F853
:1008A000002866D04E4B002B56D003AA0092290098
:1008B0004A4650464B4B00E000BF8046434601335A
:1008C00006D06B6943446B615B461B78002B86D175
:1008D0004B469B895B0600D579E068691DB0F0BC8A
:1008E000BB46B246A946A046F0BD5B46E61A5C454B
:1008F000EED033005A4649465046FFF75DFE0130C0
:10090000E6D06B699B196B6177E7080030382600E9
:100910000928ADD8EA68140000E00133A2001219DA
:10092000197852001418080030380928F5D91E002B
:10093000EC602E299ED171782A2924D1039BB01C0A
:100940001A1D1B6803926B60002B02DA01235B42C5
:100950006B60B17806008DE70722039B0733934352
:1009600008330393ADE75B42EB6002231A432A602E
:100970007DE703AA009229004A465046194B00F031
:1009800055FA80469AE708000023303801366B603C
:10099000092800D96EE71A0093009B1871785B0054
:1009A0001A180800303801360928F5D96A6061E75D
:1009B000402100F077F84B4618601861002803D0FA
:1009C00040234A465361FDE60C2352461360012042
:1009D000404283E720500008285000082C500008AF
:1009E00000000000B905000870B5CCB283070DD037
:1009F000531E002A0FD0032504E00130284206D000
:100A0000013B08D30278A242F7D170BD1300032B3B
:100A100003D8002B14D10020F7E7FF220A4015026B
:100A2000AD182A040B4EAD1803E0043B0430032B31
:100A3000EFD9026808496A40511891433142F4D015
:100A4000C31802E001309842E5D00278A242F9D101
:100A5000DBE7C04680808080FFFEFEFE70B5104E52
:100A6000050033680C00002B15D02100280000F091
:100A700069FB431C0CD00323C41C9C43A04205D03B
:100A8000211A280000F05EFB013001D0200070BD6B
:100A900001246442FAE7002100F054FB3060E4E7EF
:100AA0001C050020F8B50323CE464746CD1C9D43C8
:100AB0000835060080B50C2D1ED20C25A9421DD884
:100AC000300000F0E3FA3A4F7A68002A1AD0140096
:100AD00004E063682200002B14D01C0023685B1B19
:100AE000F7D40B2B27D96119256094425BD0516054
:100AF0000B6063684B600DE0002DDFDA0C230020F3
:100B0000336014E029003000FFF7A8FF0400431C05
:100B100019D00560300000F0BBFA200007220B302E
:100B2000231D9043C21A984201D01B1AA350C0BC87
:100B3000B946B046F8BD6368944202D05360E9E715
:100B400043467B60E6E77B689846002B24D044460A
:100B500063689846002BFAD123680021994630003B
:100B6000A14400F0EFFA814516D123683000ED1A58
:100B70002900FFF773FF01300ED023687A685B19F4
:100B800023605368002B02D1DAE71A005B689C42AD
:100B9000FBD100235360BDE70C233000336000F02D
:100BA00077FA0020C3E779600B6063684B60B1E7B8
:100BB0001C05002070B50500002915D00C1F236806
:100BC000002B23DB280000F061FA274A1368002B72
:100BD00005D0A3420BD92168601883422CD028008D
:100BE0006360146000F054FA70BDA34210D81A007C
:100BF0005B68002BF9D1106811188C4218D02CD3E7
:100C000063605460280000F043FAEDE7E418D9E788
:100C100011685018A04214D01FD821686018834270
:100C2000EED118685B684118216063605460E9E7A1
:100C300023681B181360E5E718685B68411821609A
:100C4000CDE720680918501811608342DAD118687E
:100C50005B68411811605360D4E70C2328002B60B7
:100C600000F016FAC0E7C04620050020F0B5C646E1
:100C700007000E00140000B500292DD0002A27D04F
:100C800000F072FA8046844203D835004308A3423C
:100C900010D321003800FFF705FF051E0AD02200FF
:100CA00044450BD831002800FFF7C0FB3100380065
:100CB000FFF780FF280080BCB846F0BD31004246F7
:100CC0002800FFF7B3FB31003800FFF773FFF1E7AF
:100CD000FFF770FF0025EDE71100FFF7E3FE0500C9
:100CE000E8E7C046F8B557464E464546DE46E0B50D
:100CF0001F000A9B924698460A698B6806000C0002
:100D00009A4200DA1A0053461A604323E35C002B30
:100D100002D0514601320A602268910661D55346DD
:100D2000524606201B6802331360226811001042ED
:100D300008D10020814619308346E168A3449942D6
:100D400047DC11004323E35C5A1E934189060AD510
:100D50003020E1184331087045215A1C615CA2180B
:100D60004332023311702200390030004332C04751
:100D700001301DD0534606251B68E1689C46236858
:100D8000A26820692B40042B31D0824239DD002338
:100D90009946121A914400251A3402E001354D4556
:100DA0002FDA0123220039003000C0470130F5D18D
:100DB00001204042F0BCBB46B246A946A046F8BD61
:100DC00001239C465346E5681B68E144ED1A4D45F6
:100DD00024DD01235A4639003000C0470130EFD1ED
:100DE000E6E7062111420ED05A1E9341BBE7634647
:100DF000C91ACB43DB170B4099468242C9DC002954
:100E0000C9DC0020D6E700205346814619308346CE
:100E10001B68E168A3449942DBDC92E74323216825
:100E2000E35C5A1E9341890692D49CE7F0B54E4686
:100E3000994643239C4657464546DE468C446346C6
:100E4000E0B587B002930C00097E90460700109A27
:100E5000002914D00B00583BDBB2202B48D888481F
:100E60009B00C3589F46136821681D1D606915606B
:100E70001B680E0602D4490600D5DCE0186000238A
:100E8000029D23614B46210000933800434605AA8A
:100E9000FFF728FF01301ED02A00414638002369A1
:100EA000C847013017D02368E068059E9B071BD513
:100EB000B04219DD19239A460025A24404E0E068F7
:100EC0000135831BAB420FDD0123524641463800FA
:100ED000C8470130F3D10120404207B0F0BCBB4607
:100EE000B246A946A046F0BDB042F6DA3000F4E7BB
:100EF0002500422301204235E15443230022206192
:100F0000E254BFE713682168181D10600D0602D473
:100F10004D0600D594E01A6816006368002A00DACE
:100F200092E0584A93460A2203924BE013682068E5
:100F300040CB050601D440067FD41360514B9B463D
:100F40006F2900D191E00A23039337E0136825004D
:100F5000191D11601A68422301204235E254CCE782
:100F60001368191D11601D68002128006268FFF7D1
:100F70003BFD002800D181E0401B6060BDE72023DD
:100F800021680B4323604521782060543E498B46FD
:100F9000116840C9180603D4580601D53604360C2A
:100FA0001160DA0702D5202213432360002E03D1FB
:100FB00020222368934323601023039343230022BA
:100FC000E2546368A360002B18DB042122688A4383
:100FD0002260002E12D1029D002B49D1039B082BC9
:100FE0001ED0029B5B1B23614CE745235821E15433
:100FF000244923688B46CBE72368C4E7039B9A46C2
:10100000029D3000514600F03FF95B465B5C013DBC
:101010002B70330006005345F3D2039B082BE0D11D
:101020002368DB07DDD5626823699A42D9DC302367
:10103000013D2B70D5E7188021E73604360C7CE79C
:1010400000269E5F320068E743222D20A054A36053
:10105000002B02DB0423994321600A239A46094BA3
:1010600076429B460A230393CAE708230393A5E726
:101070005B4625001B7842352B70AFE760683CE784
:10108000184F000834500008485000087047C04608
:101090007047C046F0B588420AD98B18984207D2EB
:1010A000531E002A03D0CA5CC254013BFBD2F0BDE0
:1010B00005000F2A0AD8561E002AF8D00023CC5C5F
:1010C0001A00EC5401339642F9D1F0E703273E00B1
:1010D0000D430C0003002E402F422DD11500103D72
:1010E0002D09AC462F013F1825681D6065685D60BD
:1010F000A5689D60E5681034DD601D001033BD42B9
:10110000F2D165460F230C2401352D0149191340F6
:101110004519144213D0043B9B0801339B008C59A2
:10112000AC5104369E42FAD103231A40AD198919F5
:10113000561E002AC2D1BAE70500561EBEE71A00A5
:10114000B9E7C046002370B5064C050008002360CF
:1011500001F086FD431C00D070BD2368002BFBD03E
:101160002B60F9E7240500200B1F1B68181F002BBC
:1011700000DB70470B58C018FBE7C046002243084D
:101180008B4274D303098B425FD3030A8B4244D34F
:10119000030B8B4228D3030C8B420DD3FF22090291
:1011A00012BA030C8B4202D31212090265D0030B50
:1011B0008B4219D300E0090AC30B8B4201D3CB0346
:1011C000C01A5241830B8B4201D38B03C01A524188
:1011D000430B8B4201D34B03C01A5241030B8B428A
:1011E00001D30B03C01A5241C30A8B4201D3CB0275
:1011F000C01A5241830A8B4201D38B02C01A52415A
:10120000430A8B4201D34B02C01A5241030A8B425C
:1012100001D30B02C01A5241CDD2C3098B4201D374
:10122000CB01C01A524183098B4201D38B01C01AF2
:10123000524143098B4201D34B01C01A5241030969
:101240008B4201D30B01C01A5241C3088B4201D318
:10125000CB00C01A524183088B4201D38B00C01AC5
:10126000524143088B4201D34B00C01A5241411AEC
:1012700000D20146524110467047FFE701B50020F9
:1012800000F006F802BDC0460029F7D076E77047A7
:101290007047C04680B582B000AF0200FB1D1A70D7
:1012A0003D4B1B78002B44D0FB1D1B780A2B2FD104
:1012B000394B00221A70394B00221A70384B002229
:1012C0001A70384B1B781A00374B00219954364B53
:1012D0001B78402B1AD9344B1B785A2B16D8334B1A
:1012E0001B78DBB2002B05D0314B1B685A1C304BEE
:1012F0001A600BE02B4B1B7801331A002A492D4B47
:101300001800FFF793F8294B01221A7000233FE0E1
:10131000244B1B78622B0AD8224B1B785A1CD1B263
:10132000204A11701900204BFA1D12785A540123DB
:101330002EE0FB1D1B780A2B07D1184B00221A70D8
:10134000174B00221A70002322E0144B1B78012B4C
:101350000FD1134B1B782F2B0BD1FB1D1B78252B8B
:1013600007D10D4B01221A700E4B00221A70012377
:101370000EE00B4BFA1D12781A70084B1B78012BEC
:1013800005D8064B1B780133DAB2044B1A700023E0
:101390001800BD4602B080BD780500207905002008
:1013A0007A050020E00500207C050020480600208A
:1013B0005C070020E405002080B582B000AF254B1B
:1013C000DB690F22134038D0234B1B685A1C224B79
:1013D0001A6032E01F4B9B8C9AB2FB1D1A701F4B98
:1013E0001B78DBB2002B28D01D4B1B78DBB20133FE
:1013F000DAB21C4B1B78DBB29A4214D0184B1B7824
:10140000DBB21900184BFA1D12785A54144B1B7892
:10141000DBB20133DAB2124B1A70144B1B685A1C40
:10142000124B1A6004E0124B1B685A1C104B1A60D6
:1014300001F0D6FC02000F4B1A60064BDB6920223C
:101440001340C7D1034B0F221A62C046BD4602B0FB
:1014500080BDC046004400405807002049060020D7
:101460004C0700204D0700204C06002054070020A8
:101470005C0700205007002080B582B000AF02005A
:101480003960FB1D1A70164B1B681A68144B1B68D9
:1014900020218A431A60124B3A685A60FB1D1B7860
:1014A000452B02D180235A0100E000220C4B9A60A8
:1014B000FB1D1B78452B02D18023DA0000E00022BF
:1014C000074B1A61064B180002F0C6FC054B9B8CBB
:1014D000044B0F221A62C046BD4602B080BDC04612
:1014E000BC0800200044004080B582B000AF02007C
:1014F000FB1D1A70FB1D1B782F2B07D9FB1D1B78BA
:10150000392B03D8FB1D1B78303B19E0FB1D1B78E2
:10151000402B07D9FB1D1B78462B03D8FB1D1B78DE
:10152000373B0DE0FB1D1B78602B07D9FB1D1B789B
:10153000662B03D8FB1D1B78573B01E001235B4260
:101540001800BD4602B080BD80B582B000AF7860A3
:101550000B4B1B78DBB2002B05D00A4B1B685A1CC7
:10156000084B1A6008E07B68074A08486421FEF7C8
:10157000E1FF034B01221A70BD4602B080BDC04698
:10158000C80700205C070020844D00086407002085
:10159000F0B5CE46474680B5B1B008AF78607B68FD
:1015A0001B78582B00D181E000DD59E1542B00D18C
:1015B00098E000DD54E1492B00D126E14F2B00D00B
:1015C0004EE17B685A1C8B217B1812781A70E1233C
:1015D0005B029C22BA1813607B181B784E2B08D034
:1015E0007B181B78452B04D0A44B1800FFF7ACFFE9
:1015F0003CE17B6802331B78002B0AD07B68023306
:101600000A2200211800FEF78DFE03009C22BA1862
:1016100013609C217B181A689623DB009A4205D33D
:101620007B181A68E1235B029A4204D9944B180094
:10163000FFF78AFF1AE1934B00221A709C243B1992
:101640001A688B257B191B7811001800FFF714FF0F
:101650008D4B28003A1812781A708C4B3A19126880
:101660001A6000218A4B0A1C1A708A4B0A1C1A70D5
:10167000844B01221A70884B1B681A68864B1B68C2
:1016800020210A431A603B181978844A38257819B2
:10169000834B01933B191B6800930B005021FEF70D
:1016A00049FF7B191800FFF74FFFDFE0754B002261
:1016B0001A70E1235B0219004E20FFF7DDFE724B2A
:1016C0004E221A70714BE12252021A600021704BB7
:1016D0000A1C1A706F4B0A1C1A70724B1800FFF725
:1016E00033FFC3E000239822BA1813600123942229
:1016F000BA181360634B1B78DBB2002B48D16A4BDE
:101700001800FFF721FFB1E094243B191B687A68A9
:10171000D3181B781800FFF7E7FE030090257A190D
:1017200013603B191B6801337A68D3181B781800C3
:10173000FFF7DAFE03008C22B9180B607B191B68D7
:10174000002B03DBBB181B68002B05DA01235B426F
:101750009822BA18136030E09023FB181B685BB224
:101760001B015AB28C23FB181B685BB2134359B29E
:1017700098203B181B685A1C38180260C9B208220E
:10178000BA18D1549422BB181B680233BA181360DC
:1017900094217B181B687A68D3181B78002B0CD017
:1017A0007B181B6801337A68D3181B78002B04D090
:1017B0009823FB181B682F2BA6DD9823FB181B68AA
:1017C000002B07DB9423FB181B687A68D3181B785F
:1017D000002B04D0354B1800FFF7B6FE46E09824E6
:1017E0003B191B68002B40D03B191B689AB2082399
:1017F000F9182948642302F083FB2D4B1A683B1922
:101800001B68D2182A4B1A602FE01E4B1B78DBB2E4
:1018100098461D4B1B7899461C4B1A68254B196836
:10182000234B1868244B1C68244B1B681C4DAC468A
:10183000234E38257D190693059404900391029256
:101840004B460193434600936346320050212800E3
:10185000FEF770FE38257B191800FFF775FE05E0CE
:10186000184B1800FFF770FE00E0C046C046BD46AA
:1018700029B0C0BCB946B046F0BDC0468C4D00088A
:10188000984D000849060020B0010020B401002056
:101890004D0700204C070020BC080020A04D000888
:1018A000AC4D0008B84D0008BC4D0008C84D0008FC
:1018B0006007002054070020580700205C07002024
:1018C000D04D0008084E000880B584B000AF494BE9
:1018D0001B78DBB2002B06D0474B1800FFF758FEF1
:1018E000444B00221A70454B1B78DBB2002B00D111
:1018F0007CE0434B1B78DBB2002B00D076E0414B01
:101900001B78DAB2404B1B78DBB29A426ED03D4B6B
:101910001B78D9B23C4B1B78DAB20F203B188A1ADD
:101920001A703B181B78272B07D801F059FA0200D0
:10193000364B1B68D31A012B58D90023BB600F22EA
:10194000BB181B78282B02D9BB1828221A70BB6839
:101950005A1CBA602E4A2F21D154BB685A1CBA6057
:101960002B4A2521D154BB685A1CBA60284A7221DF
:10197000D15425E0244B1B78DBB21900FB1D254A0E
:10198000525C1A70204B1B78DBB20133DAB21E4B6B
:101990001A70FB1D1B781B09DBB21900BB685A1CAF
:1019A000BA601D4A515C1A4AD154FB1D1B780F22A4
:1019B0001A40BB68591CB9601749895C144AD15454
:1019C0000F22BB181B78BA18591E1170002BD1D1E9
:1019D000BB685A1CBA600E4A0A21D1540C4ABB6833
:1019E000D31800221A70064B01221A70C046BD4659
:1019F00004B080BD48060020E40500204906002010
:101A0000300800204C0700204D0700205007002020
:101A1000CC0700204C060020D44F000880B500AF52
:101A2000074B1B78DBB2002B04D1064B1B78DBB2D3
:101A3000002B01D0012300E000231800BD4680BD2B
:101A4000C80700203008002080B500AF174B1B7876
:101A5000DBB2002B10D0164B1800FEF77DFB030005
:101A60009AB201235B421249124802F049FA0F4B25
:101A700000221A70012316E00F4B1B78DBB2002BFB
:101A800010D00E4B1800FEF767FB03009AB201233B
:101A90005B420A49074802F033FA074B00221A70EA
:101AA000012300E000231800BD4680BDC8070020C8
:101AB000640700203408002030080020CC070020F4
:101AC00080B584B000AF954B1B78002B06D08023E7
:101AD0005B0093480022190001F075FCFFF79EFFA0
:101AE000031E06D080235B008D480022190001F000
:101AF0006AFC8C4B1B688C4A9B00D31801331B7803
:101B0000002B07D080235B0085480022190001F0DC
:101B10005AFC0BE0834B1B685A1C824B1A60814BAA
:101B20001B68062B02D17F4B01221A6080239B0089
:101B30007B4A1900100001F029FC031E00D1E8E0E7
:101B4000764B1B78002B02D000F0A8FACBE0FFF711
:101B50007BFF031E00D0C6E00023FB60714B1A68B8
:101B6000724B9200D258F0231B02134011D06D4BE0
:101B70001A686E4B9200D3581B0B0F2213406C4A0D
:101B8000D15C3A00FB68D3180A1C1A70FB68013359
:101B9000FB60644B1A68654B9200D258FF231B020E
:101BA000134011D05F4B1A68604B9200D3581B0A48
:101BB0000F2213405E4AD15C3A00FB68D3180A1C1E
:101BC0001A70FB680133FB60564B1A68574B920042
:101BD000D358584A134011D0524B1A68534B9200B5
:101BE000D3581B090F221340514AD15C3A00FB68BD
:101BF000D3180A1C1A70FB680133FB60494B1A6842
:101C00004A4B9200D3581B041B0C10D0454B1A684A
:101C1000464B9200D3580F221340454AD15C3A00FC
:101C2000FB68D3180A1C1A70FB680133FB603D4B3C
:101C30001A683D4B9200D35C1A00F023134011D078
:101C4000384B1A68384B9200D35C1B09DBB21A0080
:101C5000394B995C3A00FB68D3180A1C1A70FB6870
:101C60000133FB602F4B1A682F4B9200D35C002B83
:101C700011D02C4B1A682C4B9200D35C1A000F2306
:101C800013402D4AD15C3A00FB68D3180A1C1A7025
:101C9000FB680133FB603A00FB68D3180A221A7014
:101CA000FB680133FB60FB689AB201235B42390099
:101CB000224802F025F91B4B1B681B4A9B00D318D6
:101CC00001331B78002B0ED0164B1B6816499A0067
:101CD0008A1801321278013AD1B2134A9B00D31804
:101CE00001330A1C1A70C04680239B000C4A19005D
:101CF000100001F04BFB031EF6D1114B114A1A6084
:101D00000F4B00225A600E4B054A1900100001F0DB
:101D1000CDF9C046BD4604B080BDC046400100209C
:101D200000040048AC010020280500209C4F00085A
:101D3000B44F0008F0FF0000C44F00083408002032
:101D4000500500200408000080B500AF0C4B802235
:101D500052001A600A4B01225A60094B094A1900C5
:101D6000100001F0A3F980235B000648012219004E
:101D700001F029FB044B80221A60C046BD4680BD9D
:101D800050050020000400486405002080B584B0A0
:101D900000AFFFF799FD00F0A5F800F0C3F8294B5C
:101DA0001A78294B1B789A4246D0264B1B78002B79
:101DB0001FD00023BB603A1DBB68D3183A221A70AB
:101DC000BB680133BB603A1DBB68D3180A221A7086
:101DD000BB680133BB601D4B1B78DBB2002B27D1E6
:101DE000BB689AB201235B42391D194802F088F89A
:101DF0001EE00023FB603A00FB68D3182E221A7005
:101E0000FB680133FB603A00FB68D3180A221A70A2
:101E1000FB680133FB600D4B1B78DBB2002B07D155
:101E2000FB689AB201235B423900094802F068F866
:101E3000044B1A78044B1A70FFF742FEC046BD46A9
:101E400004B080BD41050020420500204906002065
:101E5000BC08002090B585B000AF3C0020606160F8
:101E6000A260E3603B001A683B009B8819001000E9
:101E700001F08CFA031E2CD13B009A68174B92009C
:101E8000D35C1A003B00DB689A4222D0144B01223B
:101E90001A703B00D9683B009A68C9B20F4B920098
:101EA000D1543B009B680D4A9B00D31801331B782B
:101EB000012B0ED83B009B6808499A008A18013212
:101EC00012780132D1B2054A9B00D31801330A1CA3
:101ED0001A70C046BD4605B090BDC046280500201A
:101EE000A801002090B583B000AF00237B600EE016
:101EF0000B4C7B681B011859E2185168E218926874
:101F0000E318DB68FFF7A6FF7B6801337B607B6823
:101F1000052BEDD9C046C046BD4603B090BDC046B6
:101F20005000002090B583B000AF00237B600EE02E
:101F30000B4C7B681B011859E2185168E218926833
:101F4000E318DB6800F00EF87B6801337B607B6888
:101F5000082BEDD9C046C046BD4603B090BDC04673
:101F6000B000002090B585B000AF3C0020606160FB
:101F7000A260E3603B009B681A4A9B00D3180233BF
:101F80001B781A003B00DB689A4217D13B009B8804
:101F90001A00154B1A60144B01225A603B001B6853
:101FA000114A1100180001F081F83B0018683B004D
:101FB0009B880122190001F006FA0EE03B009B8885
:101FC0001A00094B1A60084B00225A603B001B683C
:101FD000054A1100180001F069F8C046BD4605B079
:101FE00090BDC046280500205005002080B500AFF8
:101FF000C046BD4680BD000080B500AF024B012247
:102000001A70C046BD4680BD4005002080B500AFB7
:10201000C046BD4680BD000080B500AF024B012226
:102020001A70C046BD4680BD4105002080B500AF96
:10203000024B00221A70C046BD4680BD41050020FB
:1020400080B500AFC046BD4680BD000080B500AF82
:10205000024B01221A70C046BD4680BD43050020D8
:1020600080B500AF024B00221A70C046BD4680BD4D
:102070004305002080B500AF024B01221A70C04614
:10208000BD4680BD4405002080B500AF024B012253
:102090001A70C046BD4680BD4001002080B500AF2B
:1020A000084B1800FEF758F803009AB201235B4270
:1020B0000449054801F024FF044B00221A70C04671
:1020C000BD4680BD440100203408002040010020AE
:1020D00080B582B000AF394B01225A60374B384A85
:1020E0001900100000F0E2FF354B0022802118009B
:1020F00001F069F9334B1B78002B37D1324B1B7839
:10210000002B33D101237B602BE0304B7A689200A7
:10211000D2582F4B1B689A4220D12E4B19782E4A49
:102120007B689B00D31802330A1C1A702A4A7B680A
:102130009B00D31803331B78012B16D8264A7B68E3
:102140009B00D31803331B780133D9B2224A7B6832
:102150009B00D31803330A1C1A7006E07B68013316
:102160007B607B68052BD0DD00E0C046194B002268
:102170001A70154B00221A70184B1B78002B05D0D3
:10218000134B1B685A1C124B1A6002E0104B0022C2
:102190001A6080235B000A480122190001F013F93C
:1021A000064B00225A60054B054A1900100000F04A
:1021B0007DFFC046BD4602B080BDC046640500201C
:1021C0000004004843050020440500209C4F0008FF
:1021D000480500204C05002028050020400500206F
:1021E00080B500AF054B1B681A01044B1A60034B06
:1021F0001A68024B1A60C046BD4680BD48050020E3
:1022000080B500AF064B1B681A01054B1A60044BE2
:102210001B685A1C024B1A60C046BD4680BDC046B2
:102220004805002080B500AF064B1B681A01054B1E
:102230001A60044B1B689A1C024B1A60C046BD46CC
:1022400080BDC0464805002080B500AF064B1B6826
:102250001A01054B1A60044B1B68DA1C024B1A600A
:10226000C046BD4680BDC0464805002080B500AFD1
:10227000064B1B681A01054B1A60044B1B681A1D9C
:10228000024B1A60C046BD4680BDC04648050020CE
:1022900080B500AF064B1B681A01054B1A60044B52
:1022A0001B685A1D024B1A60C046BD4680BDC04621
:1022B0004805002080B500AF064B1B681A01054B8E
:1022C0001A60044B1B689A1D024B1A60C046BD463B
:1022D00080BDC0464805002080B500AF064B1B6896
:1022E0001A01054B1A60044B1B68DA1D024B1A6079
:1022F000C046BD4680BDC0464805002080B500AF41
:10230000064B1B681A01054B1A60044B1B68083307
:102310001A00024B1A60C046BD4680BD4805002029
:1023200080B500AF064B1B681A01054B1A60044BC1
:102330001B6809331A00024B1A60C046BD4680BDB7
:102340004805002080B500AF064B1B681A01054BFD
:102350001A60044B1B680A331A00024B1A60C0460D
:10236000BD4680BD4805002080B500AF064B1B6808
:102370001A01054B1A60044B1B680B331A00024B01
:102380001A60C046BD4680BD4805002080B500AF3C
:10239000064B1B681A01054B1A60044B1B680C3373
:1023A0001A00024B1A60C046BD4680BD4805002099
:1023B00080B500AF064B1B681A01054B1A60044B31
:1023C0001B680D331A00024B1A60C046BD4680BD23
:1023D0004805002080B500AF064B1B681A01054B6D
:1023E0001A60044B1B680E331A00024B1A60C04679
:1023F000BD4680BD4805002080B500AF064B1B6878
:102400001A01054B1A60044B1B680F331A00024B6C
:102410001A60C046BD4680BD4805002080B500AFAB
:10242000064B1B781B01DAB2044B1A70034B1A7867
:10243000024B1A70C046BD4680BDC0464C05002008
:1024400080B500AF074B1B781B01DAB2054B1A7041
:10245000044B1B780133DAB2024B1A70C046BD46FA
:1024600080BDC0464C05002080B500AF074B1B78EF
:102470001B01DAB2054B1A70044B1B780233DAB237
:10248000024B1A70C046BD4680BDC0464C050020B8
:1024900080B500AF074B1B781B01DAB2054B1A70F1
:1024A000044B1B780333DAB2024B1A70C046BD46A8
:1024B00080BDC0464C05002080B500AF074B1B789F
:1024C0001B01DAB2054B1A70044B1B780433DAB2E5
:1024D000024B1A70C046BD4680BDC0464C05002068
:1024E00080B500AF074B1B781B01DAB2054B1A70A1
:1024F000044B1B780533DAB2024B1A70C046BD4656
:1025000080BDC0464C05002080B500AF074B1B784E
:102510001B01DAB2054B1A70044B1B780633DAB292
:10252000024B1A70C046BD4680BDC0464C05002017
:1025300080B500AF074B1B781B01DAB2054B1A7050
:10254000044B1B780733DAB2024B1A70C046BD4603
:1025500080BDC0464C05002080B500AF074B1B78FE
:102560001B01DAB2054B1A70044B1B780833DAB240
:10257000024B1A70C046BD4680BDC0464C050020C7
:1025800080B500AF074B1B781B01DAB2054B1A7000
:10259000044B1B780933DAB2024B1A70C046BD46B1
:1025A00080BDC0464C05002080B500AF074B1B78AE
:1025B0001B01DAB2054B1A70044B1B780A33DAB2EE
:1025C000024B1A70C046BD4680BDC0464C05002077
:1025D00080B500AF074B1B781B01DAB2054B1A70B0
:1025E000044B1B780B33DAB2024B1A70C046BD465F
:1025F00080BDC0464C05002080B500AF074B1B785E
:102600001B01DAB2054B1A70044B1B780C33DAB29B
:10261000024B1A70C046BD4680BDC0464C05002026
:1026200080B500AF074B1B781B01DAB2054B1A705F
:10263000044B1B780D33DAB2024B1A70C046BD460C
:1026400080BDC0464C05002080B500AF074B1B780D
:102650001B01DAB2054B1A70044B1B780E33DAB249
:10266000024B1A70C046BD4680BDC0464C050020D6
:1026700080B500AF074B1B781B01DAB2054B1A700F
:10268000044B1B780F33DAB2024B1A70C046BD46BA
:1026900080BDC0464C05002080B582B000AF14E07C
:1026A000104B9B8C9BB2DAB2FB1D7F210A401A7043
:1026B000FB1D1B781800FEF7EDFD031E05D1FB1D69
:1026C0001A78094B9200D3589847064BDB692022B1
:1026D0001340E5D1034B0F221A62C046BD4602B03B
:1026E00080BDC04600380140B801002080B500AF71
:1026F00000F01CFB00F016F800F0D6F800F074F8BB
:1027000000F0A2F8064B1B681A68054B1B682021D5
:102710000A431A60FFF718FBFFF738FBFCE7C046D7
:102720003408002090B595B000AF20243B19180064
:1027300030231A000021FDF725FE1023FB18180096
:1027400010231A000021FDF71DFE3B001800102386
:102750001A000021FDF716FE21007B1802221A60E4
:102760007B180122DA607B1810221A617B18022282
:102770001A627B1800225A627B18A02292039A6286
:102780007B180022DA627B18180000F039FE031E65
:1027900001D000F055F910217B1807221A607B1830
:1027A00002225A607B1800229A607B180022DA60AD
:1027B0007B180121180001F03DF9031E01D000F043
:1027C0003FF93B0001221A603B0000229A603B0067
:1027D000180001F073FA031E01D000F031F9C04671
:1027E000BD4615B090BD000080B500AF144B154A32
:1027F0001A60134BE12252025A60114B00229A6078
:102800000F4B0022DA600E4B00221A610C4B0C2297
:102810005A610B4B00229A61094B0022DA61084B86
:1028200000221A62064B00225A62054B180001F082
:1028300013FB031E01D000F003F9C046BD4680BD66
:10284000340800200038014080B500AF144B154A11
:102850001A60134BE12252025A60114B00229A6017
:102860000F4B0022DA600E4B00221A610C4B0C2237
:102870005A610B4B00229A61094B0022DA61084B26
:1028800000221A62064B00225A62054B180001F022
:10289000E3FA031E01D000F0D3F8C046BD4680BD68
:1028A000BC0800200044004090B58BB000AF142459
:1028B0003B19180014231A000021FDF763FD584B43
:1028C0005A69574B802109030A435A61544B5A698C
:1028D00080231B0313403B613B69514B5A69504BAA
:1028E0008021C9030A435A614D4B5A698023DB0397
:1028F0001340FB60FB684A4B5A69494B80218902AF
:102900000A435A61464B5A6980239B021340BB60BD
:10291000BB68434B5A69424B8021C9020A435A6142
:102920003F4B5A698023DB0213407B607B683C4B42
:102930005A693B4B802149030A435A61384B5A6913
:1029400080235B0313403B603B6880235B0035487A
:102950000122190000F037FD3B19334A1A603B1978
:1029600000225A603B1901229A603B192F4A190034
:10297000100000F09BFB3B19F3221A603B19002268
:102980005A603B1901229A603B19294A190010002C
:1029900000F08CFB3B19274A1A603B1900225A6051
:1029A0003B1901229A603A199023DB0511001800A7
:1029B00000F07CFB3B19204A1A603B1900225A6048
:1029C0003B1901229A603B19164A1900100000F0C9
:1029D0006DFB3B1904221A603B1900225A603B1917
:1029E00001229A603B19154A1900100000F05EFBA5
:1029F00021007B18802252001A607B1811225A6035
:102A00007B1800229A607B180022DA607B18054A46
:102A10001900100000F04AFBC046BD460BB090BD47
:102A20000010024000040048FFFF000000080048BA
:102A300000140048F3F90000FFFE0000000C0048FD
:102A400080B500AF72B6C046C046FDE780B582B023
:102A500000AF0F4B9A690E4B01210A439A610C4B50
:102A60009B69012213407B607B68094BDA69084B44
:102A7000802149050A43DA61054BDA6980235B0549
:102A800013403B603B68C046BD4602B080BDC046B7
:102A90000010024090B58DB000AF78601C243B1947
:102AA000180014231A000021FDF76CFC7B681B68DA
:102AB0004D4A934253D14D4B9A694C4B8021C901E9
:102AC0000A439A61494B9A698023DB011340BB6139
:102AD000BB69464B5A69454B802189020A435A61BA
:102AE000424B5A6980239B0213407B617B693B19EF
:102AF000802292001A603B1912225A603B1901226F
:102B00009A603B190322DA603B1901221A613A19D3
:102B10009023DB051100180000F0C8FA21007B1893
:102B20008022D2001A607B1802225A607B18002291
:102B30009A607B180322DA607B1801221A617A18E6
:102B40009023DB051100180000F0B0FA00220021EC
:102B50001B2000F0FBF91B2000F00DFA3FE07B6822
:102B60001B68234A93423AD1204BDA691F4B8021DC
:102B700089020A43DA611D4BDA6980239B02134004
:102B80003B613B69194B5A69184B802189020A4302
:102B90005A61164B5A6980239B021340FB60FB6805
:102BA0001C217B180C221A607B1802225A607B18A9
:102BB00000229A607B180322DA607B1801221A61D6
:102BC0007A189023DB051100180000F06FFA00223C
:102BD00000211C2000F0BAF91C2000F0CCF9C046FE
:102BE000BD460DB090BDC046003801400010024007
:102BF0000044004080B500AFC046FDE780B500AF9F
:102C0000C046FDE780B500AFC046BD4680BD80B57B
:102C100000AFC046BD4680BD80B500AF00F0CEF825
:102C2000C046BD4680BD000080B500AFFFF734FD53
:102C3000034B180001F004FAC046BD4680BDC046F3
:102C40003408002080B500AFFEF7B6FB034B180038
:102C500001F0F6F9C046BD4680BDC046BC08002064
:102C600080B586B000AF7860144A154BD31A7B61EB
:102C70007B693B61134B1B68002B02D1114B124A3D
:102C80001A60104B1A687B68D3183A699A4207D2C7
:102C9000FDF790FA03000C221A6001235B4209E061
:102CA000084B1B68FB60074B1A687B68D218054B02
:102CB0001A60FB681800BD4606B080BD00200020E9
:102CC00000040000440900205009002080B500AF36
:102CD000C046BD4680BD00000D488546FFF7F6FFA3
:102CE0000C480D490D4A002302E0D458C450043367
:102CF000C4188C42F9D30A4A0A4C002301E013603D
:102D00000432A242FBD3FDF719FBFFF7EFFCFEE70D
:102D10000020002000000020C403002064500008B0
:102D2000C40300204C090020FEE7000080B500AF7E
:102D3000074B1A68064B10210A431A60032000F063
:102D400009F8FFF783FE00231800BD4680BDC0468A
:102D50000020024090B583B000AF7860144B1C682F
:102D6000144B1B781900FA239800FEF707FA0300AA
:102D700019002000FEF702FA0300180000F00BF91A
:102D8000031E01D001230FE07B68032B0BD8796869
:102D900001235B420022180000F0D8F8064B7A6845
:102DA0001A60002300E001231800BD4603B090BD67
:102DB000B8030020C0030020BC03002080B500AF92
:102DC000054B1B781A00054B1B68D218034B1A6081
:102DD000C046BD4680BDC046C00300204809002053
:102DE00080B500AF024B1B681800BD4680BDC046D1
:102DF0004809002080B582B000AF0200FB1D1A70A8
:102E0000FB1D1B787F2B09D8FB1D1B781A001F2385
:102E10001A40044B012191400A001A60C046BD4689
:102E200002B080BD00E100E090B583B000AF0200C9
:102E30003960FB1D1A70FB1D1B787F2B28D82F4A89
:102E4000FB1D1B785BB29B08C0339B009B58FA1D8F
:102E50001278110003220A40D200FF2191400A009B
:102E6000D2431A4011003B689B01FF221A40FB1D10
:102E70001B78180003230340DB009A401F48FB1D0A
:102E80001B785BB29B080A43C0339B001A5031E0A9
:102E90001B4AFB1D1B7819000F230B40083B9B08A6
:102EA00006339B00D31804331B68FA1D12781100F7
:102EB00003220A40D200FF2191400A00D2431A4067
:102EC00011003B689B01FF221A40FB1D1B78180074
:102ED00003230340DB009A400948FB1D1B781C00BC
:102EE0000F232340083B9B080A4306339B00C3186B
:102EF00004331A60C046BD4603B090BD00E100E057
:102F000000ED00E080B582B000AF78607B685A1EAB
:102F100080235B049A4201D3012310E00A4B7A68B4
:102F2000013A5A6001235B4203211800FFF77CFF3E
:102F3000054B00229A60044B07221A6000231800F8
:102F4000BD4602B080BDC04610E000E080B584B050
:102F500000AFB9607A600F217B18021C1A70BA6842
:102F60007B181B785BB211001800FFF75DFFC046AD
:102F7000BD4604B080BD80B582B000AF0200FB1D2D
:102F80001A70FB1D1B785BB21800FFF733FFC046B9
:102F9000BD4602B080BD80B582B000AF78607B686E
:102FA0001800FFF7AFFF03001800BD4602B080BD58
:102FB00080B582B000AF78607B6821229B5CDBB279
:102FC000022B08D07B6804229A637B6820220021B0
:102FD0009954012320E07B681B681A687B681B6892
:102FE0000E218A431A607B681B681A687B681B681D
:102FF00001218A431A607B681A6C7B68DB6B0121B4
:1030000091400A005A607B682122012199547B6813
:1030100020220021995400231800BD4602B080BD33
:1030200080B584B000AF78600F217B1800221A7041
:103030007B6821229B5CDBB2022B06D07B680422DA
:103040009A637B1801221A7028E07B681B681A6853
:103050007B681B680E218A431A607B681B681A68AC
:103060007B681B6801218A431A607B681A6C7B6845
:10307000DB6B012191400A005A607B68212201210B
:1030800099547B682022002199547B685B6B002B4C
:1030900004D07B685B6B7A68100098470F23FB189D
:1030A0001B781800BD4604B080BD000080B586B016
:1030B00000AF7860396000237B614FE13B681B689B
:1030C00001217A6991400A001340FB60FB68002BE4
:1030D00000D140E13B685B6803221340012B05D01F
:1030E0003B685B6803221340022B30D17B689B68EE
:1030F0003B617B695B0003229A401300DA433B6922
:1031000013403B613B68DA687B695B009A401300BF
:103110003A6913433B617B683A699A607B685B68F4
:103120003B6101227B699A401300DA433B691340FB
:103130003B613B685B681B0901221A407B699A402E
:1031400013003A6913433B617B683A695A603B68F4
:103150005B6803221340032B17D07B68DB683B615D
:103160007B695B0003229A401300DA433B691340FA
:103170003B613B689A687B695B009A4013003A693F
:1031800013433B617B683A69DA603B685B68032202
:103190001340022B23D17B69DA087B680832920046
:1031A000D3583B617B69072213409B000F229A4052
:1031B0001300DA433B6913403B613B681A697B6942
:1031C00007210B409B009A4013003A6913433B616F
:1031D0007B69DA087B68083292003969D1507B68D4
:1031E0001B683B617B695B0003229A401300DA4352
:1031F0003B6913403B613B685B6803221A407B6973
:103200005B009A4013003A6913433B617B683A695B
:103210001A603B685A68C0239B02134000D19AE0B1
:10322000544B9A69534B01210A439A61514B9B6954
:1032300001221340BB60BB684F4A7B699B08023385
:103240009B009B583B617B69032213409B000F222C
:103250009A401300DA433B6913403B617A6890233C
:10326000DB059A4213D07B68444A93420DD07B68B9
:10327000434A934207D07B68424A934201D10323D9
:1032800006E0052304E0022302E0012300E000231E
:103290007A6903210A40920093403A6913433B61E3
:1032A00035497B699B0802339B003A695A50364B7B
:1032B0009B683B61FB68DA433B6913403B613B68B9
:1032C0005A6880235B03134003D03A69FB681343B9
:1032D0003B612D4B3A699A602B4BDB683B61FB6885
:1032E000DA433B6913403B613B685A6880239B0388
:1032F000134003D03A69FB6813433B61224B3A69A0
:10330000DA60214B5B683B61FB68DA433B69134041
:103310003B613B685A6880239B02134003D03A69A3
:10332000FB6813433B61184B3A695A60164B1B68A4
:103330003B61FB68DA433B6913403B613B685A6879
:1033400080235B02134003D03A69FB6813433B615F
:103350000D4B3A691A607B6901337B613B681A68DF
:103360007B69DA40131E00D0A8E6C046C046BD46C1
:1033700006B080BD0010024000000140000400487B
:1033800000080048000C00480004014080B584B0EB
:1033900000AF78600A00BB1C1A807B681B69BA1CEE
:1033A0001288134004D00F23FB1801221A7003E087
:1033B0000F23FB1800221A700F23FB181B7818002C
:1033C000BD4604B080BD80B582B000AF7860080013
:1033D0001100BB1C021C1A807B1C0A1C1A707B1C6F
:1033E0001B78002B04D0BB1C1A887B689A6103E011
:1033F000BB1C1A887B689A62C046BD4602B080BD7D
:1034000080B588B000AF78607B68002B01D10123C4
:1034100001E37B681B680122134000D18DE0C34BA0
:103420005B680C221340042B0ED0C04B5B680C224F
:103430001340082B16D1BD4B5A6880235B021A40FB
:1034400080235B029A420DD1B84B1A6880239B02FD
:10345000134000D170E07B685B68002B00D06BE00C
:103460000123D8E27B685B68012B07D1AF4B1A6858
:10347000AE4B802149020A431A602FE07B685B68EB
:10348000002B0CD1A94B1A68A84BA9490A401A6015
:10349000A64B1A68A54BA7490A401A601EE07B6834
:1034A0005B68052B0ED1A14B1A68A04B8021C90285
:1034B0000A431A609D4B1A689C4B802149020A43BB
:1034C0001A600BE0994B1A68984B99490A401A60A8
:1034D000964B1A68954B97490A401A607B685B685F
:1034E000002B14D0FFF77CFC0300BB6108E0FFF762
:1034F00077FC0200BB69D31A642B01D903238AE24B
:103500008A4B1A6880239B021340F0D015E0FFF726
:1035100067FC0300BB6108E0FFF762FC0200BB69C7
:10352000D31A642B01D9032375E2804B1A688023D8
:103530009B021340F0D100E0C0467B681B6802226A
:10354000134000D169E0794B5B680C2213400BD02B
:10355000764B5B680C221340082B1CD1734B5A68C6
:1035600080235B02134016D1704B1B68022213406C
:1035700005D07B68DB68012B01D001234BE26B4B4C
:103580001B68F822934319007B681B69DA00674BBC
:103590000A431A6041E07B68DB68002B24D0634B50
:1035A0001A68624B01210A431A60FFF719FC0300F5
:1035B000BB6108E0FFF714FC0200BB69D31A022BC1
:1035C00001D9032327E2594B1B6802221340F1D093
:1035D000564B1B68F822934319007B681B69DA007D
:1035E000524B0A431A6018E0504B1A684F4B0121A6
:1035F0008A431A60FFF7F4FB0300BB6108E0FFF7A2
:10360000EFFB0200BB69D31A022B01D9032302E2AC
:10361000464B1B6802221340F1D17B681B680822CD
:10362000134036D07B68DB69002B19D03F4B5A6AB8
:103630003E4B01210A435A62FFF7D2FB0300BB61F4
:1036400008E0FFF7CDFB0200BB69D31A022B01D9BA
:103650000323E0E1354B5B6A02221340F1D018E00E
:10366000324B5A6A314B01218A435A62FFF7B8FB49
:103670000300BB6108E0FFF7B3FB0200BB69D31A8C
:10368000022B01D90323C6E1284B5B6A02221340B7
:10369000F1D17B681B680422134000D1B4E01F20E5
:1036A0003B1800221A70214BDA6980235B05134016
:1036B00010D11E4BDA691D4B802149050A43DA619E
:1036C0001A4BDA6980235B051340FB60FB683B18EB
:1036D00001221A70184B1A6880235B0013401AD11C
:1036E000154B1A68144B802149000A431A60FFF7F2
:1036F00077FB0300BB6108E0FFF772FB0200BB69C8
:10370000D31A642B01D9032385E10B4B1A6880235C
:103710005B001340F0D07B689B68012B0ED1034BFC
:103720001A6A024B01210A431A6235E00010024076
:10373000FFFFFEFFFFFFFBFF007000407B689B6800
:10374000002B0CD1B64B1A6AB54B01218A431A6281
:10375000B34B1A6AB24B04218A431A621CE07B689D
:103760009B68052B0CD1AE4B1A6AAD4B04210A4362
:103770001A62AB4B1A6AAA4B01210A431A620BE088
:10378000A74B1A6AA64B01218A431A62A44B1A6AF4
:10379000A34B04218A431A627B689B68002B14D0D8
:1037A000FFF71EFB0300BB6109E0FFF719FB0200F6
:1037B000BB69D31A9B4A934201D903232BE1984B4F
:1037C0001B6A02221340F0D013E0FFF709FB03004D
:1037D000BB6109E0FFF704FB0200BB69D31A914A01
:1037E000934201D9032316E18D4B1B6A0222134039
:1037F000F0D11F23FB181B78012B05D1884BDA6908
:10380000874B89490A40DA617B681B6810221340A4
:1038100063D07B685B69012B2AD1814B5A6B804B4B
:1038200004210A435A637E4B5A6B7D4B01210A43A4
:103830005A63FFF7D5FA0300BB6108E0FFF7D0FA3F
:103840000200BB69D31A022B01D90323E3E0744BB6
:103850005B6B02221340F1D0714B5B6BF8229343F8
:1038600019007B689B69DA006D4B0A435A6334E0A8
:103870007B685B69053311D1694B5A6B684B042136
:103880008A435A63664B5B6BF822934319007B684B
:103890009B69DA00624B0A435A631EE0604B5A6B25
:1038A0005F4B04210A435A635D4B5A6B5C4B012109
:1038B0008A435A63FFF794FA0300BB6108E0FFF7FD
:1038C0008FFA0200BB69D31A022B01D90323A2E0AD
:1038D000534B5B6B02221340F1D17B681B6A002BB8
:1038E00000D197E04E4B5B680C221340082B00D1AF
:1038F0006BE07B681B6A022B4CD1494B1A68484B22
:103900004A490A401A60FFF76BFA0300BB6108E0FE
:10391000FFF766FA0200BB69D31A022B01D9032311
:1039200079E03F4B1A6880239B041340F0D13C4B55
:10393000DB6A0F22934319007B68DA6A384B0A432B
:10394000DA62374B5B683A4A134019007B689A6A1F
:103950007B685B6A1A43324B0A435A60304B1A68E1
:103960002F4B802149040A431A60FFF739FA0300FC
:10397000BB6108E0FFF734FA0200BB69D31A022BDF
:1039800001D9032347E0264B1A6880239B04134088
:10399000F0D03FE0224B1A68214B24490A401A60BC
:1039A000FFF71EFA0300BB6108E0FFF719FA0200F7
:1039B000BB69D31A022B01D903232CE0184B1A68D8
:1039C00080239B041340F0D124E07B681B6A012B09
:1039D00001D101231FE0124B5B687B61104BDB6A56
:1039E0003B617A6980235B021A407B685B6A9A427A
:1039F0000ED13B690F221A407B68DB6A9A4207D1DD
:103A00007A69F0239B031A407B689B6A9A4201D033
:103A1000012300E000231800BD4608B080BDC04669
:103A20000010024088130000FFFFFFEFFFFFFFFEC2
:103A3000FFFFC2FF80B584B000AF786039607B685B
:103A4000002B01D10123B3E05B4B1B680122134023
:103A50003A689A4211D9584B1B68012293431900C6
:103A6000554B3A680A431A60534B1B6801221340B6
:103A70003A689A4201D001239AE07B681B680222CF
:103A8000134015D07B681B680422134006D04B4BB3
:103A90005A684A4BE021C9000A435A60474B5B68A9
:103AA000F022934319007B689A68444B0A435A609A
:103AB0007B681B680122134040D07B685B68012B48
:103AC00007D13E4B1A6880239B02134014D1012377
:103AD0006EE07B685B68022B07D1384B1A68802345
:103AE0009B04134008D1012362E0344B1B6802227F
:103AF000134001D101235BE0304B5B680322934309
:103B000019007B685A682D4B0A435A60FFF768F921
:103B10000300FB6009E0FFF763F90200FB68D31ABA
:103B2000274A934201D9032342E0244B5B680C22CD
:103B30001A407B685B689B009A42ECD11E4B1B6865
:103B4000012213403A689A4211D21B4B1B68012292
:103B500093431900184B3A680A431A60164B1B68C6
:103B6000012213403A689A4201D0012320E07B6889
:103B70001B680422134009D0104B5B68114A1340A4
:103B800019007B68DA680D4B0A435A6000F020F890
:103B900001000A4B5B681B090F2213400A4AD35CE1
:103BA0000A00DA40094B1A600320FFF7D3F800231C
:103BB0001800BD4604B080BD002002400010024045
:103BC00088130000FFF8FFFFE84F0008B80300204B
:103BD00080B586B000AF0023FB600023BB600023EC
:103BE0007B6100237B6000233B61204B5B68FB60B3
:103BF000FB680C221340042B02D0082B03D02CE0CE
:103C00001B4B3B612CE0FB689B0C0F221340194AB5
:103C1000D35C7B60154BDB6A0F221340164AD35CE2
:103C2000BB60FA6880235B02134009D0B968104872
:103C3000FDF7A4FA03001A007B6853437B6109E097
:103C400079680A005201521A93019B1ADB005B1833
:103C50001B027B617B693B6102E0054B3B61C04617
:103C60003B691800BD4606B080BDC046001002404A
:103C700000127A00005000081050000880B500AF14
:103C8000024B1B681800BD4680BDC046B80300202B
:103C900080B500AFFFF7F2FF0100064B5B681B0A1F
:103CA00007221340044AD35CD9400B001800BD46DC
:103CB00080BDC04600100240F84F000880B586B0B5
:103CC00000AF786000233B610023FB607B681A68CB
:103CD00080235B02134000D18EE017203B180022A6
:103CE0001A70574BDA6980235B05134010D1544B8F
:103CF000DA69534B802149050A43DA61504BDA698E
:103D000080235B051340BB60BB683B1801221A701F
:103D10004C4B1A6880235B0013401AD1494B1A6838
:103D2000484B802149000A431A60FFF759F8030005
:103D30003B6108E0FFF754F802003B69D31A642B9B
:103D400001D9032377E03F4B1A6880235B001340BF
:103D5000F0D03B4B1A6AC0239B001340FB60FB680A
:103D6000002B34D07B685A68C0239B001340FA684C
:103D70009A422CD0324B1B6A334A1340FB60304BC3
:103D80001A6A2F4B802149020A431A622C4B1A6A85
:103D90002B4B2E490A401A62294BFA681A62FB68BB
:103DA0000122134013D0FFF71BF803003B6109E029
:103DB000FFF716F802003B69D31A254A934201D94E
:103DC000032338E01E4B1B6A02221340F0D01C4B29
:103DD0001B6A1D4A134019007B685A68184B0A4336
:103DE0001A621723FB181B78012B05D1144BDA69D3
:103DF000134B18490A40DA617B681B6801221340A3
:103E000009D00F4B1B6B0322934319007B689A6800
:103E10000B4B0A431A637B681B682022134009D0AE
:103E2000074B1B6B1022934319007B68DA68044B25
:103E30000A431A6300231800BD4606B080BDC04681
:103E40000010024000700040FFFCFFFFFFFFFEFF7C
:103E500088130000FFFFFFEF80B582B000AF7860ED
:103E60007B68002B01D1012344E07B68DB6F002BD2
:103E700007D17B687822002199547B681800FEF7EF
:103E800009FE7B682422DA677B681B681A687B68F6
:103E90001B6801218A431A607B685B6A002B03D090
:103EA0007B68180000F0F0FC7B68180000F0ACFBA9
:103EB0000300012B01D101231CE07B681B685A68B9
:103EC0007B681B680D490A405A607B681B689A68CA
:103ED0007B681B6808218A439A607B681B681A68A4
:103EE0007B681B6801210A431A607B68180000F098
:103EF0007FFD03001800BD4602B080BDFFF7FFFF45
:103F000080B58AB002AFF860B9603B60BB1D1A8013
:103F1000FB68DB6F202B00D08CE0BB68002B03D04C
:103F2000BB1D1B88002B01D1012384E0FB689A682C
:103F300080235B019A4209D1FB681B69002B05D1E4
:103F4000BB680122134001D0012374E0FB68842286
:103F500000219950FB682122DA67FEF741FF030038
:103F60007B61FB68BA1D502112885A52FB68BA1D4A
:103F7000522112885A52FB689A6880235B019A4248
:103F800008D1FB681B69002B04D10023FB61BB68CF
:103F9000BB6103E0BB68FB610023BB612FE07A6972
:103FA000F8683B68009313000022802100F0C8FDF0
:103FB000031E04D0FB682022DA6703233BE0FB6981
:103FC000002B0BD1BB691A88FB681B68D205D20D88
:103FD00092B21A85BB690233BB6107E0FB691A78AC
:103FE000FB681B681A85FB690133FB61FB68522281
:103FF0009B5A9BB2013B99B2FB6852229952FB68D3
:1040000052229B5A9BB2002BC9D17A69F8683B684F
:10401000009313000022402100F092FD031E04D003
:10402000FB682022DA67032305E0FB682022DA67B9
:10403000002300E002231800BD4608B080BD000048
:1040400090B5ABB000AF78607B681B68DB69A422D9
:10405000B9180B607B681B681B68A02039180B60BF
:104060007B681B689B689C2179180B601100BB184A
:104070001B68994A13409822BC182360BB181B6820
:10408000002B14D17B181B68202213400FD03B1843
:104090001B68202213400AD07B689B6E002B00D146
:1040A00086E27B689B6E7A681000984780E29823CE
:1040B000FB181B68002B00D114E19C23FB181B6824
:1040C0000122134006D1A023FB181B68834A13402A
:1040D00000D107E1A423FB181B680122134012D072
:1040E000A023FB181A6880235B0013400BD07B6869
:1040F0001B6801221A627B6884229B5801221A43A2
:104100007B6884215A50A423FB181B6802221340A9
:1041100011D09C23FB181B68012213400BD07B6835
:104120001B6802221A627B6884229B5804221A436D
:104130007B6884215A50A423FB181B680422134077
:1041400011D09C23FB181B68012213400BD07B6805
:104150001B6804221A627B6884229B5802221A433D
:104160007B6884215A50A423FB181B680822134043
:1041700017D0A023FB181B682022134005D19C23D5
:10418000FB181B68012213400BD07B681B680822B8
:104190001A627B6884229B5808221A437B68842118
:1041A0005A50A423FB181A6880231B01134013D014
:1041B000A023FB181A688023DB0413400CD07B6813
:1041C0001B68802212011A627B6884229B5820227D
:1041D0001A437B6884215A507B6884229B58002BA9
:1041E00000D1E7E1A423FB181B68202213400ED066
:1041F000A023FB181B682022134008D07B689B6E0D
:10420000002B04D07B689B6E7A68100098477B680F
:1042100084229B5894217A1813607B681B689B68E2
:1042200040221340402B04D07B181B6828221340E7
:1042300047D07B68180000F0F3FC7B681B689B6824
:1042400040221340402B37D1EFF310833B663B6E87
:1042500090203A18136001237B667B6E83F31088ED
:10426000C0467B681B689A687B681B6840218A434C
:104270009A603B181B68BB66BB6E83F31088C04610
:104280007B685B6F002B12D07B685B6F144A5A63AC
:104290007B685B6F1800FEF7C3FE031E1AD07B68B5
:1042A0005B6F5A6B7B685B6F1800904712E07B680E
:1042B000180000F095F90DE07B68180000F090F907
:1042C00008E07B68180000F08BF97B6884220021ED
:1042D00099506FE1C0466DE10F0800002001000415
:1042E000E94C00087B681B6E012B00D039E1A42348
:1042F000FB181B681022134000D132E1A023FB18E9
:104300001B681022134000D12BE17B681B68102230
:104310001A627B681B689B6840221340402B00D0C8
:104320009FE07B685B6F1B685A687E217B181A8050
:104330007B181B88002B00D13EE17B6858229B5ADA
:104340007A1812889A4200D336E17B687A185A218B
:1043500012885A527B685B6F9B69202B6FD0EFF3FA
:1043600010833B633B6BBB6701237B637B6B83F3F6
:104370001088C0467B681B681A687B681B68924976
:104380000A401A60BB6FBB63BB6B83F31088C046E7
:10439000EFF31083FB63FB6B7B6701233B643B6C98
:1043A00083F31088C0467B681B689A687B681B682B
:1043B00001218A439A607B6F7B647B6C83F3108856
:1043C000C046EFF31083BB64BB6C3B670123FB6407
:1043D000FB6C83F31088C0467B681B689A687B6817
:1043E0001B6840218A439A603B6F3B653B6D83F3BA
:1043F0001088C0467B688022202199507B6800226B
:104400001A66EFF310837B657B6DFB660123BB654A
:10441000BB6D83F31088C0467B681B681A687B6895
:104420001B6810218A431A60FB6EFB65FB6D83F3EA
:104430001088C0467B685B6F1800FEF7B9FD7B688B
:1044400002225A667B6858229A5A7B685A215B5A24
:104450009BB2D31A9AB27B681100180000F0C8F81A
:10446000AAE07B685822995A7B685A229B5A9AB2D2
:104470008E203B188A1A1A807B685A229B5A9BB25C
:10448000002B00D19AE03B181B88002B00D195E04F
:10449000EFF31083FB60FB6888243A191360012353
:1044A0003B613B6983F31088C0467B681B681A68D0
:1044B0007B681B6845490A401A603B191B687B6191
:1044C0007B6983F31088C046EFF31083BB61BB693F
:1044D00084243A1913600123FB61FB6983F310887C
:1044E000C0467B681B689A687B681B6801218A4309
:1044F0009A603B191B683B623B6A83F31088C04695
:104500007B688022202199507B6800221A667B6894
:1045100000229A66EFF310837B627B6A80243A194B
:1045200013600123BB62BB6A83F31088C0467B68BB
:104530001B681A687B681B6810218A431A603B1944
:104540001B68FB62FB6A83F31088C0467B6802220B
:104550005A663B181A887B681100180000F048F86A
:104560002CE0A423FB181B68802213400FD0A0234B
:10457000FB181B688022134009D07B68DB6E002B80
:104580001ED07B68DB6E7A681000984718E0A42381
:10459000FB181B684022134013D0A023FB181B6894
:1045A000402213400DD07B68180000F0B4FB08E0F7
:1045B000C04606E0C04604E0C04602E0C04600E057
:1045C000C046BD462BB090BDFFFEFFFFDFFEFFFFE4
:1045D00080B582B000AF7860C046BD4602B080BDF5
:1045E00080B582B000AF7860C046BD4602B080BDE5
:1045F00080B582B000AF78600A00BB1C1A80C0464C
:10460000BD4602B080BD000080B588B000AF7860C4
:104610001E23FB1800221A707B689A687B681B694E
:104620001A437B685B691A437B68DB6913437B61D0
:104630007B681B681B688D4A134019007B681B68E8
:104640007A690A431A607B681B685B68884A134072
:1046500019007B68DA687B681B680A435A607B68CC
:104660009B697B617B681B6A7A6913437B617B680A
:104670001B689B687F4A134019007B681B687A6936
:104680000A439A607B681B687B4A934227D17B4B25
:104690001B6B03221340032B0DD01BD8022B14D00D
:1046A00018D8002B02D0012B0AD013E01F23FB18CF
:1046B00000221A7021E01F23FB1802221A701CE04E
:1046C0001F23FB1804221A7017E01F23FB1808226F
:1046D0001A7012E01F23FB1810221A700DE07B687D
:1046E0001B68674A934204D11F23FB1800221A70EB
:1046F00003E01F23FB1810221A707B68DA698023FD
:104700001B029A425CD11F23FB181B78082B15D083
:1047100018DC042B0DD015DC002B02D0022B05D0A9
:1047200010E0FFF7B5FA0300BB6112E0554BBB6127
:104730000FE0FFF74DFA0300BB610AE080231B0284
:10474000BB6106E00023BB611E23FB1801221A7027
:10475000C046BB69002B00D17AE0BB695A007B6878
:104760005B685B08D2187B685B6819001000FCF777
:1047700005FD03003B613B690F2B1CD93A6980237F
:104780005B029A4217D23B699AB20E203B180F2166
:104790008A431A803B695B089BB20722134099B297
:1047A0003B183A1812880A431A807B681B683A182B
:1047B0001288DA604CE01E23FB1801221A7047E0D1
:1047C0001F23FB181B78082B15D018DC042B0DD0E9
:1047D00015DC002B02D0022B05D010E0FFF758FAB1
:1047E0000300BB6112E0274BBB610FE0FFF7F0F95C
:1047F0000300BB610AE080231B02BB6106E00023CB
:10480000BB611E23FB1801221A70C046BB69002B36
:104810001ED07B685B685A08BB69D2187B685B68EE
:1048200019001000FCF7AAFC03003B613B690F2B49
:104830000AD93A6980235B029A4205D23B699AB24F
:104840007B681B68DA6003E01E23FB1801221A70E4
:104850007B6800229A667B680022DA661E23FB18BA
:104860001B781800BD4608B080BDC046F369FFFF45
:10487000FFCFFFFFFFF4FFFF0038014000100240B0
:104880000044004000127A0080B582B000AF78602A
:104890007B685B6A082213400BD07B681B685B68EF
:1048A0004A4A134019007B685A6B7B681B680A43AD
:1048B0005A607B685B6A012213400BD07B681B68DF
:1048C0005B68434A134019007B689A6A7B681B68DF
:1048D0000A435A607B685B6A022213400BD07B68F4
:1048E0001B685B683B4A134019007B68DA6A7B6887
:1048F0001B680A435A607B685B6A042213400BD032
:104900007B681B685B68344A134019007B681A6B2C
:104910007B681B680A435A607B685B6A10221340FD
:104920000BD07B681B689B682C4A134019007B687E
:104930009A6B7B681B680A439A607B685B6A2022DB
:1049400013400BD07B681B689B68254A13401900F5
:104950007B68DA6B7B681B680A439A607B685B6ADA
:10496000402213401DD07B681B685B681D4A1340C2
:1049700019007B681A6C7B681B680A435A607B6865
:104980001A6C80235B039A420BD17B681B685B68BF
:10499000154A134019007B685A6C7B681B680A43F0
:1049A0005A607B685B6A802213400BD07B681B686F
:1049B0005B680E4A134019007B689A6C7B681B6821
:1049C0000A435A60C046BD4602B080BDFF7FFFFF6C
:1049D000FFFFFDFFFFFFFEFFFFFFFBFFFFEFFFFFFE
:1049E000FFDFFFFFFFFFEFFFFFFF9FFFFFFFF7FF6F
:1049F00080B592B002AF78607B6884220021995024
:104A0000FEF7EEF90300FB637B681B681B68082256
:104A10001340082B2CD1FB6B802291037868464A07
:104A20000092002200F08CF8031E21D0EFF31083D7
:104A30007B627B6ABB630123BB62BB6A83F3108822
:104A4000C0467B681B681A687B681B6880218A43A4
:104A50001A60BB6BFB62FB6A83F31088C0467B68FD
:104A60002022DA677B6878220021995403235FE0D3
:104A70007B681B681B6804221340042B46D1FB6B28
:104A80008022D10378682C4A0092002200F058F866
:104A9000031E3BD0EFF31083FB60FB687B630123B5
:104AA0003B613B6983F31088C0467B681B681A68CA
:104AB0007B681B6821490A401A607B6B7B617B69BC
:104AC00083F31088C046EFF31083BB61BB693B637F
:104AD0000123FB61FB6983F31088C0467B681B6878
:104AE0009A687B681B6801218A439A603B6B3B6232
:104AF0003B6A83F31088C0467B688022202199504E
:104B00007B68782200219954032311E07B682022DE
:104B1000DA677B688022202199507B6800221A6620
:104B20007B6800225A667B68782200219954002312
:104B30001800BD4610B080BDFFFFFF01DFFEFFFF84
:104B400080B584B000AFF860B9603B60FB1D1A709F
:104B500051E0BB6901334ED0FEF742F902003B68D9
:104B6000D31ABA699A4202D3BB69002B01D103233D
:104B700051E0FB681B681B68042213403BD0BB68F4
:104B8000802B38D0BB68402B35D0FB681B68DB69B5
:104B900008221340082B11D1FB681B6808221A62F7
:104BA000FB68180000F03CF8FB688422082199504B
:104BB000FB6878220021995401232CE0FB681B68D4
:104BC000DA6980231B011A4080231B019A4212D10B
:104BD000FB681B68802212011A62FB68180000F053
:104BE0001FF8FB68842220219950FB68782200215D
:104BF000995403230FE0FB681B68DB69BA68134014
:104C0000BA68D31A5A425341DBB21A00FB1D1B7813
:104C10009A429ED000231800BD4604B080BD00001B
:104C200080B58EB000AF7860EFF310837B617B6955
:104C30007B630123BB61BB6983F31088C0467B683B
:104C40001B681A687B681B6826490A401A607B6BE0
:104C5000FB61FB6983F31088C046EFF310833B626E
:104C60003B6A3B6301237B627B6A83F31088C04607
:104C70007B681B689A687B681B6801218A439A607D
:104C80003B6BBB62BB6A83F31088C0467B681B6EBC
:104C9000012B18D1EFF31083BB60BB68FB620123CB
:104CA000FB60FB6883F31088C0467B681B681A684A
:104CB0007B681B6810218A431A60FB6A3B613B6971
:104CC00083F31088C0467B688022202199507B683E
:104CD00000221A667B6800229A66C046BD460EB066
:104CE00080BDC046DFFEFFFF80B584B000AF7860B6
:104CF0007B685B6AFB60FB685A2200219952FB6863
:104D0000522200219952FB681800FFF769FCC04647
:104D1000BD4604B080BD80B586B000AF7860EFF3CB
:104D20001083BB60BB687B610123FB60FB6883F37E
:104D30001088C0467B681B681A687B681B68402126
:104D40008A431A607B693B613B6983F31088C046E4
:104D50007B682022DA677B680022DA667B681800AD
:104D6000FFF736FCC046BD4606B080BDF8B5C0466C
:104D7000F8BC08BC9E467047F8B5C046F8BC08BCF5
:044D80009E46704794
:104D84002F252525730A00006520706172697479E6
:104D94000000000065206261756400006F256325D2
:104DA4006C75202573000000483153342D50444C59
:104DB40031000000780000006520636C6F73656447
:104DC40000000000652068657800000069202573F4
:104DD400206F70656E3D256420666D743D256325E6
:104DE4006C752072783D256C752074783D256C7542
:104DF400206572723D256C752064726F703D256C60
:104E0400750000006520636D640000002000000050
:104E14000020202020202020202028282828282086
:104E2400202020202020202020202020202020207E
:104E340020881010101010101010101010101010E6
:104E440010040404040404040404041010101010D6
:104E540010104141414141410101010101010101A0
:104E640001010101010101010101010110101010F2
:104E74001010424242424242020202020202020272
:104E840002020202020202020202020210101010C6
:104E940020000000000000000000000000000000EE
:104EA40000000000000000000000000000000000FE
:104EB40000000000000000000000000000000000EE
:104EC40000000000000000000000000000000000DE
:104ED40000000000000000000000000000000000CE
:104EE40000000000000000000000000000000000BE
:104EF40000000000000000000000000000000000AE
:104F0400000000000000000000000000000000009D
:104F140000000000EA0F0008F00E0008F00E000880
:104F2400F00E0008F00E0008F00E0008F00E000865
:104F3400F00E0008F00E0008F00E0008F00E000855
:104F44004C0F0008040F0008F00E0008F00E0008D3
:104F5400F00E0008F00E0008040F0008F00E000820
:104F6400F00E0008F00E0008F00E0008660E0008AF
:104F74002C0F00087E0F0008F00E0008F00E000849
:104F8400600F0008F00E00082C0F0008F00E000857
:104F9400F00E0008F80F0008000000005010000098
:104FA40008110000091100000A110000231200007A
:104FB40068696A6B6C6D6E6F7071727374757677F5
:104FC400303132333435363738394142434445463B
:104FD400303132333435363738394142434445462B
:104FE40000000000000000000000000001020304B3
:104FF4000607080900000000010203040203040577
:10500400060708090A0B0C0D0E0F10100102030409
:1050140005060708090A0B0C0D0E0F10232D302B63
:1050240020000000686C4C00656667454647000038
:1050340030313233343536373839414243444546CA
:10504400000000003031323334353637383961628C
:085054006364656600000000C2
:04505C003501000812
:04506000090100083A
:105064000400002000000000E40300204C040020A1
:10507400B404002000000000000000000000000054
:10508400000000000000000000000000000000001C
:10509400000000000000000000000000000000000C
:1050A40000000000000000000000000000000000FC
:1050B4000008004800010000050000000100000095
:1050C4000000004800080000050000000200000085
:1050D4000014004840000000050000000300000028
:1050E40000000048008000000500000004000000EB
:1050F4000004004801000000050000000500000055
:105104000004004800040000050000000600000040
:1051140000080048800200000500000001000000B3
:10512400000000480011000005000000020000001B
:1051340000000048002000000500000003000000FB
:105144000014004880000000050000000300000077
:1051540000000048004000000500000004000000BA
:1051640000080048000400000500000004000000DE
:1051740000040048020000000500000005000000D3
:1051840000080048200000000500000005000000A1
:1051940000040048040800000500000006000000A8
:1051A400010000002F2F2048315334205357204C46
:1051B4006566740A000000000000000000000000A2
:1051C40000000000000000000000000000000000DB
:1051D40000000000000000000000000000000000CB
:1051E40000000000000000000000000000000000BB
:1051F40000000000000000000000000000000000AB
:105204000000000000000000010000000100000098
:105214004E00000000C20100ED1F0008ED1F000851
:10522400ED1F0008ED1F0008ED1F0008ED1F00082A
:10523400ED1F0008ED1F0008ED1F0008ED1F00081A
:10524400D1200008ED1F0008ED1F0008ED1F000825
:10525400ED1F0008ED1F0008ED1F0008ED1F0008FA
:10526400ED1F0008ED1F0008ED1F0008ED1F0008EA
:10527400ED1F0008ED1F0008ED1F0008ED1F0008DA
:10528400ED1F0008ED1F0008ED1F0008ED1F0008CA
:10529400ED1F0008ED1F0008ED1F0008ED1F0008BA
:1052A400ED1F0008ED1F0008ED1F0008ED1F0008AA
:1052B40089200008ED1F0008ED1F0008ED1F0008FD
:1052C400ED1F0008ED1F0008ED1F00084120000835
:1052D4002D200008752000081D2400084124000822
:1052E4006924000891240008B9240008E124000876
:1052F40009250008312500085925000881250008E2
:105304001920000861200008ED1F0008ED1F0008A7
:10531400ED1F00084D200008ED1F0008A925000816
:10532400D1250008F925000821260008492600088F
:1053340071260008ED1F0008ED1F0008ED1F00088E
:10534400ED1F0008ED1F0008ED1F0008ED1F000809
:10535400ED1F0008ED1F0008ED1F0008ED1F0008F9
:10536400ED1F0008ED1F0008ED1F0008ED1F0008E9
:10537400ED1F0008ED1F0008ED1F0008ED1F0008D9
:10538400ED1F0008ED1F0008ED1F0008ED1F0008C9
:10539400ED1F0008ED1F0008ED1F0008A9250008F7
:1053A400D1250008F925000821260008492600080F
:1053B40071260008ED1F0008E12100080122000801
:1053C40025220008492200086D22000891220008C5
:1053D400B5220008D9220008FD2200082123000874
:1053E40045230008692300088D230008B123000821
:1053F400D5230008F9230008ED1F0008ED1F00085D
:10540400ED1F0008ED1F00080D200008ED1F000827
:10541400F91F0008ED1F000800127A0004000000C4
:045424000100000083
:0400000508002CD9EA
:00000001FF
