:020000040800F2
:10000000002000202D260008712400087924000813
:1000100000000000000000000000000000000000E0
:100020000000000000000000000000008124000823
:1000300000000000000000008B2400089524000848
:100040007D2600087D2600087D2600087D26000804
:100050007D2600087D2600087D2600087D260008F4
:10006000000000007D2600087D2600087D2600088F
:100070007D2600087D2600087D2600087D260008D4
:10008000A52400087D2600087D2600087D2600089E
:10009000000000007D2600087D2600087D2600085F
:1000A0007D2600087D2600087D260008E52400083E
:0C00B000A12500087D26000800000000CB
:1000BC000448054B10B5834203D0044B002B00D0F1
:1000CC00984710BD50000020500000200000000098
:1000DC0006480749091A8B10C90FC91810B54910E1
:1000EC0003D0044B002B00D0984710BD50000020CB
:1000FC00500000200000000010B5074C2378002BA6
:10010C0009D1FFF7D5FF054B002B02D0044800E0C6
:10011C0000BF0123237010BD500000200000000020
:10012C0038660008054B10B5002B03D00449054870
:10013C0000E000BFFFF7CCFF10BDC0460000000080
:10014C00540000203866000870B50D4B0D4D5E1B39
:10015C00B610AB4205D0002408CD01349847A64216
:10016C00FAD806F063FA084B084D5E1BB610AB428A
:10017C0005D0002408CD01349847A642FAD870BDAA
:10018C00D86A0008D86A0008DC6A0008D86A000837
:10019C00F0B50500830749D0541E002A45D0030052
:1001AC000326CAB202E00135013C3ED301332A706A
:1001BC003342F8D1032C30D9FF220A401502AD1876
:1001CC002A04AD180F2C34D92700103F3F093E01EB
:1001DC00B4461E001A0010366644156055609560D2
:1001EC00D56010329642F8D101373F01DB190F2749
:1001FC000C22274022403C00002A0ED03E1FB6089D
:10020C00B400A4461A001C1D644420C2A242FCD1B6
:10021C0003240136B6009B193C40002C05D0C9B212
:10022C001C19197001339C42FBD1F0BD0300140062
:10023C00C0E72700E2E7C046002243088B4274D394
:10024C0003098B425FD3030A8B4244D3030B8B42CB
:10025C0028D3030C8B420DD3FF22090212BA030CD4
:10026C008B4202D31212090265D0030B8B4219D3B5
:10027C0000E0090AC30B8B4201D3CB03C01A5241D5
:10028C00830B8B4201D38B03C01A5241430B8B421D
:10029C0001D34B03C01A5241030B8B4201D30B0306
:1002AC00C01A5241C30A8B4201D3CB02C01A52412D
:1002BC00830A8B4201D38B02C01A5241430A8B42F0
:1002CC0001D34B02C01A5241030A8B4201D30B02D9
:1002DC00C01A5241CDD2C3098B4201D3CB01C01AF3
:1002EC00524183098B4201D38B01C01A52414309FD
:1002FC008B4201D34B01C01A524103098B4201D3EB
:10030C000B01C01A5241C3088B4201D3CB00C01A57
:10031C00524183088B4201D38B00C01A52414308CF
:10032C008B4201D34B00C01A5241411A00D20146F4
:10033C00524110467047FFE701B5002000F0F0F87D
:10034C0002BDC0460029F7D076E7704703460B4341
:10035C007FD4002243088B4274D303098B425FD3B2
:10036C00030A8B4244D3030B8B4228D3030C8B42DE
:10037C000DD3FF22090212BA030C8B4202D31212C4
:10038C00090265D0030B8B4219D300E0090AC30B99
:10039C008B4201D3CB03C01A5241830B8B4201D346
:1003AC008B03C01A5241430B8B4201D34B03C01A2F
:1003BC005241030B8B4201D30B03C01A5241C30AA7
:1003CC008B4201D3CB02C01A5241830A8B4201D318
:1003DC008B02C01A5241430A8B4201D34B02C01A02
:1003EC005241030A8B4201D30B02C01A5241CDD2A7
:1003FC00C3098B4201D3CB01C01A524183098B42F2
:10040C0001D38B01C01A524143098B4201D34B01DA
:10041C00C01A524103098B4201D30B01C01A52413D
:10042C00C3088B4201D3CB00C01A524183088B42C4
:10043C0001D38B00C01A524143088B4201D34B00AD
:10044C00C01A5241411A00D201465241104670471F
:10045C005DE0CA0F00D04942031000D34042534024
:10046C0000229C4603098B422DD3030A8B4212D3E4
:10047C00FC22890112BA030A8B420CD38901921116
:10048C008B4208D3890192118B4204D389013AD053
:10049C00921100E08909C3098B4201D3CB01C01A28
:1004AC00524183098B4201D38B01C01A524143093B
:1004BC008B4201D34B01C01A524103098B4201D329
:1004CC000B01C01A5241C3088B4201D3CB00C01A96
:1004DC00524183088B4201D38B00C01A5241D9D2AE
:1004EC0043088B4201D34B00C01A5241411A00D22F
:1004FC000146634652415B10104601D34042002B2B
:10050C0000D54942704763465B1000D3404201B5A9
:10051C00002000F005F802BD0029F8D016E770475E
:10052C007047C046002B11D1002A0FD1002900D1F1
:10053C00002802D00021C943080007B4024802A1D8
:10054C004018029003BDC046D9FFFFFF03B46846B4
:10055C0001B5029800F006F8019B9E4602B00CBC57
:10056C007047C046F0B557464E464546DE46E0B5A8
:10057C0004000D009246994683B08B4230D82DD0A2
:10058C004946504600F0BAF829000600200000F059
:10059C00B5F8331A9846203B34D49B4653465A46FA
:1005AC00934042461F00534693401E00AF423BD837
:1005BC00AF4200D179E05B46A41BBD41002B00DAB1
:1005CC0076E0002200230092019301235A469340C7
:1005DC000193012342469340009329E08242CFD9F4
:1005EC0000220023009201930C9B002B01D01C6075
:1005FC005D600098019903B0F0BCBB46B246A946B9
:10060C00A046F0BD42469B4620239B1A5246DA4038
:10061C00414613004A468A40170042461F43534640
:10062C0093401E00AF42C3D90022002300920193D5
:10063C004346002BD8D0FB0772081A4346467B086A
:10064C000EE0AB4201D1A2420CD8A41A9D4101206C
:10065C0024196D410021013E24184D41002E06D075
:10066C00AB42EED9013E24196D41002EF8D1009811
:10067C0001995B4600196941002B24DB2B005A467B
:10068C004646D3402A001C00F2405B461500002B66
:10069C002ADB26009E40330026004746BE4032002F
:1006AC00801A9941009001919EE7A342BCD882E741
:1006BC004246202300219B1A002200910192012224
:1006CC00DA40019285E7424620239B1A2A004646CF
:1006DC009A402300F340464613432A001C00F24084
:1006EC005B461500002BD4DA202342462F009B1BBF
:1006FC0097402600DE403B003343CDE710B5002980
:10070C0003D100F007F8203002E0080000F002F8F6
:10071C0010BDC0461C2101231B04984201D3000CC0
:10072C0010391B0A984201D3000A08391B09984258
:10073C0001D30009043902A2105C40187047C0466E
:10074C00040302020101010100000000000000008E
:10075C0080B500AF1C4B1B78002B31D01B4B1B788A
:10076C00042B13D180239B0019480122190002F09D
:10077C006CFB3A2000F050F80A2000F04DF83A20BB
:10078C0001F0AEF80A2001F0ABF816E00F4B1B7825
:10079C00002B12D180239B000D480022190002F07F
:1007AC0054FB2E2000F038F80A2000F035F82E20EB
:1007BC0001F096F80A2001F093F8034B00221A700E
:1007CC00C046BD4680BDC046250200202402002044
:1007DC000004005080B584B000AF78600023FB604B
:1007EC000823FB1800221A6002E0FB680133FB604F
:1007FC00FB687A68D3181B78002BF6D1FB689AB289
:10080C00FA239B007968034804F020FCC046BD46DF
:10081C0004B080BD0401002080B584B000AF02009C
:10082C00FB1D1A700C217B18FA1D12781A70FA2312
:10083C009B0079180348012204F008FCC046BD4611
:10084C0004B080BD0401002080B582B000AF3B1D18
:10085C00074A12781A70391D06486423012204F0E5
:10086C00A1FC3B1D1B781800BD4602B080BDC046E4
:10087C00F06600080401002080B500AF064B1B6831
:10088C00DB6920221340202B01D1012300E000233F
:10089C001800BD4680BDC0460401002080B500AFE5
:1008AC00054B1B68DB6910221340103B5A42534125
:1008BC00DBB21800BD4680BD0401002080B584B0B9
:1008CC0000AF0200FB1D1A700C217B18FA1D127868
:1008DC001A70FA239B0079180348012204F0B6FB26
:1008EC00C046BD4604B080BD9401002080B582B0E6
:1008FC0000AF3B1D074A12781A70391D0648642355
:10090C00012204F04FFC3B1D1B781800BD4602B0C1
:10091C0080BDC046F06600089401002080B500AF91
:10092C00064B1B68DB6920221340202B01D10123CD
:10093C0000E000231800BD4680BDC0469401002095
:10094C0080B500AF054B1B68DB6910221340103BD0
:10095C005A425341DBB21800BD4680BD94010020C1
:10096C0080B582B000AF786039607B681B130F22B2
:10097C001340114AD25C3B681A707B681B120F2221
:10098C001A403B6801330C498A5C1A707B681B1156
:10099C000F221A403B68023307498A5C1A707B6845
:1009AC000F221A403B68033303498A5C1A70C04615
:1009BC00BD4602B080BDC0465C69000880B500AF82
:1009CC000C4B1800FFF706FF0B4B1800FFF702FF4C
:1009DC000A20FFF721FF094B1800FFF7FBFE084B1D
:1009EC001800FFF7F7FE0A20FFF716FFC046BD46BA
:1009FC0080BDC046F46600080C6700081467000848
:100A0C002C67000880B500AF144B00221A60144B01
:100A1C0000221A7019E0FFF72FFF0300012B14D1ED
:100A2C00FFF712FF03001A000D4B1A700B4B1B68DB
:100A3C000B4A11780B4AD154084B1B685A1C074BB4
:100A4C001A60094B1B6820221A62054B1B780A2B73
:100A5C00E1D1C046C046BD4680BDC046DC03002087
:100A6C0000000020280200200401002080B500AF07
:100A7C00FFF73CFF404B1800FFF7ACFEFFF79EFF63
:100A8C003E4B00221A6067E03C4B1B683C4AD35C2F
:100A9C001A003C4B1A603B4B1B681B110F221A406F
:100AAC00394B1A60374B1B68384A11001800FFF796
:100ABC0057FF00F07FF90A2000F070F92F4B1A68ED
:100ACC00334B9200D3589847642000F067F9314BB0
:100ADC001B6820221A627F20FFF7F0FE2E4B1800B5
:100AEC0000F0C0F902002D4B1A602C4B1B68022B36
:100AFC000FD013DC002B02D0012B05D00EE0284BBD
:100B0C001800FFF767FE09E0264B1800FFF762FE9E
:100B1C0004E0254B1800FFF75DFEC046174B1A6822
:100B2C00224B9200D3581800FFF754FE174B9B78BA
:100B3C001800FFF771FE5320FFF76EFE134BDB78A6
:100B4C001800FFF769FE1A4B1800FFF743FE0B4B1A
:100B5C001B685A1C094B1A60084B1B68072B93D94E
:100B6C0000F028F90A2000F019F9124B1800FFF7D1
:100B7C0031FEC046BD4680BD34670008DC03002052
:100B8C006C690008D8030020D4030020C4030020A3
:100B9C002400002094010020F0FF0700E003002057
:100BAC004C6700085C6700086C67000804000020B4
:100BBC007C6700088067000880B500AF80231B02AB
:100BCC000C480122190002F040F98023DB0109488E
:100BDC000022190002F039F9012000F0DFF880231F
:100BEC00DB0104480122190002F02FF9C046BD4672
:100BFC0080BDC0460008005080B500AFA023DB05C7
:100C0C0001220221180002F020F9A023DB050022AA
:100C1C000121180002F019F9012000F0BFF8A023FF
:100C2C00DB0501220121180002F00FF9C046BD4678
:100C3C0080BD80B500AFA023DB0501228021180008
:100C4C0002F003F9A023DB0500224021180002F07A
:100C5C00FCF8012000F0A2F8A023DB0501224021C2
:100C6C00180002F0F2F8C046BD4680BD80B500AF5A
:100C7C008023DB000B480122190002F0E6F8094B37
:100C8C0000220421180002F0E0F8012000F086F8A0
:100C9C00044B01220421180002F0D7F8C046BD46CF
:100CAC0080BDC0460004005080B500AF8023DB013E
:100CBC000C480122190002F0C8F880239B01094856
:100CCC000022190002F0C1F8012000F067F880231F
:100CDC009B0104480122190002F0B7F8C046BD463A
:100CEC0080BDC0460004005080B500AF0B4B012204
:100CFC008021180002F0A9F8084B002240211800AE
:100D0C0002F0A3F8012000F049F8044B0122402125
:100D1C00180002F09AF8C046BD4680BD000800508D
:100D2C0080B500AF0D4B01220121180002F08DF8A7
:100D3C0080231902A023DB050022180002F085F89D
:100D4C00012000F02BF880231902A023DB050122DF
:100D5C00180002F07AF8C046BD4680BD000C005069
:100D6C0080B500AF0B4B01220821180002F06DF882
:100D7C00094B00220821180002F067F8012000F04E
:100D8C000DF8054B01220821180002F05EF8C04650
:100D9C00BD4680BD00040050000C005080B582B0F0
:100DAC0000AF78607B68180001F0EAFCC046BD46D5
:100DBC0002B080BD80B500AF204B0122802118000D
:100DCC0002F043F81E491F4B0022180002F03DF8B8
:100DDC001D49A023DB050022180002F036F81B4940
:100DEC00164B0022180002F030F8194B0022082193
:100DFC00180002F02AF81749124B0022180002F0D2
:100E0C0024F81549A023DB050022180002F01DF878
:100E1C0012490A4B0022180002F017F8104B00225E
:100E2C000221180002F011F8094B002205211800CC
:100E3C0002F00BF8C046BD4680BDC0460004005011
:100E4C0040400000000800504180000004200000D9
:100E5C00000C005080800000A21100002A540000F9
:100E6C000014005080B584B000AF78600F23FB18DD
:100E7C0001221A7018E0FFF751FD0300012B10D16D
:100E8C00FFF734FD0300792B04D10E4B01221A70AD
:100E9C00002312E00B4B00221A700F23FB180222C6
:100EAC001A707B68013B7B607B68002BE3D1054BA0
:100EBC0000221A700F23FB181B781800BD4604B0D3
:100ECC0080BDC046C903002080B584B000AF7860F7
:100EDC000F23FB1801221A701BE0FFF71FFD030004
:100EEC0019000F22BB18BA1812781A70012910D1E8
:100EFC00FFF7FCFC0300792B04D10C4B01221A7078
:100F0C0000230FE0094B00221A700F23FB1802225A
:100F1C001A707B68002BE0D1044B00221A700F234F
:100F2C00FB181B781800BD4604B080BDC903002017
:100F3C0080B582B000AF0200FB1D1A70BB1D0A1CED
:100F4C001A70FB1D1B78074AD35C1B01DAB2BB1D60
:100F5C001B780449CB5CD318DBB21800BD4602B039
:100F6C0080BDC0467469000890B585B000AFAF4B2A
:100F7C0000221A60AE4B00221A704BE12320FFF7BF
:100F8C004BFC0A20FFF748FCFFF73CFDA94B1B78F4
:100F9C003A2B00D044E1A74BDA79A64B1B7A190007
:100FAC001000FFF7C5FF03001A00A34B1A70A24BE9
:100FBC001B78042B00D1C3E000DD25E1002B03D00E
:100FCC00012B00D106E11FE19C4B1B78002B00D1BB
:100FDC001FE10023FB60312000F082FCCE2000F0EA
:100FEC007FFC974B1800FFF73DFF02008F4B1B68EF
:100FFC00D2188E4B1A60934B1A78934B1A70914BF4
:10100C005A78914B5A708B4BDA788A4B1B791900B2
:10101C001000FFF78DFF03001A008B4B9A70854B65
:10102C005A79844B9B7919001000FFF781FF03005C
:10103C001A00854BDA70844B1A78834B5B785340DB
:10104C00DAB2814B9B785340DAB27F4BDB7853405A
:10105C00DAB27D4B1A71052000F086FA784B180035
:10106C00FFF700FF0200714B1A60724B5A78714BFC
:10107C009B7819001000FFF75BFF0300013BDAB20D
:10108C00714B1A700023BB6017E0BB680933694AC7
:10109C00D05CBB680A33674AD25CBB68002B00DAB1
:1010AC0001335B105C1C1100FFF742FF03001A00B8
:1010BC00654B1A55BB680233BB60634B1B785B00F6
:1010CC00BA689A42E1DD604B1B78FB6000237B60C1
:1010DC000AE07B6801335C4AD35C1A00FB6853401E
:1010EC00FB607B6801337B60574B1B781A007B6875
:1010FC009342EEDD544B1B780233FA68D1B2524A5C
:10110C00D154514B1B780333DBB2180000F02CFA8E
:10111C004B4B1800FFF7A6FE0200444B1A60434BE2
:10112C001B68002B04D1494B1800FFF753FB70E0F0
:10113C00474B1800FFF74EFB464B01221A7068E034
:10114C003E4B01221A70444B1800FFF743FB394BFE
:10115C005A7A384B9B7A19001000FFF7E9FE03000E
:10116C001A00384B1A70334BDA7A324B1B7B19004E
:10117C001000FFF7DDFE03001A00324B5A702D4BA6
:10118C001A792C4B9B7919001000FFF7D1FE030044
:10119C001A00324B1A70324B1A78304B1B789A4229
:1011AC0013D0FFF707FE0A20FFF7F8FD2B4B1B7837
:1011BC001A000F2313405A1E2A4B9200D3589847FB
:1011CC006420FFF7EBFD00F057F8244B1A78244B02
:1011DC001A701FE0244B1800FFF7FCFA1D4B1B780C
:1011EC00002B04D1214B1800FFF7F4FA03E0204B3D
:1011FC001800FFF7EFFA0E4B01221A70FFF7DAFD19
:10120C000A20FFF7CBFD05E01A4B1800FFF7E2FAB6
:10121C0000E0C046064B1B78002B00D1AEE600E088
:10122C00C046C046BD4605B090BDC046E003002098
:10123C00CA0300202802002027020020C903002036
:10124C00F0FFFF7FD00300208C0200209C67000879
:10125C00B8670008CB030020D0670008CC0300203F
:10126C00CD03002024000020F46700081868000853
:10127C00486800088468000880B500AF7F2000F043
:10128C002FFB124B1800FFF71FFE031E19D1442031
:10129C0000F026FBBB2000F023FB0C4B1800FFF7E3
:1012AC0013FE031E0FD1FF2000F01AFBFF2000F0ED
:1012BC0017FB002000F014FB044B1800FFF704FE92
:1012CC0002E0C04600E0C046BD4680BDF0FFFF7F97
:1012DC0080B500AFC04680239B01054A1900100061
:1012EC0001F096FD031EF6D0C046C046BD4680BD3B
:1012FC000008005080B500AF974B002280211800E9
:10130C0001F0A3FD954B1B78002B01D000F08EFA59
:10131C00934B0121180001F07BFD031E17D1FFF741
:10132C00D7FF8F4B01220221180001F08EFDC04621
:10133C008B4B0121180001F06BFD031EF8D0884B7C
:10134C0000220221180001F080FDFFF7C1FFA0234D
:10135C00DB051021180001F05BFD031E1AD1FFF70D
:10136C00B7FFA023DB0501222021180001F06DFD41
:10137C00C046A023DB051021180001F049FD031E17
:10138C00F7D0A023DB0500222021180001F05DFD21
:10139C00FFF79EFF704B0121180001F039FD031E71
:1013AC0017D1FFF795FF6C4B01220221180001F0B9
:1013BC004CFDC046684B0121180001F029FD031EAD
:1013CC00F8D0654B00220221180001F03EFDFFF71A
:1013DC007FFF80231B01604A1900100001F018FDEB
:1013EC00031E1BD1FFF774FF80235B015A480122B7
:1013FC00190001F02AFDC04680231B01564A190032
:10140C00100001F005FD031EF6D080235B0152484D
:10141C000022190001F019FDFFF75AFF80231B026F
:10142C004D4A1900100001F0F3FC031E1DD1FFF70B
:10143C004FFF80235900A023DB050122180001F087
:10144C0004FDC04680231B02434A1900100001F022
:10145C00DFFC031EF6D080235900A023DB050022FD
:10146C00180001F0F2FCFFF733FF80231A01A023D0
:10147C00DB051100180001F0CBFC031E1ED1FFF799
:10148C0027FF80235901A023DB050122180001F05E
:10149C00DCFCC04680231A01A023DB0511001800D8
:1014AC0001F0B6FC031EF5D080235901A023DB0507
:1014BC000022180001F0C9FCFFF70AFF294B02219A
:1014CC00180001F0A5FC031E17D1FFF701FF254BF7
:1014DC0001220421180001F0B8FCC046214B022166
:1014EC00180001F095FC031EF8D01E4B00220421BD
:1014FC00180001F0AAFCFFF7EBFE174B10211800A7
:10150C0001F086FC031E17D1FFF7E2FE124B0122FD
:10151C002021180001F099FCC0460F4B1021180037
:10152C0001F076FC031EF8D00B4B00222021180092
:10153C0001F08BFCFFF7CCFE084B1B78002B01D085
:10154C0000F074F9044B01228021180001F07DFC9D
:10155C00C046BD4680BDC04600040050C0030020FC
:10156C0000140050000C005080B582B000AF020097
:10157C00FB1D1A700D4B00221A600BE00B4B1B6805
:10158C000B4AD35C180000F0ABF9084B1B685A1CD3
:10159C00064B1A60FB1D1A78044B1B689A42EDDC53
:1015AC00C046C046BD4602B080BDC046DC0300202C
:1015BC008C02002080B582B000AF0200FB1D1A70B7
:1015CC00FB1D1B782F2B07D9FB1D1B78392B03D840
:1015DC00FB1D1B78303B19E0FB1D1B78402B07D9FA
:1015EC00FB1D1B78462B03D8FB1D1B78373B0DE0EE
:1015FC00FB1D1B78602B07D9FB1D1B78662B03D8B2
:10160C00FB1D1B78573B01E001235B421800BD46D4
:10161C0002B080BD80B582B000AF214B1B78002B8F
:10162C003AD0204B1B783E2B29D11E4B5B781800EF
:10163C00FFF7C0FF03007B601A4B9B781800FFF785
:10164C00B9FF03003B607B68002B0EDB3B68002B73
:10165C000BDB7B685BB21B015AB23B685BB213437A
:10166C005BB2DBB2180000F035F80D4B00221A709B
:10167C002B20FFF7D1F80A20FFF7CEF80CE000F092
:10168C00FDF8C046FFF75CF9031EFBD02B20FFF7DB
:10169C00C3F80A20FFF7C0F8BD4602B080BDC046B3
:1016AC0058030020F402002080B500AF054B1B78D6
:1016BC00002B04D000F008F8024B00221A70C04630
:1016CC00BD4680BDF002002080B500AFC046BD46CF
:1016DC0080BD000080B582B000AF0200FB1D1A7007
:1016EC00FB1D1B781F2B02D9FB1D1F221A70084BE8
:1016FC00FA1D12781A70064B1B781A00054B9200D3
:10170C00D258054B5A63C046BD4602B080BDC04698
:10171C0001000020DC6800080044014080B500AFE7
:10172C000A4B1B781E2B05D8084B1B780133DAB2F9
:10173C00064B1A70054B1B781A00054B9200D258B9
:10174C00044B5A63C046BD4680BDC0460100002014
:10175C00DC6800080044014080B500AF0A4B1B78E0
:10176C00002B05D0084B1B78013BDAB2064B1A70E4
:10177C00054B1B781A00054B9200D258044B5A6348
:10178C00C046BD4680BDC04601000020DC68000894
:10179C000044014080B582B000AF01237B60002380
:1017AC003B601F4B1B681A681D4B1B6820218A432A
:1017BC001A6072B6C0467E2000F092F8C046FFF761
:1017CC0043F803001B023B60C046FFF73DF80300E3
:1017DC001A003B689B183B600DE0FFF735F80300DF
:1017EC001A00104B1A700F4B1B78180000F078F889
:1017FC007B6801337B607A683B689A42EDDD0A4B6B
:10180C0000221A70064B1B681A68054B1B682021B6
:10181C000A431A6062B6C046C046BD4602B080BDDF
:10182C0004010020000000202602002080B582B0B8
:10183C0000AF0F4B00221A7000237B600DE00D4AA5
:10184C007B68D3181A780A4B1A707B6801337B605B
:10185C00074B1B781800FEF7DFFF054B1B780A2B94
:10186C00EDD1054B00221A70C046BD4602B080BDBA
:10187C00000000205C030020C003002080B582B073
:10188C0000AF134B00221A7000237B60114B1B78A6
:10189C007E2B11D1104B01221A7011E00D4A7B687E
:1018AC00D3181A780A4B1A707B6801337B60084B8B
:1018BC001B78180000F014F8054B1B780A2BEDD19F
:1018CC00064B00221A70C046BD4602B080BDC04611
:1018DC0000000020F4020020260200205803002003
:1018EC0080B582B000AF0200FB1D1A70FB1D1B7887
:1018FC001800FEF7E3FFC046FFF722F8031EFBD0EB
:10190C00C046C046BD4602B080BD000080B500AFE9
:10191C0080231B0235480022190001F096FA80231F
:10192C00DB0132480122190001F08FFAA023DB05FC
:10193C0000220221180001F088FAA023DB05012205
:10194C000121180001F081FAA023DB05002280217F
:10195C00180001F07AFAA023DB05012240211800BF
:10196C0001F073FA8023DB0021480022190001F0FA
:10197C006CFA1F4B01220421180001F066FA802337
:10198C00DB011B480022190001F05FFA80239B0148
:10199C0017480122190001F058FA144B002280213B
:1019AC00180001F052FA114B01224021180001F0ED
:1019BC004CFA104B00220121180001F046FA80234A
:1019CC001902A023DB050122180001F03EFA084B96
:1019DC0000220821180001F038FA064B01220821D8
:1019EC00180001F032FAC046BD4680BD0008005018
:1019FC0000040050000C005080B500AFFFF7DAF97E
:101A0C00174B1B6898476420FFF7C8F9154B1B68E8
:101A1C0020221A62144B1B6820221A627F20FEF7C8
:101A2C00FBFEFEF729FF031E0AD0FEF70DFF030095
:101A3C001800FEF743FFC046FEF782FF031EFBD0E3
:101A4C00FEF76CFF031EECD0FEF750FF03001800EE
:101A5C00FEF7E2FEC046FEF721FF031EFBD0E0E7D7
:101A6C0024000020040100209401002080B500AF68
:101A7C0000F000FE00F084F800F058FA00F04CF989
:101A8C0000F0D2F900F01EFA00F0F0F8FFF792F92E
:101A9C00FEF7B8FF314B1B782B2B1DD02F4B1B782F
:101AAC00242B02D1FEF7E2FFF2E72C4B1B78232B01
:101ABC0002D1FFF759FAEBE7284B1B78402B02D1E8
:101ACC00FFF79AFFE4E7254B1B783F2BE0D1244B23
:101ADC001800FEF77FFEDBE7C046224B0021180002
:101AEC0002F06CF9204B180002F0B4F8FFF70EFF6F
:101AFC001E4B1800FEF76EFE1D4B1800FEF76AFE1B
:101B0C00FEF7A2FEFEF7F2FE1A4B1B681A68194B81
:101B1C001B6820210A431A60174B1B681A68164B66
:101B2C001B6820210A431A60FFF7D2FBFEF710FE58
:101B3C00FFF7CEFBFFF7DEFBFFF7CAFBFFF76AFDF3
:101B4C00FFF7C6FBFFF7B0FDFFF7C2FB0B4B1B7893
:101B5C00002BE9D0FFF71EFEE6E7C0462802002066
:101B6C0090680008B80000206C000020AC680008E9
:101B7C00CC680008040100209401002026020020FB
:101B8C0090B59DB000AF38243B19180038231A00CB
:101B9C000021FEF7FDFA2823FB18180010231A0069
:101BAC000021FEF7F5FA3B00180028231A0000214B
:101BBC00FEF7EEFA80239B00180001F063F93B1945
:101BCC0002221A603B1980225200DA6021007B1835
:101BDC0000221A617B1840225A617B180222DA61BA
:101BEC007B1802221A627B1800225A627B18082288
:101BFC009A627B1880229202DA627B18802292040D
:101C0C001A637B18802292055A637B18180001F026
:101C1C0085F9031E01D000F0D5FA28217B18072284
:101C2C001A607B1802225A607B1800229A607B187B
:101C3C000022DA607B180221180001F08FFC031ED1
:101C4C0001D000F0BFFA3B0001221A603B000022D9
:101C5C005A603B00180001F02BFE031E01D000F06F
:101C6C00B1FAC046BD461DB090BD000080B588B02D
:101C7C0000AF1023FB18180010231A000021FEF7E8
:101C8C0087FA3B1D18000C231A000021FEF780FA7E
:101C9C001E4B1F4A1A601D4B3D225A601B4B0022E3
:101CAC009A601A4B1B4ADA60184B00221A61174BC8
:101CBC0080229A61154B180001F074FF031E01D0AD
:101CCC0000F080FA10217B18802252011A607A18D9
:101CDC000E4B1100180002F077FB031E01D000F030
:101CEC0071FA3B1D00221A603B1D00229A603A1DBE
:101CFC00064B1100180003F02DF8031E01D000F064
:101D0C0061FAC046BD4608B080BDC0466C000020DC
:101D1C0000040040FFFF000080B594B000AF3423F6
:101D2C00FB1818001C231A000021FEF731FA3B00A7
:101D3C00180034231A000021FEF72AFA384B394ACE
:101D4C001A60374B00225A60354B00229A60344B94
:101D5C00A0221201DA60324B00221A61304B0022B1
:101D6C005A612F4B80229A612D4B180001F01AFFFB
:101D7C00031E01D000F026FA294B180001F0BEFF1B
:101D8C00031E01D000F01EFA34217B1860221A6069
:101D9C007B18CC225A607B1800229A607B18002298
:101DAC00DA607B1800221A617B1800225A617B18BA
:101DBC0000229A6179181A4B0022180002F00EFAD0
:101DCC00031E01D000F0FEF93B0000221A603B001C
:101DDC0000225A603B0000229A603B000022DA602D
:101DEC003B0000221A613B00802292015A613B00A9
:101DFC0000229A613B0000221A633A00084B110042
:101E0C00180003F00FF8031E01D000F0DBF9044BAF
:101E1C00180000F03DFAC046BD4614B080BDC04667
:101E2C00B80000200044014080B500AF234B244A89
:101E3C001A60224BE12252025A60204B00229A6017
:101E4C001E4B0022DA601D4B00221A611B4B0C2228
:101E5C005A611A4B00229A61184B0022DA61174B17
:101E6C0000221A62154B00225A62144B00229A620D
:101E7C00124B180003F094F8031E01D000F0A2F9E5
:101E8C000E4B0021180004F0F1FA031E01D000F0F3
:101E9C0099F90A4B0021180004F028FB031E01D00D
:101EAC0000F090F9054B180004F0A3FA031E01D0C2
:101EBC0000F088F9C046BD4680BDC0460401002034
:101ECC000038014080B500AF164B174A1A60154B0D
:101EDC00E12252025A60134B00229A60114B0022ED
:101EEC00DA60104B00221A610E4B0C225A610D4B1A
:101EFC0000229A610B4B0022DA610A4B00221A6213
:101F0C00084B00225A62074B00229A62054B1800BC
:101F1C0003F046F8031E01D000F054F9C046BD464C
:101F2C0080BDC046940100200044004090B58BB0A9
:101F3C0000AF14243B19180014231A000021FEF7DB
:101F4C0027F9914B5A6B904B04210A435A638E4BE1
:101F5C005B6B042213403B613B698B4B5A6B8A4B86
:101F6C0020210A435A63884B5B6B20221340FB6091
:101F7C00FB68854B5A6B844B01210A435A63824B95
:101F8C005B6B01221340BB60BB687F4B5A6B7E4B73
:101F9C0002210A435A637C4B5B6B022213407B6029
:101FAC007B68794B5A6B784B08210A435A63764B02
:101FBC005B6B082213403B603B687449744B0122F5
:101FCC00180000F042FF7349714B0022180000F01A
:101FDC003CFF714B00220221180000F036FF6F49C4
:101FEC00A023DB050122180000F02FFF6C49A02371
:101FFC00DB050022180000F028FF6A496A4B00221A
:10200C00180000F022FF6949674B0122180000F00C
:10201C001CFF674B00220521180000F016FF644BD3
:10202C0001220821180000F010FF3B1980229201B8
:10203C001A603B1900225A603B1901229A603B1925
:10204C00534A1900100000F07FFD3B19594A1A60E1
:10205C003B1901225A603B1900229A603B1900225D
:10206C00DA603B194A4A1900100000F06DFD3B196B
:10207C0001221A603B1900225A603B1901229A6016
:10208C003B19454A1900100000F05EFD3B19022275
:10209C001A603B1901225A603B1900229A603B19C5
:1020AC000022DA603B193C4A1900100000F04CFD8C
:1020BC003B19414A1A603B1901225A603B19002214
:1020CC009A603B190022DA603A19A023DB05110053
:1020DC00180000F039FD3B19812212011A603B19DE
:1020EC0000225A603B1901229A603A19A023DB05A1
:1020FC001100180000F028FD3B19304A1A603B19FA
:10210C0000225A603B1901229A603B19264A190099
:10211C00100000F019FD3B19294A1A603B190122E5
:10212C005A603B1900229A603B190022DA603B1975
:10213C001D4A1900100000F007FD3B190D221A6012
:10214C003B1901225A603B1900229A603B1900226C
:10215C00DA603B19164A1900100000F0F5FC21005A
:10216C007B1802221A607B1800225A607B1801220D
:10217C009A607B180E4A1900100000F0E5FCC0466E
:10218C00BD460BB090BDC046001002404040000060
:10219C0000080050808000000014005041800000B6
:1021AC00A21100002A5400000004005084220000F8
:1021BC00000C0050C0C00000E3910000118800002A
:1021CC00AE76000080B500AF72B6C046C046FDE7E3
:1021DC0080B582B000AF0F4B1A6C0E4B01210A4335
:1021EC001A640C4B1B6C012213407B607B68094BFF
:1021FC00DA6B084B802149050A43DA63054BDA6B2D
:10220C0080235B0513403B603B68C046BD4602B073
:10221C0080BDC0460010024080B584B000AF78602D
:10222C007B681B68174A934214D1174BDA6B164B19
:10223C0002210A43DA63144BDB6B02221340FB606E
:10224C00FB6800220021102000F07CFB102000F025
:10225C008EFB12E07B681B680C4A93420DD10A4B33
:10226C001A6C094B802189020A431A64064B1A6CBA
:10227C0080239B021340BB60BB68C046BD4604B0C4
:10228C0080BDC046000400400010024000440140E4
:10229C0090B589B000AF78600C243B19180014235A
:1022AC001A000021FDF774FF7B681B68144A9342E7
:1022BC0022D1144B5A6B134B02210A435A63114B14
:1022CC005B6B02221340BB60BB683B19802252003F
:1022DC001A6021007B1802225A607B1800229A6037
:1022EC007B180022DA607B1802221A617B18064ADE
:1022FC001900100000F028FCC046BD4609B090BD86
:10230C0000440140001002400004005090B58DB014
:10231C0000AF78601C243B19180014231A0000210C
:10232C00FDF736FF7B681B684B4A93423AD14B4B07
:10233C001A6C4A4B8021C9010A431A64474B1A6C28
:10234C008023DB011340BB61BB69444B5A6B434B8D
:10235C0001210A435A63414B5B6B012213407B61A1
:10236C007B693B19C022D2001A6021007B18022223
:10237C005A607B1800229A607B180022DA607B1866
:10238C0001221A617A18A023DB051100180000F055
:10239C00DBFB002200211B2000F0D4FA1B2000F0F4
:1023AC00E6FA54E07B681B682D4A93424FD12B4BC5
:1023BC00DA6B2A4B802189020A43DA63274BDA6BEA
:1023CC0080239B0213403B613B69244B5A6B234B8C
:1023DC0001210A435A63214B5B6B01221340FB60C2
:1023EC00FB681C243B1904221A603B1902225A6018
:1023FC003B1900229A603B190022DA603B1901223A
:10240C001A613A19A023DB051100180000F09CFB9F
:10241C0021007B1808221A607B1802225A607B1854
:10242C0001229A607B180022DA607B1801221A6163
:10243C007A18A023DB051100180000F085FB0022A0
:10244C0000211C2000F07EFA1C2000F090FAC046FF
:10245C00BD460DB090BDC046003801400010024092
:10246C000044004080B500AFC046FDE780B500AF2A
:10247C00C046FDE780B500AFC046BD4680BD80B507
:10248C0000AFC046BD4680BD80B500AF00F05CF922
:10249C00C046BD4680BD000080B500AF0B4B1B781D
:1024AC000133DAB2094B1A70084B1B780722134020
:1024BC00DAB2064B1A70064B01221A70054B180043
:1024CC0001F05AFDC046BD4680BDC0462402002026
:1024DC00250200206C00002080B582B000AF3CE0EB
:1024EC00264B5A6AFB1D1A70254B1B781900254B7D
:1024FC00FA1D12785A54224B1B780133DAB2204B56
:10250C001A701F4B1B78632B02D91D4B00221A70BB
:10251C00FB1D1B785E2B18D01EDC2A2B19D01BDC64
:10252C000A2B05D018DC032B09D0042B0AD013E09E
:10253C00134B00221A70144B01221A700DE0FFF796
:10254C00EDF80AE0FFF708F907E0104B01221A70CA
:10255C0003E000F01CFA00E0C046084BDB692022C7
:10256C001340BDD1054B0F221A62094B180002F023
:10257C000BFFC046BD4602B080BDC04600380140CE
:10258C00E4030020F402002058030020F002002095
:10259C000401002080B582B000AF21E0184B5A6ACC
:1025AC00FB1D1A70174B1B78632B02D9154B00229D
:1025BC001A70144B1B781900134BFA1D12785A54CD
:1025CC00104B1B780133DAB20E4B1A70FB1D1B78C3
:1025DC000A2B05D10B4B00221A700C4B01221A70DE
:1025EC00074BDB6920221340D8D1054B0F221A620E
:1025FC00074B180002F0C8FEC046BD4602B080BDB5
:10260C0000440040E50300205C030020C0030020D0
:10261C009401002080B500AFC046BD4680BD0000CF
:10262C000D488546FFF7F6FF0C480D490D4A00236F
:10263C0002E0D458C4500433C4188C42F9D30A4A6B
:10264C000A4C002301E013600432A242FBD3FDF7D5
:10265C007BFDFFF70BFAFEE70020002000000020B6
:10266C0050000020E06A000850000020EC0300201D
:10267C00FEE7000080B582B000AFFB1D00221A708F
:10268C000B4B1A680A4B802149000A431A6003203D
:10269C0000F010F8031E03D0FB1D01221A7001E09C
:1026AC00FFF796FDFB1D1B781800BD4602B080BDE0
:1026BC000020024090B585B000AF78600F23FB1866
:1026CC0000221A701D4B1B78002B2BD01C4B1C6846
:1026DC001A4B1B781900FA239800FDF7ADFD030087
:1026EC0019002000FDF7A8FD0300180000F053F9B5
:1026FC00031E12D17B68032B0AD8796801235B4235
:10270C000022180000F01EF90E4B7A681A600DE0DA
:10271C000F23FB1801221A7008E00F23FB1801226B
:10272C001A7003E00F23FB1801221A700F23FB18F9
:10273C001B781800BD4605B090BDC0464C0000206B
:10274C00440000204800002080B500AF054B1B78EA
:10275C001A00054B1B68D218034B1A60C046BD46C5
:10276C0080BDC0464C000020E803002080B500AFBF
:10277C00024B1B681800BD4680BDC046E803002014
:10278C0080B584B000AF7860FFF7F0FF0300BB604A
:10279C007B68FB60FB68013305D00A4B1B781A0081
:1027AC00FB689B18FB60C046FFF7E0FF0200BB68AC
:1027BC00D31AFA689A42F7D8C046C046BD4604B050
:1027CC0080BDC0464C00002080B582B000AF020036
:1027DC00FB1D1A70FB1D1B787F2B09D8FB1D1B786A
:1027EC001A001F231A40044B012191400A001A6061
:1027FC00C046BD4602B080BD00E100E090B583B09C
:10280C0000AF02003960FB1D1A70FB1D1B787F2B7B
:10281C0028D82F4AFB1D1B785BB29B08C0339B004A
:10282C009B58FA1D1278110003220A40D200FF2196
:10283C0091400A00D2431A4011003B689B01FF22D1
:10284C001A40FB1D1B78180003230340DB009A4041
:10285C001F48FB1D1B785BB29B080A43C0339B00CF
:10286C001A5031E01B4AFB1D1B7819000F230B403B
:10287C00083B9B0806339B00D31804331B68FA1DD6
:10288C001278110003220A40D200FF2191400A0065
:10289C00D2431A4011003B689B01FF221A40FB1DDA
:1028AC001B78180003230340DB009A400948FB1DEA
:1028BC001B781C000F232340083B9B080A4306335C
:1028CC009B00C31804331A60C046BD4603B090BDCC
:1028DC0000E100E000ED00E080B500AFBFF34F8FEA
:1028EC00C046044B044ADA60BFF34F8FC046C04663
:1028FC00FDE7C04600ED00E00400FA0580B582B0AB
:10290C0000AF78607B685A1E80235B049A4201D327
:10291C00012310E00A4B7A68013A5A6001235B42AA
:10292C0003211800FFF76AFF054B00229A60044B45
:10293C0007221A6000231800BD4602B080BDC046B5
:10294C0010E000E080B584B000AFB9607A600F2170
:10295C007B18021C1A70BA687B181B785BB21100CA
:10296C001800FFF74BFFC046BD4604B080BD80B5D4
:10297C0082B000AF0200FB1D1A70FB1D1B785BB20E
:10298C001800FFF721FFC046BD4602B080BD80B5E0
:10299C0000AFFFF7A1FF80B582B000AF78607B6815
:1029AC001800FFF7ABFF03001800BD4602B080BD56
:1029BC0080B582B000AF78607B68002B01D1012319
:1029CC0050E07B6825229B5CDBB2022B08D07B6835
:1029DC000422DA637B68242200219954012341E00C
:1029EC007B681B681A687B681B680E218A431A6017
:1029FC007B685B6C1A687B685B6C1C490A401A60CC
:102A0C007B681B681A687B681B6801218A431A6003
:102A1C00174B59687B681B6C1C22134001229A408F
:102A2C00134B0A435A607B689B6C7A68D26C5A6071
:102A3C007B681B6D002B0CD07B681B6D1A687B6848
:102A4C001B6D0A490A401A607B685B6D7A68926D4F
:102A5C005A607B682522012199547B68242200212D
:102A6C00995400231800BD4602B080BDFFFEFFFF45
:102A7C000000024080B584B000AF78600F217B1855
:102A8C0000221A707B6825229B5CDBB2022B06D0DD
:102A9C007B680422DA637B1801221A7049E07B6898
:102AAC001B681A687B681B680E218A431A607B6856
:102ABC001B681A687B681B6801218A431A607B6853
:102ACC005B6C1A687B685B6C1D490A401A601D4B75
:102ADC0059687B681B6C1C22134001229A40194BCD
:102AEC000A435A607B689B6C7A68D26C5A607B682C
:102AFC001B6D002B0CD07B681B6D1A687B681B6DE3
:102B0C000F490A401A607B685B6D7A68926D5A6057
:102B1C007B682522012199547B6824220021995439
:102B2C007B689B6B002B04D07B689B6B7A681000D6
:102B3C0098470F23FB181B781800BD4604B080BDC6
:102B4C00FFFEFFFF0000024080B586B000AF78604A
:102B5C00396000237B6147E13B681B6801217A697E
:102B6C0091400A001340FB60FB68002B00D138E158
:102B7C003B685B6803221340012B05D03B685B6804
:102B8C0003221340022B30D17B689B683B617B692D
:102B9C005B0003229A401300DA433B6913403B610C
:102BAC003B68DA687B695B009A4013003A6913430F
:102BBC003B617B683A699A607B685B683B61012288
:102BCC007B699A401300DA433B6913403B613B68D5
:102BDC005B681B0901221A407B699A4013003A6911
:102BEC0013433B617B683A695A603B685B6803221C
:102BFC001340032B17D07B68DB683B617B695B0060
:102C0C0003229A401300DA433B6913403B613B6853
:102C1C009A687B695B009A4013003A6913433B61E5
:102C2C007B683A69DA603B685B6803221340022BCD
:102C3C0023D17B69DA087B6808329200D3583B6158
:102C4C007B69072213409B000F229A401300DA4342
:102C5C003B6913403B613B681A697B6907210B4058
:102C6C009B009A4013003A6913433B617B69DA0875
:102C7C007B68083292003969D1507B681B683B61D4
:102C8C007B695B0003229A401300DA433B691340D3
:102C9C003B613B685B6803221A407B695B009A408E
:102CAC0013003A6913433B617B683A691A603B68CD
:102CBC005A68C0239B02134000D192E0504A7B69B2
:102CCC009B0818339B009B583B617B690322134084
:102CDC00DB000F229A401300DA433B6913403B613F
:102CEC007A68A023DB059A4213D07B68454A93424D
:102CFC000DD07B68444A934207D07B68434A934289
:102D0C0001D1032306E0052304E0022302E00123A2
:102D1C0000E000237A6903210A40D20093403A690B
:102D2C0013433B6136497B699B0818339B003A6916
:102D3C005A50334A8023D3583B61FB68DA433B69D2
:102D4C0013403B613B685A6880235B02134003D0FD
:102D5C003A69FB6813433B61294980223B698B50DC
:102D6C00274A8423D3583B61FB68DA433B69134001
:102D7C003B613B685A6880239B02134003D03A693D
:102D8C00FB6813433B611E4984223B698B501C4BEF
:102D9C001B683B61FB68DA433B6913403B613B6852
:102DAC005A6880235B03134003D03A69FB681343D2
:102DBC003B61134B3A691A60114B5B683B61FB68D2
:102DCC00DA433B6913403B613B685A6880239B03A1
:102DDC00134003D03A69FB6813433B61084B3A69D3
:102DEC005A607B6901337B613B681A687B69DA4006
:102DFC00131E00D0B0E6C046C046BD4606B080BD2E
:102E0C00001802400004005000080050000C005054
:102E1C0080B584B000AF78600A00BB1C1A807B6858
:102E2C001B69BA1C1288134004D00F23FB18012213
:102E3C001A7003E00F23FB1800221A700F23FB18E3
:102E4C001B781800BD4604B080BD80B582B000AFC1
:102E5C00786008001100BB1C021C1A807B1C0A1C29
:102E6C001A707B1C1B78002B04D0BB1C1A887B6847
:102E7C009A6103E0BB1C1A887B689A62C046BD4607
:102E8C0002B080BD80B584B000AF7860194B1B6870
:102E9C00194A13401900174B7A680A431A607A686A
:102EAC0080239B009A421FD1144B1A6813005B00BD
:102EBC009B185B0012491800FDF7BEF903000133A3
:102ECC00FB6008E0FB68002B03D0FB68013BFB6058
:102EDC0001E0032309E0074B5A698023DB001A4009
:102EEC008023DB009A42EDD000231800BD4604B0CD
:102EFC0080BDC04600700040FFF9FFFF4400002079
:102F0C0040420F0080B500AF034B9A68E023DB0111
:102F1C0013401800BD4680BD0010024080B588B03B
:102F2C0000AF78607B68002B01D1012304E37B6840
:102F3C001B680122134000D17CE0C34B9B683822F4
:102F4C001340BB61C04BDB68032213407B61BB6940
:102F5C00102B02D17B69032B02D0BB69082B0BD140
:102F6C00B94B1A6880239B02134062D07B685B6864
:102F7C00002B5ED10123DFE27B685A6880235B0261
:102F8C009A4207D1B04B1A68AF4B802149020A43D1
:102F9C001A6020E07B685A68A023DB029A420ED1AB
:102FAC00A94B1A68A84B8021C9020A431A60A64B88
:102FBC001A68A54B802149020A431A600BE0A24B08
:102FCC001A68A14BA1490A401A609F4B1A689E4B84
:102FDC009F490A401A607B685B68002B14D0FFF78E
:102FEC00C5FB03003B6108E0FFF7C0FB02003B6937
:102FFC00D31A642B01D903239EE2934B1A688023C6
:10300C009B021340F0D015E0FFF7B0FB03003B61CF
:10301C0008E0FFF7ABFB02003B69D31A642B01D924
:10302C00032389E2884B1A6880239B021340F0D15A
:10303C0000E0C0467B681B680222134000D199E077
:10304C00814B9B6838221340BB617F4BDB680322AA
:10305C0013407B61BB69102B02D17B69022B02D020
:10306C00BB69002B35D1784B1A688023DB001340E9
:10307C0005D07B68DB68002B01D101235CE2724B2D
:10308C005B68744A134019007B685B691A026E4BCB
:10309C000A435A60BB69002B12D16B4B1B686E4AFA
:1030AC00134019007B681A69674B0A431A60664B18
:1030BC001B68DB0A07221340684ADA40684B1A6027
:1030CC00684B1B681800FFF7F5FA031E51D001235B
:1030DC0032E27B68DB68002B30D05B4B1B685E4AAE
:1030EC00134019007B681A69574B0A431A60564BF8
:1030FC001A68554B802149000A431A60FFF736FBCA
:10310C0003003B6108E0FFF731FB02003B69D31A77
:10311C00022B01D903230FE24B4B1A688023DB00EF
:10312C001340F0D0484B5B684A4A134019007B6847
:10313C005B691A02444B0A435A601BE0424B1A6803
:10314C00414B49490A401A60FFF710FB03003B61F1
:10315C0008E0FFF70BFB02003B69D31A022B01D9E5
:10316C000323E9E1384B1A688023DB001340F0D1CC
:10317C0000E0C0467B681B680822134047D0324BE6
:10318C009B6838221340182B0AD12F4B1B6E02223E
:10319C0013403CD07B689B69002B38D10123CBE1D9
:1031AC007B689B69002B19D0274B1A6E264B01218B
:1031BC000A431A66FFF7DAFA03003B6108E0FFF7EF
:1031CC00D5FA02003B69D31A022B01D90323B3E1D0
:1031DC001D4B1B6E02221340F1D018E01A4B1A6ED5
:1031EC00194B01218A431A66FFF7C0FA03003B61B1
:1031FC0008E0FFF7BBFA02003B69D31A022B01D996
:10320C00032399E1104B1B6E02221340F1D17B6812
:10321C001B680422134000D1C6E01F23FB180022B8
:10322C001A70094B9B6838221340202B1ED1064B79
:10323C00DB6D0222134000D1B6E07B689B68002B4B
:10324C0000D0B1E0012377E100100240FFFFFEFF48
:10325C00FFFFFBFFFF80FFFFFFC7FFFF0024F40011
:10326C004400002048000020FFFEFFFFB44BDA6B47
:10327C0080235B05134001D1012300E00023002BC8
:10328C0011D0AF4BDA6BAE4B802149050A43DA63A0
:10329C00AB4BDA6B80235B051340FB60FB681F2391
:1032AC00FB1801221A70A74B1A6880235B0013408D
:1032BC001AD1A44B1A68A34B802149000A431A6007
:1032CC00FFF754FA03003B6108E0FFF74FFA0200E6
:1032DC003B69D31A022B01D903232DE1994B1A68B0
:1032EC0080235B001340F0D07B689B68012B06D1D8
:1032FC00934BDA6D924B01210A43DA651CE07B6833
:10330C009B68052B0CD18E4BDA6D8D4B04210A4337
:10331C00DA658B4BDA6D8A4B01210A43DA650BE0D7
:10332C00874BDA6D864B01218A43DA65844BDA6D63
:10333C00834B04218A43DA657B689B68002B14D08D
:10334C00FFF714FA03003B6109E0FFF70FFA0200E4
:10335C003B69D31A7C4A934201D90323ECE0784BA6
:10336C00DB6D02221340F0D013E0FFF7FFF90300EE
:10337C003B6109E0FFF7FAF902003B69D31A724A84
:10338C00934201D90323D7E06D4BDB6D022213402E
:10339C00F0D11F23FB181B78012B05D1684BDA6B7E
:1033AC00674B6A490A40DA637B68DB69002B00D102
:1033BC00C1E0634B9B6838221340102B00D181E095
:1033CC007B68DB69022B56D15D4B1A685C4B6049FC
:1033DC000A401A60FFF7CAF903003B6108E0FFF7E7
:1033EC00C5F902003B69D31A022B01D90323A3E0D0
:1033FC00534B1A6880239B041340F0D1504BDB686D
:10340C00544A134019007B681A6A7B685B6A1A433A
:10341C007B689B6A1B021A437B68DB6A1A437B68D6
:10342C001B6B1A437B685B6B1A43454B0A43DA6090
:10343C00434B1A68424B802149040A431A60404BA3
:10344C00DA683F4B802149050A43DA60FFF78EF9B1
:10345C0003003B6108E0FFF789F902003B69D31ACE
:10346C00022B01D9032367E0354B1A6880239B0498
:10347C001340F0D05FE0324B1A68314B34490A40AC
:10348C001A602F4BDA682E4B03218A43DA602C4BDF
:10349C00DA682B4B30490A40DA60FFF767F9030012
:1034AC003B6108E0FFF762F902003B69D31A022B7B
:1034BC0001D9032340E0224B1A6880239B0413405C
:1034CC00F0D138E07B68DB69012B01D1012333E0BB
:1034DC001B4BDB687B617B6903221A407B681B6A90
:1034EC009A4226D17B6970221A407B685B6A9A42A9
:1034FC001FD17A69FE23DB011A407B689B6A1B0291
:10350C009A4216D17A69F8239B031A407B68DB6ACE
:10351C009A420ED17A69E0231B051A407B681B6B1B
:10352C009A4206D17B695B0F5A077B685B6B9A42A8
:10353C0001D0012300E000231800BD4608B080BD77
:10354C00001002400070004088130000FFFFFFEFE6
:10355C00FFFFFFFE8C80C111FFFFFEEE80B584B033
:10356C0000AF786039607B68002B01D10123E9E062
:10357C00764B1B68072213403A689A421ED9734B4C
:10358C001B68072293431900704B3A680A431A6070
:10359C00FFF7ECF80300FB6009E0FFF7E7F8020027
:1035AC00FB68D31A6A4A934201D90323CAE0674BDA
:1035BC001B68072213403A689A42EED17B681B685D
:1035CC000222134015D07B681B680422134006D0DE
:1035DC00604B9A685F4BE021C9010A439A605D4BCE
:1035EC009B685D4A134019007B689A68594B0A43E3
:1035FC009A607B681B680122134057D07B685B681C
:10360C00012B07D1534B1A6880239B0213402BD1FB
:10361C00012397E07B685B68022B07D14D4B1A683E
:10362C0080239B0413401FD101238BE07B685B68D4
:10363C00002B07D1474B1A688023DB00134013D1B2
:10364C0001237FE07B685B68032B06D1414B1B6E2B
:10365C000222134008D1012374E03E4BDB6D0222A1
:10366C00134001D101236DE03A4B9B680722934331
:10367C0019007B685A68374B0A439A60FFF776F853
:10368C000300FB6009E0FFF771F80200FB68D31A36
:10369C002F4A934201D9032354E02E4B9B683822C6
:1036AC001A407B685B68DB009A42ECD1274B1B68A5
:1036BC00072213403A689A421ED2244B1B680722F9
:1036CC0093431900214B3A680A431A60FFF74EF8EE
:1036DC000300FB6009E0FFF749F80200FB68D31A0E
:1036EC001B4A934201D903232CE0184B1B68072279
:1036FC0013403A689A42EED17B681B68042213404F
:10370C0009D0144B9B68154A134019007B68DA6882
:10371C00104B0A439A6000F029F801000D4B9B688E
:10372C001B0A0F221A400E4B9200D3581F22134033
:10373C000A00DA400B4B1A600B4B1B681800FEF7A3
:10374C00B9FF03001800BD4604B080BD0020024044
:10375C008813000000100240FFF0FFFFFF8FFFFFF7
:10376C00F4690008440000204800002080B586B0B1
:10377C0000AF3C4B9B68382213400FD1394B1B6870
:10378C00DB0A0722134001229A4013003B60396880
:10379C003548FCF751FD03003B615DE0314B9B6804
:1037AC0038221340082B02D1304B3B6154E02D4B97
:1037BC009B6838221340102B38D12A4BDB6803222C
:1037CC001340FB60274BDB681B09072213400133B6
:1037DC00BB60FB68032B0DD1B9682448FCF72CFDAA
:1037EC00030019001F4BDB681B0A7F2213404B435D
:1037FC007B610DE0B9681C48FCF71EFD0300190045
:10380C00184BDB681B0A7F2213404B437B61C0467D
:10381C00144BDB685B0F0722134001337B60796824
:10382C007869FCF709FD03003B6115E00D4B9B68C3
:10383C0038221340202B03D180231B023B610BE069
:10384C00084B9B6838221340182B03D1FA23DB0159
:10385C003B6101E000233B613B691800BD4606B0AB
:10386C0080BDC046001002400024F40000127A0013
:10387C0080B500AF024B1B681800BD4680BDC0462A
:10388C0044000020B0B500AFFFF7F2FF0400FFF7D3
:10389C0039FB03001A0B054B9200D3581F2213401F
:1038AC00DC4023001800BD46B0BDC046346A000899
:1038BC0080B586B000AF78601323FB1800221A7015
:1038CC001223FB1800221A707B681A6880239B0253
:1038DC00134000D1A3E011203B1800221A70A54B15
:1038EC00DA6B80235B05134010D1A24BDA6BA14B32
:1038FC00802149050A43DA639E4BDA6B80235B0512
:10390C001340BB60BB683B1801221A709A4B1A68B3
:10391C00994B802149000A431A60FEF727FF0300E8
:10392C00FB600BE0FEF722FF0200FB68D31A022BB0
:10393C0004D91323FB1803221A7005E08E4B1A6866
:10394C0080235B001340EDD01323FB181B78002B56
:10395C0054D1884BDA6DC0239B0013407B617B698B
:10396C00002B19D07B685B6A7A699A4214D0814B20
:10397C00DB6D824A13407B617E4BDA6D7D4B80217F
:10398C0049020A43DA657B4BDA6D7A4B7C490A4073
:10399C00DA65784B7A69DA657B690122134016D0B7
:1039AC00FEF7E4FE0300FB600CE0FEF7DFFE020016
:1039BC00FB68D31A734A934204D91323FB180322CE
:1039CC001A7004E06B4BDB6D02221340EDD0132315
:1039DC00FB181B78002B0AD1664BDB6D674A134032
:1039EC0019007B685A6A634B0A43DA650CE01223B0
:1039FC00FB181322BA1812781A7005E01223FB1860
:103A0C001322BA1812781A701123FB181B78012B89
:103A1C0005D1584BDA6B574B5B490A40DA637B682C
:103A2C001B680122134009D0524B5B6D0322934358
:103A3C0019007B685A684F4B0A435A657B681B68B0
:103A4C001022134009D04B4B5B6D504A13401900A8
:103A5C007B689A68474B0A435A657B681A688023CF
:103A6C009B00134009D0434B5B6D494A134019002E
:103A7C007B685A693F4B0A435A657B681A688023F6
:103A8C00DB00134009D03B4B5B6D424A13401900DD
:103A9C007B689A69374B0A435A657B681B682022FE
:103AAC00134009D0334B5B6D3B4A134019007B68C4
:103ABC00DA68304B0A435A657B681A688023DB014D
:103ACC00134015D02B4B5B6D9B0099087B68DA6912
:103ADC00284B0A435A657B68DA698023DB059A42D6
:103AEC0006D1244BDA68234B802149020A43DA6061
:103AFC007B681A6880239B03134016D01D4B5B6DAB
:103B0C00264A134019007B681A6A1A4B0A435A65F5
:103B1C007B681A6A8023DB039A4206D1154BDA685C
:103B2C00144B802149040A43DA607B681A688023AD
:103B3C001B01134016D00F4B5B6D194A1340190033
:103B4C007B681A690B4B0A435A657B681A69802398
:103B5C00DB019A4206D1074BDA68064B80214902F9
:103B6C000A43DA601223FB181B781800BD4606B016
:103B7C0080BDC0460010024000700040FFFCFFFFFB
:103B8C00FFFFFEFF88130000FFFFFFEFFFF3FFFFB7
:103B9C00FFFFF3FFFFFFCFFFFFCFFFFFFFFFBFFFD5
:103BAC00FF3FFFFF80B582B000AF78607B68002BD1
:103BBC0001D101234AE07B683D229B5CDBB2002BE8
:103BCC0007D17B683C22002199547B681800FEF7D2
:103BDC0023FB7B683D22022199547B681A687B6821
:103BEC0004331900100000F0E3FC7B68482201212B
:103BFC0099547B683E22012199547B683F22012114
:103C0C0099547B684022012199547B6841220121FF
:103C1C0099547B684222012199547B6843220121EB
:103C2C0099547B684422012199547B6845220121D7
:103C3C0099547B684622012199547B6847220121C3
:103C4C0099547B683D220121995400231800BD46EC
:103C5C0002B080BD80B584B000AF78607B683D2237
:103C6C009B5CDBB2012B01D001233DE07B683D2244
:103C7C00022199547B681B68DA687B681B680121F8
:103C8C000A43DA607B681B68194A93420AD07B6846
:103C9C001A688023DB059A4204D07B681B68154A9E
:103CAC00934216D17B681B689B68134A1340FB60D8
:103CBC00FB68062B16D0FA6880235B029A4211D05F
:103CCC007B681B681A687B681B6801210A431A60B1
:103CDC0008E07B681B681A687B681B6801210A4333
:103CEC001A6000E0C04600231800BD4604B080BD39
:103CFC00002C0140000400400700010080B582B098
:103D0C0000AF78607B68002B01D101234AE07B680F
:103D1C003D229B5CDBB2002B07D17B683C2200214F
:103D2C0099547B68180000F041F87B683D22022111
:103D3C0099547B681A687B6804331900100000F0F2
:103D4C0037FC7B684822012199547B683E22012173
:103D5C0099547B683F22012199547B6840220121B0
:103D6C0099547B684122012199547B68422201219C
:103D7C0099547B684322012199547B684422012188
:103D8C0099547B684522012199547B684622012174
:103D9C0099547B684722012199547B683D2201216B
:103DAC00995400231800BD4602B080BD80B582B086
:103DBC0000AF7860C046BD4602B080BD80B584B00F
:103DCC0000AF786039603B68002B08D17B683E22DD
:103DDC009B5CDBB2013B5A1E9341DBB237E03B6884
:103DEC00042B08D17B683F229B5CDBB2013B5A1E43
:103DFC009341DBB22BE03B68082B08D17B68402257
:103E0C009B5CDBB2013B5A1E9341DBB21FE03B686B
:103E1C000C2B08D17B6841229B5CDBB2013B5A1E08
:103E2C009341DBB213E03B68102B08D17B68422234
:103E3C009B5CDBB2013B5A1E9341DBB207E07B6813
:103E4C0043229B5CDBB2013B5A1E9341DBB2002B3D
:103E5C0001D0012381E03B68002B04D17B683E221A
:103E6C000221995423E03B68042B04D17B683F2248
:103E7C00022199541BE03B68082B04D17B6840223B
:103E8C000221995413E03B680C2B04D17B6841222E
:103E9C00022199540BE03B68102B04D17B68422221
:103EAC000221995403E07B684322022199547B68D8
:103EBC001B6839680122180000F028FF7B681B681A
:103ECC00284A934209D07B681B68274A934204D046
:103EDC007B681B68254A934201D1012300E0002333
:103EEC00002B08D07B681B685A6C7B681B68802190
:103EFC0009020A435A647B681B681A4A93420AD027
:103F0C007B681A688023DB059A4204D07B681B68A7
:103F1C00174A934216D17B681B689B68154A13405D
:103F2C00FB60FB68062B16D0FA6880235B029A4272
:103F3C0011D07B681B681A687B681B6801210A43D7
:103F4C001A6008E07B681B681A687B681B68012193
:103F5C000A431A6000E0C04600231800BD4604B0B6
:103F6C0080BDC046002C0140004401400048014087
:103F7C00000400400700010080B582B000AF7860FB
:103F8C007B681B681B6902221340022B24D17B68BF
:103F9C001B68DB6802221340022B1DD17B681B6857
:103FAC00032252421A617B6801221A777B681B68D4
:103FBC009B690322134004D07B68180000F0E0FAE0
:103FCC0007E07B68180000F0D3FA7B68180000F05B
:103FDC00DFFA7B6800221A777B681B681B69042256
:103FEC001340042B25D17B681B68DB68042213402B
:103FFC00042B1ED17B681B68052252421A617B6818
:10400C0002221A777B681B689A69C0239B001340B5
:10401C0004D07B68180000F0B3FA07E07B68180046
:10402C0000F0A6FA7B68180000F0B2FA7B68002258
:10403C001A777B681B681B6908221340082B24D154
:10404C007B681B68DB6808221340082B1DD17B683A
:10405C001B68092252421A617B6804221A777B681A
:10406C001B68DB690322134004D07B68180000F046
:10407C0087FA07E07B68180000F07AFA7B68180072
:10408C0000F086FA7B6800221A777B681B681B6934
:10409C0010221340102B25D17B681B68DB68102283
:1040AC001340102B1ED17B681B68112252421A61DF
:1040BC007B6808221A777B681B68DA69C0239B002F
:1040CC00134004D07B68180000F05AFA07E07B68B4
:1040DC00180000F04DFA7B68180000F059FA7B6864
:1040EC0000221A777B681B681B6901221340012B85
:1040FC000FD17B681B68DB6801221340012B08D1B0
:10410C007B681B68022252421A617B68180000F01F
:10411C0027FA7B681B681B6980221340802B0FD108
:10412C007B681B68DB6880221340802B08D17B687E
:10413C001B68812252421A617B68180000F020FF34
:10414C007B681B681A6980235B001A4080235B0024
:10415C009A420ED17B681B68DB6880221340802B4F
:10416C0007D17B681B681C4A1A617B68180000F039
:10417C000FFF7B681B681B6940221340402B0FD13B
:10418C007B681B68DB6840221340402B08D17B689E
:10419C001B68412252421A617B68180000F000FA39
:1041AC007B681B681B6920221340202B0FD17B6876
:1041BC001B68DB6820221340202B08D17B681B680E
:1041CC00212252421A617B68180000F0D1FEC046D1
:1041DC00BD4602B080BDC046FFFEFFFF80B584B077
:1041EC0000AFF860B9607A60FB683C229B5C012BE5
:1041FC0001D10223DFE0FB683C22012199547B684A
:10420C00142B00D9D1E07B689A006D4BD3181B6836
:10421C009F46FB681B68BA681100180000F03EFA54
:10422C00FB681B689A69FB681B6808210A439A6142
:10423C00FB681B689A69FB681B6804218A439A61B6
:10424C00FB681B689969BB681A69FB681B680A43A1
:10425C009A61ABE0FB681B68BA681100180000F0AB
:10426C009DFAFB681B689A69FB681B688021090131
:10427C000A439A61FB681B689A69FB681B68514981
:10428C000A409A61FB681B689969BB681B691A0232
:10429C00FB681B680A439A6188E0FB681B68BA6874
:1042AC001100180000F0F8FAFB681B68DA69FB686B
:1042BC001B6808210A43DA61FB681B68DA69FB6832
:1042CC001B6804218A43DA61FB681B68D969BB68E7
:1042DC001A69FB681B680A43DA6167E0FB681B68B4
:1042EC00BA681100180000F059FBFB681B68DA690A
:1042FC00FB681B68802109010A43DA61FB681B68B3
:10430C00DA69FB681B682F490A40DA61FB681B6895
:10431C00D969BB681B691A02FB681B680A43DA611E
:10432C0044E0FB681B68BA681100180000F09AFBA7
:10433C00FB681B685A6DFB681B6808210A435A65A9
:10434C00FB681B685A6DFB681B6804218A435A651D
:10435C00FB681B68596DBB681A69FB681B680A43CC
:10436C005A6523E0FB681B68BA681100180000F05E
:10437C00D3FBFB681B685A6DFB681B688021090125
:10438C000A435A65FB681B685A6DFB681B680D492C
:10439C000A405A65FB681B68596DBB681B691A0299
:1043AC00FB681B680A435A6500E0C046FB683C2268
:1043BC000021995400231800BD4604B080BDC046AE
:1043CC00546A0008FFFBFFFF80B584B000AF786033
:1043DC0039607B683C229B5C012B01D10223B7E046
:1043EC007B683C22012199547B683D22022199541F
:1043FC007B681B689B68FB60FB68574A1340FB603B
:10440C00FB68564A1340FB607B681B68FA689A602D
:10441C003B681B6880229201934240D0802292011B
:10442C00934200D988E080225201934200D185E06A
:10443C0080225201934200D97EE0702B18D000D913
:10444C007AE0602B4FD000D976E0502B3BD000D9CE
:10445C0072E0402B57D000D96EE0302B63D06BD874
:10446C00202B60D068D8002B5DD0102B5BD063E084
:10447C007B6818683B6899683B685A683B68DB68DE
:10448C0000F024FC7B681B689B68FB60FB68772250
:10449C001343FB607B681B68FA689A604FE07B688B
:1044AC0018683B6899683B685A683B68DB6800F0A1
:1044BC000DFC7B681B689A687B681B688021C901AE
:1044CC000A439A603BE07B6818683B6859683B6814
:1044DC00DB681A0000F07EFB7B681B68502118001B
:1044EC0000F0D8FB2BE07B6818683B6859683B6888
:1044FC00DB681A0000F09CFB7B681B6860211800CD
:10450C0000F0C8FB1BE07B6818683B6859683B6887
:10451C00DB681A0000F05EFB7B681B68402118000A
:10452C0000F0B8FB0BE07B681A683B681B6819004D
:10453C00100000F0AFFB02E0C04600E0C0467B6814
:10454C003D22012199547B683C220021995400237F
:10455C001800BD4604B080BD88FFCEFFFF00FFFFF2
:10456C0080B582B000AF7860C046BD4602B080BD59
:10457C0080B582B000AF7860C046BD4602B080BD49
:10458C0080B582B000AF7860C046BD4602B080BD39
:10459C0080B582B000AF7860C046BD4602B080BD29
:1045AC0080B582B000AF7860C046BD4602B080BD19
:1045BC0080B584B000AF786039607B681B68FB60A5
:1045CC007B68304A934208D07A688023DB059A4294
:1045DC0003D07B682C4A934208D1FB68702293432A
:1045EC00FB603B685B68FA681343FB607B68254A99
:1045FC00934214D07A688023DB059A420FD07B68F3
:10460C00214A93420BD07B68204A934207D07B68A7
:10461C001F4A934203D07B681E4A934208D1FB6821
:10462C001D4A1340FB603B68DB68FA681343FB6070
:10463C00FB68802293431A003B685B691343FB6061
:10464C007B68FA681A603B689A687B68DA623B6838
:10465C001A687B689A627B680A4A934207D07B6827
:10466C000B4A934203D07B680A4A934203D13B68BE
:10467C001A697B681A637B6801225A61C046BD4681
:10468C0004B080BD002C014000040040002000401C
:10469C000044014000480140FFFCFFFF80B586B09C
:1046AC0000AF786039607B681B6A012293431A0063
:1046BC007B681A627B681B6A7B617B685B683B6109
:1046CC007B689B69FB60FB682E4A1340FB60FB68B0
:1046DC0003229343FB603B681B68FA681343FB603F
:1046EC007B69022293437B613B689B687A69134325
:1046FC007B617B68244A934207D07B68234A9342B0
:10470C0003D07B68224A93420CD17B6908229343E5
:10471C007B613B68DB687A6913437B617B690422AC
:10472C0093437B617B68184A934207D07B68174A96
:10473C00934203D07B68164A934211D13B69154AC8
:10474C0013403B613B69144A13403B613B685B6916
:10475C003A6913433B613B689B693A6913433B617C
:10476C007B683A695A607B68FA689A613B685A6858
:10477C007B685A637B687A691A62C046BD4606B08C
:10478C0080BDC0468FFFFEFF002C0140004401405D
:10479C0000480140FFFEFFFFFFFDFFFF80B586B024
:1047AC0000AF786039607B681B6A102293431A0053
:1047BC007B681A627B681B6A7B617B685B683B6108
:1047CC007B689B69FB60FB682C4A1340FB60FB68B1
:1047DC002B4A1340FB603B681B681B02FA681343AF
:1047EC00FB607B69202293437B613B689B681B01C8
:1047FC007A6913437B617B68224A93420DD17B69B2
:10480C00802293437B613B68DB681B017A6913430D
:10481C007B617B69402293437B617B68194A93429D
:10482C0007D07B68184A934203D07B68174A93429F
:10483C0013D13B69164A13403B613B69154A13403F
:10484C003B613B685B699B003A6913433B613B6886
:10485C009B699B003A6913433B617B683A695A60D8
:10486C007B68FA689A613B685A687B689A637B68D4
:10487C007A691A62C046BD4606B080BDFF8FFFFE46
:10488C00FFFCFFFF002C01400044014000480140A8
:10489C00FFFBFFFFFFF7FFFF80B586B000AF78602E
:1048AC0039607B681B6A334A1A407B681A627B68E2
:1048BC001B6A7B617B685B683B617B68DB69FB60C7
:1048CC00FB682D4A1340FB60FB6803229343FB609B
:1048DC003B681B68FA681343FB607B69274A1340EB
:1048EC007B613B689B681B027A6913437B617B6825
:1048FC00234A93420DD17B69224A13407B613B686A
:10490C00DB681B027A6913437B617B691E4A134087
:10491C007B617B681A4A934207D07B681B4A93429F
:10492C0003D07B681A4A934213D13B69194A13404E
:10493C003B613B69184A13403B613B685B691B0157
:10494C003A6913433B613B689B691B013A6913430A
:10495C003B617B683A695A607B68FA68DA613B684C
:10496C005A687B68DA637B687A691A62C046BD460E
:10497C0006B080BDFFFEFFFF8FFFFEFFFFFDFFFFB8
:10498C00002C0140FFF7FFFFFFFBFFFF004401403D
:10499C0000480140FFEFFFFFFFDFFFFF80B586B04F
:1049AC0000AF786039607B681B6A264A1A407B68C6
:1049BC001A627B681B6A3B617B685B687B617B6806
:1049CC00DB69FB60FB68204A1340FB60FB681F4AF5
:1049DC001340FB603B681B681B02FA681343FB60C7
:1049EC003B691B4A13403B613B689B681B033A695C
:1049FC0013433B617B68174A934207D07B68164A86
:104A0C00934203D07B68154A934209D17B69144ABF
:104A1C0013407B613B685B699B017A6913437B6143
:104A2C007B687A695A607B68FA68DA613B685A6815
:104A3C007B681A647B683A691A62C046BD4606B048
:104A4C0080BDC046FFEFFFFFFF8FFFFEFFFCFFFFA7
:104A5C00FFDFFFFF002C01400044014000480140F3
:104A6C00FFBFFFFF80B586B000AF786039607B6810
:104A7C001B6A234A1A407B681A627B681B6A3B617B
:104A8C007B685B687B617B685B6DFB60FB681D4AC8
:104A9C001340FB603B681B68FA681343FB603B697F
:104AAC00194A13403B613B689B681B043A691343EA
:104ABC003B617B68154A934207D07B68144A93424A
:104ACC0003D07B68134A934209D17B690C4A13408B
:104ADC007B613B685B691B027A6913437B617B6872
:104AEC007A695A607B68FA685A653B685A687B68D1
:104AFC009A657B683A691A62C046BD4606B080BDAD
:104B0C00FFFFFEFF8FFFFEFFFFFFFDFF002C0140AC
:104B1C00004401400048014080B586B000AF786089
:104B2C0039607B681B6A244A1A407B681A627B686E
:104B3C001B6A3B617B685B687B617B685B6DFB60C0
:104B4C00FB681E4A1340FB603B681B681B02FA683B
:104B5C001343FB603B691A4A13403B613B689B68FB
:104B6C001B053A6913433B617B68164A934207D095
:104B7C007B68154A934203D07B68144A934209D14F
:104B8C007B69134A13407B613B685B699B027A69C2
:104B9C0013437B617B687A695A607B68FA685A6553
:104BAC003B685A687B68DA657B683A691A62C0466A
:104BBC00BD4606B080BDC046FFFFEFFFFF8FFFFE76
:104BCC00FFFFDFFF002C0140004401400048014082
:104BDC00FFFFFBFF80B586B000AFF860B9607A606C
:104BEC00FB681B6A7B61FB681B6A012293431A00FA
:104BFC00FB681A62FB689B693B613B69F02293433B
:104C0C003B617B681B013A6913433B617B690A2258
:104C1C0093437B617A69BB6813437B61FB683A6998
:104C2C009A61FB687A691A62C046BD4606B080BDBF
:104C3C0080B586B000AFF860B9607A60FB681B6A1B
:104C4C00102293431A00FB681A62FB689B697B6114
:104C5C00FB681B6A3B617B690D4A13407B617B6877
:104C6C001B037A6913437B613B69A02293433B612D
:104C7C00BB681B013A6913433B61FB687A699A6113
:104C8C00FB683A691A62C046BD4606B080BDC04694
:104C9C00FF0FFFFF80B584B000AF786039607B6890
:104CAC009B68FB60FB68084A1340FB603A68FB6832
:104CBC00134307221343FB607B68FA689A60C04673
:104CCC00BD4604B080BDC0468FFFCFFF80B586B017
:104CDC0000AFF860B9607A603B60FB689B687B61F1
:104CEC007B69094A13407B613B681A027B681A4353
:104CFC00BB6813437A6913437B61FB687A699A60DA
:104D0C00C046BD4606B080BDFF00FFFF80B586B033
:104D1C0000AFF860B9607A60BB681F2213400122B3
:104D2C009A4013007B61FB681B6A7A69D2431A4074
:104D3C00FB681A62FB681A6ABB681F210B40796812
:104D4C0099400B001A43FB681A62C046BD4606B078
:104D5C0080BD000080B584B000AF786039607B689E
:104D6C003C229B5C012B01D1022350E07B683C224E
:104D7C00012199547B683D22022199547B681B6860
:104D8C005B68FB607B681B689B68BB607B681B680F
:104D9C00214A934208D1FB68204A1340FB603B68D0
:104DAC005B68FA681343FB60FB6870229343FB60FB
:104DBC003B681B68FA681343FB607B681B68FA68E6
:104DCC005A607B681B68144A93420AD07B681A6845
:104DDC008023DB059A4204D07B681B68104A9342FF
:104DEC000CD1BB6880229343BB603B689B68BA685C
:104DFC001343BB607B681B68BA689A607B683D2272
:104E0C00012199547B683C220021995400231800FD
:104E1C00BD4604B080BDC046002C0140FFFF0FFF13
:104E2C000004004080B584B000AF78603960002386
:104E3C00FB607B683C229B5C012B01D1022379E057
:104E4C007B683C2201219954FB68FF2293431A0092
:104E5C003B68DB681343FB60FB68384A1A403B68CD
:104E6C009B681343FB60FB68354A1A403B685B68E0
:104E7C001343FB60FB68334A1A403B681B681343BF
:104E8C00FB60FB68304A1A403B681B691343FB60AC
:104E9C00FB682E4A1A403B685B691343FB60FB6856
:104EAC002B4A1A403B681B6B1343FB60FB68294A77
:104EBC001A403B689B691B041343FB607B681B68AF
:104ECC00254A934206D1FB68244A1A403B68DB69A9
:104EDC001343FB607B681B681F4A934221D1FB681C
:104EEC001F4A1A403B689B6A1B051343FB60FB6817
:104EFC001C4A1A403B681B6A1343FB60FB681A4A46
:104F0C001A403B685B6A1343FB607B681B68124A60
:104F1C00934206D1FB68154A1A403B68DB6A13437F
:104F2C00FB607B681B68FA685A647B683C22002132
:104F3C00995400231800BD4604B080BDFFFCFFFF50
:104F4C00FFFBFFFFFFF7FFFFFFEFFFFFFFDFFFFFA1
:104F5C00FFBFFFFFFFFFF0FF002C0140FFFFFFEF43
:104F6C00FFFF0FFFFFFFFFFEFFFFFFFDFFFFFFDF58
:104F7C0080B582B000AF7860C046BD4602B080BD3F
:104F8C0080B582B000AF7860C046BD4602B080BD2F
:104F9C0080B582B000AF7860C046BD4602B080BD1F
:104FAC0080B582B000AF78607B68002B01D1012303
:104FBC0046E07B6884229B58002B07D17B688022BB
:104FCC00002199547B681800FDF7A0F97B688422B6
:104FDC00242199507B681B681A687B681B68012127
:104FEC008A431A607B68180000F004FD0300012B53
:104FFC0001D1012324E07B689B6A002B03D07B68E2
:10500C00180000F06FFF7B681B685A687B681B6890
:10501C000D490A405A607B681B689A687B681B685C
:10502C002A218A439A607B681B681A687B681B6814
:10503C0001210A431A607B68180001F007F803008D
:10504C001800BD4602B080BDFFB7FFFF80B58AB027
:10505C0002AFF860B9603B60BB1D1A80FB6884220C
:10506C009B58202B00D097E0BB68002B03D0BB1DB6
:10507C001B88002B01D101238FE0FB689A688023E9
:10508C005B019A4209D1FB681B69002B05D1BB68F7
:10509C000122134001D001237FE0FB6880229B5C3E
:1050AC00012B01D1022378E0FB6880220121995465
:1050BC00FB688C2200219950FB6884222121995095
:1050CC00FDF754FB03007B61FB68BA1D5421128869
:1050DC005A52FB68BA1D562112885A52FB689A68BC
:1050EC0080235B019A4208D1FB681B69002B04D119
:1050FC000023FB61BB68BB6103E0BB68FB61002361
:10510C00BB61FB688022002199542CE07A69F86815
:10511C003B68009313000022802100F0E1FF031E86
:10512C0001D0032339E0FB69002B0BD1BB691B8831
:10513C001A00FB681B68D205D20D9A62BB69023358
:10514C00BB6107E0FB691A78FB681B689A62FB6914
:10515C000133FB61FB6856229B5A9BB2013B99B20F
:10516C00FB6856229952FB6856229B5A9BB2002B25
:10517C00CCD17A69F8683B68009313000022402177
:10518C0000F0AEFF031E01D0032306E0FB6884226F
:10519C0020219950002300E002231800BD4608B0DE
:1051AC0080BD000080B58AB002AFF860B9603B608A
:1051BC00BB1D1A80FB6888229B58202B00D0DBE09B
:1051CC00BB68002B03D0BB1D1B88002B01D1012316
:1051DC00D3E0FB689A6880235B019A4209D1FB6893
:1051EC001B69002B05D1BB680122134001D00123A0
:1051FC00C3E0FB6880229B5C012B01D10223BCE045
:10520C00FB68802201219954FB688C220021995063
:10521C00FB68882222219950FB680022DA66FDF790
:10522C00A5FA03007B61FB68BA1D5C2112885A52F7
:10523C00FB68BA1D5E2112885A52FB689A6880235B
:10524C005B019A420DD1FB681B69002B04D1FB68F2
:10525C0060224C4999522EE0FB686022FF21995242
:10526C0029E0FB689B68002B0DD1FB681B69002BA8
:10527C0004D1FB686022FF2199521CE0FB6860227C
:10528C007F21995217E0FB689A6880235B059A424C
:10529C000DD1FB681B69002B04D1FB6860227F21B8
:1052AC00995208E0FB6860223F21995203E0FB68A9
:1052BC006022002199521223FB18FA686021525A7D
:1052CC001A80FB689A6880235B019A4208D1FB68BC
:1052DC001B69002B04D10023FB61BB68BB6103E09D
:1052EC00BB68FB610023BB61FB68802200219954E1
:1052FC0036E07A69F8683B6800931300002220219D
:10530C0000F0EEFE031E01D0032336E0FB69002BF8
:10531C000ED1FB681B685B6A9BB21222BA1812880A
:10532C0013409AB2BB691A80BB690233BB610EE0B1
:10533C00FB681B685B6ADBB21222BA181288D2B205
:10534C001340DAB2FB691A70FB690133FB61FB682D
:10535C005E229B5A9BB2013B99B2FB685E2299522A
:10536C00FB685E229B5A9BB2002BC2D1FB68882241
:10537C0020219950002300E002231800BD4608B0FC
:10538C0080BDC046FF010000B0B5AAB000AF786088
:10539C007B681B68DB69A422B9180B607B681B68EF
:1053AC001B68A02039180B607B681B689B689C24C9
:1053BC0039190B601100BB181B68A04A13409822C6
:1053CC00BD182B60BB181B68002B1AD17B181B68EF
:1053DC002022134015D03B181B682022134005D106
:1053EC003B191A6880235B0513400AD07B681B6F3E
:1053FC00002B00D1CFE27B681B6F7A6810009847B6
:10540C00C9E29823FB181B68002B00D11EE19C23DA
:10541C00FB181B688A4A134006D1A023FB181B6893
:10542C00884A134000D111E1A423FB181B68012208
:10543C00134012D0A023FB181A6880235B00134082
:10544C000BD07B681B6801221A627B688C229B58EC
:10545C0001221A437B688C215A50A423FB181B6829
:10546C000222134011D09C23FB181B68012213400D
:10547C000BD07B681B6802221A627B688C229B58BB
:10548C0004221A437B688C215A50A423FB181B68F6
:10549C000422134011D09C23FB181B6801221340DB
:1054AC000BD07B681B6804221A627B688C229B5889
:1054BC0002221A437B688C215A50A423FB181B68C8
:1054CC000822134017D0A023FB181B68202213407E
:1054DC0005D19C23FB181B68594A13400BD07B68E1
:1054EC001B6808221A627B688C229B5808221A437C
:1054FC007B688C215A50A423FB181A6880231B014B
:10550C00134013D0A023FB181A688023DB0413402C
:10551C000CD07B681B68802212011A627B688C227B
:10552C009B5820221A437B688C215A507B688C2212
:10553C009B58002B00D130E2A423FB181B682022BF
:10554C00134015D0A023FB181B682022134006D152
:10555C009C23FB181A6880235B05134008D07B68DA
:10556C001B6F002B04D07B681B6F7A681000984768
:10557C007B688C229B5894217A1813607B681B687B
:10558C009B6840221340402B04D07B181B682822B8
:10559C00134047D07B68180000F06AFE7B681B68DC
:1055AC009B6840221340402B37D1EFF310833B66AE
:1055BC003B6E90203A18136001237B667B6E83F35D
:1055CC001088C0467B681B689A687B681B68402102
:1055DC008A439A603B181B68BB66BB6E83F31088CA
:1055EC00C0467B68DB6F002B12D07B68DB6F164AE2
:1055FC009A637B68DB6F1800FDF73CFA031E1AD028
:10560C007B68DB6F9A6B7B68DB6F1800904712E04E
:10561C007B68180000F0DAF90DE07B68180000F0E8
:10562C00D5F908E07B68180000F0D0F97B688C2273
:10563C0000219950B1E1C046AFE1C0460F0800000F
:10564C000100001020010004496300087B68DB6E38
:10565C00012B00D035E1A423FB181B68102213404A
:10566C0000D12EE1A023FB181B681022134000D19F
:10567C0027E17B681B6810221A627B681B689B6899
:10568C0040221340402B00D09EE07B68DB6F1B68F0
:10569C005A687E217B181A807B181B88002B00D13E
:1056AC007DE17B685C229B5A7A1812889A4200D35F
:1056BC0075E17B687A185E2112885A527B68DB6F21
:1056CC001B681B68202213406FD1EFF310833B63E0
:1056DC003B6BBB6701237B637B6B83F31088C046FA
:1056EC007B681B681A687B681B68B1490A401A60A2
:1056FC00BB6FBB63BB6B83F31088C046EFF31083A7
:10570C00FB63FB6B7B6701233B643B6C83F310886F
:10571C00C0467B681B689A687B681B6801218A43BA
:10572C009A607B6F7B647B6C83F31088C046EFF3CD
:10573C001083BB64BB6C3B670123FB64FB6C83F382
:10574C001088C0467B681B689A687B681B68402180
:10575C008A439A603B6F3B653B6D83F31088C04670
:10576C007B688822202199507B680022DA66EFF34F
:10577C0010837B657B6DFB660123BB65BB6D83F37F
:10578C001088C0467B681B681A687B681B681021F0
:10579C008A431A60FB6EFB65FB6D83F31088C04671
:1057AC007B68DB6F1800FDF703F97B685C229A5A63
:1057BC007B685E215B5A9BB2D31A9AB27B6811004C
:1057CC00180000F00BF9EAE07B685C22995A7B68C0
:1057DC005E229B5A9AB28E203B188A1A1A807B68DA
:1057EC005E229B5A9BB2002B00D1DAE03B181B883F
:1057FC00002B00D1D5E0EFF31083FB60FB6888240D
:10580C003A19136001233B613B6983F31088C0464E
:10581C007B681B681A687B681B6866490A401A60BB
:10582C003B191B687B617B6983F31088C046EFF3DF
:10583C001083BB61BB6984243A1913600123FB619B
:10584C00FB6983F31088C0467B681B689A687B6889
:10585C001B6859490A409A603B191B683B623B6ABA
:10586C0083F31088C0467B688822202199507B687E
:10587C000022DA667B6800221A67EFF310837B62E2
:10588C007B6A80243A1913600123BB62BB6A83F3E1
:10589C001088C0467B681B681A687B681B681021DF
:1058AC008A431A603B191B68FB62FB6A83F31088FE
:1058BC00C0463B181A887B681100180000F08EF85F
:1058CC006FE0A423FB181A6880235B03134010D0ED
:1058DC009C23FB181A688023DB03134009D07B68D8
:1058EC001B68802252031A627B68180000F069FD65
:1058FC005AE0A423FB181B688022134016D0A02367
:10590C00FB181B688022134006D19C23FB181A68D5
:10591C0080231B04134009D07B685B6F002B42D0A3
:10592C007B685B6F7A68100098473CE0A423FB18F7
:10593C001B68402213400AD0A023FB181B6840228E
:10594C00134004D07B68180000F00FFD2CE0A4235A
:10595C00FB181A6880231B0413400BD0A023FB18E0
:10596C001A688023DB05134004D07B68180000F014
:10597C0038FD19E0A423FB181A6880235B0413403C
:10598C0012D0A023FB181B68002B0DDA7B681800C3
:10599C0000F01FFD08E0C04606E0C04604E0C0462B
:1059AC0002E0C04600E0C046BD462AB0B0BDC046CD
:1059BC00FFFEFFFFDFFEFFFFFEFFFFEF80B582B0B3
:1059CC0000AF7860C046BD4602B080BD80B582B0E5
:1059DC0000AF7860C046BD4602B080BD80B582B0D5
:1059EC0000AF78600A00BB1C1A80C046BD4602B0EE
:1059FC0080BD0000B0B590B000AF78621A232022B1
:105A0C009B18DB1900221A707B6A9A687B6A1B69E7
:105A1C001A437B6A5B691A437B6ADB691343FB633A
:105A2C007B6A1B681B68C44A134019007B6A1A689E
:105A3C00FB6B0B4313607B6A1B685B68BF4A1340AC
:105A4C0018007B6AD9687B6A1A6803000B435360A1
:105A5C007B6A9B69FB637B6A1B68B94A934204D0DF
:105A6C007B6A1B6AFA6B1343FB637B6A1B689B683C
:105A7C00B44A134019007B6A1A68FB6B0B439360A2
:105A8C007B6A1B68DB6A0F22934318007B6A596A96
:105A9C007B6A1A6803000B43D3627B6A1B68AA4AB1
:105AAC00934231D1A94B5B6D03221340032B1DD0C4
:105ABC0023D8022B0CD020D8002B02D0012B0ED0D7
:105ACC001BE01B2320229B18DB1900221A7071E0AB
