:020000040800F2
:1000000000300020CD0E00081D0F00081D0F000855
:1000100000000000000000000000000000000000E0
:100020000000000000000000000000001D0F00089C
:1000300000000000000000001D0F00084908000833
:100040001D0F0008000000001D0F00081D0F000814
:100050001D0F00081D0F00081D0F00081D0F0008D0
:10006000000000001D0F00081D0F00081D0F0008F4
:100070001D0F00081D0F00081D0F000800000000E4
:100080001D0F000800000000000000001D0F000808
:10009000000000001D0F00081D0F00081D0F0008C4
:1000A000000000001D0F0008000000008908000883
:1000B0001D0F00080000000000000000000000000C
:1000C0000448054B10B5834203D0044B002B00D0ED
:1000D000984710BD08000020080000200000000024
:1000E00006480749091A8B10C90FC91810B54910DD
:1000F00003D0044B002B00D0984710BD080000200F
:10010000080000200000000010B5074C2378002BE9
:1001100009D1FFF7D5FF054B002B02D0044800E0C2
:1001200000BF0123237010BD080000200000000064
:10013000200F0008054B10B5002B03D004490548DB
:1001400000E000BFFFF7CCFF10BDC046000000007C
:100150000C000020200F000802B471464908490035
:10016000095C49008E4402BC7047C0460022430827
:100170008B4274D303098B425FD3030A8B4244D36F
:10018000030B8B4228D3030C8B420DD3FF220902B1
:1001900012BA030C8B4202D31212090265D0030B70
:1001A0008B4219D300E0090AC30B8B4201D3CB0366
:1001B000C01A5241830B8B4201D38B03C01A5241A8
:1001C000430B8B4201D34B03C01A5241030B8B42AA
:1001D00001D30B03C01A5241C30A8B4201D3CB0295
:1001E000C01A5241830A8B4201D38B02C01A52417A
:1001F000430A8B4201D34B02C01A5241030A8B427D
:1002000001D30B02C01A5241CDD2C3098B4201D394
:10021000CB01C01A524183098B4201D38B01C01A12
:10022000524143098B4201D34B01C01A5241030989
:100230008B4201D30B01C01A5241C3088B4201D338
:10024000CB00C01A524183088B4201D38B00C01AE5
:10025000524143088B4201D34B00C01A5241411A0C
:1002600000D20146524110467047FFE701B5002019
:1002700000F006F802BDC0460029F7D076E77047C7
:100280007047C04670B50D4B0D4D5E1BB610AB42AE
:1002900005D0002408CD01349847A642FAD800F0D2
:1002A0003FFE084B084D5E1BB610AB4205D0002444
:1002B00008CD01349847A642FAD870BD5410000802
:1002C0005410000858100008541000088022034BF6
:1002D000D9691142FCD098627047C046003801408D
:1002E00010B504002078002800D110BD0134FFF7BC
:1002F000EDFFF7E770B505000F268C00043C231DC9
:1003000000D170BD2B00E340024A3340D05CFFF7C0
:10031000DDFFF3E7D80F0008F0B500220127114BED
:10032000114C1E683D0023799D402B000500D540EF
:100330003D40032A03DC002D09D01B0407E0002EFA
:1003400007D0002D0AD0002908D0022EF5D125684B
:10035000AB61013208340D2AE4D1F0BD012EF6D094
:10036000EBE7C04680000020EC0F0008054B10B5FD
:100370001860054B1B68D917C91AC90FFFF7CCFFC6
:1003800010BDC0468400002000000020034A116810
:1003900013685B1A8342FBD37047C0468800002075
:1003A00043425841A0220A4B40420340D205F03359
:1003B00093611168074B1940AA23DB010B431360BB
:1003C000054B1840FA239B00C018044B1864704773
:1003D00010FFEF00FF00FFFF18FCFFFF00040040CC
:1003E000012282400D4B10B59A6280229201196859
:1003F0001142FCD01A6004220020110019609C6890
:100400000C439C601C680C42FCD01C6C013A001927
:10041000002AF3D1800880B210BDC04600240140FC
:100420000020FF21F0B50C4A0C4F0D4E13685468A4
:1004300025001D4001350DD0DD43A54207D11C002C
:100440008C43BC4203D10B40022B00D81800083269
:10045000B242EBD1F0BDC046003800080000315078
:10046000004000088022064B520219691142FCD15B
:1004700018691861034B1840431E98414042704769
:1004800000200240FAC3000010B50F48FFF728FF14
:100490000E4B0F4C1B689B001859FFF721FF0D48AE
:1004A000FFF71EFF0C4A0D4B12689200D058FFF761
:1004B00017FF0B48FFF714FF0A4B1B689B001859E6
:1004C000FFF70EFF10BDC046380F00088000002067
:1004D000CC0F00083F0F000834000020C00F0008B8
:1004E000440F000838000020074A084B1B691069B8
:1004F00001224007C00F504090401B04DB0F5A40C0
:100500001043C0B27047C0460004005000080050BD
:1005100010B55320FFF7DAFE0120074B1C7820406E
:100520003030FFF7D3FEA007C00F3030FFF7CEFE0C
:100530000A20FFF7CBFE10BD2400002070B5042177
:100540000325084B2E001C791A686400A640106829
:100550000131B0431060D0680833B043D0600D293A
:10056000F0D170BD0C100008164B5A69002A03DA4E
:10057000154A9A60154A9A6080225969D20511423B
:1005800003D01349D9601349D9605969114217D171
:100590008022520219691142FCD11A691A61802223
:1005A0001862596992020A435A61802252021969FB
:1005B0001142FCD18022596912050A435A61FEE7B3
:1005C0007047C0460020024023016745AB89EFCD4C
:1005D0003B2A19087F6E5D4CF0B58B4B87B00393B7
:1005E000002800D1C1E000241C60FFF7A7FF802392
:1005F000864E5B03326C864D134333648023DB05E8
:100600002B6180235B05AB600220FFF7BFFE8023D8
:10061000AA681B061343AB60AB68002BFCDB059498
:10062000059B132B00DC85E007236B61063B2B60E9
:10063000AA681A43AA602A681A42FCD0A0240020A3
:10064000E405FFF7ADFE734F236873493B40236019
:100650008023E268DB033A401343E360236802200F
:100660000B4023608023E2685B040A401343E3608D
:10067000FFF78CFE0B20FFF7B3FE684B019018804C
:100680000C200093FFF7ACFE009B029058800120E5
:10069000FFF786FE236860493B4023608023E268C1
:1006A0001B043A401343E360236802200B4023609D
:1006B0008023E2689B040A401343E360FFF766FE71
:1006C0000B20FFF78DFE009B070098800C20FFF7A2
:1006D00087FE009B0400D880FFF730FF0020FFF763
:1006E0005FFE0223AA681343AB600123A9680A00D6
:1006F0001A401942FAD1AA60336C494949480B4063
:1007000033644949019B5B189BB2834216D88C46DF
:100710001500029B63449BB2984255411300434924
:100720007A1892B2824214D86418A4B2844260D972
:10073000032318E0059B0133059371E73C49019EB3
:10074000150013008E42EAD9029B994289414B421F
:10075000E5E7C82252009742EAD2002D4DD000238F
:1007600094425B410233334A1360FFF759FE324B28
:10077000040018600023984209D12E4B1C68230006
:10078000012C04D00123022C01D00124DB18002508
:100790002A4A03261360039B1D60FFF7CFFE601EED
:1007A00043425841FFF7FCFD039B29001C60244C89
:1007B0002068FFF7B1FD0420224A116837000B685A
:1007C00001309C46137965465B009F40BD43AC46B3
:1007D00001259D402B0065462B430B60CB680832FA
:1007E000BB43CB600D28E8D12068FFF7BFFD07B001
:1007F000F0BD002BB7D10333B5E7002B98D02B0009
:100800009442B0D394E7C04680000020001002401C
:1008100000240140FFFF3FFFFFFFFFFC26000020F8
:10082000FFFFEFFF3408000050FBFFFFE0FCFFFF7D
:10083000740E00003000002038000020340000203A
:10084000840000200C1000080C4B70B51A680124BD
:1008500001321A6018680A4B1D680A4B1A68082A88
:1008600006DC0A211E68FFF707FD8E4200DC00242B
:1008700028002100FFF750FD70BDC0468800002011
:100880008400002000000020F0B520253F260B4802
:100890000B4CC3692B4202D10F230362F0BD094AFE
:1008A000416A23781278013333409A42F1D022789A
:1008B000054FD2B2C9B2B9542370E9E700380140FC
:1008C0003D0000203C0000203E0000208023F0B5C9
:1008D000B24E1B0587B0B3608023B14A5B0011683C
:1008E0000B4313608023DB0011681942FCD0072101
:1008F00093688B4393603131906803000B4008424A
:10090000FAD11068A749A84C084080214901014349
:100910001160A648A64908600721506B0143516346
:100920000221D06B0143D1638021106CC9010143C6
:10093000116480229200A261A0220121D20591615E
:1009400003319161043191619A4903250F79086857
:100950007F00BD400268AC46AA430125BD402A4342
:1009600065460260C2680133AA43C2600831042BA5
:10097000EBD1FFF7E3FD904A9049136880270B40C5
:100980001360D368FF050B40D360A0230C21DB0567
:10099000186888431860D8688843D8601068800059
:1009A00080081060D068800080083843D060302014
:1009B0002268834F82432260E268824320380243E8
:1009C000E260002284467F48BA62F8627E48F8619D
:1009D000882040013862FA208000F8637B48039049
:1009E0000920039D2860032508383A647861803027
:1009F00038602068A84305000220284303252060B2
:100A0000E068A843E060206A6D18A8430E3D0543E6
:100A10000820256225688D4328432060E068F02582
:100A20008843E0606046216AA9430143216268214E
:100A30006748684C0260C1603B39016080211868DA
:100A400009032040014360461960D9682140D960FC
:100A5000596A614CA943014359628021186889038E
:100A60002040014319608021D86849032040014398
:100A7000D960586A594908408021490001435962A8
:100A80008021574B09051960C0205649564B000676
:100A90004B60336A554D1B021B0A03433362072325
:100AA0008A600B60A02380212A6ADB04134049047A
:100AB0008B4204D18020C0041043FFF755FD012074
:100AC000FFF78AFD4A48FFF751FC96204000FFF7E8
:100AD0005DFC0020FFF74AFCFFF706FD002604003E
:100AE000444B00961870444B1B680293FFF7FCFCC4
:100AF000019084422FD0404B1B6802933F4B404AE9
:100B000019781378994200D166E113783D49DBB238
:100B1000CC5C3F211378E4B201330B401370002EFC
:100B200000D138E1009B04AAD454442E26D12300DE
:100B3000303B092B2FD81ED064225A43FA63039A04
:100B400044201360FFF7C2FB2000FFF7BFFB0A2021
:100B5000FFF7BCFB1FE0274A019913788B42CDD0E9
:100B6000254B02991B685B1A132BC7D9019B137085
:100B7000FFF7CEFCC2E7FA229200DFE7502E00D04A
:100B8000ADE0432C00D19FE03ED83F2C00D1A0E047
:100B90004F3E412C3BD0002600961DE100ED00E0C9
:100BA00000100240FFC7FFFF00040050001BB70009
:100BB00004000020EC0F000800080050FFFFFFCFEA
:100BC00000040040E7030000686800000000002007
:100BD00000380140FFFFF3FFFFFFCFFFFFF0FFFFF3
:100BE00000E100E010E000E0DF2E00000020024005
:100BF000FF1F000024000020880000203D0000208E
:100C00003C0000203E0000200026552CC3D1FFF7F9
:100C100007FC002486424DD08022200052009149DA
:100C2000C3005B181968013102D15B68013302D03F
:100C300001309042F3D16B69002B03DA8A4BAB6031
:100C40008A4BAB602B692B6180235B00984212D1E9
:100C50006A69863B9A43403B13436B6180236A6910
:100C60005B0213436B61FFF7FDFB02226B69934349
:100C70006B6100282AD101246A697D4B22436A6195
:100C80007C4A33438018C0000360DB434360FFF7B6
:100C9000E9FB6B69A3436B6180236A691B061343FD
:100CA00001246B61002804D1FFF7BAFB341A631EDC
:100CB0009C41644270427041FFF78EFC002C08D0CA
:100CC0006D48FFF70DFB66E70226A0E701204042D2
:100CD000E2E75020FFF7FAFAFFF7D6FB37E7009B71
:100CE000013300934C2E2DD1042B75D10026012108
:100CF0003400935D18003038092815D8030024010A
:100D000001361C43042EF4D1002900D143E7E4044A
:100D1000E40C2000FFF72AFB4C20FFF7D7FA310044
:100D20002000FFF7E7FA12E718004138052801D83C
:100D3000373BE4E718006138573B0528DFD90F231C
:100D40000021DCE7009B2126052B45D11378422B9F
:100D500000D020E753784F2B00D01CE793784F2B1F
:100D600000D018E7D378542B00D014E713790A2B5E
:100D700000D010E74148FFF7B3FAC0202B6A404A81
:100D800080041340184340233E4AD2691A42FBD0E4
:100D9000FFF7EAFBFFE6562C1ED84B2C0BD83A2C5B
:100DA0001CD014D8212C14D02E2C15D13000FFF7D4
:100DB000DDFA354816E020004C380A280CD8FFF739
:100DC000CBF9080B0B0B080B0B4E0B0B1400442C30
:100DD00002D1002326000093019C87E62B48FFF7F1
:100DE000C5FA2B48FFF77CFAF6E72A48FFF778FAAE
:100DF000294B08211868FFF77DFA284B082118684D
:100E0000FFF778FA264B08211868FFF773FA254890
:100E1000FFF766FA0821286AFFF76CFAFFF734FB40
:100E20002148FFF75DFA214A214B12680024920005
:100E3000D058FFF755FA1F48FFF752FA1E4A6300D1
:100E40000321D05A0134FFF755FA042C03D02C208B
:100E5000FFF73CFAF2E70A20FFF738FABCE7FFF7A2
:100E600057FBB9E70038000823016745AB89EFCD90
:100E700000003150000700014A0F0008510F000820
:100E8000FFFFFFFB003801405B0F0008FF1F000061
:100E9000580F00085E0F00085875FF1F5475FF1F9C
:100EA0005075FF1F6F0F0008760F000830000020FC
:100EB000B00F00087E0F0008260000208022024BA1
:100EC00012059A607047C04600ED00E00D48854667
:100ED000FFF7F4FF002103E00B4B5B584350043154
:100EE0000A480B4B42189A42F6D30A4A02E0002302
:100EF00013600432084B9A42F9D3FFF7C3F9FFF7A6
:100F0000E5FCFEE7003000205C1000080000002037
:100F100008000020080000208C000020FEE70000F0
:100F2000F8B5C046F8BC08BC9E467047F8B5C04648
:080F3000F8BC08BC9E467047A6
:100F380020646973703D002062793D0020736574F8
:100F48003D0050204552520A0021424F4F540A009A
:100F58003A0A002E0A00503120312E312D733136D5
:100F680039207569643D00206F7074723D002070EF
:100F7800726F62653D00206164633D006E6F6E654F
:100F8800004341004343006F64640073746F7265EB
:100F9800640070726F62650064656661756C7400E8
:100FA8006175746F00000000840F0008890F000845
:100FB8008C0F00088F0F0008930F00089A0F000885
:100FC800A00F0008A80F0008890F00088C0F000860
:100FD8003031323334353637383941424344454667
:100FE800000000000004005009000000000000504C
:100FF8000000000000000050020000000000005047
:1010080003000000000000500B000000000000502A
:101018000F0000000004005005000000000400500C
:10102800070000000004005003000000000000500A
:101038000C000000000400500400000000040050F0
:0C1048000600000000040050080000003A
:04105400350100085A
:041058000901000882
:08105C0009000000001BB700B1
:0400000508000ECD14
:00000001FF
