:020000040800F2
:100000000030002099070008E9070008E907000808
:1000100000000000000000000000000000000000E0
:10002000000000000000000000000000E9070008D8
:100030000000000000000000E9070008DD020008E1
:10004000E907000800000000E9070008E9070008C8
:10005000E9070008E9070008E9070008E9070008C0
:1000600000000000E9070008E9070008E9070008A8
:10007000E9070008E9070008E90700080000000098
:10008000E90700080000000000000000E907000880
:1000900000000000E9070008E9070008E907000878
:1000A00000000000E907000800000000ED02000861
:1000B000E907000800000000000000000000000048
:1000C0000448054B10B5834203D0044B002B00D0ED
:1000D000984710BD0400002004000020000000002C
:1000E00006480749091A8B10C90FC91810B54910DD
:1000F00003D0044B002B00D0984710BD0400002013
:10010000040000200000000010B5074C2378002BED
:1001100009D1FFF7D5FF054B002B02D0044800E0C2
:1001200000BF0123237010BD040000200000000068
:10013000EC070008054B10B5002B03D00449054817
:1001400000E000BFFFF7CCFF10BDC046000000007C
:1001500008000020EC07000870B50D4B0D4D5E1B2C
:10016000B610AB4205D0002408CD01349847A64212
:10017000FAD800F03BFB084B084D5E1BB610AB42B3
:1001800005D0002408CD01349847A642FAD870BDA6
:100190009C0800089C080008A00800089C080008AB
:1001A0008022034BD9691142FCD098627047C04647
:1001B0000038014010B504002078002800D110BD9F
:1001C0000134FFF7EDFFF7E770B505000F268C004F
:1001D000043C231D00D170BD2B00E340024A334094
:1001E000D05CFFF7DDFFF3E72208000830B50023FD
:1001F0000124084A250011798D40290025009D40E1
:10020000284200D0090415680133A96108320D2B7A
:10021000F0D130BD34080008074A084B1B6910694B
:1002200001224007C00F504090401B04DB0F5A4092
:100230001043C0B27047C046000400500008005090
:1002400010B55320FFF7ACFF0120074B1C7820406E
:100250003030FFF7A5FFA007C00F3030FFF7A0FF39
:100260000A20FFF79DFF10BD20000020164B5A69A1
:10027000002A03DA154A9A60154A9A608022596961
:10028000D205114203D01349D9601349D960596985
:10029000114217D18022520219691142FCD11A6908
:1002A0001A6180221862596992020A435A618022B7
:1002B000520219691142FCD18022596912050A4380
:1002C0005A61FEE77047C04600200240230167459F
:1002D000AB89EFCD3B2A19087F6E5D4C024A13684B
:1002E000013313607047C04664000020F0B520253C
:1002F0003F260B480B4CC3692B4202D10F230362EC
:10030000F0BD094A416A23781278013333409A429A
:10031000F1D02278054FD2B2C9B2B9542370E9E7BF
:10032000003801402200002021000020230000208E
:1003300080238022F0B5D44D1B0585B0AB60D34B34
:10034000520019680A431A608022D20019681142CB
:10035000FCD007219A688A439A603131986802007C
:100360000A400842FAD11868C9490126084080218C
:10037000490101431960C748C74908600721586B04
:10038000014359630221D86B0143D9638021186C62
:10039000C90101431964C14B190037000C79086881
:1003A000A7400132876108310D2AF6D100240326C7
:1003B0001A683700116801348C4619796046490083
:1003C0008F40B843844601208840010060460143C5
:1003D0001160D1680833B943D1600D2CE8D1B04A1F
:1003E000B049136880270B401360D36830200B405E
:1003F000D360A023DB051968013CA1431960D968CB
:10040000FF05A143D9601168890089081160D1688E
:10041000890089083943D160A34A1168814311607A
:100420000100D7682039874300200F43D7609F4FD2
:100430008446B8629D489E4FC7629E4FC761882719
:100440007F010762FA27BF00C7630764012747617E
:100450008037076002201768B74307431760D768E3
:100460000138B743D7600F27166ABE433043106286
:1004700008201668A64330431060D0688E4EA04313
:10048000D060106AE434A0430843106262468B488F
:1004900002606832C2603B3A026080221868120330
:1004A000304002431A60DA6885483240DA605A6A9E
:1004B000A2431143802259621968920301400A4302
:1004C0001A608022D968520301400A43DA60596AEF
:1004D0007C4A1140802252000A435A6280227A4BA1
:1004E00012051A60C021794A794B090653602B6ABC
:1004F0001B021B0A0B432B62634693600733136096
:10050000744B80211A6AA023DB04134049048B42F8
:1005100004D18020C0041043FFF7A8FE6E48FFF707
:1005200065FE96226D4F520039683B685B1A934214
:10053000FBD30020FFF75AFE0025FFF76DFE2E00CB
:100540000400674B18703B680193FFF765FE00904D
:10055000844231D03B680193624B634A1978137827
:100560002C00994200D1D1E013786049DBB2CC5C19
:100570003F211378E4B201330B401370002D00D1FA
:10058000BAE002AA9455442D28D12200303A092A13
:100590000FD8392C1FD064235343444A4420D363DB
:1005A0001364FFF7FDFD2000FFF7FAFD0A20FFF7B7
:1005B000F7FD00242600A9E0494A009913788B42F0
:1005C000CAD03B6801995B1A132BC5D9009B1370E5
:1005D000FFF736FEC0E7FA239B00DEE701364C2D1D
:1005E0002ED12C00042E00D090E0002501212C00FB
:1005F000535D18003038092814D803002401013550
:100600001C43042DF4D10029D3D0E404E40C2000D1
:10061000FFF7ECFD4C20FFF7C3FD29002000FFF79A
:10062000D3FDC3E718004138052801D8373BE5E77B
:1006300018006138573B0528E0D90F230021DDE77A
:100640002124052E62D11378422BB2D153784F2B3F
:10065000AFD193784F2BACD1D378542BA9D1137948
:100660000A2BA6D12248FFF7A5FDC020194B214A2D
:100670001B6A8004134018434023104AD2691A426F
:10068000FBD0FFF7F3FD94E700ED00E0001002401F
:10069000FFC7FFFF001BB700000000203408000860
:1006A00000080050FFFFFFCF00040050000400408E
:1006B000E703000068680000FFFFF3FF0038014017
:1006C000FFFFCFFFFFF0FFFF00E100E010E000E0E0
:1006D000DF2E000000200240FF1F00006400002009
:1006E0002000002022000020210000202300002004
:1006F00004080008FFFFFFFB442C06D009D82E2C6D
:1007000016D03A2C0DD0212C09D12E002500009CAA
:100710001BE7532C27D0562C0FD04C2CF5D000249F
:10072000F4E71248FFF762FD1148FFF743FDF6E7D3
:100730002800FFF75BFD0F48F7E70F48FFF73AFD8A
:100740000E4B08211868FFF73FFD0D4B0821186874
:10075000FFF73AFD0B4B08211868FFF735FD0A201B
:10076000FFF71EFDDBE7FFF76BFDD8E7FF1F00007B
:100770000B0800080E080008110800085875FF1F34
:100780005475FF1F5075FF1F8022024B12059A609F
:100790007047C04600ED00E00D488546FFF7F4FFC6
:1007A000002103E00B4B5B58435004310A480B4BCC
:1007B00042189A42F6D30A4A02E000231360043238
:1007C000084B9A42F9D3FFF7C7FCFFF7B1FDFEE7EC
:1007D00000300020A40800080000002004000020D1
:1007E0000400002068000020FEE70000F8B5C046C5
:1007F000F8BC08BC9E467047F8B5C046F8BC08BCBB
:040800009E46704759
:1008040021424F4F540A003A0A002E0A0050312068
:10081400312E302D73313637207569643D00303107
:100824003233343536373839414243444546000083
:100834000004005009000000000000500000000007
:1008440000000050020000000000005003000000FF
:10085400000000500B000000000000500F000000DA
:1008640000040050050000000004005007000000D0
:100874000004005003000000000000500C000000C1
:1008840000040050040000000004005006000000B2
:08089400000400500800000000
:04089C00350100081A
:0408A0000901000842
:0408A400001BB7007E
:04000005080007994F
:00000001FF
