:020000040800F2
:1000000000300020AD070008FD070008FD070008CC
:1000100000000000000000000000000000000000E0
:10002000000000000000000000000000FD070008C4
:100030000000000000000000FD070008E5020008C5
:10004000FD07000800000000FD070008FD0700088C
:10005000FD070008FD070008FD070008FD07000870
:1000600000000000FD070008FD070008FD0700086C
:10007000FD070008FD070008FD070008000000005C
:10008000FD0700080000000000000000FD07000858
:1000900000000000FD070008FD070008FD0700083C
:1000A00000000000FD07000800000000F502000845
:1000B000FD07000800000000000000000000000034
:1000C0000448054B10B5834203D0044B002B00D0ED
:1000D000984710BD08000020080000200000000024
:1000E00006480749091A8B10C90FC91810B54910DD
:1000F00003D0044B002B00D0984710BD080000200F
:10010000080000200000000010B5074C2378002BE9
:1001100009D1FFF7D5FF054B002B02D0044800E0C2
:1001200000BF0123237010BD080000200000000064
:1001300000080008054B10B5002B03D00449054802
:1001400000E000BFFFF7CCFF10BDC046000000007C
:100150000C0000200008000870B50D4B0D4D5E1B13
:10016000B610AB4205D0002408CD01349847A64212
:10017000FAD800F045FB084B084D5E1BB610AB42A9
:1001800005D0002408CD01349847A642FAD870BDA6
:10019000B0080008B0080008B4080008B00800085B
:1001A0008022034BD9691142FCD098627047C04647
:1001B0000038014010B504002078002800D110BD9F
:1001C0000134FFF7EDFFF7E770B505000F268C004F
:1001D000043C231D00D170BD2B00E340024A334094
:1001E000D05CFFF7DDFFF3E736080008074A084B4D
:1001F0001B69106901224007C00F504090401B044A
:10020000DB0F5A401043C0B27047C0460004005094
:100210000008005010B55320FFF7C2FF0120074B24
:100220001C7820403030FFF7BBFFA007C00F3030F4
:10023000FFF7B6FF0A20FFF7B3FF10BD2400002030
:100240000A4B30B5186001240023094A25001179B2
:100250008D4029000500DD40254200D009041568C5
:100260000133A96108320D2BF0D130BD68000020A8
:1002700048080008164B5A69002A03DA154A9A60A2
:10028000154A9A6080225969D205114203D0134958
:10029000D9601349D9605969114217D1802252029D
:1002A00019691142FCD11A691A61802218625969D0
:1002B00092020A435A618022520219691142FCD10A
:1002C0008022596912050A435A61FEE77047C04609
:1002D0000020024023016745AB89EFCD3B2A190876
:1002E0007F6E5D4C024A1368013313607047C0464D
:1002F0006C000020F0B520253F260B480B4CC3694D
:100300002B4202D10F230362F0BD094A416A2378D0
:100310001278013333409A42F1D02278054FD2B29D
:10032000C9B2B9542370E9E7003801402600002023
:10033000250000202700002080238022F0B5D64D24
:100340001B0587B0AB60D54B520019680A431A6091
:100350008022D20019681142FCD007219A688A4392
:100360009A603131986802000A400842FAD1186850
:10037000CB49012608408021490101431960C94841
:10038000C94908600721586B014359630221D86BA2
:100390000143D9638021186CC90101431964C34B1F
:1003A000190037000C790868A740013287610831CD
:1003B0000D2AF6D100240326370018791A68400068
:1003C000874011680134B9438C46012181400800FF
:1003D000614608431060D0680833B843D0600D2CE4
:1003E000EAD1B34AB3481368802703401360D36847
:1003F000FF050340D360A0230C20DB051C6800210F
:1004000084431C60DC688C468443DC601468A40070
:10041000A4081460D468A400A4083C433027D46026
:10042000A54A1468BC431460D468BC43203F3C43D5
:10043000D460A24FA24CA162E762A24FA249E76139
:1004400088277F012762FA27BF00E763276409270F
:1004500003910F600121783761612760176849189F
:10046000B7430F431760D7680139B743D7600F27E9
:10047000166ABE433143116208211668013786436C
:1004800031431160D168914E8143D160116AE430EB
:1004900081433943116262468D490A606832CA60FD
:1004A0003B3A0A6080221968120331400A431A60FD
:1004B000DA683240DA605A6A82433A435A628022EA
:1004C00019688448920301400A431A608022D9685F
:1004D000520301400A43DA60596A7F4A1140802280
:1004E00052000A435A6280227C4B12051A60C021D6
:1004F0007B4A7C4B090653602B6A1B021B0A0B4389
:100500002B626346936007331360774B80211A6A2E
:10051000A023DB04134049048B4204D18020C00493
:100520001043FFF7A7FE7148FFF78AFE9622704E30
:100530005200316833685B1A9342FBD30020FFF707
:100540007FFEFFF753FE6B4B0500187033680026E3
:1005500037000293FFF74AFE0190854232D0644B88
:100560001B680293644B654A1978137835009942E9
:1005700000D1D5E013786249DBB2CD5C3F2113781E
:10058000EDB201330B401370002E00D1BEE004AA7F
:10059000D555442E29D12A00303A092A0FD821D026
:1005A00064235343E3632364039B44201A60FFF7EF
:1005B000F7FD2800FFF7F4FD0A20FFF7F1FD002505
:1005C0002F00ADE04B4A019913788B42CAD0484BBB
:1005D00002991B685B1A132BC4D9019B1370FFF798
:1005E00019FEBFE7FA239B00DCE701374C2E2ED122
:1005F0003500042F00D093E0002601213500935DE3
:1006000018003038092814D803002D0101361D4385
:10061000042EF4D10029D2D0ED04ED0C2800FFF710
:100620000FFE4C20FFF7BCFD31002800FFF7CCFD8A
:10063000C2E718004138052801D8373BE5E7180024
:100640006138573B0528E0D90F230021DDE721253C
:10065000052F65D11378422BB1D153784F2BAED1F2
:1006600093784F2BABD1D378542BA8D113790A2B85
:10067000A5D12448FFF79EFDC0201B4B224A1B6AD0
:100680008004134018434023114AD2691A42FBD018
:10069000FFF7F0FD93E7C04600ED00E000100240D8
:1006A000FFC7FFFF001BB700040000204808000838
:1006B00000080050FFFFFFCF00040050E7030000D8
:1006C000000400406868000000000020FFFFF3FF06
:1006D00000380140FFFFCFFFFFF0FFFF00E100E027
:1006E00010E000E0DF2E000000200240FF1F0000AD
:1006F0006C0000202400002026000020250000209F
:100700002700002018080008FFFFFFFB442D06D03B
:1007100009D82E2D16D03A2D0DD0212D09D1370014
:100720002E00019D16E7532D27D0562D0FD04C2DAE
:10073000F5D00025F4E71248FFF782FD1148FFF7D6
:1007400039FDF6E73000FFF77BFD0F48F7E70F486C
:10075000FFF730FD0E4B08211868FFF735FD0D4BF4
:1007600008211868FFF730FD0B4B08211868FFF7C8
:100770002BFD0A20FFF714FDDBE7FFF74BFDD8E761
:10078000FF1F00001F0800082208000825080008B5
:100790005875FF1F5475FF1F5075FF1F8022024BB5
:1007A00012059A607047C04600ED00E00D4885468E
:1007B000FFF7F4FF002103E00B4B5B58435004317B
:1007C0000A480B4B42189A42F6D30A4A02E0002329
:1007D00013600432084B9A42F9D3FFF7BDFCFFF7D0
:1007E000ABFDFEE700300020B80800080000002044
:1007F000080000200800002070000020FEE7000034
:10080000F8B5C046F8BC08BC9E467047F8B5C0466F
:08081000F8BC08BC9E467047CD
:1008180021424F4F540A003A0A002E0A0050312054
:10082800312E302D73313637207569643D003031F3
:10083800323334353637383941424344454600006F
:1008480000040050090000000000005000000000F3
:1008580000000050020000000000005003000000EB
:10086800000000500B000000000000500F000000C6
:1008780000040050050000000004005007000000BC
:100888000004005003000000000000500C000000AD
:10089800000400500400000000040050060000009E
:0808A8000004005008000000EC
:0408B0003501000806
:0408B400090100082E
:0808B80009000000001BB7005D
:04000005080007AD3B
:00000001FF
