:020000040800F2
:1000000000000C20D51C0008ED1B0008F51B0008A3
:10001000FD1B0008051C00080D1C0008251D00081C
:10002000000000000000000000000000151C000897
:10003000231C000800000000311C00083F1C0008C1
:10004000251D0008251D0008251D0008251D000888
:10005000251D0008251D0008251D0008251D000878
:10006000251D0008251D0008251D0008251D000868
:10007000251D0008251D0008251D0008251D000858
:10008000251D0008251D0008251D0008251D000848
:10009000251D0008251D0008251D0008251D000838
:1000A000251D0008251D0008251D0008251D000828
:1000B00000000000251D0008251D0008251D000862
:1000C000251D0008251D0008251D0008251D000808
:1000D000251D0008251D0008251D0008251D0008F8
:1000E000251D0008251D0008251D0008251D0008E8
:1000F000251D0008251D0008251D0008251D0008D8
:10010000251D0008251D0008251D0008251D0008C7
:10011000251D0008251D0008251D0008251D0008B7
:10012000251D0008251D0008251D0008251D0008A7
:10013000251D00084D1C0008251D0008251D000870
:10014000251D0008251D0008251D0008251D000887
:10015000251D0008251D0008251D0008251D000877
:10016000251D0008251D0008251D0008251D000867
:10017000251D0008251D0008251D0008251D000857
:10018000251D0008251D0008251D0008251D000847
:10019000251D0008251D0008251D0008251D000837
:1001A000251D0008251D0008251D0008251D000827
:1001B000251D000800000000251D0008251D000861
:1001C000251D000800000000251D0008251D000851
:1001D000251D0008251D0008251D0008251D0008F7
:1001E000251D0008251D0008251D0008251D0008E7
:1001F0000000000000000000251D0008251D00086B
:10020000251D0008251D0008251D0008251D0008C6
:10021000251D0008251D0008251D0008251D0008B6
:10022000251D0008251D0008251D0008251D0008A6
:08023000251D0008251D000832
:100238000348044B834202D0034B03B1184770476D
:10024800940200209402002000000000064B074999
:10025800C91A891048BF0131491003D0044B0BB1AA
:1002680001481847704700BF9402002094020020FC
:100278000000000010B5064C237843B9FFF7D8FFFB
:10028800044B13B10448AFF300800123237010BD61
:1002980094020020000000007083000808B5044B99
:1002A8001BB104490448AFF30080BDE80840CDE71E
:1002B80000000000980200207083000820F003016D
:1002C80010F00300C0F1000051F8043B00F1040CE9
:1002D8004FEACC0C6FF000021CBF22FA0CF2134359
:1002E8004FF0010C4CEA0C2C4CEA0C4CA3EB0C0222
:1002F80022EA030212EACC1204BF51F8043B04308C
:10030800F4D0C2F1000102EA0102B2FA82F2C2F1AB
:100318001F0200EBD20070470F4B70B50F4DAB4278
:10032800A3EB050607D0B6100024013455F8043BAA
:100338009847A642F9D80A4D08F016F8094B5E1BF3
:10034800AB424FEAA60606D00024013455F8043B18
:100358009847A642F9D870BD188500081885000886
:10036800188500081C85000870B5860747D0541EFC
:10037800002A3ED0CAB2034601E0013C39D303F853
:10038800012B9D07F9D1032C2CD9CDB20F2C05EBED
:10039800052505EB054535D9A4F1100C03F1100E20
:1003A8001A462CF00F064FEA1C1CB644C2E9005549
:1003B800C2E9025510327245F8D10CF1010214F06D
:1003C8000C0F04F00F0C03EB021213D0ACF1040372
:1003D80023F003030433134442F8045B9342FBD134
:1003E8000CF003042CB1C9B21C4403F8011BA3424E
:1003F800FBD170BD64461346002CF4D1F9E70346DF
:100408001446C0E71A46A446E0E700BF53B94AB904
:10041800002908BF00281CBF4FF0FF314FF0FF3004
:1004280000F0B2B9ADF1080C6DE904CE00F006F8A1
:10043800DDF804E0DDE9022304B070472DE9F04F50
:100448008C46099E04460F46002B48D18A42154621
:100458005ED9B2FA82F33BB1C3F120029F409D40BE
:100468009C4020FA02F217434FEA154E1FFA85FC0A
:10047800220CB7FBFEF10EFB117701FB0CF042EAF0
:100488000742904207D9AA1801F1FF3702D29042D9
:1004980000F258813946121AA4B2B2FBFEF00EFBE4
:1004A800102200FB0CFC44EA0244A4450BD92C1989
:1004B80000F1FF322CBF01270027A44502D9002FE5
:1004C80000F04381104640EA0140A4EB0C040021EF
:1004D8001EB1DC400023C6E90043BDE8F08F8B4223
:1004E80006D90EB1C6E9000100210846BDE8F08F23
:1004F800B3FA83F1002951D16345C0F016818242D5
:1005080040F213810846002EE7D0C6E90047E4E729
:10051800002A00F0AF80B2FA82F3002B40F0C280CC
:100528008A1A4FEA154EAFB20121200CB2FBFEFC2D
:100538000EFB1C2240EA024207FB0CF090420ED947
:10054800AA180CF1FF382CBF4FF001094FF0000931
:10055800904203D9B9F1000F00F0F080C446121A96
:10056800A4B2B2FBFEF00EFB102200FB07F744EA30
:100578000244A7420ED92C1900F1FF322CBF4FF0CC
:10058800010E4FF0000EA74203D9BEF1000F00F094
:10059800D2801046E41B40EA0C4099E7C1F12005DF
:1005A8008B400CFA01F400FA01F922FA05F72CFA4B
:1005B80005FC8A401F4320FA05F3380C23431FFA31
:1005C80087FE1C0CBCFBF0F800FB18CC44EA0C447A
:1005D80008FB0EFCA4450ED93C1908F1FF3A2CBFC4
:1005E8004FF0010B4FF0000BA44503D9BBF1000FEE
:1005F80000F0B880D046A4EB0C041FFA83FCB4FBCF
:10060800F0F300FB134403FB0EFE4CEA0444A6453A
:100618000ED93C1903F1FF302CBF4FF0010C4FF0FD
:10062800000CA64503D9BCF1000F00F09F800346DB
:1006380043EA0840A4EB0E04A0FB02EC64457346B1
:10064800E04602D307D1F14505D2BEEB02036CEBBD
:10065800070C0138E0465EB1B9EB030264EB08040D
:1006680004FA05F522FA01F3CC401D43C6E900540B
:10067800002132E742082F464B08AC4642EAC172D5
:10068800AE46C407110C92B241EA034142EA014264
:10069800B1FBF5F1B3FBF5F01F23A2EB0C0241EA25
:1006A800004142E79D40C3F1200299409C402CFA4A
:1006B80002FC4FEA154E20FA02F2AFB2BCFBFEF87C
:1006C8000A430EFB18CC110C41EA0C4108FB07FC4D
:1006D8008C4550D9691808F1FF302CBF4FF001093B
:1006E8004FF000098C4502D9B9F1000F30D0A1EBC9
:1006F8000C01B1FBFEF808FB07FC0EFB181192B2C7
:1007080042EA0142624534D2AA1808F1FF312CBFEF
:100718004FF001094FF000096245BED2B9F1000F50
:10072800BBD1A8F102012A44B7E7841A6CEB030293
:1007380001201746E7E62C4402382BE7ACF1020CFF
:100748002A440CE702392A44A5E62C440238BAE6C2
:10075800A5EB0C0CA8F102006144B1FBFEF808FB04
:1007680007FCCAE7A8F102083C4444E7023B3C44C2
:100778005EE7414691E7A1EB0C014046B1FBFEF86C
:1007880008FB07FCB9E700BF704700BF80B584B01D
:1007980000AF834B1B78002B05D000224FF48071EB
:1007A800804801F0D1FF804B1B68804A9B001344AE
:1007B8005B78002B06D000224FF48071794801F055
:1007C800C3FF0BE0784B1B680133774A1360764B05
:1007D8001B68052B02D1744B01221A604FF400717B
:1007E800704801F099FF0346002B00F0D5806C4B50
:1007F8001B78002B02D000F071FAC4E00023FB60E4
:10080800694B1B686A4A52F8233003F47043002B83
:1008180011D0654B1B68664A52F823301B0B03F056
:100828000F03644AD15C3A46FB6813440A461A70BF
:10083800FB680133FB605C4B1B685D4A52F8233050
:1008480003F47F43002B11D0574B1B68584A52F8CA
:1008580023301B0A03F00F03564AD15C3A46FB6863
:1008680013440A461A70FB680133FB604E4B1B6841
:100878004F4A52F823204FF6F0731340002B11D043
:10088800494B1B684A4A52F823301B0903F00F03EF
:10089800484AD15C3A46FB6813440A461A70FB681A
:1008A8000133FB60404B1B68414A52F823309BB22E
:1008B800002B10D03C4B1B683D4A52F8233003F004
:1008C8000F033C4AD15C3A46FB6813440A461A7047
:1008D800FB680133FB60344B1B68344A12F8233041
:1008E80003F0F003002B11D02F4B1B682F4A12F88E
:1008F80023301B09DBB21A462F4B995C3A46FB683A
:1009080013440A461A70FB680133FB60264B1B68C8
:10091800264A12F82330002B10D0234B1B68234A99
:1009280012F8233003F00F03234AD15C3A46FB68E0
:1009380013440A461A70FB680133FB603A46FB68A9
:1009480013440A221A70FB680133FB60FB689AB2F1
:1009580039464FF0FF33194806F082FB124B1B68EB
:10096800124A9B0013445B78002B0CD00E4B1A687C
:100978000E4993000B445B78013BD8B20B499300B6
:100988000B4402465A7000BF4FF40071054801F04D
:10099800C3FE0346002BF7D100BF1037BD4680BD0C
:1009A800020000200004024268000020B00200207B
:1009B800DC830008F083000800840008900300200E
:1009C80080B500AF154B4FF480721A60134B0122AB
:1009D8005A601249124801F0C7FC01224FF4807195
:1009E8000F4801F0B1FE0F4B80221A6000224FF42D
:1009F80000610D4801F0A8FE642001F057FA0122B9
:100A08004FF40061084801F09FFE642001F04EFA9F
:100A180000F0E4FC00F0A4FC00BF80BDD802002078
:100A280000040242EC0200200000024280B582B0BD
:100A380002AF5F4B1A785F4B1B789A4200F0B18087
:100A48005B4B1B78002B54D0012240215A4801F0FF
:100A58007BFE5A4B009302234FF220524FF48051F1
:100A6800554800F035FD554B009302234FF22052B4
:100A78004FF48041524800F02BFD504B0093022365
:100A88004FF220524FF480414B4800F021FD4B4B70
:100A9800009302234FF220524FF40051464800F0D1
:100AA80017FD464B009302234FF220524FF400519A
:100AB800434800F00DFD414B009302234FF22052B2
:100AC8004FF400413C4800F003FD3C4B00930223E7
:100AD8004FF220524FF40041394800F0F9FC374BEF
:100AE800009302234FF220520121364800F0F0FC17
:100AF80053E000224021304801F026FE324B00939B
:100B080002234FF220524FF480512B4800F0E0FCB2
:100B18002D4B009302234FF220524FF48041284876
:100B280000F0D6FC284B009302234FF220524FF4DA
:100B38008041214800F0CCFC234B009302234FF264
:100B480020524FF400511C4800F0C2FC1E4B009389
:100B580002234FF220524FF40051194800F0B8FC1C
:100B6800194B009302234FF220524FF400411248D0
:100B780000F0AEFC144B009302234FF220524FF4C6
:100B880000410F4800F0A4FC0F4B009302234FF2E2
:100B9800205201210B4800F09BFC054B1A78054BAD
:100BA8001A70FFF7F3FD00F011F800BFBD4680BDD5
:100BB800C7020020C80200200004024200000020F2
:100BC80000080242001C0242C402002080B500AFA7
:100BD800084B1B68084A934204D9064B00221A6046
:100BE80000F0BEFB034B1B680133024A136000BFD1
:100BF80080BD00BFD402002040420F0080B400AF87
:100C080000BFBD465DF8047B704780B400AF00BFED
:100C1800BD465DF8047B704780B400AF034B0122EA
:100C28001A7000BFBD465DF8047B7047C6020020FD
:100C380080B400AF00BFBD465DF8047B704700007C
:100C480080B500AF034B01221A70FFF7DEFF00BF2B
:100C580080BD00BFC702002080B500AF034B002253
:100C68001A70FFF7D2FF00BF80BD00BFC702002087
:100C780080B500AFFFF7C9FF00BF80BD80B400AFEB
:100C8800034B01221A7000BFBD465DF8047B704714
:100C9800C902002080B400AF034B00221A7000BFC5
:100CA800BD465DF8047B7047C902002080B400AFE0
:100CB800034B01221A7000BFBD465DF8047B7047E4
:100CC800CA02002080B400AF034B01221A7000BF93
:100CD800BD465DF8047B70470200002080B500AF78
:100CE8000748FFF7EBFA03469AB24FF0FF3304497F
:100CF800044806F0B5F9044B00221A7000BF80BD05
:100D080004000020900300200200002080B582B07B
:100D180000AF344B01225A603249334801F024FBBA
:100D280000228021304801F00FFD304B1B78002B4A
:100D380033D12F4B1B78002B2FD101237B6027E069
:100D48002C4A7B6852F823202B4B1B689A421CD1F3
:100D58002A4B19782A4A7B689B0013440A469A70E2
:100D6800274A7B689B001344DB78012B14D8244A5C
:100D78007B689B001344DB780133D9B2204A7B6837
:100D88009B0013440A46DA7006E07B6801337B60F7
:100D98007B68042BD4DD00E000BF184B00221A70DA
:100DA800134B00221A70174B1B78002B05D0124BDF
:100DB8001B680133104A136002E00F4B00221A60CF
:100DC80001224FF48071084801F0BEFC054B002257
:100DD8005A600449044801F0C7FA00BF0837BD4605
:100DE80080BD00BFEC02002000040242C9020020BE
:100DF800CA020020DC830008CC020020D0020020B8
:100E0800B0020020C602002080B400AF064B1B6869
:100E18001B01054A1360044B1B68034A136000BF9B
:100E2800BD465DF8047B7047CC02002080B400AF5B
:100E3800074B1B681B01064A1360054B1B680133EF
:100E4800034A136000BFBD465DF8047B704700BFCE
:100E5800CC02002080B400AF074B1B681B01064A78
:100E68001360054B1B680233034A136000BFBD467D
:100E78005DF8047B704700BFCC02002080B400AF4F
:100E8800074B1B681B01064A1360054B1B6803339D
:100E9800034A136000BFBD465DF8047B704700BF7E
:100EA800CC02002080B400AF074B1B681B01064A28
:100EB8001360054B1B680433034A136000BFBD462B
:100EC8005DF8047B704700BFCC02002080B400AFFF
:100ED800074B1B681B01064A1360054B1B6805334B
:100EE800034A136000BFBD465DF8047B704700BF2E
:100EF800CC02002080B400AF074B1B681B01064AD8
:100F08001360054B1B680633034A136000BFBD46D8
:100F18005DF8047B704700BFCC02002080B400AFAE
:100F2800074B1B681B01064A1360054B1B680733F8
:100F3800034A136000BFBD465DF8047B704700BFDD
:100F4800CC02002080B400AF074B1B681B01064A87
:100F58001360054B1B680833034A136000BFBD4686
:100F68005DF8047B704700BFCC02002080B400AF5E
:100F7800074B1B681B01064A1360054B1B680933A6
:100F8800034A136000BFBD465DF8047B704700BF8D
:100F9800CC02002080B400AF074B1B681B01064A37
:100FA8001360054B1B680A33034A136000BFBD4634
:100FB8005DF8047B704700BFCC02002080B400AF0E
:100FC800074B1B681B01064A1360054B1B680B3354
:100FD800034A136000BFBD465DF8047B704700BF3D
:100FE800CC02002080B400AF074B1B681B01064AE7
:100FF8001360054B1B680C33034A136000BFBD46E2
:101008005DF8047B704700BFCC02002080B400AFBD
:10101800074B1B681B01064A1360054B1B680D3301
:10102800034A136000BFBD465DF8047B704700BFEC
:10103800CC02002080B400AF074B1B681B01064A96
:101048001360054B1B680E33034A136000BFBD468F
:101058005DF8047B704700BFCC02002080B400AF6D
:10106800074B1B681B01064A1360054B1B680F33AF
:10107800034A136000BFBD465DF8047B704700BF9C
:10108800CC02002080B400AF074B1B781B01DAB2FA
:10109800054B1A70044B1A78034B1A7000BFBD46F3
:1010A8005DF8047B704700BFD002002080B400AF19
:1010B800084B1B781B01DAB2064B1A70054B1B78DC
:1010C8000133DAB2034B1A7000BFBD465DF8047BEA
:1010D800704700BFD002002080B400AF084B1B78D7
:1010E8001B01DAB2064B1A70054B1B780233DAB2D1
:1010F800034B1A7000BFBD465DF8047B704700BF04
:10110800D002002080B400AF084B1B781B01DAB274
:10111800064B1A70054B1B780333DAB2034B1A706F
:1011280000BFBD465DF8047B704700BFD0020020B9
:1011380080B400AF084B1B781B01DAB2064B1A705B
:10114800054B1B780433DAB2034B1A7000BFBD4657
:101158005DF8047B704700BFD002002080B400AF68
:10116800084B1B781B01DAB2064B1A70054B1B782B
:101178000533DAB2034B1A7000BFBD465DF8047B35
:10118800704700BFD002002080B400AF084B1B7826
:101198001B01DAB2064B1A70054B1B780633DAB21C
:1011A800034B1A7000BFBD465DF8047B704700BF53
:1011B800D002002080B400AF084B1B781B01DAB2C4
:1011C800064B1A70054B1B780733DAB2034B1A70BB
:1011D80000BFBD465DF8047B704700BFD002002009
:1011E80080B400AF084B1B781B01DAB2064B1A70AB
:1011F800054B1B780833DAB2034B1A7000BFBD46A3
:101208005DF8047B704700BFD002002080B400AFB7
:10121800084B1B781B01DAB2064B1A70054B1B787A
:101228000933DAB2034B1A7000BFBD465DF8047B80
:10123800704700BFD002002080B400AF084B1B7875
:101248001B01DAB2064B1A70054B1B780A33DAB267
:10125800034B1A7000BFBD465DF8047B704700BFA2
:10126800D002002080B400AF084B1B781B01DAB213
:10127800064B1A70054B1B780B33DAB2034B1A7006
:1012880000BFBD465DF8047B704700BFD002002058
:1012980080B400AF084B1B781B01DAB2064B1A70FA
:1012A800054B1B780C33DAB2034B1A7000BFBD46EE
:1012B8005DF8047B704700BFD002002080B400AF07
:1012C800084B1B781B01DAB2064B1A70054B1B78CA
:1012D8000D33DAB2034B1A7000BFBD465DF8047BCC
:1012E800704700BFD002002080B400AF084B1B78C5
:1012F8001B01DAB2064B1A70054B1B780E33DAB2B3
:10130800034B1A7000BFBD465DF8047B704700BFF1
:10131800D002002080B400AF084B1B781B01DAB262
:10132800064B1A70054B1B780F33DAB2034B1A7051
:1013380000BFBD465DF8047B704700BFD0020020A7
:1013480080B500AF00F034F9034603F07F03034A89
:1013580052F82330984700BF80BD00BF88000020A6
:10136800B0B59CB000AF194B07F154041D460FCD22
:101378000FC495E8070003C42270154B07F1380421
:101388001D460FCD0FC495E8070003C42270114B0A
:1013980007F11C041D460FCD0FC495E8070003C4D0
:1013A80022703B4600221A605A609A60DA601A611D
:1013B8005A611A7607F11C0319224FF48041064836
:1013C80000F024F800BF7037BD46B0BD8883000820
:1013D800A4830008C08300080000024280B500AF63
:1013E800074B04224FF40041064800F00FF8064B63
:1013F80018224FF40041034800F008F800BF80BDF0
:101408006C00002000000242700000202DE9F0432B
:1014180089B000AFF8607A603B600B467B816B4611
:101428001E460023FB6179684B1EBB610A460023F8
:10143800904699464FF000024FF000034FEAC90367
:1014480043EA58734FEAC8020A46002314461D4669
:101458004FF000024FF00003EB0043EA5473E20040
:101468000B460733DB08DB00ADEB030D6B467B61F6
:101478000023FB610BE0FB693A68134419787A6929
:10148800FB6913440A461A70FB690133FB61FA6968
:101498007B689A42EFDB7B8900221946F86801F0E5
:1014A80053F97B689AB24FF47A737969074805F063
:1014B80049FA7B8901221946F86801F045F9B546D1
:1014C80000BF2437BD46BDE8F08300BF00030020FD
:1014D8002DE9F04389B000AFF8607A603B600B46B5
:1014E8007B816B461E460023FB613B68D91C4B1E63
:1014F800BB610A460023904699464FF000024FF020
:1015080000034FEAC90343EA58734FEAC8020A4680
:10151800002314461D464FF000024FF00003EB0075
:1015280043EA5473E2000B460733DB08DB00ADEBFC
:10153800030D6B467B617B6900221A707B681B1266
:10154800DAB27B695A707B68DAB27B699A700023D9
:10155800FB610AE0FB693A6C1A44FB6903331178B2
:101568007A69D154FB690133FB61FA693B689A4295
:10157800F0DB7B8900221946F86801F0E5F83B6842
:101588009BB203339AB24FF47A737969074805F02E
:10159800D9F97B8901221946F86801F0D5F8B546D2
:1015A80000BF2437BD46BDE8F08300BF000300201C
:1015B80080B582B000AF20233B71391D642301221E
:1015C800034805F0EBFD3B7918460837BD4680BD5A
:1015D8009003002080B500AF00F0A2FB00F016F8E1
:1015E80000F02AF900F0DCF800F06AF8064B1B68F6
:1015F8001A68054B1B6842F020021A60FFF7E0F9F1
:10160800FFF714FAFCE700BF9003002080B59EB0F6
:1016180000AF07F11803602200211846FEF7A4FE68
:101628003B4600221A605A609A60DA601A615A6171
:101638004FF4403001F0A0F80346002B01D000F031
:10164800C1F90223BB614FF480737B621023BB6234
:1016580002233B6502237B650023FB650123BB65F1
:101668000A233B6602237B660223BB660123FB66D3
:101678000C233B6700237B6707F11803184601F02A
:1016880007F90346002B01D000F09CF91F233B60AB
:1016980003237B600023BB600023FB6000233B61C6
:1016A80000237B613B460421184601F0CDFF034629
:1016B800002B01D000F086F900BF7837BD4680BD09
:1016C80080B584B000AF3B1D00221A605A609A6052
:1016D800314B324A1A60304B4FF480025A602E4B1D
:1016E80000229A602C4B0722DA602B4B00221A61E9
:1016F800294B00225A61284B4FF080629A61264B91
:101708004FF0E042DA61244B00221A62224B002299
:101718005A62214B00229A621F4B0722DA621E4B43
:101728004FF080425A631C4B00229A631A4B0022E6
:10173800DA63194B00229A64174B0022DA64164BBD
:1017480000221A65144B00225A65134B00229A6531
:10175800114B0022DA65104B00221A660E4804F07D
:10176800DBFF0346002B01D000F02CF900237B603F
:101778004FF08053BB600023FB603B1D19460648B1
:1017880005F0DDFB0346002B01D000F01BF900BF7C
:101798001037BD4680BD00BF000300200030014067
:1017A80080B500AF224B234A1A60214B4FF4E13237
:1017B8005A601F4B00229A601D4B0022DA601C4BB6
:1017C80000221A611A4B0C225A61194B00229A61A5
:1017D800174B0022DA61164B00221A62144B0022C2
:1017E8005A62134B00229A62114805F0E9FB03463E
:1017F800002B01D000F0E6F800210D4806F0E9FCC6
:101808000346002B01D000F0DDF80021084806F05F
:101818001EFD0346002B01D000F0D4F8044806F062
:101828009FFC0346002B01D000F0CCF800BF80BD20
:10183800900300200038014080B58AB000AF07F15E
:10184800140300221A605A609A60DA601A61584BD1
:10185800D3F88C30564A43F00403C2F88C30544B0A
:10186800D3F88C3003F004033B613B69504BD3F849
:101878008C304F4A43F08003C2F88C304C4BD3F87D
:101888008C3003F08003FB60FB68494BD3F88C3045
:10189800474A43F00103C2F88C30454BD3F88C30EB
:1018A80003F00103BB60BB68414BD3F88C30404A5E
:1018B80043F00203C2F88C303D4BD3F88C3003F070
:1018C80002037B607B6801224FF4C041394800F075
:1018D8003BFF01224FF24001374800F035FF00225C
:1018E8004FF40061354800F02FFF01224FF44041CA
:1018F800324800F029FF00224FF480712E4800F092
:1019080023FF4FF4C0437B610123BB610023FB61CC
:1019180000233B6207F114031946264800F024FD12
:101928004FF400437B610023BB610023FB6107F197
:10193800140319461F4800F017FD01237B6100239B
:10194800BB610023FB6107F1140319461C4800F032
:101958000BFD4FF240137B610123BB610023FB6148
:1019680000233B6207F114031946134800F0FCFCFE
:101978004FF448437B610123BB610023FB610023D3
:101988003B6207F1140319460C4800F0EDFC4FF4D4
:1019980020737B610023BB610023FB6107F1140303
:1019A8001946054800F0E0FC00BF2837BD4680BD59
:1019B800000C0246000802420004024200000242F3
:1019C800001C024280B400AF72B600BF00BFFDE742
:1019D80080B483B000AF0A4BD3F89430084A43F080
:1019E8000403C2F89430064BD3F8943003F0040390
:1019F8007B607B6800BF0C37BD465DF8047B704791
:101A0800000C024680B5BAB000AF786007F1D40385
:101A180000221A605A609A60DA601A6107F11003AE
:101A2800C02200211846FEF79FFC7B681B68274AE6
:101A3800934246D14FF400024FF00003C7E9042354
:101A48004FF48013C7F8C03007F11003184602F0AE
:101A5800CBF90346002B01D0FFF7B4FF1C4BD3F89A
:101A6800A4301B4A43F48053C2F8A430184BD3F86F
:101A7800A43003F48053FB60FB68154BD3F88C301B
:101A8800134A43F00103C2F88C30114BD3F88C3061
:101A980003F00103BB60BB68E023C7F8D43002231E
:101AA800C7F8D8300023C7F8DC300023C7F8E03087
:101AB8000523C7F8E43007F1D4031946054800F0B8
:101AC80053FC00BFE837BD4680BD00BF0030014071
:101AD800000C02460000024280B5BAB000AF786040
:101AE80007F1D40300221A605A609A60DA601A611A
:101AF80007F11003C02200211846FEF735FC7B6869
:101B08001B68354A934263D14FF001024FF000033E
:101B1800C7E9042300233B6607F11003184602F0C7
:101B280063F90346002B01D0FFF74CFF2B4BD3F88A
:101B3800A4302A4A43F48043C2F8A430274BD3F890
:101B4800A43003F48043FB60FB68244BD3F88C304B
:101B5800224A43F00103C2F88C30204BD3F88C3072
:101B680003F00103BB60BB684FF40073C7F8D430BF
:101B78001223C7F8D8300123C7F8DC300023C7F890
:101B8800E0300723C7F8E43007F1D40319461448B6
:101B980000F0EAFB4FF48063C7F8D4300223C7F89B
:101BA800D8300023C7F8DC300023C7F8E03007231B
:101BB800C7F8E43007F1D4031946094800F0D4FB0C
:101BC800002200213D2000F04DFA3D2000F064FA8B
:101BD80000BFE837BD4680BD00380140000C024612
:101BE8000000024280B400AF00BFFDE780B400AF40
:101BF80000BFFDE780B400AF00BFFDE780B400AFD1
:101C080000BFFDE780B400AF00BFFDE780B400AFC0
:101C180000BFBD465DF8047B704780B400AF00BFCD
:101C2800BD465DF8047B704780B400AF00BFBD4679
:101C38005DF8047B704780B500AF00F017F900BF6E
:101C480080BD000080B500AFFFF77AFB024805F0C1
:101C58007DFB00BF80BD00BF9003002080B400AFB3
:101C6800184BD3F88830174A43F47003C2F8883009
:101C7800154B01221A60144B0022DA61124B002224
:101C88001A62114B00225A620F4B1B680E4A23F04E
:101C9800A85323F4102313600B4B00229A620A4BBB
:101CA8001B68094A23F480231360074B00221A6536
:101CB800044B4FF000629A6000BFBD465DF8047B9C
:101CC800704700BF00ED00E0000C0246DFF834D09A
:101CD800FFF7C4FF002103E00B4B5B58435004316E
:101CE8000A480B4B42189A42F6D30A4A02E00023EC
:101CF80042F8043B084B9A42F9D3FEF70DFBFFF775
:101D080069FCFEE700000C20208500080000002088
:101D1800910200209402002028040020FEE7000021
:101D280080B500AF124B1B68114A43F480731360EF
:101D3800032000F08CF901F079FE02460D4B1B6A76
:101D480003F00F030C49CB5C22FA03F30B4A136030
:101D5800042000F0D1F90F2000F012F80346002B00
:101D680001D0012302E0FFF733FE0023184680BDAF
:101D780000200240000C024610840008880200205F
:101D880080B584B000AF78600023FB60334B1B78CC
:101D9800002B01D101235CE0314B1B6803F00403E5
:101DA800042B0CD12F4B1A682C4B1B7819464FF477
:101DB8007A73B3FBF1F3B2FBF3F3FB6037E000F0A7
:101DC800F3F9B860BB68022B23D0BB68022B2DD86F
:101DD800BB68002B03D0BB68012B0DD026E0214B3C
:101DE8001A681E4B1B7819464FF4FA53B3FBF1F3EC
:101DF800B2FBF3F3FB601AE0184B1B781A464FF45A
:101E08007A73B3FBF2F34FF4FA42B2FBF3F3FB60DD
:101E18000DE0124B1B781A464FF47A73B3FBF2F3BA
:101E28004FF40042B2FBF3F3FB6000E000BFF86838
:101E380000F040F90346002B01D0012309E00022FD
:101E480079684FF0FF3000F00DF9074A7B6813609E
:101E5800002318461037BD4680BD00BF9002002001
:101E680010E000E0880200208C02002080B400AF5F
:101E7800064B1B781A46064B1B681344044A13602A
:101E880000BFBD465DF8047B704700BF900200208C
:101E98002404002080B400AF034B1B681846BD46DD
:101EA8005DF8047B704700BF2404002080B584B02F
:101EB80000AF7860FFF7EEFFB8607B68FB60FB68F7
:101EC800B3F1FF3F05D00A4B1B781A46FB68134451
:101ED800FB6000BFFFF7DEFF0246BB68D31AFA6853
:101EE8009A42F7D800BF00BF1037BD4680BD00BF7B
:101EF8009002002080B485B000AF78607B6803F062
:101F08000703FB600C4BDB68BB60BA684FF6FF0346
:101F18001340BB60FB681A02BB68134343F0BF63FE
:101F280043F40033BB60044ABB68D36000BF143776
:101F3800BD465DF8047B704700ED00E080B400AF5B
:101F4800044BDB681B0A03F007031846BD465DF81F
:101F5800047B704700ED00E080B483B000AF034617
:101F6800FB7197F90730002B0BDBFB7903F01F029D
:101F7800074997F907305B09012000FA02F241F896
:101F8800232000BF0C37BD465DF8047B704700BFB7
:101F980000E100E080B483B000AF03463960FB7114
:101FA80097F90730002B0ADB3B68DAB20C4997F93E
:101FB80007301201D2B20B4483F800230AE03B68D1
:101FC800DAB20849FB7903F00F03043B1201D2B2DD
:101FD8000B441A7600BF0C37BD465DF8047B70478A
:101FE80000E100E000ED00E080B489B000AFF860E7
:101FF800B9607A60FB6803F00703FB61FB69C3F112
:102008000703042B28BF0423BB61FB690433062B99
:1020180002D9FB69033B00E000237B614FF0FF32EC
:10202800BB6902FA03F3DA43BB681A407B699A403A
:102038004FF0FF317B6901FA03F3D9437B680B400A
:10204800134318462437BD465DF8047B704780B5B6
:1020580082B000AF78607868FFF74CFF00BF0837A0
:10206800BD4680BD80B586B000AF0346B9607A60D2
:10207800FB73FFF763FF78617A68B9687869FFF7DF
:10208800B3FF024697F90F3011461846FFF782FF53
:1020980000BF1837BD4680BD80B582B000AF03468B
:1020A800FB7197F907301846FFF756FF00BF08374E
:1020B800BD4680BD80B483B000AF78607B68013BCB
:1020C800B3F1807F01D301230DE00A4A7B68013B0D
:1020D8005360084B00229A60064B1B68054A43F080
:1020E80003031360002318460C37BD465DF8047BD4
:1020F800704700BF10E000E080B483B000AF7860A4
:102108007B68042B44D801A252F823F03721000839
:102118005521000877210008992100082921000885
:102128001F4B1B681E4A43F00403136031E01C4B2D
:102138001B681B4A23F0040313601A4BD3F8E030E2
:10214800184A23F44003C2F8E03022E0144B1B681D
:10215800134A23F004031360124BD3F8E03023F43E
:102168004003104A43F48003C2F8E03011E00C4BFE
:102178001B680B4A23F0040313600A4BD3F8E030C2
:1021880023F44003074A43F40003C2F8E03000E0B8
:1021980000BF00BF0C37BD465DF8047B704700BF29
:1021A80010E000E0000C024680B483B000AF194B89
:1021B8001B6803F00403002B02D004237B6021E09A
:1021C800154BD3F8E03003F440033B603B68B3F5AC
:1021D800000F11D03B68B3F5000F10D83B68002BF7
:1021E80004D03B68B3F5800F03D008E000237B6080
:1021F80008E001237B6005E002237B6002E0002306
:102208007B6000BF7B6818460C37BD465DF8047BD1
:10221800704700BF10E000E0000C024680B584B0B3
:1022280000AF7860FFF736FEF8607B68002B01D1BD
:1022380001236BE07B6893F85430DBB2022B08D0A3
:102248007B6820229A657B68002283F84C20012352
:102258005CE07B681B685A697B681B6842F0040273
:102268005A617B68052283F8542020E0FFF712FEAC
:102278000246FB68D31A052B19D97B689B6D43F07E
:1022880010027B689A657B68032283F854207B6878
:102298001B6D03F08003002B03D07B685B6F01226A
:1022A8001A737B68002283F84C2001232EE07B6898
:1022B8001B681B6903F40053002BD7D07B681B688D
:1022C8005A697B681B6842F002025A617B680422E3
:1022D80083F854207B681B684FF4FE42DA607B6801
:1022E800012283F854207B681B6D03F08003002BC8
:1022F80007D07B685B6F01221A737B681B6800221A
:102308009A647B68002283F84C2000231846103713
:10231800BD4680BD80B483B000AF78607B68002B79
:1023280001D1012319E07B6893F85430DBB2022B0A
:1023380004D07B6820229A6501230EE07B68042282
:1023480083F854207B681B685B697A68126843F4D9
:10235800005343F004035361002318460C37BD466D
:102368005DF8047B7047000080B489B000AF7860E6
:10237800396000237B617B683B61BAE13B681A687E
:1023880001217B6901FA03F31340FB607B69BB61A0
:10239800FB68002B00F0AA817B68554A93425DD107
:1023A8007B681B68FB6101227B6902FA03F3DB434C
:1023B800FA691340FB613B685B6803F001027B69C3
:1023C80002FA03F3FA691343FB617B68FA691A603E
:1023D800484A7B6952F833303B61464A7B69DB00E7
:1023E80013445B68BB61BB69DA083B69083253F880
:1023F8002230FB61BB6903F007039B000F2202FA3E
:1024080003F3DB43FA691340FB61BB6903F007037D
:102418009B000B2202FA03F3FA691343FB61BB69C1
:10242800DA083B690832F96943F822103B691B68EE
:10243800FB61BB695B00032202FA03F3DB43FA6921
:102448001340FB61BB695B00022202FA03F3FA69DD
:102458001343FB613B69FA691A6067E03B685B6894
:10246800022B03D03B685B68122B45D17B69DA08E5
:102478007B68083253F82230FB617B6903F007035D
:102488009B000F2202FA03F3DB43FA691340FB6156
:102498003B681B6903F00F027B6903F007039B008D
:1024A80002FA03F3FA691343FB617B69DA087B6874
:1024B8000832F96943F822103B691B68FB61BB6964
:1024C8005B00032202FA03F3DB43FA691340FB6162
:1024D8003B685B6803F00302BB695B0002FA03F325
:1024E800FA691343FB613B69FA691A601EE000BF91
:1024F80000000246688400083B691B68FB61BB69F1
:102508005B00032202FA03F3DB43FA691340FB6121
:102518003B685B6803F00302BB695B0002FA03F3E4
:10252800FA691343FB613B69FA691A603B685B68A7
:10253800012B0BD03B685B68022B07D03B685B68BC
:10254800112B03D03B685B68122B30D13B699B6829
:10255800FB61BB695B00032202FA03F3DB43FA6900
:102568001340FB613B68DA68BB695B0002FA03F35E
:10257800FA691343FB613B69FA699A603B695B68D6
:10258800FB610122BB6902FA03F3DB43FA691340DA
:10259800FB613B685B681B0903F00102BB6902FA37
:1025A80003F3FA691343FB613B69FA695A603B68B4
:1025B8005B68032B17D03B69DB68FB61BB695B0079
:1025C800032202FA03F3DB43FA691340FB613B6819
:1025D8009A68BB695B0002FA03F3FA691343FB616B
:1025E8003B69FA69DA603B685B6803F08053002B4B
:1025F8007CD0474A7B699B08183352F82330FB612B
:102608007B6903F00303DB000F2202FA03F3DB43C9
:10261800FA691340FB617B689A0A3E4B13407A695A
:1026280002F00302D2009340FA691343FB61384970
:102638007B699B081833FA6941F82320344B1B68DF
:10264800FB61FB68DB43FA691340FB613B685B682D
:1026580003F48013002B03D0FA69FB681343FB6172
:102668002B4AFB6913602A4B5B68FB61FB68DB4301
:10267800FA691340FB613B685B6803F40013002BA5
:1026880003D0FA69FB681343FB61214AFB69536075
:102698001F4BD3F88430FB61FB68DB43FA691340B6
:1026A800FB613B685B6803F40033002B03D0FA69D5
:1026B800FB681343FB61164AFB69C2F88430144B6C
:1026C800D3F88030FB61FB68DB43FA691340FB6198
:1026D8003B685B6803F48033002B03D0FA69FB681E
:1026E8001343FB610A4AFB69C2F880307B690133F6
:1026F8007B613B681A687B6922FA03F3002B7FF43D
:102708003DAE00BF00BF2437BD465DF8047B70476F
:10271800002002467F7F2F0080B485B000AF78602C
:102728000B467B807B681A697B881340002B02D09C
:102738000123FB7301E00023FB73FB7B184614376E
:10274800BD465DF8047B704780B483B000AF786005
:102758000B467B8013467B707B78002B03D07A88EE
:102768007B689A6102E07A887B689A6200BF0C37BE
:10277800BD465DF8047B704780B485B000AF7860D3
:10278800394BDB6B03F44033BB60BA687B689A4211
:102798000BD17B68B3F5803F05D9334BDB68324AF0
:1027A80043F48023D360002357E07B68B3F5803F70
:1027B8000AD92D4BDB6823F4E0227B6813432A4AAD
:1027C80043F48023D36007E0274BDB6823F4E0223F
:1027D80025497B681343CB60244B1B68244AA2FB22
:1027E80003239B09322202FB03F3214AA2FB0323A2
:1027F8009B090133FB6002E0FB68013BFB601A4B5D
:10280800DB6803F40043002B02D1FB68002BF3D1F3
:10281800FB68002B1BD0154B1B68154AA2FB032332
:102828009B09322202FB03F3114AA2FB03239B09F3
:102838000133FB6002E0FB68013BFB600A4BDB6B8A
:1028480003F40043002B02D1FB68002BF3D1FB6893
:10285800002B01D1032300E0002318461437BD469E
:102868005DF8047B704700BF00080246880200201C
:10287800D34D621080B400AF044BDB6B03F44033DC
:102888001846BD465DF8047B704700BF0008024645
:1028980080B58EB000AF7860002387F837307B684A
:1028A800002B02D1012300F0C8BE994BDB6903F06D
:1028B8000C033B63964B9B6A03F00303FB627B6844
:1028C8001B6803F01003002B00F06C813B6B002B9E
:1028D80007D03B6B0C2B40F0DE80FB6A012B40F0ED
:1028E800DA807B68DB69002B02D1012300F0A5BEEA
:1028F8007B685A6A864B9B6803F40003002B04D05C
:10290800834B9B6803F0704305E0814BD3F8F430A8
:102918001B0403F07043934255D23B6B002B0AD142
:102928007B685B6A184601F0D9F90346002B02D090
:10293800012300F082BE764B9B68754A43F400037E
:102948009360734B9B6823F070427B685B6A7049A5
:1029580013438B607B685B6AB3F1404F09D36C4BC0
:10296800DB6823F01F027B681B6A69491343CB604D
:102978007EE07B685B6A002B0ADA654BDB6823F430
:1029880078727B681B6A5B0161491343CB606FE017
:102998007B685B6AB3F1804F0AD35D4BDB6823F435
:1029A800F8427B681B6A9B0259491343CB605FE07E
:1029B800574BDB6823F478227B681B6ADB03544996
:1029C8001343CB6054E0524B9B68514A43F40003D5
:1029D80093604F4B9B6823F070427B685B6A4C495D
:1029E80013438B607B685B6AB3F1404F09D3484B54
:1029F800DB6823F01F027B681B6A45491343CB60E1
:102A080028E07B685B6A002B0ADA414BDB6823F419
:102A180078727B681B6A5B013D491343CB6019E000
:102A28007B685B6AB3F1804F0AD3394BDB6823F4C8
:102A3800F8427B681B6A9B0235491343CB6009E067
:102A4800334BDB6823F478227B681B6ADB0330494D
:102A58001343CB603B6B002B0AD17B685B6A18463B
:102A680001F03CF90346002B02D0012300F0E5BD3C
:102A780001F0DEF8274B1B681846FFF781F903467B
:102A880087F8273097F82730002B00F08A8097F8CE
:102A9800273000F0D2BD7B68DB69002B66D01C4B69
:102AA8001B681B4A43F001031360FFF7F3F9B86290
:102AB80009E0FFF7EFF90246BB6AD31A022B02D9E5
:102AC800032300F0BABD124B1B6803F00403002B6C
:102AD800EFD00F4B9B680E4A43F4000393600C4BF6
:102AE8009B6823F070427B685B6A094913438B60DB
:102AF8007B685B6AB3F1404F0ED3054BDB6823F06C
:102B08001F027B681B6A02491343CB604AE000BF7F
:102B1800000C02468C0200207B685B6A002B0ADAF4
:102B2800984BDB6823F478727B681B6A5B019549D4
:102B38001343CB6036E07B685B6AB3F1804F0AD3FE
:102B4800904BDB6823F4F8427B681B6A9B028D4933
:102B58001343CB6026E08B4BDB6823F478227B6839
:102B68001B6ADB0387491343CB601BE0854B1B685B
:102B7800844A23F001031360FFF78CF9B86209E077
:102B8800FFF788F90246BB6AD31A022B02D903233E
:102B980000F053BD7B4B1B6803F00403002BEFD1FF
:102BA80000E000BF7B681B6803F00103002B00F006
:102BB8008B803B6B082B05D03B6B0C2B09D1FB6A38
:102BC800032B06D17B685B68002B7DD1012300F0C5
:102BD80034BD7B685B68B3F5803F06D1694B1B68E1
:102BE800684A43F48033136041E07B685B68B3F55F
:102BF800A02F12D1634B1B68624A43F480231360F1
:102C0800604B1B685F4A23F4801313605D4B1B689D
:102C18005C4A43F48033136029E07B685B68B3F552
:102C2800A81F12D1574B1B68564A43F480231360E0
:102C3800544B1B68534A43F480131360514B1B6871
:102C4800504A43F48033136011E04E4B1B684D4AE1
:102C580023F4803313604B4B1B684A4A23F48023C8
:102C68001360484B1B68474A23F4801313607B6842
:102C78005B68002B14D0FFF70DF9B86209E0FFF785
:102C880009F90246BB6AD31A642B02D9032300F060
:102C9800D4BC3C4B1B6803F40033002BEFD013E08B
:102CA800FFF7F8F8B86209E0FFF7F4F80246BB6AE4
:102CB800D31A642B02D9032300F0BFBC314B1B6825
:102CC80003F40033002BEFD17B681B6803F0020389
:102CD800002B5FD03B6B042B05D03B6B0C2B14D126
:102CE800FB6A022B11D17B68DB68002B02D1012320
:102CF80000F0A3BC234B1B6923F4F8127B681B6903
:102D08001B04204913430B6144E07B68DB68002BFC
:102D180024D01C4B1B681B4A43F480731360FFF7D5
:102D2800B9F8B86209E0FFF7B5F80246BB6AD31AEA
:102D3800022B02D9032300F080BC124B1B6803F45A
:102D48008063002BEFD00F4B1B6923F4F8127B68CC
:102D58001B691B040B4913430B611BE0094B1B68E0
:102D6800084A23F480731360FFF794F8B8620BE005
:102D7800FFF790F80246BB6AD31A022B04D9032343
:102D880000F05BBC000C0246AF4B1B6803F4806389
:102D9800002BEDD17B681B6803F00803002B00F0C3
:102DA800C880002387F83630A74BD3F8943003F057
:102DB8000403002B11D1A44BD3F89430A24A43F05A
:102DC8000403C2F89430A04BD3F8943003F0040302
:102DD8007B617B69012387F836309C4B9B6A03F043
:102DE8000103002B19D1994B9B6A984A43F00103C0
:102DF8009362FFF74FF8B86209E0FFF74BF8024615
:102E0800BB6AD31A022B02D9032300F016BC8F4BDE
:102E18009B6A03F00103002BEFD07B685B69002BF2
:102E28005FD0894BD3F8F0303B627B689A693B6A84
:102E380003F080539A4237D03B6A03F00063002BBB
:102E480006D03B6A03F08063002B01D10123F4E331
:102E58003B6A03F08063002B1BD07B4BD3F8F03028
:102E6800794A23F0A053C2F8F030FFF713F8B8629C
:102E780008E0FFF70FF80246BB6AD31A052B01D901
:102E88000323DAE3704BD3F8F03003F00063002B30
:102E9800EFD16D4BD3F8F03023F080527B689B69FB
:102EA80069491343C1F8F030674BD3F8F030664AEC
:102EB80043F08063C2F8F030FEF7ECFFB86208E038
:102EC800FEF7E8FF0246BB6AD31A052B01D9032394
:102ED800B3E35D4BD3F8F03003F00063002BEFD081
:102EE8001BE0594BD3F8F030574A23F0A053C2F8EF
:102EF800F030FEF7CFFFB86208E0FEF7CBFF0246DE
:102F0800BB6AD31A052B01D9032396E34E4BD3F89A
:102F1800F03003F00063002BEFD197F83630012B27
:102F280007D1494BD3F89430474A23F00403C2F839
:102F380094307B681B6803F00403002B00F01181B8
:102F4800002387F83530404BD3F8943003F004035E
:102F5800002B11D13C4BD3F894303B4A43F0040387
:102F6800C2F89430384BD3F8943003F004033B6133
:102F78003B69012387F83530344B9B6A03F0010322
:102F8800002B18D1314B9B6A304A43F001039362FE
:102F9800FEF780FFB86208E0FEF77CFF0246BB6AD6
:102FA800D31A022B01D9032347E3284B9B6A03F06A
:102FB8000103002BF0D07B689B6803F00103002B12
:102FC8001FD07B689B6803F00403002B10D01E4BB6
:102FD800D3F8F0301C4A43F00403C2F8F0301A4B1F
:102FE800D3F8F030184A43F00103C2F8F03018E083
:102FF800154BD3F8F030144A43F00103C2F8F0300F
:103008000FE0114BD3F8F0300F4A23F00103C2F858
:10301800F0300D4BD3F8F0300B4A23F00403C2F81C
:10302800F0307B689B68002B57D0FEF733FFB862FF
:103038000EE0FEF72FFF0246BB6AD31A41F2883230
:10304800934205D90323F8E2000C02460008024621
:103058009C4BD3F8F03003F00203002BE9D07B68D7
:103068009B6803F08003002B1BD0964BD3F8F030FD
:10307800944A43F08003C2F8F0300AE0FEF70AFFF2
:103088000246BB6AD31A41F28832934201D903231C
:10309800D3E28C4BD3F8F03003F40063002BEDD06F
:1030A80053E0884BD3F8F030864A23F08003C2F807
:1030B800F0300AE0FEF7EEFE0246BB6AD31A41F290
:1030C8008832934201D90323B7E27E4BD3F8F0301C
:1030D80003F40063002BEDD137E0FEF7DBFEB862A6
:1030E8000AE0FEF7D7FE0246BB6AD31A41F28832DD
:1030F800934201D90323A0E2724BD3F8F03003F0D6
:103108000203002BEDD16F4BD3F8F03003F08003AE
:10311800002B1AD06B4BD3F8F0306A4A23F08003A7
:10312800C2F8F0300AE0FEF7B5FE0246BB6AD31AD1
:1031380041F28832934201D903237EE2614BD3F8EE
:10314800F03003F40063002BEDD197F83530012BF4
:1031580007D15C4BD3F894305A4A23F00403C2F8E1
:1031680094307B681B6803F02003002B36D07B6803
:10317800DB6A002B19D0534B1B68524A43F4805327
:103188001360FEF787FEB86208E0FEF783FE02468A
:10319800BB6AD31A022B01D903234EE2494B1B68A1
:1031A80003F40053002BF0D018E0464B1B68454A47
:1031B80023F480531360FEF76DFEB86208E0FEF753
:1031C80069FE0246BB6AD31A022B01D9032334E2F3
:1031D8003C4B1B6803F40053002BF0D17B681B6841
:1031E80003F08003002B36D07B681B6B002B19D0B3
:1031F800344B1B68334A43F480431360FEF74AFE9E
:10320800B86208E0FEF746FE0246BB6AD31A022BF4
:1032180001D9032311E22B4B1B6803F40043002B55
:10322800F0D018E0274B1B68264A23F4804313602C
:10323800FEF730FEB86208E0FEF72CFE0246BB6AD5
:10324800D31A022B01D90323F7E11E4B1B6803F4A1
:103258000043002BF0D17B681B6803F04003002B70
:103268007FD07B685B6B002B62D0164B9B68154A3E
:1032780043F400039360134B9B6823F070627B68F0
:103288009B6A104913438B607B685B6AB3F1404FBC
:1032980009D30C4BDB6823F01F027B681B6A0949C2
:1032A8001343CB602AE07B685B6A002B0CDA054B82
:1032B800DB6823F478727B681B6A5B01014913435E
:1032C800CB601BE0000C02467B685B6AB3F1804F61
:1032D8000AD3A14BDB6823F4F8427B681B6A9B0284
:1032E8009D491343CB6009E09B4BDB6823F47822AC
:1032F8007B681B6ADB0398491343CB60964B1B68BA
:10330800954A43F010031360FEF7C4FDB86208E065
:10331800FEF7C0FD0246BB6AD31A022B01D903236C
:103328008BE18D4B1B6803F02003002BF0D018E0D5
:10333800894B1B68884A23F010031360FEF7AAFD27
:10334800B86208E0FEF7A6FD0246BB6AD31A022B54
:1033580001D9032371E1804B1B6803F02003002B84
:10336800F0D17B689B6B002B00F06681002387F807
:103378003430794BDB6903F00C030C2B00F0F2803E
:103388007B689B6B022B40F0C580734B1B68724AAD
:1033980023F080731360FEF77DFDB86208E0FEF746
:1033A80079FD0246BB6AD31A022B01D9032344E1F3
:1033B800694B1B6803F00073002BF0D1664BD3F800
:1033C800943003F00403002B11D1634BD3F89430ED
:1033D800614A43F00403C2F894305F4BD3F8943049
:1033E80003F00403FB60FB68012387F834305B4B70
:1033F800DB6803F48023B3F5802F02D1012387F81B
:103408003730564BDB68554A23F48023D360524B40
:103418009B6A23F47F4323F003037A68D16B7A68AD
:10342800126C013A120211437A68526C0A434A49F3
:1034380013438B62484B5A6B494B13407A68926C22
:10344800013AC2F308017A68D26C013A520292B288
:1034580011437A68126D013A120402F4FE02114314
:103468007A68526D013A120602F0FE420A433A495E
:1034780013434B63384B9B6A374A23F0100393621C
:103488007B68DB6D344ADB009363334B9B6A324ABB
:1034980043F010039362304B9B6A23F00C027B6865
:1034A8009B6D2D4913438B6297F83730012B05D15B
:1034B8002A4BDB68294A43F48023D36097F83430D9
:1034C800012B07D1244BD3F89430234A23F004036B
:1034D800C2F89430204B1B681F4A43F08073136076
:1034E800FEF7D8FCB86208E0FEF7D4FC0246BB6AD7
:1034F800D31A022B01D903239FE0174B1B6803F053
:103508000073002BF0D0144B9B6A134A43F48023BA
:10351800936291E0104B1B680F4A23F0807313608D
:10352800FEF7B8FCB86208E0FEF7B4FC0246BB6AD6
:10353800D31A022B01D903237FE0074B1B6803F042
:103548000073002BF0D1044B9B6A034A23F4E02359
:1035580023F0030393626FE0000C02460008024662
:1035680000008080374B9B6AFB61364B5B6BBB610D
:103578007B689B6B012B39D0FB6903F003027B68E6
:10358800DB6B9A4232D1FB691B0A03F00F027B689E
:103598001B6C013B9A4229D1FB6903F470427B689A
:1035A8005B6C9A4222D1BB69C3F308027B689B6CAF
:1035B800013B9A421AD1BB695B0A03F07F027B6820
:1035C800DB6C013B9A4211D1BB691B0C03F07F02F3
:1035D8007B681B6D013B9A4208D1BB691B0E03F047
:1035E8007F027B685B6D013B9A4201D0012324E096
:1035F800144B9B6BDB08C3F30C027B68DB6D9A42B0
:103608001AD0104B9B6A0F4A23F010039362FEF7FF
:1036180041FCB86200BFFEF73DFC0246BB6A93421C
:10362800F9D07B68DB6D074ADB009363054B9B6A27
:10363800044A43F010039362002318463837BD4606
:1036480080BD00BF000C024680B586B000AF786030
:1036580039607B68002B01D10123D9E19B4B1B68A2
:1036680003F00F033A689A4210D9984B1B6823F06D
:103678000F0296493B6813430B60944B1B6803F099
:103688000F033A689A4201D00123C1E17B681B68A5
:1036980003F01003002B10D07B685A698C4B5B6ACF
:1036A80003F070039A4208D9894B5B6A23F07002D1
:1036B8007B685B69864913434B627B681B6803F030
:1036C8000803002B12D07B681A69814B1B6A1B09FF
:1036D80003F070039A4209D97D4B1B6A23F4E06218
:1036E8007B681B691B017A4913430B627B681B6863
:1036F80003F00403002B10D07B68DA68744B1B6A54
:1037080003F070039A4208D9714B1B6A23F07002C8
:103718007B68DB686E4913430B627B681B6803F0A8
:103728000203002B10D07B689A68694B1B6A03F070
:103738000F039A4208D9664B1B6A23F00F027B6875
:103748009B68634913430B627B681B6803F00103A2
:10375800002B00F0D2800023FB757B685B68032B8D
:1037680043D15B4BD3F8943003F00403002B10D102
:10377800574BD3F89430564A43F00403C2F89430B8
:10378800534BD3F8943003F00403BB60BB680123A8
:10379800FB75FEF77FFB38614E4BDB6803F4802333
:1037A800002B0FD008E0FEF775FB02463B69D31AE1
:1037B800022B01D903232BE1464BDB6803F480433A
:1037C800002BF0D0FB7D012B07D1414BD3F894306F
:1037D8003F4A23F00403C2F894303D4B1B6803F0C2
:1037E8000073002B21D1012312E17B685B68022B57
:1037F80007D1374B1B6803F40033002B15D1012385
:1038080006E17B685B68002B07D1314B1B6803F02E
:103818000403002B09D10123FAE02D4B1B6803F4A4
:103828008063002B01D10123F2E0294BDB6923F0EF
:1038380003027B685B6826491343CB61FEF72AFBCA
:1038480038617B685B68032B12D10AE0FEF722FB24
:1038580002463B69D31A41F28832934201D90323C5
:10386800D6E01B4BDB6903F00C030C2BEED144E0D4
:103878007B685B68022B12D10AE0FEF70BFB02465D
:103888003B69D31A41F28832934201D90323BFE03E
:103898000F4BDB6903F00C03082BEED12DE07B689E
:1038A8005B68002B23D10AE0FEF7F4FA02463B6975
:1038B800D31A41F28832934201D90323A8E0044B7A
:1038C800DB6903F00C03002BEED116E00020024068
:1038D800000C024600080246FEF7DCFA02463B6985
:1038E800D31A41F28832934201D9032390E04A4B1C
:1038F800DB6903F00C03042BEED17B681B6803F033
:103908000203002B10D07B689A68434B1B6A03F0B4
:103918000F039A4208D2404B1B6A23F00F027B68C0
:103928009B683D4913430B623C4B1B6803F00F0334
:103938003A689A4210D2394B1B6823F00F02374974
:103948003B6813430B60354B1B6803F00F033A6861
:103958009A4201D001235BE07B681B6803F00403F3
:10396800002B10D07B68DA682B4B1B6A03F07003BE
:103978009A4208D2284B1B6A23F070027B68DB68E6
:10398800254913430B627B681B6803F00803002B6F
:1039980012D07B681A69204B1B6A1B0903F070035D
:1039A8009A4209D21C4B1B6A23F4E0627B681B69AC
:1039B8001B01194913430B627B681B6803F0100352
:1039C800002B10D07B685A69134B5B6A03F07003B5
:1039D8009A4208D2104B5B6A23F070027B685B69DD
:1039E8000D4913434B6200F021F802460A4B1B6A4B
:1039F80003F00F030A49CB5C22FA03F3094A136068
:103A0800094B1B681846FEF7BBF90346FB73FB7BA3
:103A180018461837BD4680BD000C024600200240FB
:103A280010840008880200208C02002080B48BB02B
:103A380000AF00237B6200233B62784BDB6903F015
:103A48000C03BB61754B9B6A03F003037B61BB6985
:103A5800002B05D0BB690C2B21D17B69012B1ED112
:103A68006E4B9B6803F40003002B07D16B4BD3F814
:103A7800F4301B0B03F00F037B6205E0674B9B6878
:103A88001B0F03F00F037B62654A7B6A52F82330F1
:103A98007B62BB69002B10D17B6A3B620DE05F4BF8
:103AA800DB6903F00C03042B02D15E4B3B6204E09C
:103AB800BB69082B01D15B4B3B62BB690C2B40F007
:103AC800A580564B9B6A03F003033B61534B9B6AEB
:103AD8001B0A03F00F030133FB60504B9B6A1B0961
:103AE80003F00103BB604D4B9B6BDB08C3F30C0376
:103AF800BA6802FB03F307EE903AF8EE677AC7ED6F
:103B0800017A3B69022B03D03B69032B22D043E0A7
:103B1800FB6807EE903AF8EE677ADFED436A86EEC7
:103B2800A77A3E4B5B6BC3F3080307EE903AF8EEB7
:103B3800676A97ED016ADFED3D5AC6EE257A76EEA3
:103B4800A77AF7EE006A77EEA67A67EE277AC7EDCE
:103B5800077A46E0FB6807EE903AF8EE677ADFED01
:103B6800326A86EEA77A2D4B5B6BC3F3080307EE28
:103B7800903AF8EE676A97ED016ADFED2C5AC6EEC7
:103B8800257A76EEA77AF7EE006A77EEA67A67EEE0
:103B9800277AC7ED077A24E07B6A07EE903AF8EEB9
:103BA800676AFB6807EE903AF8EE677A86EEA77ABE
:103BB8001A4B5B6BC3F3080307EE903AF8EE676A9B
:103BC80097ED016ADFED195AC6EE257A76EEA77AE7
:103BD800F7EE006A77EEA67A67EE277AC7ED077ADE
:103BE80000BF0E4B5B6B1B0E03F07F0301333B6082
:103BF8003B6807EE903AB8EE677AD7ED076AC6EEEB
:103C0800877AFCEEE77A17EE903A3B623B6A1846F1
:103C18002C37BD465DF8047B704700BF000C024698
:103C2800288400080024F4000024744B0000004697
:103C380080B500AFFFF7FAFE0246074B1B6A03F098
:103C48000F030649CB5C22FA03F3054A1360044BC1
:103C58001B68184680BD00BF000C0246108400088F
:103C68008802002080B500AFFFF7E2FF0246054B4F
:103C78001B6A1B0903F007030349CB5C22FA03F311
:103C8800184680BD000C02462084000880B500AFAD
:103C9800FFF7CEFF0246054B1B6A1B0A03F007031A
:103CA8000349CB5C22FA03F3184680BD000C024698
:103CB8002084000880B500AFFFF7BAFF0246054B25
:103CC8005B6A1B0903F007030349CB5C22FA03F381
:103CD800184680BD000C02462084000880B586B0D6
:103CE80000AF78603E4BD3F8943003F00403002B08
:103CF80003D0FEF7BFFD786119E0394BD3F8943053
:103D0800374A43F00403C2F89430354BD3F8943063
:103D180003F00403FB60FB68FEF7ACFD7861304BF1
:103D2800D3F894302E4A23F00403C2F894307B6908
:103D3800B3F5403F03D07B69B3F5003F09D17B68F9
:103D4800B3F1805F02D201233B6133E000233B6182
:103D580030E07B68B3F1805F08D27B69B3F5803FC0
:103D680002D103233B6125E0012335E07B68B3F1F1
:103D7800005F0FD97B69002B09D17B68B3F1405FE5
:103D880002D900233B6115E001233B6112E00023C7
:103D98003B610FE07B68B3F1805F09D17B69B3F5C4
:103DA800803F02D101233B6104E002233B6101E033
:103DB80001233B610B4B1B6823F00F0209493B6948
:103DC80013430B60074B1B6803F00F033A699A42D1
:103DD80001D0012300E0002318461837BD4680BDF6
:103DE800000C0246002002402DE9B04FB8B000AFE9
:103DF800C7F8CC00002387F8DB30002387F8DA30D7
:103E0800D7F8CC30D3E9002302F00104002554EAA6
:103E180005030BD0CA4BD3F8E03023F00301D7F8E1
:103E2800CC301B6DC64A0B43C2F8E030D7F8CC3013
:103E3800D3E9002302F002084FF0000958EA090309
:103E48000BD0BF4BD3F8E03023F00C01D7F8CC30BF
:103E58005B6DBB4A0B43C2F8E030D7F8CC30D3E9EE
:103E6800002302F0040A4FF0000B5AEA0B030BD0B0
:103E7800B34BD3F8E03023F03001D7F8CC309B6D4A
:103E8800AF4A0B43C2F8E030D7F8CC30D3E900236F
:103E980002F00803C7F8C0300023C7F8C430D7E9D8
:103EA80030120B4613430BD0A54BD3F8E03023F068
:103EB800C001D7F8CC30DB6DA14A0B43C2F8E03023
:103EC800D7F8CC30D3E9002302F01003C7F8B83094
:103ED8000023C7F8BC30D7E92E120B4613430BD08A
:103EE800974BD3F8E03023F44071D7F8CC301B6EF1
:103EF800934A0B43C2F8E030D7F8CC30D3E900231B
:103F080002F02003C7F8B0300023C7F8B430D7E96F
:103F18002C120B4613430BD0894BD3F8E83023F00F
:103F28000701D7F8CC305B6E854A0B43C2F8E830FE
:103F3800D7F8CC30D3E9002302F04003C7F8A83003
:103F48000023C7F8AC30D7E92A120B4613430BD02D
:103F58007B4BD3F8E03023F44061D7F8CC309B6E2C
:103F6800774A0B43C2F8E030D7F8CC30D3E90023C6
:103F780002F08003C7F8A0300023C7F8A430D7E9BF
:103F880028120B4613430BD06D4BD3F8E03023F4C3
:103F98004051D7F8CC30DB6E694A0B43C2F8E030A9
:103FA800D7F8CC30D3E9002302F48073C7F89830EF
:103FB8000023C7F89C30D7E926120B4613430BD0D1
:103FC8005F4BD3F8E83023F0C001D7F8CC301B6F33
:103FD8005B4A0B43C2F8E830D7F8CC30D3E900236A
:103FE80002F48003C7F890300023C7F89430D7E96B
:103FF80024120B4613430BD0514BD3F8E03023F473
:104008004041D7F8CC305B6F4D4A0B43C2F8E030E3
:10401800D7F8CC30D3E9002302F40073C7F888300E
:104028000023C7F88C30D7E922120B4613430BD074
:10403800434BD3F8E83023F44061D7F8CC309B6F7A
:104048003F4A0B43C2F8E830D7F8CC30D3E9002315
:1040580002F48063C7F880300023C7F88430D7E9BA
:1040680020120B4613430BD0354BD3F8E03023F422
:104078004021D7F8CC30DB6F314A0B43C2F8E0302F
:10408800D7F8CC30D3E9002302F40063BB670023E0
:10409800FB67D7E91E120B4613430CD0284BD3F805
:1040A800E83023F44071D7F8CC30D3F88030244A74
:1040B8000B43C2F8E830D7F8CC30D3E9002302F438
:1040C80000533B6700237B67D7E91C120B46134359
:1040D8004FD0D7F8CC30D3F89030802B2DD0802B10
:1040E80027D8602B2ED0602B23D8402B06D0402B0E
:1040F8001FD8002B09D0202B11D01AE0104B9B6A37
:104108000F4A43F4803393621DE0D7F8CC3008336C
:10411800184602F0D1F9034687F8DB3013E0D7F8E8
:10412800CC302C33184602F05FFA034687F8DB30B0
:1041380009E0012387F8DB3005E000BF03E000BF9A
:10414800000C024600BF97F8DB30002B0DD1B64BB0
:10415800D3F8E43023F0E001D7F8CC30D3F890302E
:10416800B14A0B43C2F8E43003E097F8DB3087F834
:10417800DA30D7F8CC30D3E9002302F48043BB66A9
:104188000023FB66D7E91A120B46134353D0D7F81E
:10419800CC30D3F89430B3F5806F33D0B3F5806F5B
:1041A8002CD8B3F5407F2FD0B3F5407F26D8B3F590
:1041B800007F08D0B3F5007F20D8002B0AD0B3F5D4
:1041C800807F11D01AE0984B9B6A974A43F480335A
:1041D80093621AE0D7F8CC300833184602F06CF92D
:1041E800034687F8DB3010E0D7F8CC302C3318467C
:1041F80002F0FAF9034687F8DB3006E0012387F876
:10420800DB3002E000BF00E000BF97F8DB30002B96
:104218000DD1854BD3F8E43023F4E061D7F8CC30E6
:10422800D3F89430804A0B43C2F8E43003E097F89F
:10423800DB3087F8DA30D7F8CC30D3E9002302F442
:1042480000433B6600237B66D7E918120B461343ED
:1042580046D0D7F8CC30D3F8A430B3F5A04F28D047
:10426800B3F5A04F21D8B3F5804F22D0B3F5804FD6
:104278001BD8B3F5405F1CD0B3F5405F15D8B3F534
:10428800005F08D0B3F5005F0FD8002B11D0B3F54D
:10429800805F0ED009E0D7F8CC300833184602F01A
:1042A8000BF9034687F8DB3004E0012387F8DB309D
:1042B80000E000BF97F8DB30002B0DD15A4BD3F844
:1042C800E83023F4E041D7F8CC30D3F8A430564A8C
:1042D8000B43C2F8E83003E097F8DB3087F8DA30B0
:1042E800D7F8CC30D3E9002302F48033BB65002330
:1042F800FB65D7E916120B4613433FD0D7F8CC30ED
:10430800D3F88830042B1ED801A252F823F000BF3E
:10431800574300082D4300083B4300085743000853
:1043280057430008404B9B6A3F4A43F480339362EB
:104338000EE0D7F8CC302C33184602F055F9034676
:1043480087F8DB3004E0012387F8DB3000E000BFAA
:1043580097F8DB30002B0DD1334BD3F8E43023F042
:104368000701D7F8CC30D3F888302F4A0B43C2F86E
:10437800E43003E097F8DB3087F8DA30D7F8CC3050
:10438800D3E9002302F400333B6500237B65D7E9BA
:1043980014120B4613434DD0D7F8CC30D3F88C30D9
:1043A800B3F5802F28D0B3F5802F21D8B3F5403F3F
:1043B80024D0B3F5403F1BD8B3F5003F0ED0B3F57A
:1043C800003F15D8002B1BD0B3F5803F10D1164BFA
:1043D8009B6A154A43F48033936212E0D7F8CC30D5
:1043E8002C33184602F000F9034687F8DB3008E062
:1043F800012387F8DB3004E000BF02E000BF00E0E3
:1044080000BF97F8DB30002B10D1074BD3F8E8300A
:1044180023F4E021D7F8CC30D3F88C30024A0B4390
:10442800C2F8E83006E000BF000C024697F8DB301F
:1044380087F8DA30D7F8CC30D3E9002302F48023A8
:10444800BB640023FB64D7E912120B46134300F048
:10445800B580002387F8D9309D4BD3F8943003F00A
:104468000403002B13D19A4BD3F89430984A43F0A5
:104478000403C2F89430964BD3F8943003F0040345
:10448800C7F8D030D7F8D030012387F8D930914B0E
:104498009B6A904A43F001039362FDF7FBFCC7F85F
:1044A800D4000BE0FDF7F6FC0246D7F8D430D31A57
:1044B800022B03D9032387F8DB3005E0854B9B6A81
:1044C80003F00103002BEDD097F8DB30002B65D10A
:1044D8007F4BD3F8F03003F44073C7F8DC30D7F8DB
:1044E800DC30002B23D0D7F8CC30D3F8BC20D7F859
:1044F800DC3093421BD0764BD3F8F03023F4407372
:10450800C7F8DC30724BD3F8F030714A43F480338B
:10451800C2F8F0306E4BD3F8F0306D4A23F4803394
:10452800C2F8F0306A4AD7F8DC30C2F8F030D7F871
:10453800DC3003F00103002B19D0FDF7ABFCC7F802
:10454800D4000DE0FDF7A6FC0246D7F8D430D21A05
:1045580041F288339A4203D9032387F8DB3006E017
:104568005B4BD3F8F03003F00203002BEAD097F846
:10457800DB30002B0DD1564BD3F8F03023F44071CB
:10458800D7F8CC30D3F8BC30514A0B43C2F8F030DE
:1045980008E097F8DB3087F8DA3003E097F8DB308B
:1045A80087F8DA3097F8D930012B07D1484BD3F880
:1045B8009430474A23F00403C2F89430D7F8CC303B
:1045C800D3E9002302F480133B6400237B64D7E91A
:1045D80010120B46134342D0D7F8CC30D3F89C3096
:1045E800B3F1406F22D0B3F1406F1BD8B3F1006F25
:1045F80011D0B3F1006F15D8002B19D0B3F1806F2B
:1046080010D1D7F8CC300833184601F055FF0346CF
:1046180087F8DB300DE02E4B9B6A2D4A43F40033BC
:10462800936206E0012387F8DB3002E000BF00E078
:1046380000BF97F8DB30002B0DD1254BD3F8E030C5
:1046480023F04061D7F8CC30D3F89C30204A0B4394
:10465800C2F8E03003E097F8DB3087F8DA30D7F8B3
:10466800CC30D3E9002302F40023BB630023FB63AF
:10467800D7E90E120B46134332D0D7F8CC30D3F813
:104688009830B3F5005F0BD0B3F5005F04D8002B6A
:1046980008D0B3F5805F07D0012387F8DB3004E04A
:1046A80000BF02E000BF00E000BF97F8DB30002B3E
:1046B80012D1074BD3F8E43023F44051D7F8CC306B
:1046C800D3F89830024A0B43C2F8E43008E000BF40
:1046D800000C02460008024697F8DB3087F8DA300B
:1046E800D7F8CC30D3E9002302F400133B6300234E
:1046F8007B63D7E90C120B46134319D0D7F8CC309B
:10470800D3F8A030B3F5804F05D1884B9B6A874A10
:1047180043F480339362854BD3F8E43023F480412B
:10472800D7F8CC30D3F8A030804A0B43C2F8E43035
:10473800D7F8CC30D3E9002302F40003BB6200238E
:10474800FB62D7E90A120B4613430CD0774BD3F818
:10475800E03023F44012D7F8CC30D3F8B0307349A6
:104768001343C1F8E030D7F8CC30D3E9002302F086
:1047780080733B6200237B62D7E908120B46134320
:104788000CD06A4BD3F8E03023F44032D7F8CC3061
:10479800D3F8B43065491343C1F8E030D7F8CC30CA
:1047A800D3E9002302F00073BB610023FB61D7E962
:1047B80006120B4613430CD05C4BD3F8E83023F0B9
:1047C8001802D7F8CC30D3F8B83058491343C1F899
:1047D800E830D7F8CC30D3E9002302F080633B619E
:1047E80000237B61D7E904120B46134332D0D7F874
:1047F800CC30D3F8AC30B3F5001F05D14B4B9B6AD6
:104808004A4A43F400339362D7F8CC30D3F8AC303B
:10481800B3F5401F08D1D7F8CC300833184601F05B
:104828004BFE034687F8DB3097F8DB30002B0DD1C1
:104838003E4BD3F8E43023F44012D7F8CC30D3F809
:10484800AC303A491343C1F8E43003E097F8DB3061
:1048580087F8DA30D7F8CC30D3E9002302F00063C8
:10486800BB600023FB60D7E902120B4613433AD022
:10487800D7F8CC30D3F88430B3F1007F0ED0B3F141
:10488800007F15D8002B17D0B3F1807F10D1274BAC
:104898009B6A264A43F4003393620EE0D7F8CC3083
:1048A8000833184601F008FE034687F8DB3004E0B9
:1048B800012387F8DB3000E000BF97F8DB30002BDE
:1048C8000DD11A4BD3F8E03023F04072D7F8CC3032
:1048D800D3F8843015491343C1F8E03003E097F862
:1048E800DB3087F8DA30D7F8CC30D3E9002302F090
:1048F80080533B6000237B60D7E900120B461343CB
:104908000CD00A4BD3F8E83023F40042D7F8CC3067
:10491800D3F8A83005491343C1F8E83097F8DA30DE
:104928001846E037BD46BDE8B08F00BF000C024610
:1049380080B489B000AF7860A64B5B6BC3F3080303
:10494800BB61A44B9B6A03F003037B61A14B9B6A89
:104958001B0A03F00F0301333B619E4B9B6A1B0943
:1049680003F00103FB609B4B9B6BDB08C3F30C0359
:10497800FA6802FB03F307EE903AF8EE677AC7EDA0
:10498800027A7B69032B62D07B69032B00F281805A
:104998007B69012B24D07B69022B7AD13B6907EE16
:1049A800903AF8EE677ADFED8C6A86EEA77A894B43
:1049B8005B6BC3F3080307EE903AF8EE676A97ED6E
:1049C800026ADFED865AC6EE257A76EEA77AF7EE0A
:1049D800006A77EEA67A67EE277AC7ED077A8FE046
:1049E8007C4B9B6803F40003002B05D0794B9B6834
:1049F8001B0F03F00F0306E0764BD3F8F4301B04CB
:104A08001B0F03F00F03764A52F8233007EE903A53
:104A1800F8EE676A3B6907EE903AF8EE677A86EE39
:104A2800A77ABB6907EE903AF8EE676A97ED026AD3
:104A3800DFED6A5AC6EE257A76EEA77AF7EE006AB7
:104A480077EEA67A67EE277AC7ED077A58E03B69D2
:104A580007EE903AF8EE677ADFED5F6A86EEA77A9E
:104A68005C4B5B6BC3F3080307EE903AF8EE676A9A
:104A780097ED026ADFED595AC6EE257A76EEA77AE7
:104A8800F7EE006A77EEA67A67EE277AC7ED077A1F
:104A980036E0504B9B6803F40003002B05D04D4BC8
:104AA8009B681B0F03F00F0306E04A4BD3F8F43062
:104AB8001B041B0F03F00F03494A52F8233007EE7B
:104AC800903AF8EE676A3B6907EE903AF8EE677A33
:104AD80086EEA77ABB6907EE903AF8EE676A97ED1B
:104AE800026ADFED3E5AC6EE257A76EEA77AF7EE31
:104AF800006A77EEA67A67EE277AC7ED077A00BFD5
:104B0800344B9B6A03F48033002B17D0314B5B6B1B
:104B18005B0A03F07F0307EE903AF8EE677AB7EE88
:104B2800007A37EE877AD7ED076AC6EE877AFCEE09
:104B3800E77A17EE902A7B681A6002E07B68002209
:104B48001A60244B9B6A03F40033002B17D0214BC7
:104B58005B6B1B0C03F07F0307EE903AF8EE677A65
:104B6800B7EE007A37EE877AD7ED076AC6EE877A0E
:104B7800FCEEE77A17EE902A7B685A6002E07B68C1
:104B880000225A60134B9B6A03F48023002B17D032
:104B9800104B5B6B1B0E03F07F0307EE903AF8EEA9
:104BA800677AB7EE007A37EE877AD7ED076AC6EEEE
:104BB800877AFCEEE77A17EE902A7B689A6002E023
:104BC8007B6800229A6000BF2437BD465DF8047BED
:104BD800704700BF000C02460024744B00000046DA
:104BE8002884000880B489B000AF7860A64BDB6BDE
:104BF800C3F30803BB61A44BDB6A03F003037B61C7
:104C0800A14BDB6A1B0A03F00F0301333B619E4B88
:104C1800DB6A1B0903F00103FB609B4B1B6CDB0881
:104C2800C3F30C03FA6802FB03F307EE903AF8EEBD
:104C3800677AC7ED027A7B69032B62D07B69032B05
:104C480000F281807B69012B24D07B69022B7AD109
:104C58003B6907EE903AF8EE677ADFED8C6A86EEEC
:104C6800A77A894BDB6BC3F3080307EE903AF8EE9B
:104C7800676A97ED026ADFED865AC6EE257A76EE08
:104C8800A77AF7EE006A77EEA67A67EE277AC7ED7D
:104C9800077A8FE07C4B9B6803F40003002B05D058
:104CA800794B9B681B0F03F00F0306E0764BD3F894
:104CB800F4301B041B0F03F00F03764A52F823301D
:104CC80007EE903AF8EE676A3B6907EE903AF8EE1D
:104CD800677A86EEA77ABB6907EE903AF8EE676ABC
:104CE80097ED026ADFED6A5AC6EE257A76EEA77A64
:104CF800F7EE006A77EEA67A67EE277AC7ED077AAD
:104D080058E03B6907EE903AF8EE677ADFED5F6AA4
:104D180086EEA77A5C4BDB6BC3F3080307EE903A89
:104D2800F8EE676A97ED026ADFED595AC6EE257A02
:104D380076EEA77AF7EE006A77EEA67A67EE277A1C
:104D4800C7ED077A36E0504B9B6803F40003002B4D
:104D580005D04D4B9B681B0F03F00F0306E04A4B31
:104D6800D3F8F4301B041B0F03F00F03494A52F821
:104D7800233007EE903AF8EE676A3B6907EE903AFF
:104D8800F8EE677A86EEA77ABB6907EE903AF8EEF6
:104D9800676A97ED026ADFED3E5AC6EE257A76EE2F
:104DA800A77AF7EE006A77EEA67A67EE277AC7ED5C
:104DB800077A00BF344BDB6A03F48033002B17D02B
:104DC800314BDB6B5B0A03F07F0307EE903AF8EE9A
:104DD800677AB7EE007A37EE877AD7ED076AC6EEBC
:104DE800877AFCEEE77A17EE902A7B681A6002E071
:104DF8007B6800221A60244BDB6A03F40033002B23
:104E080017D0214BDB6B1B0C03F07F0307EE903AA6
:104E1800F8EE677AB7EE007A37EE877AD7ED076A49
:104E2800C6EE877AFCEEE77A17EE902A7B685A601E
:104E380002E07B6800225A60134BDB6A03F480238C
:104E4800002B17D0104BDB6B1B0E03F07F0307EE14
:104E5800903AF8EE677AB7EE007A37EE877AD7EDB0
:104E6800076AC6EE877AFCEEE77A17EE902A7B6827
:104E78009A6002E07B6800229A6000BF2437BD4632
:104E88005DF8047B704700BF000C02460024744B99
:104E9800000000462884000880B489B000AF78601C
:104EA800A64B5B6CC3F30803BB61A44B1B6B03F0FD
:104EB80003037B61A14B1B6B1B0A03F00F03013338
:104EC8003B619E4B1B6B1B0903F00103FB609B4B73
:104ED8009B6CDB08C3F30C03FA6802FB03F307EED1
:104EE800903AF8EE677AC7ED027A7B69032B62D0B5
:104EF8007B69032B00F281807B69012B24D07B69BD
:104F0800022B7AD13B6907EE903AF8EE677ADFED2B
:104F18008C6A86EEA77A894B5B6CC3F3080307EEAD
:104F2800903AF8EE676A97ED026ADFED865AC6EEA8
:104F3800257A76EEA77AF7EE006A77EEA67A67EE1C
:104F4800277AC7ED077A8FE07C4B9B6803F4000350
:104F5800002B05D0794B9B681B0F03F00F0306E06D
:104F6800764BD3F8F4301B041B0F03F00F03764A7B
:104F780052F8233007EE903AF8EE676A3B6907EE7D
:104F8800903AF8EE677A86EEA77ABB6907EE903A10
:104F9800F8EE676A97ED026ADFED6A5AC6EE257A7F
:104FA80076EEA77AF7EE006A77EEA67A67EE277AAA
:104FB800C7ED077A58E03B6907EE903AF8EE677A52
:104FC800DFED5F6A86EEA77A5C4B5B6CC3F3080380
:104FD80007EE903AF8EE676A97ED026ADFED595AE4
:104FE800C6EE257A76EEA77AF7EE006A77EEA67A0D
:104FF80067EE277AC7ED077A36E0504B9B6803F4D3
:105008000003002B05D04D4B9B681B0F03F00F03CB
:1050180006E04A4BD3F8F4301B041B0F03F00F03D0
:10502800494A52F8233007EE903AF8EE676A3B692E
:1050380007EE903AF8EE677A86EEA77ABB6907EE34
:10504800903AF8EE676A97ED026ADFED3E5AC6EECF
:10505800257A76EEA77AF7EE006A77EEA67A67EEFB
:10506800277AC7ED077A00BF344B1B6B03F48033F4
:10507800002B17D0314B5B6C5B0A03F07F0307EE04
:10508800903AF8EE677AB7EE007A37EE877AD7ED7E
:10509800076AC6EE877AFCEEE77A17EE902A7B68F5
:1050A8001A6002E07B6800221A60244B1B6B03F431
:1050B8000033002B17D0214B5B6C1B0C03F07F03D4
:1050C80007EE903AF8EE677AB7EE007A37EE877A0D
:1050D800D7ED076AC6EE877AFCEEE77A17EE902AD4
:1050E8007B685A6002E07B6800225A60134B1B6B96
:1050F80003F48023002B17D0104B5B6C1B0E03F0BE
:105108007F0307EE903AF8EE677AB7EE007A37EE4B
:10511800877AD7ED076AC6EE877AFCEEE77A17EE4C
:10512800902A7B689A6002E07B6800229A6000BF40
:105138002437BD465DF8047B704700BF000C02466B
:105148000024744B000000462884000880B58EB007
:1051580000AFC7E90001D7E90023A2F580210B437E
:1051680045D1AA4BD3F8F03003F440733B63A74B07
:10517800D3F8F03003F00203022B08D13B6BB3F5F0
:10518800807F04D14FF400437B6301F087B99F4BC4
:10519800D3F8F03003F00063B3F1006F14D13B6B28
:1051A800B3F5007F10D1994BD3F8F03003F080535A
:1051B800B3F1805F03D1FA237B6301F06FB94FF439
:1051C800FA437B6301F06AB9904B1B6803F4003320
:1051D800B3F5003F07D13B6BB3F5407F03D18C4B50
:1051E8007B6301F05BB900237B6301F057B9D7E912
:1051F8000023A2F500510B4351D1844BD3F8E4307E
:1052080003F0E0033B633B6B802B35D03B6B802B7B
:1052180041D83B6B602B2AD03B6B602B3BD83B6B58
:10522800402B09D03B6B402B35D83B6B002B0CD067
:105238003B6B202B12D02EE007F124031846FFF712
:1052480077FB7B6A7B6301F029B907F118031846DD
:10525800FFF7C8FCBB697B6301F020B907F10C03B9
:105268001846FFF719FEFB687B6301F017B94BF688
:1052780080337B6301F012B9644B1B6803F48063CD
:10528800B3F5806F03D1634B7B6301F007B900234B
:105298007B6301F003B900237B6301F0FFB8D7E912
:1052A8000023A2F580410B4358D1584BD3F8E43082
:1052B80003F4E0633B633B6BB3F5806F3BD03B6B20
:1052C800B3F5806F46D83B6BB3F5407F2ED03B6B70
:1052D800B3F5407F3ED83B6BB3F5007F0BD03B6BFB
:1052E800B3F5007F36D83B6B002B0DD03B6BB3F585
:1052F800807F12D02EE007F124031846FFF718FB31
:105308007B6A7B6301F0CAB807F118031846FFF7F8
:1053180069FCBB697B6301F0C1B807F10C0318464F
:10532800FFF7BAFDFB687B6301F0B8B84BF6803332
:105338007B6301F0B3B8354B1B6803F48063B3F5A6
:10534800806F03D1334B7B6301F0A8B800237B63E4
:1053580001F0A4B800237B6301F0A0B8D7E90023CB
:10536800A2F580110B436ED1284BD3F8E03003F03F
:1053780040633B633B6BB3F1406F34D03B6BB3F19D
:10538800406F5CD83B6BB3F1006F0BD03B6BB3F154
:10539800006F54D83B6B002B16D03B6BB3F1806F7A
:1053A80009D04CE007F124031846FFF7C1FABB6A9D
:1053B8007B6301F073B807F118031846FFF712FC76
:1053C800FB697B6301F06AB8104B1B6803F4005358
:1053D800B3F5005F03D1104B7B6301F05FB8002386
:1053E8007B6301F05BB8094B1B6803F02003202B9B
:1053F80021D1064B9B6803F40003002B0ED0034B0E
:105408009B681B0E03F00F030FE000BF000C024661
:1054180020A107000024F400006CDC02A74BD3F89D
:10542800F4301B041B0E03F00F03A54A52F8233077
:105438007B6301F033B800237B6301F02FB80023AE
:105448007B6301F02BB8D7E90023A2F500110B43C9
:105458007FD19A4BD3F8E43003F480433B633B6B32
:10546800002B65D1954BD3F8E03003F040633B63E4
:105478003B6BB3F1406F34D03B6BB3F1406F53D803
:105488003B6BB3F1006F0BD03B6BB3F1006F4BD8A4
:105498003B6B002B16D03B6BB3F1806F09D043E018
:1054A80007F124031846FFF743FABB6A7B6300F051
:1054B800F5BF07F118031846FFF794FBFB697B63F8
:1054C80000F0ECBF7D4B1B6803F40053B3F5005F9D
:1054D80003D17C4B7B6300F0E1BF00237B6300F0CA
:1054E800DDBF764B1B6803F02003202B18D1734BCC
:1054F8009B6803F40003002B05D0704B9B681B0EC0
:1055080003F00F0306E06D4BD3F8F4301B041B0EB9
:1055180003F00F036A4A52F823307B6300F0BEBFE2
:1055280000237B6300F0BABF00237B6300F0B6BFA3
:105538003B6BB3F5804F08D107F124031846FFF7FA
:10554800F7F97B6A7B6300F0A9BF00237B6300F057
:10555800A5BFD7E90023511E0B4336D1574BD3F8CB
:10556800E03003F003033B633B6B002B04D1FEF7F1
:105578008DFB786300F092BF3B6B012B04D1FEF7E3
:1055880055FA786300F08ABF4C4B1B6803F48063BC
:10559800B3F5806F06D13B6B022B03D14A4B7B637B
:1055A80000F07CBF454BD3F8F03003F00203022B28
:1055B80007D13B6B032B04D14FF400437B6300F00E
:1055C8006DBF00237B6300F069BFD7E90023911EFC
:1055D8000B4336D1394BD3F8E03003F00C033B636F
:1055E8003B6B002B04D1FEF73DFB786300F056BF00
:1055F8003B6B042B04D1FEF719FA786300F04EBF19
:105608002E4B1B6803F48063B3F5806F06D13B6BA8
:10561800082B03D12C4B7B6300F040BF274BD3F8FA
:10562800F03003F00203022B07D13B6B0C2B04D1A3
:105638004FF400437B6300F031BF00237B6300F02D
:105648002DBFD7E90023111F0B433FD11B4BD3F8C4
:10565800E03003F030033B633B6B002B04D1FEF7D3
:1056680001FB786300F01ABF3B6B102B04D1FEF7E7
:10567800DDF9786300F012BF104B1B6803F48063F8
:10568800B3F5806F06D13B6B202B03D10E4B7B63A8
:1056980000F004BF094BD3F8F03003F00203022BEB
:1056A80007D13B6B302B04D14FF400437B6300F0F0
:1056B800F5BE00237B6300F0F1BE00BF000C02467C
:1056C80028840008006CDC020024F400D7E90023D9
:1056D800A2F108010B4336D1A44BD3F8E03003F014
:1056E800C0033B633B6B002B04D1FEF7BBFA786326
:1056F80000F0D4BE3B6B402B04D1FEF797F97863DA
:1057080000F0CCBE994B1B6803F48063B3F5806F3F
:1057180006D13B6B802B03D1954B7B6300F0BEBE5B
:10572800924BD3F8F03003F00203022B07D13B6B06
:10573800C02B04D14FF400437B6300F0AFBE0023BD
:105748007B6300F0ABBED7E90023A2F110010B4345
:1057580039D1864BD3F8E03003F440733B633B6B9D
:10576800002B04D1FEF77EFA786300F097BE3B6BFE
:10577800B3F5807F04D1FEF759F9786300F08EBE47
:105788007A4B1B6803F48063B3F5806F07D13B6BDA
:10579800B3F5007F03D1764B7B6300F07FBE734B7C
:1057A800D3F8F03003F00203022B08D13B6BB3F5BA
:1057B800407F04D14FF400437B6300F06FBE0023A9
:1057C8007B6300F06BBED7E90023A2F120010B43F5
:1057D80058D1664BD3F8E83003F007033B633B6BC3
:1057E800002B04D1FEF766FA786300F057BE3B6BD6
:1057F800012B04D1FEF71AF9786300F04FBE5B4B1A
:105808001B6803F48063B3F5806F06D13B6B022BF2
:1058180003D1574B7B6300F041BE544BD3F8F030B3
:1058280003F00203022B07D13B6B032B04D14FF487
:1058380000437B6300F032BE4C4B1B6803F020032F
:10584800202B1BD13B6B042B18D1484B9B6803F4CE
:105858000003002B05D0454B9B681B0E03F00F037C
:1058680006E0424BD3F8F4301B041B0E03F00F0381
:10587800404A52F823307B6300F010BE00237B635C
:1058880000F00CBED7E90023A2F500410B4373D109
:10589800364BD3F8E83003F4E0433B633B6BB3F596
:1058A800805F04D1FEF7C2F8786300F0F7BD3B6B68
:1058B800B3F5005F08D107F118031846FFF792F90E
:1058C8003B6A7B6300F0EABD3B6B002B04D1FEF71B
:1058D800AFF9786300F0E2BD3B6BB3F5A04F22D17E
:1058E800224B1B6803F02003202B18D11F4B9B6809
:1058F80003F40003002B05D01C4B9B681B0E03F020
:105908000F0306E0194BD3F8F4301B041B0E03F009
:105918000F03184A52F823307B6300F0BFBD002301
:105928007B6300F0BBBD114B1B6803F40033B3F578
:10593800003F07D13B6BB3F5405F03D10C4B7B6352
:1059480000F0ACBD094B1B6803F48063B3F5806FAE
:1059580007D13B6BB3F5804F03D1054B7B6300F058
:105968009DBD00237B6300F099BD00BF000C02467B
:105978000024F40028840008D7E90023A2F5803128
:105988000B4358D1AD4BD3F8E43003F007033B6326
:105998003B6B042B4BD801A252F823F0DD590008C9
:1059A800B9590008CB590008E7590008F15900080F
:1059B80007F124031846FEF7BBFF7B6A7B6300F000
:1059C8006DBD07F10C031846FFF766FA3B697B6368
:1059D80000F064BDFEF72CF9786300F05FBD4BF66C
:1059E80080337B6300F05ABD944B1B6803F020039F
:1059F800202B18D1914B9B6803F40003002B05D092
:105A08008E4B9B681B0E03F00F0306E08B4BD3F8FD
:105A1800F4301B041B0E03F00F03894A52F823309D
:105A28007B6300F03BBD00237B6300F037BD0023A0
:105A38007B6300F033BDD7E90023A2F500310B43A7
:105A480067D17E4BD3F8E83003F4E0233B633B6B2C
:105A5800B3F5802F36D03B6BB3F5802F55D83B6B11
:105A6800B3F5403F29D03B6BB3F5403F4DD83B6B76
:105A7800B3F5003F13D03B6BB3F5003F45D83B6B04
:105A8800002B15D03B6BB3F5803F3ED107F12403C3
:105A98001846FEF74DFF7B6A7B6300F0FFBC07F1F9
:105AA8000C031846FFF7F8F93B697B6300F0F6BC76
:105AB800FEF7BEF8786300F0F1BC4BF680337B63E9
:105AC80000F0ECBC5D4B1B6803F02003202B18D1C1
