:020000040800F2
:10000000002000200D15000899140008A114000814
:1000100000000000000000000000000000000000E0
:10002000000000000000000000000000A91400080B
:100030000000000000000000B3140008BD14000818
:100040005D150008000000005D1500085D15000842
:100050005D1500085D1500085D1500085D150008B8
:10006000000000005D1500085D1500085D15000822
:100070005D1500085D1500085D1500080000000012
:100080005D1500085D150008000000005D15000802
:100090005D1500085D1500085D1500085D15000878
:1000A0005D1500085D1500085D150008CD140008F9
:1000B000E91400080000000000000000000000003B
:1000C0000448054B10B5834203D0044B002B00D0ED
:1000D000984710BD6C0300206C0300200000000056
:1000E00006480749091A8B10C90FC91810B54910DD
:1000F00003D0044B002B00D0984710BD6C030020A8
:100100006C0300200000000010B5074C2378002B82
:1001100009D1FFF7D5FF054B002B02D0044800E0C2
:1001200000BF0123237010BD6C03002000000000FD
:10013000A0350008054B10B5002B03D00449054835
:1001400000E000BFFFF7CCFF10BDC046000000007C
:1001500070030020A035000810B583070AD0030003
:10016000032102E001330B4205D01A78002AF9D1AD
:10017000181A10BD030019680C4A0D4C8A188A43DE
:1001800022420FD15968094A04338A188A4322420D
:1001900008D15968054A04338A188A432242F1D0AB
:1001A00000E001331A78002AFBD1E1E7FFFEFEFEF2
:1001B0008080808070B50D4B0D4D5E1BB610AB423C
:1001C00005D0002408CD01349847A642FAD803F0A0
:1001D000E7F9084B084D5E1BB610AB4205D0002472
:1001E00008CD01349847A642FAD870BD28360008D9
:1001F000283600082C36000828360008F0B505001F
:10020000830749D0541E002A45D003000326CAB2F2
:1002100002E00135013C3ED301332A703342F8D16C
:10022000032C30D9FF220A401502AD182A04AD185C
:100230000F2C34D92700103F3F093E01B4461E0061
:100240001A0010366644156055609560D56010320E
:100250009642F8D101373F01DB190F270C222740C6
:1002600022403C00002A0ED03E1FB608B400A4462F
:100270001A001C1D644420C2A242FCD10324013692
:10028000B6009B193C40002C05D0C9B21C1919704E
:1002900001339C42FBD1F0BD03001400C0E72700EE
:1002A000E2E7C046002243088B4274D303098B4225
:1002B0005FD3030A8B4244D3030B8B4228D3030C36
:1002C0008B420DD3FF22090212BA030C8B4202D3D8
:1002D0001212090265D0030B8B4219D300E0090A00
:1002E000C30B8B4201D3CB03C01A5241830B8B4209
:1002F00001D38B03C01A5241430B8B4201D34B03F2
:10030000C01A5241030B8B4201D30B03C01A524156
:10031000C30A8B4201D3CB02C01A5241830A8B42DB
:1003200001D38B02C01A5241430A8B4201D34B02C4
:10033000C01A5241030A8B4201D30B02C01A524128
:10034000CDD2C3098B4201D3CB01C01A52418309DC
:100350008B4201D38B01C01A524143098B4201D316
:100360004B01C01A524103098B4201D30B01C01A41
:100370005241C3088B4201D3CB00C01A52418308BB
:100380008B4201D38B00C01A524143088B4201D3E8
:100390004B00C01A5241411A00D201465241104648
:1003A0007047FFE701B5002000F006F802BDC04627
:1003B0000029F7D076E770477047C04680B584B013
:1003C00000AF8D4B1B78002B06D080235B008B4841
:1003D0000022190001F011FC894B1B68894A9B001F
:1003E000D31801331B78002B07D080235B00834890
:1003F0000022190001F001FC0BE0814B1B685A1C24
:100400007F4B1A607E4B1B68062B02D17C4B01226E
:100410001A6080239B00794A1900100001F0D0FB7C
:10042000031E00D1E3E0744B1B78002B02D000F0D8
:1004300095FAC6E00023FB60714B1A68724B92007C
:10044000D258F0231B02134011D06D4B1A686E4B2B
:100450009200D3581B0B0F2213406C4AD15C3A0018
:10046000FB68D3180A1C1A70FB680133FB60644BED
:100470001A68654B9200D258FF231B02134011D01B
:100480005F4B1A68604B9200D3581B0A0F2213402F
:100490005E4AD15C3A00FB68D3180A1C1A70FB68EC
:1004A0000133FB60564B1A68574B9200D358584A99
:1004B000134011D0524B1A68534B9200D3581B096A
:1004C0000F221340514AD15C3A00FB68D3180A1C32
:1004D0001A70FB680133FB60494B1A684A4B920063
:1004E000D3581B041B0C10D0454B1A68464B920086
:1004F000D3580F221340454AD15C3A00FB68D31809
:100500000A1C1A70FB680133FB603D4B1A683D4BB7
:100510009200D35C1A00F023134011D0384B1A68B4
:10052000384B9200D35C1B09DBB21A00394B995C43
:100530003A00FB68D3180A1C1A70FB680133FB6091
:100540002F4B1A682F4B9200D35C002B11D02C4BF1
:100550001A682C4B9200D35C1A000F2313402D4ACB
:10056000D15C3A00FB68D3180A1C1A70FB6801338F
:10057000FB603A00FB68D3180A221A70FB6801334B
:10058000FB60FB689AB201235B423900224802F00B
:10059000D1F81B4B1B681B4A9B00D31801331B78F7
:1005A000002B0ED0164B1B6816499A008A18013290
:1005B0001278013AD1B2134A9B00D31801330A1CB6
:1005C0001A70C04680239B000C4A1900100001F0ED
:1005D000F7FA031EF6D1114B114A1A600F4B002295
:1005E0005A600E4B054A1900100001F079F9C04617
:1005F000BD4604B080BDC046F000002000040048A5
:100600005C01002088030020B8350008D0350008C0
:10061000F0FF0000E0350008D8030020B003002000
:100620000408000080B500AF0C4B802252001A6015
:100630000A4B01225A60094B094A1900100001F0C7
:100640004FF980235B0006480122190001F0D5FA1A
:10065000044B80221A60C046BD4680BDB003002016
:1006600000040048C403002080B584B000AF00F04F
:1006700099F800F0B7F8244B1A78244B1B789A426B
:100680003CD0214B1B78002B1AD00023BB603A1DB5
:10069000BB68D3183A221A70BB680133BB603A1D9D
:1006A000BB68D3180A221A70BB680133BB60BB68F1
:1006B0009AB201235B42391D154802F03BF819E05C
:1006C0000023FB603A00FB68D3182E221A70FB68E7
:1006D0000133FB603A00FB68D3180A221A70FB68EA
:1006E0000133FB60FB689AB201235B423900084882
:1006F00002F020F8044B1A78044B1A70FFF75EFEE4
:10070000C046BD4604B080BDA1030020A203002066
:100710006004002090B585B000AF3C0020606160AF
:10072000A260E3603B001A683B009B881900100040
:1007300001F046FA031E2CD13B009A68174B920039
:10074000D35C1A003B00DB689A4222D0144B012292
:100750001A703B00D9683B009A68C9B20F4B9200EF
:10076000D1543B009B680D4A9B00D31801331B7882
:10077000012B0ED83B009B6808499A008A18013269
:1007800012780132D1B2054A9B00D31801330A1CFA
:100790001A70C046BD4605B090BDC0468803002013
:1007A0005801002090B583B000AF00237B600EE0BD
:1007B0000B4C7B681B011859E2185168E2189268CB
:1007C000E318DB68FFF7A6FF7B6801337B607B687B
:1007D000052BEDD9C046C046BD4603B090BDC0460E
:1007E0000000002090B583B000AF00237B600EE0D6
:1007F0000B4C7B681B011859E2185168E21892688B
:10080000E318DB6800F00EF87B6801337B607B68DF
:10081000082BEDD9C046C046BD4603B090BDC046CA
:100820006000002090B585B000AF3C0020606160A2
:10083000A260E3603B009B681A4A9B00D318023316
:100840001B781A003B00DB689A4217D13B009B885B
:100850001A00154B1A60144B01225A603B001B68AA
:10086000114A1100180001F03BF83B0018683B00EA
:100870009B880122190001F0C0F90EE03B009B8823
:100880001A00094B1A60084B00225A603B001B6893
:10089000054A1100180001F023F8C046BD4605B016
:1008A00090BDC04688030020B003002080B500AF93
:1008B000C046BD4680BD000080B500AF024B01229E
:1008C0001A70C046BD4680BDA003002080B500AFB1
:1008D000C046BD4680BD000080B500AF024B01227E
:1008E0001A70C046BD4680BDA103002080B500AF90
:1008F000024B00221A70C046BD4680BDA1030020F5
:1009000080B500AFC046BD4680BD000080B500AFD9
:10091000024B01221A70C046BD4680BDA3030020D1
:1009200080B500AF024B00221A70C046BD4680BDA4
:10093000A303002080B500AF024B01221A70C0460D
:10094000BD4680BDA403002080B500AF024B01224C
:100950001A70C046BD4680BDF000002080B500AFD3
:10096000084B1800FFF7F8FB03009AB201235B4223
:100970000449054801F0DEFE044B00221A70C0460F
:10098000BD4680BDF4000020D8030020F000002008
:1009900080B582B000AF394B01225A60374B384ADC
:1009A0001900100000F09CFF354B00228021180038
:1009B00001F023F9334B1B78002B37D1324B1B78D6
:1009C000002B33D101237B602BE0304B7A689200FF
:1009D000D2582F4B1B689A4220D12E4B19782E4AA1
:1009E0007B689B00D31802330A1C1A702A4A7B6862
:1009F0009B00D31803331B78012B16D8264A7B683B
:100A00009B00D31803331B780133D9B2224A7B6889
:100A10009B00D31803330A1C1A7006E07B6801336D
:100A20007B607B68052BD0DD00E0C046194B0022BF
:100A30001A70154B00221A70184B1B78002B05D02A
:100A4000134B1B685A1C124B1A6002E0104B002219
:100A50001A6080235B000A480122190001F0CDF8DA
:100A6000064B00225A60054B054A1900100000F0A1
:100A700037FFC046BD4602B080BDC046C40300205B
:100A800000040048A3030020A4030020B835000898
:100A9000A8030020AC03002088030020A00300204E
:100AA00080B500AF054B1B681A01044B1A60034B5D
:100AB0001A68024B1A60C046BD4680BDA8030020DC
:100AC00080B500AF064B1B681A01054B1A60044B3A
:100AD0001B685A1C024B1A60C046BD4680BDC0460A
:100AE000A803002080B500AF064B1B681A01054B18
:100AF0001A60044B1B689A1C024B1A60C046BD4624
:100B000080BDC046A803002080B500AF064B1B681F
:100B10001A01054B1A60044B1B68DA1C024B1A6061
:100B2000C046BD4680BDC046A803002080B500AFCA
:100B3000064B1B681A01054B1A60044B1B681A1DF3
:100B4000024B1A60C046BD4680BDC046A8030020C7
:100B500080B500AF064B1B681A01054B1A60044BA9
:100B60001B685A1D024B1A60C046BD4680BDC04678
:100B7000A803002080B500AF064B1B681A01054B87
:100B80001A60044B1B689A1D024B1A60C046BD4692
:100B900080BDC046A803002080B500AF064B1B688F
:100BA0001A01054B1A60044B1B68DA1D024B1A60D0
:100BB000C046BD4680BDC046A803002080B500AF3A
:100BC000064B1B681A01054B1A60044B1B6808335F
:100BD0001A00024B1A60C046BD4680BDA803002023
:100BE00080B500AF064B1B681A01054B1A60044B19
:100BF0001B6809331A00024B1A60C046BD4680BD0F
:100C0000A803002080B500AF064B1B681A01054BF6
:100C10001A60044B1B680A331A00024B1A60C04664
:100C2000BD4680BDA803002080B500AF064B1B6801
:100C30001A01054B1A60044B1B680B331A00024B58
:100C40001A60C046BD4680BDA803002080B500AF35
:100C5000064B1B681A01054B1A60044B1B680C33CA
:100C60001A00024B1A60C046BD4680BDA803002092
:100C700080B500AF064B1B681A01054B1A60044B88
:100C80001B680D331A00024B1A60C046BD4680BD7A
:100C9000A803002080B500AF064B1B681A01054B66
:100CA0001A60044B1B680E331A00024B1A60C046D0
:100CB000BD4680BDA803002080B500AF064B1B6871
:100CC0001A01054B1A60044B1B680F331A00024BC4
:100CD0001A60C046BD4680BDA803002080B500AFA5
:100CE000064B1B781B01DAB2044B1A70034B1A78BF
:100CF000024B1A70C046BD4680BDC046AC03002002
:100D000080B500AF074B1B781B01DAB2054B1A7098
:100D1000044B1B780133DAB2024B1A70C046BD4651
:100D200080BDC046AC03002080B500AF074B1B78E8
:100D30001B01DAB2054B1A70044B1B780233DAB28E
:100D4000024B1A70C046BD4680BDC046AC030020B1
:100D500080B500AF074B1B781B01DAB2054B1A7048
:100D6000044B1B780333DAB2024B1A70C046BD46FF
:100D700080BDC046AC03002080B500AF074B1B7898
:100D80001B01DAB2054B1A70044B1B780433DAB23C
:100D9000024B1A70C046BD4680BDC046AC03002061
:100DA00080B500AF074B1B781B01DAB2054B1A70F8
:100DB000044B1B780533DAB2024B1A70C046BD46AD
:100DC00080BDC046AC03002080B500AF074B1B7848
:100DD0001B01DAB2054B1A70044B1B780633DAB2EA
:100DE000024B1A70C046BD4680BDC046AC03002011
:100DF00080B500AF074B1B781B01DAB2054B1A70A8
:100E0000044B1B780733DAB2024B1A70C046BD465A
:100E100080BDC046AC03002080B500AF074B1B78F7
:100E20001B01DAB2054B1A70044B1B780833DAB297
:100E3000024B1A70C046BD4680BDC046AC030020C0
:100E400080B500AF074B1B781B01DAB2054B1A7057
:100E5000044B1B780933DAB2024B1A70C046BD4608
:100E600080BDC046AC03002080B500AF074B1B78A7
:100E70001B01DAB2054B1A70044B1B780A33DAB245
:100E8000024B1A70C046BD4680BDC046AC03002070
:100E900080B500AF074B1B781B01DAB2054B1A7007
:100EA000044B1B780B33DAB2024B1A70C046BD46B6
:100EB00080BDC046AC03002080B500AF074B1B7857
:100EC0001B01DAB2054B1A70044B1B780C33DAB2F3
:100ED000024B1A70C046BD4680BDC046AC03002020
:100EE00080B500AF074B1B781B01DAB2054B1A70B7
:100EF000044B1B780D33DAB2024B1A70C046BD4664
:100F000080BDC046AC03002080B500AF074B1B7806
:100F10001B01DAB2054B1A70044B1B780E33DAB2A0
:100F2000024B1A70C046BD4680BDC046AC030020CF
:100F300080B500AF074B1B781B01DAB2054B1A7066
:100F4000044B1B780F33DAB2024B1A70C046BD4611
:100F500080BDC046AC03002080B500AF09E00A4B5D
:100F60009B8C9BB21A007F231A40084B9200D358E7
:100F70009847054BDB6920221340F0D1024B0F222A
:100F80001A62C046BD4680BD0038014060010020A5
:100F900080B500AF00F0E4FA00F016F800F0D6F8E3
:100FA00000F074F800F0A2F8064B1B681A68054BB5
:100FB0001B6820210A431A60FFF734FBFFF754FB3C
:100FC000FCE7C046D803002090B595B000AF2024C0
:100FD0003B19180030231A000021FFF70FF91023E6
:100FE000FB18180010231A000021FFF707F93B0037
:100FF000180010231A000021FFF700F921007B18C8
:1010000002221A607B180122DA607B1810221A6112
:101010007B1802221A627B1800225A627B18A022D7
:1010200092039A627B180022DA627B18180000F0A3
:1010300001FE031E01D000F055F910217B18072294
:101040001A607B1802225A607B1800229A607B1873
:101050000022DA607B180121180001F005F9031E57
:1010600001D000F03FF93B0001221A603B00002252
:101070009A603B00180001F03BFA031E01D000F01B
:1010800031F9C046BD4615B090BD000080B500AF37
:10109000144B154A1A60134BE12252025A60114B4D
:1010A00000229A600F4B0022DA600E4B00221A6178
:1010B0000C4B0C225A610B4B00229A61094B002207
:1010C000DA61084B00221A62064B00225A62054B75
:1010D000180001F0DBFA031E01D000F003F9C0464E
:1010E000BD4680BDD80300200038014080B500AF68
:1010F000144B154A1A60134BE12252025A60114BED
:1011000000229A600F4B0022DA600E4B00221A6117
:101110000C4B0C225A610B4B00229A61094B0022A6
:10112000DA61084B00221A62064B00225A62054B14
:10113000180001F0ABFA031E01D000F0D3F8C0464E
:10114000BD4680BD600400200044004090B58BB0D7
:1011500000AF14243B19180014231A000021FFF7D4
:101160004DF8584B5A69574B802109030A435A617D
:10117000544B5A6980231B0313403B613B69514B1D
:101180005A69504B8021C9030A435A614D4B5A6931
:101190008023DB031340FB60FB684A4B5A69494BD1
:1011A000802189020A435A61464B5A6980239B0277
:1011B0001340BB60BB68434B5A69424B8021C90254
:1011C0000A435A613F4B5A698023DB0213407B601C
:1011D0007B683C4B5A693B4B802149030A435A6167
:1011E000384B5A6980235B0313403B603B68802384
:1011F0005B0035480122190000F0FFFC3B19334A1F
:101200001A603B1900225A603B1901229A603B196F
:101210002F4A1900100000F063FB3B19F3221A60FB
:101220003B1900225A603B1901229A603B19294A56
:101230001900100000F054FB3B19274A1A603B19B3
:1012400000225A603B1901229A603A199023DB056B
:101250001100180000F044FB3B19204A1A603B19AA
:1012600000225A603B1901229A603B19164A190064
:10127000100000F035FB3B1904221A603B190022D4
:101280005A603B1901229A603B19154A1900100057
:1012900000F026FB21007B18802252001A607B1888
:1012A00011225A607B1800229A607B180022DA60B3
:1012B0007B18054A1900100000F012FBC046BD461D
:1012C0000BB090BD0010024000040048FFFF00007A
:1012D0000008004800140048F3F90000FFFE000079
:1012E000000C004880B500AF72B6C046C046FDE7AE
:1012F00080B582B000AF0F4B9A690E4B01210A43B3
:101300009A610C4B9B69012213407B607B68094BFF
:10131000DA69084B802149050A43DA61054BDA692D
:1013200080235B0513403B603B68C046BD4602B06E
:1013300080BDC0460010024090B58DB000AF78600F
:101340001C243B19180014231A000021FEF756FF35
:101350007B681B684D4A934253D14D4B9A694C4B65
:101360008021C9010A439A61494B9A698023DB01B4
:101370001340BB61BB69464B5A69454B80218902CA
:101380000A435A61424B5A6980239B0213407B6196
:101390007B693B19802292001A603B1912225A6025
:1013A0003B1901229A603B190322DA603B190122A2
:1013B0001A613A199023DB051100180000F090FA29
:1013C00021007B188022D2001A607B1802225A600A
:1013D0007B1800229A607B180322DA607B180122B6
:1013E0001A617A189023DB051100180000F078FAD2
:1013F000002200211B2000F0C3F91B2000F0D5F9CA
:101400003FE07B681B68234A93423AD1204BDA695C
:101410001F4B802189020A43DA611D4BDA69802360
:101420009B0213403B613B69194B5A69184B802161
:1014300089020A435A61164B5A6980239B02134062
:10144000FB60FB681C217B180C221A607B180222AF
:101450005A607B1800229A607B180322DA607B189E
:1014600001221A617A189023DB051100180000F0A0
:1014700037FA002200211C2000F082F91C2000F025
:1014800094F9C046BD460DB090BDC046003801403D
:10149000001002400044004080B500AFC046FDE7A8
:1014A00080B500AFC046FDE780B500AFC046BD4681
:1014B00080BD80B500AFC046BD4680BD80B500AFE1
:1014C00000F096F8C046BD4680BD000080B500AF74
:1014D000FFF742FD034B180001F0CCF9C046BD46B2
:1014E00080BDC046D803002080B500AF034B180074
:1014F00001F0C0F9C046BD4680BDC0466004002072
:1015000080B500AFC046BD4680BD00000D48854691
:10151000FFF7F6FF0C480D490D4A002302E0D458AE
:10152000C4500433C4188C42F9D30A4A0A4C00232D
:1015300001E013600432A242FBD3FEF73BFEFFF74B
:1015400027FDFEE700200020000000206C030020A3
:10155000303600086C030020EC040020FEE7000099
:1015600080B500AF074B1A68064B10210A431A607A
:10157000032000F009F8FFF7BBFE00231800BD466A
:1015800080BDC0460020024090B583B000AF7860B7
:10159000144B1C68144B1B781900FA239800FEF7B3
:1015A00081FE030019002000FEF77CFE03001800F6
:1015B00000F00BF9031E01D001230FE07B68032B21
:1015C0000BD8796801235B420022180000F0D8F89C
:1015D000064B7A681A60002300E001231800BD461C
:1015E00003B090BD60030020680300206403002066
:1015F00080B500AF054B1B781A00054B1B68D2184D
:10160000034B1A60C046BD4680BDC046680300203B
:10161000E804002080B500AF024B1B681800BD46EF
:1016200080BDC046E804002080B582B000AF020053
:10163000FB1D1A70FB1D1B787F2B09D8FB1D1B7827
:101640001A001F231A40044B012191400A001A601E
:10165000C046BD4602B080BD00E100E090B583B059
:1016600000AF02003960FB1D1A70FB1D1B787F2B39
:1016700028D82F4AFB1D1B785BB29B08C0339B0008
:101680009B58FA1D1278110003220A40D200FF2154
:1016900091400A00D2431A4011003B689B01FF228F
:1016A0001A40FB1D1B78180003230340DB009A40FF
:1016B0001F48FB1D1B785BB29B080A43C0339B008D
:1016C0001A5031E01B4AFB1D1B7819000F230B40F9
:1016D000083B9B0806339B00D31804331B68FA1D94
:1016E0001278110003220A40D200FF2191400A0023
:1016F000D2431A4011003B689B01FF221A40FB1D98
:101700001B78180003230340DB009A400948FB1DA7
:101710001B781C000F232340083B9B080A43063319
:101720009B00C31804331A60C046BD4603B090BD89
:1017300000E100E000ED00E080B582B000AF78602D
:101740007B685A1E80235B049A4201D3012310E078
:101750000A4B7A68013A5A6001235B420321180060
:10176000FFF77CFF054B00229A60044B07221A60AA
:1017700000231800BD4602B080BDC04610E000E066
:1017800080B584B000AFB9607A600F217B18021C6D
:101790001A70BA687B181B785BB211001800FFF74B
:1017A0005DFFC046BD4604B080BD80B582B000AFCD
:1017B0000200FB1D1A70FB1D1B785BB21800FFF7BF
:1017C00033FFC046BD4602B080BD80B582B000AFD9
:1017D00078607B681800FFF7AFFF03001800BD4674
:1017E00002B080BD80B582B000AF78607B682122F6
:1017F0009B5CDBB2022B08D07B6804229A637B6877
:10180000202200219954012320E07B681B681A687C
:101810007B681B680E218A431A607B681B681A6804
:101820007B681B6801218A431A607B681A6C7B689D
:10183000DB6B012191400A005A607B682122012163
:1018400099547B6820220021995400231800BD463A
:1018500002B080BD80B584B000AF78600F217B18E6
:1018600000221A707B6821229B5CDBB2022B06D01F
:101870007B6804229A637B1801221A7028E07B6837
:101880001B681A687B681B680E218A431A607B6894
:101890001B681A687B681B6801218A431A607B6891
:1018A0001A6C7B68DB6B012191400A005A607B68EF
:1018B0002122012199547B682022002199547B68C0
:1018C0005B6B002B04D07B685B6B7A6810009847D9
:1018D0000F23FB181B781800BD4604B080BD000024
:1018E00080B586B000AF7860396000237B614FE13E
:1018F0003B681B6801217A6991400A001340FB6034
:10190000FB68002B00D140E13B685B680322134079
:10191000012B05D03B685B6803221340022B30D1BA
:101920007B689B683B617B695B0003229A401300E4
:10193000DA433B6913403B613B68DA687B695B00D3
:101940009A4013003A6913433B617B683A699A6095
:101950007B685B683B6101227B699A401300DA4334
:101960003B6913403B613B685B681B0901221A40DD
:101970007B699A4013003A6913433B617B683A697B
:101980005A603B685B6803221340032B17D07B68C7
:10199000DB683B617B695B0003229A401300DA43FA
:1019A0003B6913403B613B689A687B695B009A40E6
:1019B00013003A6913433B617B683A69DA603B681C
:1019C0005B6803221340022B23D17B69DA087B6812
:1019D00008329200D3583B617B69072213409B0079
:1019E0000F229A401300DA433B6913403B613B6886
:1019F0001A697B6907210B409B009A4013003A69E2
:101A000013433B617B69DA087B68083292003969CD
:101A1000D1507B681B683B617B695B0003229A4065
:101A20001300DA433B6913403B613B685B68032268
:101A30001A407B695B009A4013003A6913433B618B
:101A40007B683A691A603B685A68C0239B0213405E
:101A500000D19AE0544B9A69534B01210A439A6191
:101A6000514B9B6901221340BB60BB684F4A7B69A5
:101A70009B0802339B009B583B617B690322134008
:101A80009B000F229A401300DA433B6913403B61ED
:101A90007A689023DB059A4213D07B68444A9342CC
:101AA0000DD07B68434A934207D07B68424A9342F9
:101AB00001D1032306E0052304E0022302E0012311
:101AC00000E000237A6903210A40920093403A69BA
:101AD00013433B6135497B699B0802339B003A699C
:101AE0005A50364B9B683B61FB68DA433B691340B5
:101AF0003B613B685A6880235B03134003D03A691B
:101B0000FB6813433B612D4B3A699A602B4BDB68B2
:101B10003B61FB68DA433B6913403B613B685A68B1
:101B200080239B03134003D03A69FB6813433B6156
:101B3000224B3A69DA60214B5B683B61FB68DA4310
:101B40003B6913403B613B685A6880239B0213400A
:101B500003D03A69FB6813433B61184B3A695A60FA
:101B6000164B1B683B61FB68DA433B6913403B61E2
:101B70003B685A6880235B02134003D03A69FB68D4
:101B800013433B610D4B3A691A607B6901337B61FA
:101B90003B681A687B69DA40131E00D0A8E6C0468D
:101BA000C046BD4606B080BD0010024000000140A6
:101BB0000004004800080048000C004800040140F0
:101BC00080B584B000AF78600A00BB1C1A807B68C7
:101BD0001B69BA1C1288134004D00F23FB18012282
:101BE0001A7003E00F23FB1800221A700F23FB1852
:101BF0001B781800BD4604B080BD80B582B000AF30
:101C0000786008001100BB1C021C1A807B1C0A1C97
:101C10001A707B1C1B78002B04D0BB1C1A887B68B5
:101C20009A6103E0BB1C1A887B689A62C046BD4675
:101C300002B080BD80B588B000AF78607B68002BB3
:101C400001D1012301E37B681B680122134000D10D
:101C50008DE0C34B5B680C221340042B0ED0C04BAD
:101C60005B680C221340082B16D1BD4B5A688023A9
:101C70005B021A4080235B029A420DD1B84B1A686E
:101C800080239B02134000D170E07B685B68002BCF
:101C900000D06BE00123D8E27B685B68012B07D1A1
:101CA000AF4B1A68AE4B802149020A431A602FE0FD
:101CB0007B685B68002B0CD1A94B1A68A84BA9491B
:101CC0000A401A60A64B1A68A54BA7490A401A6039
:101CD0001EE07B685B68052B0ED1A14B1A68A04BF8
:101CE0008021C9020A431A609D4B1A689C4B8021CF
:101CF00049020A431A600BE0994B1A68984B9949BC
:101D00000A401A60964B1A68954B97490A401A6028
:101D10007B685B68002B14D0FFF77CFC0300BB6181
:101D200008E0FFF777FC0200BB69D31A642B01D9E6
:101D300003238AE28A4B1A6880239B021340F0D067
:101D400015E0FFF767FC0300BB6108E0FFF762FCEA
:101D50000200BB69D31A642B01D9032375E2804BBF
:101D60001A6880239B021340F0D100E0C0467B68D4
:101D70001B680222134000D169E0794B5B680C229A
:101D800013400BD0764B5B680C221340082B1CD100
:101D9000734B5A6880235B02134016D1704B1B684B
:101DA0000222134005D07B68DB68012B01D00123A0
:101DB0004BE26B4B1B68F822934319007B681B694D
:101DC000DA00674B0A431A6041E07B68DB68002B4E
:101DD00024D0634B1A68624B01210A431A60FFF753
:101DE00019FC0300BB6108E0FFF714FC0200BB69AB
:101DF000D31A022B01D9032327E2594B1B68022275
:101E00001340F1D0564B1B68F822934319007B68AE
:101E10001B69DA00524B0A431A6018E0504B1A68EB
:101E20004F4B01218A431A60FFF7F4FB0300BB61AB
:101E300008E0FFF7EFFB0200BB69D31A022B01D9C0
:101E4000032302E2464B1B6802221340F1D17B6858
:101E50001B680822134036D07B68DB69002B19D041
:101E60003F4B5A6A3E4B01210A435A62FFF7D2FBAD
:101E70000300BB6108E0FFF7CDFB0200BB69D31A8A
:101E8000022B01D90323E0E1354B5B6A02221340A8
:101E9000F1D018E0324B5A6A314B01218A435A6221
:101EA000FFF7B8FB0300BB6108E0FFF7B3FB0200DC
:101EB000BB69D31A022B01D90323C6E1284B5B6A05
:101EC00002221340F1D17B681B680422134000D129
:101ED000B4E01F203B1800221A70214BDA698023DE
:101EE0005B05134010D11E4BDA691D4B802149055B
:101EF0000A43DA611A4BDA6980235B051340FB6001
:101F0000FB683B1801221A70184B1A6880235B008B
:101F100013401AD1154B1A68144B802149000A430B
:101F20001A60FFF777FB0300BB6108E0FFF772FB65
:101F30000200BB69D31A642B01D9032385E10B4B43
:101F40001A6880235B001340F0D07B689B68012BEC
:101F50000ED1034B1A6A024B01210A431A6235E083
:101F600000100240FFFFFEFFFFFFFBFF007000407C
:101F70007B689B68002B0CD1B64B1A6AB54B0121CC
:101F80008A431A62B34B1A6AB24B04218A431A621B
:101F90001CE07B689B68052B0CD1AE4B1A6AAD4BDD
:101FA00004210A431A62AB4B1A6AAA4B01210A4365
:101FB0001A620BE0A74B1A6AA64B01218A431A62E8
:101FC000A44B1A6AA34B04218A431A627B689B685C
:101FD000002B14D0FFF71EFB0300BB6109E0FFF7E5
:101FE00019FB0200BB69D31A9B4A934201D9032310
:101FF0002BE1984B1B6A02221340F0D013E0FFF74D
:1020000009FB0300BB6109E0FFF704FB0200BB69A9
:10201000D31A914A934201D9032316E18D4B1B6ACF
:1020200002221340F0D11F23FB181B78012B05D18E
:10203000884BDA69874B89490A40DA617B681B68FB
:102040001022134063D07B685B69012B2AD1814B3E
:102050005A6B804B04210A435A637E4B5A6B7D4B6B
:1020600001210A435A63FFF7D5FA0300BB6108E078
:10207000FFF7D0FA0200BB69D31A022B01D9032360
:10208000E3E0744B5B6B02221340F1D0714B5B6B4E
:10209000F822934319007B689B69DA006D4B0A4371
:1020A0005A6334E07B685B69053311D1694B5A6B25
:1020B000684B04218A435A63664B5B6BF822934357
:1020C00019007B689B69DA00624B0A435A631EE081
:1020D000604B5A6B5F4B04210A435A635D4B5A6B4A
:1020E0005C4B01218A435A63FFF794FA0300BB61FA
:1020F00008E0FFF78FFA0200BB69D31A022B01D95F
:102100000323A2E0534B5B6B02221340F1D17B68A7
:102110001B6A002B00D197E04E4B5B680C221340EA
:10212000082B00D16BE07B681B6A022B4CD1494B1A
:102130001A68484B4A490A401A60FFF76BFA0300D5
:10214000BB6108E0FFF766FA0200BB69D31A022BF5
:1021500001D9032379E03F4B1A6880239B04134085
:10216000F0D13C4BDB6A0F22934319007B68DA6A9B
:10217000384B0A43DA62374B5B683A4A134019001E
:102180007B689A6A7B685B6A1A43324B0A435A60DF
:10219000304B1A682F4B802149040A431A60FFF71D
:1021A00039FA0300BB6108E0FFF734FA0200BB69AB
:1021B000D31A022B01D9032347E0264B1A68802348
:1021C0009B041340F0D03FE0224B1A68214B244976
:1021D0000A401A60FFF71EFA0300BB6108E0FFF730
:1021E00019FA0200BB69D31A022B01D903232CE090
:1021F000184B1A6880239B041340F0D124E07B68BD
:102200001B6A012B01D101231FE0124B5B687B612C
:10221000104BDB6A3B617A6980235B021A407B6862
:102220005B6A9A420ED13B690F221A407B68DB6AD7
:102230009A4207D17A69F0239B031A407B689B6A14
:102240009A4201D0012300E000231800BD4608B0E7
:1022500080BDC0460010024088130000FFFFFFEF62
:10226000FFFFFFFEFFFFC2FF80B584B000AF7860C4
:1022700039607B68002B01D10123B3E05B4B1B6805
:10228000012213403A689A4211D9584B1B68012227
:1022900093431900554B3A680A431A60534B1B6825
:1022A000012213403A689A4201D001239AE07B68E8
:1022B0001B680222134015D07B681B680422134060
:1022C00006D04B4B5A684A4BE021C9000A435A607A
:1022D000474B5B68F022934319007B689A68444B34
:1022E0000A435A607B681B680122134040D07B6818
:1022F0005B68012B07D13E4B1A6880239B02134079
:1023000014D101236EE07B685B68022B07D1384B48
:102310001A6880239B04134008D1012362E0344BE8
:102320001B680222134001D101235BE0304B5B6844
:102330000322934319007B685A682D4B0A435A6065
:10234000FFF768F90300FB6009E0FFF763F902009B
:10235000FB68D31A274A934201D9032342E0244B56
:102360005B680C221A407B685B689B009A42ECD148
:102370001E4B1B68012213403A689A4211D21B4B34
:102380001B68012293431900184B3A680A431A60EC
:10239000164B1B68012213403A689A4201D0012370
:1023A00020E07B681B680422134009D0104B5B6857
:1023B000114A134019007B68DA680D4B0A435A60D2
:1023C00000F020F801000A4B5B681B090F22134044
:1023D0000A4AD35C0A00DA40094B1A600320FFF76F
:1023E000D3F800231800BD4604B080BD0020024091
:1023F0000010024088130000FFF8FFFFF0350008CE
:102400006003002080B586B000AF0023FB6000238E
:10241000BB6000237B6100237B6000233B61204B7A
:102420005B68FB60FB680C221340042B02D0082B76
:1024300003D02CE01B4B3B612CE0FB689B0C0F2274
:102440001340194AD35C7B60154BDB6A0F221340A3
:10245000164AD35CBB60FA6880235B02134009D044
:10246000B9681048FDF71EFF03001A007B6853434C
:102470007B6109E079680A005201521A93019B1AA4
:10248000DB005B181B027B617B693B6102E0054B53
:102490003B61C0463B691800BD4606B080BDC046E2
:1024A0000010024000127A000836000818360008B2
:1024B00080B500AF024B1B681800BD4680BDC0460A
:1024C0006003002080B500AFFFF7F2FF0100064B6C
:1024D0005B681B0A07221340044AD35CD9400B00F7
:1024E0001800BD4680BDC0460010024000360008FE
:1024F00080B586B000AF786000233B610023FB60AD
:102500007B681A6880235B02134000D18EE017209D
:102510003B1800221A70574BDA6980235B05134081
:1025200010D1544BDA69534B802149050A43DA61D3
:10253000504BDA6980235B051340BB60BB683B18D6
:1025400001221A704C4B1A6880235B0013401AD189
:10255000494B1A68484B802149000A431A60FFF72B
:1025600059F803003B6108E0FFF754F802003B69AB
:10257000D31A642B01D9032377E03F4B1A688023D9
:102580005B001340F0D03B4B1A6AC0239B00134002
:10259000FB60FB68002B34D07B685A68C0239B002B
:1025A0001340FA689A422CD0324B1B6A334A1340CC
:1025B000FB60304B1A6A2F4B802149020A431A6292
:1025C0002C4B1A6A2B4B2E490A401A62294BFA6887
:1025D0001A62FB680122134013D0FFF71BF80300B7
:1025E0003B6109E0FFF716F802003B69D31A254A60
:1025F000934201D9032338E01E4B1B6A0222134089
:10260000F0D01C4B1B6A1D4A134019007B685A68A6
:10261000184B0A431A621723FB181B78012B05D1AC
:10262000144BDA69134B18490A40DA617B681B685E
:102630000122134009D00F4B1B6B03229343190057
:102640007B689A680B4B0A431A637B681B682022DD
:10265000134009D0074B1B6B1022934319007B6872
:10266000DA68044B0A431A6300231800BD4606B01B
:1026700080BDC0460010024000700040FFFCFFFF1C
:10268000FFFFFEFF88130000FFFFFFEF80B582B061
:1026900000AF78607B68002B01D1012344E07B68A8
:1026A000DB6F002B07D17B687822002199547B686F
:1026B0001800FEF741FE7B682422DA677B681B68FE
:1026C0001A687B681B6801218A431A607B685B6A11
:1026D000002B03D07B68180000F0F0FC7B6818002A
:1026E00000F0ACFB0300012B01D101231CE07B684F
:1026F0001B685A687B681B680D490A405A607B68F2
:102700001B689A687B681B6808218A439A607B680B
:102710001B681A687B681B6801210A431A607B6882
:10272000180000F07FFD03001800BD4602B080BD18
:10273000FFF7FFFF80B58AB002AFF860B9603B6079
:10274000BB1D1A80FB68DB6F202B00D08CE0BB68C0
:10275000002B03D0BB1D1B88002B01D1012384E07B
:10276000FB689A6880235B019A4209D1FB681B6968
:10277000002B05D1BB680122134001D0012374E076
:10278000FB68842200219950FB682122DA67FEF75A
:1027900041FF03007B61FB68BA1D502112885A5229
:1027A000FB68BA1D522112885A52FB689A6880232E
:1027B0005B019A4208D1FB681B69002B04D10023FE
:1027C000FB61BB68BB6103E0BB68FB610023BB61CD
:1027D0002FE07A69F8683B6800931300002280219B
:1027E00000F0C8FD031E04D0FB682022DA67032333
:1027F0003BE0FB69002B0BD1BB691A88FB681B68A7
:10280000D205D20D92B21A85BB690233BB6107E0D3
:10281000FB691A78FB681B681A85FB690133FB6149
:10282000FB6852229B5A9BB2013B99B2FB68522231
:102830009952FB6852229B5A9BB2002BC9D17A69EC
:10284000F8683B68009313000022402100F092FDDD
:10285000031E04D0FB682022DA67032305E0FB682F
:102860002022DA67002300E002231800BD4608B0EA
:1028700080BD000090B5ABB000AF78607B681B688E
:10288000DB69A422B9180B607B681B681B68A02059
:1028900039180B607B681B689B689C2179180B605A
:1028A0001100BB181B68994A13409822BC1823607A
:1028B000BB181B68002B14D17B181B682022134007
:1028C0000FD03B181B68202213400AD07B689B6EF8
:1028D000002B00D186E27B689B6E7A6810009847D7
:1028E00080E29823FB181B68002B00D114E19C2385
:1028F000FB181B680122134006D1A023FB181B689C
:10290000834A134000D107E1A423FB181B6801226E
:10291000134012D0A023FB181A6880235B001340D9
:102920000BD07B681B6801221A627B6884229B584B
:1029300001221A437B6884215A50A423FB181B6888
:102940000222134011D09C23FB181B680122134064
:102950000BD07B681B6802221A627B6884229B581A
:1029600004221A437B6884215A50A423FB181B6855
:102970000422134011D09C23FB181B680122134032
:102980000BD07B681B6804221A627B6884229B58E8
:1029900002221A437B6884215A50A423FB181B6827
:1029A0000822134017D0A023FB181B6820221340D5
:1029B00005D19C23FB181B68012213400BD07B68B8
:1029C0001B6808221A627B6884229B5808221A43DB
:1029D0007B6884215A50A423FB181A6880231B01AA
:1029E000134013D0A023FB181A688023DB04134084
:1029F0000CD07B681B68802212011A627B688422DB
:102A00009B5820221A437B6884215A507B68842279
:102A10009B58002B00D1E7E1A423FB181B68202260
:102A200013400ED0A023FB181B682022134008D0AF
:102A30007B689B6E002B04D07B689B6E7A681000CD
:102A400098477B6884229B5894217A1813607B688E
:102A50001B689B6840221340402B04D07B181B68E6
:102A60002822134047D07B68180000F0F3FC7B68F5
:102A70001B689B6840221340402B37D1EFF3108333
:102A80003B663B6E90203A18136001237B667B6E99
:102A900083F31088C0467B681B689A687B681B6854
:102AA00040218A439A603B181B68BB66BB6E83F368
:102AB0001088C0467B685B6F002B12D07B685B6F11
:102AC000144A5A637B685B6F1800FEF7C3FE031E4F
:102AD0001AD07B685B6F5A6B7B685B6F18009047FE
:102AE00012E07B68180000F095F90DE07B68180093
:102AF00000F090F908E07B68180000F08BF97B6823
:102B00008422002199506FE1C0466DE10F0800005A
:102B1000200100041D3500087B681B6E012B00D0CE
:102B200039E1A423FB181B681022134000D132E1C5
:102B3000A023FB181B681022134000D12BE17B68F7
:102B40001B6810221A627B681B689B684022134036
:102B5000402B00D09FE07B685B6F1B685A687E212A
:102B60007B181A807B181B88002B00D13EE17B6804
:102B700058229B5A7A1812889A4200D336E17B6811
:102B80007A185A2112885A527B685B6F9B69202BF6
:102B90006FD0EFF310833B633B6BBB6701237B6319
:102BA0007B6B83F31088C0467B681B681A687B6860
:102BB0001B6892490A401A60BB6FBB63BB6B83F30F
:102BC0001088C046EFF31083FB63FB6B7B67012328
:102BD0003B643B6C83F31088C0467B681B689A6833
:102BE0007B681B6801218A439A607B6F7B647B6CE6
:102BF00083F31088C046EFF31083BB64BB6C3B6764
:102C00000123FB64FB6C83F31088C0467B681B6860
:102C10009A687B681B6840218A439A603B6F3B65DA
:102C20003B6D83F31088C0467B6880222021995039
:102C30007B6800221A66EFF310837B657B6DFB6671
:102C40000123BB65BB6D83F31088C0467B681B689E
:102C50001A687B681B6810218A431A60FB6EFB654B
:102C6000FB6D83F31088C0467B685B6F1800FEF72E
:102C7000B9FD7B6802225A667B6858229A5A7B68A3
:102C80005A215B5A9BB2D31A9AB27B681100180082
:102C900000F0C8F8AAE07B685822995A7B685A224B
:102CA0009B5A9AB28E203B188A1A1A807B685A2245
:102CB0009B5A9BB2002B00D19AE03B181B88002B3B
:102CC00000D195E0EFF31083FB60FB6888243A198C
:102CD000136001233B613B6983F31088C0467B6826
:102CE0001B681A687B681B6845490A401A603B19D3
:102CF0001B687B617B6983F31088C046EFF3108308
:102D0000BB61BB6984243A1913600123FB61FB6931
:102D100083F31088C0467B681B689A687B681B68D1
:102D200001218A439A603B191B683B623B6A83F32B
:102D30001088C0467B688022202199507B68002241
:102D40001A667B6800229A66EFF310837B627B6AC7
:102D500080243A1913600123BB62BB6A83F3108895
:102D6000C0467B681B681A687B681B6810218A4311
:102D70001A603B191B68FB62FB6A83F31088C0462C
:102D80007B6802225A663B181A887B68110018007B
:102D900000F048F82CE0A423FB181B6880221340A5
:102DA0000FD0A023FB181B688022134009D07B683A
:102DB000DB6E002B1ED07B68DB6E7A6810009847B4
:102DC00018E0A423FB181B684022134013D0A02353
:102DD000FB181B68402213400DD07B68180000F0E0
:102DE000B4FB08E0C04606E0C04604E0C04602E08E
:102DF000C04600E0C046BD462BB090BDFFFEFFFFC1
:102E0000DFFEFFFF80B582B000AF7860C046BD46F0
:102E100002B080BD80B582B000AF7860C046BD46CC
:102E200002B080BD80B582B000AF78600A00BB1CE4
:102E30001A80C046BD4602B080BD000080B588B093
:102E400000AF78601E23FB1800221A707B689A6816
:102E50007B681B691A437B685B691A437B68DB6983
:102E600013437B617B681B681B688D4A1340190004
:102E70007B681B687A690A431A607B681B685B6819
:102E8000884A134019007B68DA687B681B680A432C
:102E90005A607B689B697B617B681B6A7A69134314
:102EA0007B617B681B689B687F4A134019007B68C5
:102EB0001B687A690A439A607B681B687B4A934265
:102EC00027D17B4B1B6B03221340032B0DD01BD848
:102ED000022B14D018D8002B02D0012B0AD013E0FB
:102EE0001F23FB1800221A7021E01F23FB18022267
:102EF0001A701CE01F23FB1804221A7017E01F230E
:102F0000FB1808221A7012E01F23FB1810221A70F7
:102F10000DE07B681B68674A934204D11F23FB18AE
:102F200000221A7003E01F23FB1810221A707B681E
:102F3000DA6980231B029A425CD11F23FB181B789D
:102F4000082B15D018DC042B0DD015DC002B02D07B
:102F5000022B05D010E0FFF7B5FA0300BB6112E0C9
:102F6000554BBB610FE0FFF74DFA0300BB610AE070
:102F700080231B02BB6106E00023BB611E23FB18FC
:102F800001221A70C046BB69002B00D17AE0BB69F0
:102F90005A007B685B685B08D2187B685B68190025
:102FA0001000FDF77FF903003B613B690F2B1CD933
:102FB0003A6980235B029A4217D23B699AB20E208B
:102FC0003B180F218A431A803B695B089BB207229A
:102FD000134099B23B183A1812880A431A807B684A
:102FE0001B683A181288DA604CE01E23FB18012295
:102FF0001A7047E01F23FB181B78082B15D018DC2C
:10300000042B0DD015DC002B02D0022B05D010E0D4
:10301000FFF758FA0300BB6112E0274BBB610FE0DA
:10302000FFF7F0F90300BB610AE080231B02BB61DC
:1030300006E00023BB611E23FB1801221A70C04664
:10304000BB69002B1ED07B685B685A08BB69D2182D
:103050007B685B6819001000FDF724F903003B61F1
:103060003B690F2B0AD93A6980235B029A4205D249
:103070003B699AB27B681B68DA6003E01E23FB1889
:1030800001221A707B6800229A667B680022DA6649
:103090001E23FB181B781800BD4608B080BDC04633
:1030A000F369FFFFFFCFFFFFFFF4FFFF0038014090
:1030B000001002400044004000127A0080B582B047
:1030C00000AF78607B685B6A082213400BD07B6896
:1030D0001B685B684A4A134019007B685A6B7B681F
:1030E0001B680A435A607B685B6A012213400BD05D
:1030F0007B681B685B68434A134019007B689A6AC7
:103100007B681B680A435A607B685B6A0222134033
:103110000BD07B681B685B683B4A134019007B68D7
:10312000DA6A7B681B680A435A607B685B6A042220
:1031300013400BD07B681B685B68344A134019004E
:103140007B681A6B7B681B680A435A607B685B6A02
:10315000102213400BD07B681B689B682C4A1340DD
:1031600019007B689A6B7B681B680A439A607B68CE
:103170005B6A202213400BD07B681B689B68254A42
:10318000134019007B68DA6B7B681B680A439A60FE
:103190007B685B6A402213401DD07B681B685B68BC
:1031A0001D4A134019007B681A6C7B681B680A4330
:1031B0005A607B681A6C80235B039A420BD17B6850
:1031C0001B685B68154A134019007B685A6C7B6862
:1031D0001B680A435A607B685B6A802213400BD0ED
:1031E0007B681B685B680E4A134019007B689A6C09
:1031F0007B681B680A435A60C046BD4602B080BD6A
:10320000FF7FFFFFFFFFFDFFFFFFFEFFFFFFFBFF55
:10321000FFEFFFFFFFDFFFFFFFFFEFFFFFFF9FFF5E
:10322000FFFFF7FF80B592B002AF78607B68842221
:1032300000219950FEF7EEF90300FB637B681B68E1
:103240001B6808221340082B2CD1FB6B80229103B2
:103250007868464A0092002200F08CF8031E21D0C4
:10326000EFF310837B627B6ABB630123BB62BB6AA3
:1032700083F31088C0467B681B681A687B681B68EC
:1032800080218A431A60BB6BFB62FB6A83F3108860
:10329000C0467B682022DA677B6878220021995437
:1032A00003235FE07B681B681B6804221340042B28
:1032B00046D1FB6B8022D10378682C4A0092002211
:1032C00000F058F8031E3BD0EFF31083FB60FB685F
:1032D0007B6301233B613B6983F31088C0467B68B5
:1032E0001B681A687B681B6821490A401A607B6B5F
:1032F0007B617B6983F31088C046EFF31083BB6169
:10330000BB693B630123FB61FB6983F31088C04603
:103310007B681B689A687B681B6801218A439A60F6
:103320003B6B3B623B6A83F31088C0467B6880221C
:10333000202199507B68782200219954032311E0C1
:103340007B682022DA677B688022202199507B6885
:1033500000221A667B6800225A667B687822002168
:10336000995400231800BD4610B080BDFFFFFF0137
:10337000DFFEFFFF80B584B000AFF860B9603B604E
:10338000FB1D1A7051E0BB6901334ED0FEF742F9C4
:1033900002003B68D31ABA699A4202D3BB69002B78
:1033A00001D1032351E0FB681B681B680422134012
:1033B0003BD0BB68802B38D0BB68402B35D0FB6836
:1033C0001B68DB6908221340082B11D1FB681B68BE
:1033D00008221A62FB68180000F03CF8FB6884229F
:1033E00008219950FB6878220021995401232CE090
:1033F000FB681B68DA6980231B011A4080231B01CC
:103400009A4212D1FB681B68802212011A62FB6883
:10341000180000F01FF8FB68842220219950FB68F7
:1034200078220021995403230FE0FB681B68DB69B5
:10343000BA681340BA68D31A5A425341DBB21A0031
:10344000FB1D1B789A429ED000231800BD4604B095
:1034500080BD000080B58EB000AF7860EFF31083C0
:103460007B617B697B630123BB61BB6983F310884C
:10347000C0467B681B681A687B681B6826490A403F
:103480001A607B6BFB61FB6983F31088C046EFF326
:1034900010833B623B6A3B6301237B627B6A83F35D
:1034A0001088C0467B681B689A687B681B6801218E
:1034B0008A439A603B6BBB62BB6A83F31088C04649
:1034C0007B681B6E012B18D1EFF31083BB60BB68C8
:1034D000FB620123FB60FB6883F31088C0467B68B6
:1034E0001B681A687B681B6810218A431A60FB6A94
:1034F0003B613B6983F31088C0467B6880222021B2
:1035000099507B6800221A667B6800229A66C04642
:10351000BD460EB080BDC046DFFEFFFF80B584B063
:1035200000AF78607B685B6AFB60FB685A22002111
:103530009952FB68522200219952FB681800FFF74C
:1035400069FCC046BD4604B080BD80B586B000AF02
:103550007860EFF31083BB60BB687B610123FB6085
:10356000FB6883F31088C0467B681B681A687B6819
:103570001B6840218A431A607B693B613B6983F386
:103580001088C0467B682022DA677B680022DA66F2
:103590007B681800FFF736FCC046BD4606B080BD0C
:1035A000F8B5C046F8BC08BC9E467047F8B5C046A2
:0835B000F8BC08BC9E46704700
:1035B8000000000050100000081100000911000070
:1035C8000A1100002312000068696A6B6C6D6E6F47
:1035D80070717273747576773031323334353637AB
:1035E80038394142434445460000000000000000CD
:1035F8000102030406070809000000000102030491
:1036080002030405060708090A0B0C0D0E0F10101B
:103618000102030405060708090A0B0C0D0E0F101A
:043628003501000860
:04362C000901000888
:103630000008004800010000050000000100000033
:103640000000004800080000050000000200000023
:1036500000140048400000000500000003000000C6
:103660000000004800800000050000000400000089
:1036700000040048010000000500000005000000F3
:1036800000040048000400000500000006000000DF
:103690000008004880020000050000000100000052
:1036A00000000048001100000500000002000000BA
:1036B000000000480020000005000000030000009A
:1036C0000014004880000000050000000300000016
:1036D0000000004800400000050000000400000059
:1036E000000800480004000005000000040000007D
:1036F0000004004802000000050000000500000072
:10370000000800482000000005000000050000003F
:103710000004004804080000050000000600000046
:10372000010000002F2F2048315334205357204CE4
:103730006566740A00000000000000000000000040
:103740000000000000000000000000000000000079
:103750000000000000000000000000000000000069
:103760000000000000000000000000000000000059
:103770000000000000000000000000000000000049
:103780000000000000000000010000000100000037
:10379000AD080008AD080008AD080008AD08000835
:1037A000AD080008AD080008AD080008AD08000825
:1037B000AD080008AD08000891090008AD08000830
:1037C000AD080008AD080008AD080008AD08000805
:1037D000AD080008AD080008AD080008AD080008F5
:1037E000AD080008AD080008AD080008AD080008E5
:1037F000AD080008AD080008AD080008AD080008D5
:10380000AD080008AD080008AD080008AD080008C4
:10381000AD080008AD080008AD080008AD080008B4
:10382000AD080008AD08000849090008AD08000807
:10383000AD080008AD080008AD080008AD08000894
:10384000AD08000801090008ED0800083509000866
:10385000DD0C0008010D0008290D0008510D0008BD
:10386000790D0008A10D0008C90D0008F10D000830
:10387000190E0008410E0008D908000821090008A7
:10388000AD080008AD080008AD0800080D090008E3
:10389000AD080008690E0008910E0008B90E000876
:1038A000E10E0008090F0008310F0008AD080008FC
:1038B000AD080008AD080008AD080008AD08000814
:1038C000AD080008AD080008AD080008AD08000804
:1038D000AD080008AD080008AD080008AD080008F4
:1038E000AD080008AD080008AD080008AD080008E4
:1038F000AD080008AD080008AD080008AD080008D4
:10390000AD080008AD080008AD080008AD080008C3
:10391000AD080008690E0008910E0008B90E0008F5
:10392000E10E0008090F0008310F0008AD0800087B
:10393000A10A0008C10A0008E50A0008090B0008EE
:103940002D0B0008510B0008750B0008990B00089F
:10395000BD0B0008E10B0008050C0008290C00084D
:103960004D0C0008710C0008950C0008B90C0008FB
:10397000AD080008AD080008AD080008AD08000853
:10398000CD080008AD080008B9080008AD08000817
:0C39900000127A0004000000010000009A
:040000050800150DCD
:00000001FF
