:020000040800F2
:1000000000200020651E0008091E0008111E0008BF
:1000100000000000000000000000000000000000E0
:10002000000000000000000000000000191E000891
:100030000000000000000000231E00082D1E000824
:10004000B51E000800000000B51E0008B51E00081F
:10005000B51E0008B51E0008B51E0008B51E000834
:1000600000000000B51E0008B51E0008B51E0008FF
:10007000B51E0008B51E0008B51E000800000000EF
:10008000B51E0008B51E000800000000B51E0008DF
:10009000B51E0008B51E0008B51E0008B51E0008F4
:1000A000B51E0008B51E0008B51E00083D1E00085C
:1000B000B51E000800000000000000000000000065
:1000C0000448054B10B5834203D0044B002B00D0ED
:1000D000984710BDC0040020C004002000000000AC
:1000E00006480749091A8B10C90FC91810B54910DD
:1000F00003D0044B002B00D0984710BDC004002053
:10010000C00400200000000010B5074C2378002B2D
:1001100009D1FFF7D5FF054B002B02D0044800E0C2
:1001200000BF0123237010BDC004002000000000A8
:1001300034510008054B10B5002B03D00449054885
:1001400000E000BFFFF7CCFF10BDC046000000007C
:10015000C40400203451000810B583070AD00300FE
:10016000032102E001330B4205D01A78002AF9D1AD
:10017000181A10BD030019680C4A0D4C8A188A43DE
:1001800022420FD15968094A04338A188A4322420D
:1001900008D15968054A04338A188A432242F1D0AB
:1001A00000E001331A78002AFBD1E1E7FFFEFEFEF2
:1001B0008080808070B50D4B0D4D5E1BB610AB423C
:1001C00005D0002408CD01349847A642FAD804F09F
:1001D000B1FF084B084D5E1BB610AB4205D00024A2
:1001E00008CD01349847A642FAD870BDBC5100082A
:1001F000BC510008C0510008BC510008F0B5050012
:10020000830749D0541E002A45D003000326CAB2F2
:1002100002E00135013C3ED301332A703342F8D16C
:10022000032C30D9FF220A401502AD182A04AD185C
:100230000F2C34D92700103F3F093E01B4461E0061
:100240001A0010366644156055609560D56010320E
:100250009642F8D101373F01DB190F270C222740C6
:1002600022403C00002A0ED03E1FB608B400A4462F
:100270001A001C1D644420C2A242FCD10324013692
:10028000B6009B193C40002C05D0C9B21C1919704E
:1002900001339C42FBD1F0BD03001400C0E72700EE
:1002A000E2E7C046002243088B4274D303098B4225
:1002B0005FD3030A8B4244D3030B8B4228D3030C36
:1002C0008B420DD3FF22090212BA030C8B4202D3D8
:1002D0001212090265D0030B8B4219D300E0090A00
:1002E000C30B8B4201D3CB03C01A5241830B8B4209
:1002F00001D38B03C01A5241430B8B4201D34B03F2
:10030000C01A5241030B8B4201D30B03C01A524156
:10031000C30A8B4201D3CB02C01A5241830A8B42DB
:1003200001D38B02C01A5241430A8B4201D34B02C4
:10033000C01A5241030A8B4201D30B02C01A524128
:10034000CDD2C3098B4201D3CB01C01A52418309DC
:100350008B4201D38B01C01A524143098B4201D316
:100360004B01C01A524103098B4201D30B01C01A41
:100370005241C3088B4201D3CB00C01A52418308BB
:100380008B4201D38B00C01A524143088B4201D3E8
:100390004B00C01A5241411A00D201465241104648
:1003A0007047FFE701B5002000F006F802BDC04627
:1003B0000029F7D076E770477047C04680B584B013
:1003C00000AF964B1B78002B06D080235B0094482F
:1003D0000022190002F0F3FA924B1B68924A9B002C
:1003E000D31801331B78002B07D080235B008C4887
:1003F0000022190002F0E3FA0BE08A4B1B685A1C3A
:10040000884B1A60874B1B68062B02D1854B012253
:100410001A6080239B00824A1900100002F0B2FA91
:10042000031E00D1F5E07D4B1B78002B02D000F0BD
:10043000C1FCD9E00023FB607A4B1A687B4B920029
:10044000D258F0231B02134011D0764B1A68774B19
:100450009200D3581B0B0F221340754AD15C3A000F
:10046000FB68D3180A1C1A70FB680133FB606D4BE4
:100470001A686E4B9200D258FF231B02134011D012
:10048000684B1A68694B9200D3581B0A0F2213401D
:10049000674AD15C3A00FB68D3180A1C1A70FB68E3
:1004A0000133FB605F4B1A68604B9200D358614A7E
:1004B000134011D05B4B1A685C4B9200D3581B0958
:1004C0000F2213405A4AD15C3A00FB68D3180A1C29
:1004D0001A70FB680133FB60524B1A68534B920051
:1004E000D3581B041B0C10D04E4B1A684F4B920074
:1004F000D3580F2213404E4AD15C3A00FB68D31800
:100500000A1C1A70FB680133FB60464B1A68464BA5
:100510009200D35C1A00F023134011D0414B1A68AB
:10052000414B9200D35C1B09DBB21A00424B995C31
:100530003A00FB68D3180A1C1A70FB680133FB6091
:10054000384B1A68384B9200D35C002B11D0354BD6
:100550001A68354B9200D35C1A000F231340364AB9
:10056000D15C3A00FB68D3180A1C1A70FB6801338F
:10057000FB603A00FB68D3180A221A70FB6801334B
:10058000FB60FB689AB201235B4239002B4803F001
:100590009BFE244B1B68244A9B00D31801331B7815
:1005A000002B21D01F4B1B681F499A008A1801326B
:1005B0001278013AD1B21C4A9B00D31801330A1CAD
:1005C0001A7011E01E4B01221A601D4B01225A6065
:1005D0001B4B1C4A1900100002F064F8194B012251
:1005E0000121180002F0EBF980239B000C4A19004E
:1005F000100002F0C7F9031EE4D1114B01221A606A
:100600000F4B00225A600E4B0E4A1900100002F0E8
:1006100049F8C046BD4604B080BDC0464002002037
:1006200000040048AC020020DC0400204C5100080B
:1006300064510008F0FF0000745100084C060020CF
:100640000C0500200008004880B584B000AF0023EE
:10065000FB600123BB608023DA019023DB051100DE
:10066000180002F08FF9031E03D0FB680122134328
:10067000FB6080231A029023DB051100180002F0B2
:1006800081F9031E03D0FB6810221343FB60002393
:100690007B6027E000233B608023DA019023DB05A9
:1006A0001100180002F06EF9031E03D03B6801220E
:1006B00013433B6080231A029023DB0511001800CE
:1006C00002F060F9031E03D03B68102213433B6025
:1006D000FA683B689A4202D00023BB6005E07B6861
:1006E00001337B607B68C72BD4DDBB68002B59D0FE
:1006F0002E4B1B681A02FB68D3182D4A1A402B4B4D
:100700001A602A4B1B68102B04D0284B1B68294AFF
:1007100093421FD1284B1B78072B06D8264B1B78FA
:100720000133DAB2244B1A7002E0234B01221A7013
:10073000214B1A78214B1A71204B5B79012B05D87C
:100740001E4B5B790133DAB21C4B5A711C4B0122F0
:100750001A7027E0154B1B68012B04D0134B1B6844
:10076000184A93421ED1144B1B78012B06D9124B09
:100770001B78013BDAB2104B1A7002E00E4B0822D4
:100780001A700D4B1A780D4B1A710C4B5B79012BBB
:1007900005D80A4B5B790133DAB2084B5A71084B22
:1007A00001221A70C046BD4604B080BDD4060020A8
:1007B000111100000111000001050020DC040020DF
:1007C000A80200201011000080B500AF2C4B802241
:1007D00052001A602A4B01225A60294B294A1900FB
:1007E000100001F05FFF80235B0026480122190002
:1007F00002F0E5F8244B80221A60214B802212017E
:100800001A601F4B01225A601D4B1E4A190010002E
:1008100001F048FF80231B011A480122190002F051
:10082000CEF8174B02221A60154B01225A60144B66
:10083000164A1900100001F035FF144B0122022165
:10084000180002F0BCF80E4BC0221A600C4B0122BB
:100850005A600B4B0D4A1900100001F023FF0B4B9F
:100860000022C021180002F0AAF8094B00221A70D9
:1008700001F07CFB0200074B1A60C046BD4680BDFC
:100880000C0500200004004820050020001400484A
:10089000B00200200405002080B500AF00F0B0F8E1
:1008A00000F096F9FFF7D0FE294B1B78002B04D0FF
:1008B00000F02AF900F008F942E0264B1A78264B9E
:1008C0001B789A423CD0234B1B78002B1AD08823EC
:1008D00019019023DB050122180002F070F81F496E
:1008E0001F4B0122180002F06AF81E491E4B01221C
:1008F000180002F064F81D4B01220221180002F0DA
:100900005EF819E0882319019023DB050022180006
:1009100002F055F81149124B0022180002F04FF86E
:100920001049114B0022180002F049F80F4B002229
:100930000221180002F043F8064B1A78064B1A7091
:1009400000F0A2F9FFF73AFDC046BD4680BDC046A3
:10095000A8020020F5040020F60400202FEC00007F
:1009600000040048FDB100000008004800140048E1
:1009700090B585B000AF3C0020606160A260E3608C
:100980003B001A683B009B881900100001F0FAFF39
:10099000031E2CD13B009A68174B9200D35C1A00BF
:1009A0003B00DB689A4222D0144B01221A703B00B4
:1009B000D9683B009A68C9B20F4B9200D1543B00F2
:1009C0009B680D4A9B00D31801331B78012B0ED86E
:1009D0003B009B6808499A008A180132127801325C
:1009E000D1B2054A9B00D31801330A1C1A70C046C5
:1009F000BD4605B090BDC046DC040020A802002022
:100A000090B583B000AF00237B600EE00B4C7B6899
:100A10001B011859E2185168E2189268E318DB6864
:100A2000FFF7A6FF7B6801337B607B680D2BEDD958
:100A3000C046C046BD4603B090BDC0460000002081
:100A400090B585B000AF3C0020606160A260E360BB
:100A50003B009B681A4A9B00D31802331B781A008C
:100A60003B00DB689A4217D13B009B881A00154B6C
:100A70001A60144B01225A603B001B68114A110096
:100A8000180001F00FFE3B0018683B009B88012214
:100A9000190001F094FF0EE03B009B881A00094BFF
:100AA0001A60084B00225A603B001B68054A11007F
:100AB000180001F0F7FDC046BD4605B090BDC04628
:100AC000DC0400200C05002090B583B000AF0023AB
:100AD0007B600EE00B4C7B681B011859E2185168D3
:100AE000E2189268E318DB68FFF7AAFF7B6801331E
:100AF0007B607B68072BEDD9C046C046BD4603B07E
:100B000090BDC046C001002090B583B000AF002367
:100B10007B600EE00B4C7B681B011859E218516892
:100B2000E2189268E318DB6800F00EF87B68013386
:100B30007B607B680D2BEDD9C046C046BD4603B037
:100B400090BDC046E000002090B585B000AF3C00ED
:100B500020606160A260E3603B009B681A4A9B00D2
:100B6000D31802331B781A003B00DB689A4217D176
:100B70003B009B881A00154B1A60144B01225A60E7
:100B80003B001B68114A1100180001F08BFD3B006F
:100B900018683B009B880122190001F010FF0EE04D
:100BA0003B009B881A00094B1A60084B00225A60D0
:100BB0003B001B68054A1100180001F073FDC04698
:100BC000BD4605B090BDC046DC0400200C050020E9
:100BD00080B582B000AF80239A019023DB0511001D
:100BE000180001F0CFFE03005A425341DAB2FB1D58
:100BF0001A7001F0BBF903003B601D4B1B78FA1D16
:100C000012789A4207D01A4BFA1D12781A70194BB3
:100C10003A681A6016E0184B1B78FA1D12789A424F
:100C200010D0144B1B683A68D31A132B0AD9124BF5
:100C3000FA1D12781A70114BFA1D12781A70104BA7
:100C400001221A700E4B1B78002B0DD00D4B5B7DD3
:100C5000002B09D1094B1A780A4B1A75094B01224E
:100C60005A75074B00221A70C046BD4602B080BDBF
:100C700003050020040500200205002009050020CE
:100C800008050020DC04002080B582B000AF154BC1
:100C90009A7DFB1D03210A401A70134B1B78FA1D25
:100CA00012789A421AD0FB1D1B7801221340DBB246
:100CB0000E481A00402101F082FEFB1D1B785B10DC
:100CC000DBB201221340DBB208481A00802101F098
:100CD00076FE054BFA1D12781A7000E0C046BD463C
:100CE00002B080BDDC040020B002002000140048E7
:100CF00080B500AFC046BD4680BD80B500AFC046E0
:100D0000BD4680BD80B500AF024B01221A70C046BF
:100D1000BD4680BDF404002080B500AFC046BD468E
:100D200080BD000080B500AF034B01221A70FFF7B1
:100D3000E4FFC046BD4680BDF504002080B500AF8D
:100D4000034B00221A70FFF7D8FFC046BD4680BD96
:100D5000F504002080B500AFFFF7CFFFC046BD46C9
:100D600080BD000080B500AF024B01221A70C04662
:100D7000BD4680BDF704002080B500AF024B0022C5
:100D80001A70C046BD4680BDF704002080B500AF94
:100D9000024B01221A70C046BD4680BDF8040020F7
:100DA00080B500AF024B01221A70C046BD4680BD1F
:100DB0004002002080B500AF084B1800FFF7CCF9C7
:100DC00003009AB201235B420449054803F07CFA10
:100DD000044B00221A70C046BD4680BD440200206C
:100DE0004C0600204002002080B582B000AF394B95
:100DF00001225A60374B384A1900100001F052FCAA
:100E0000354B00228021180001F0D9FD334B1B78AF
:100E1000002B37D1324B1B78002B33D101237B6061
:100E20002BE0304B7A689200D2582F4B1B689A42C5
:100E300020D12E4B19782E4A7B689B00D3180233A1
:100E40000A1C1A702A4A7B689B00D31803331B784C
:100E5000012B16D8264A7B689B00D31803331B78D6
:100E60000133D9B2224A7B689B00D31803330A1C92
:100E70001A7006E07B6801337B607B68052BD0DD50
:100E800000E0C046194B00221A70154B00221A7060
:100E9000184B1B78002B05D0134B1B685A1C124BA8
:100EA0001A6002E0104B00221A6080235B000A489F
:100EB0000122190001F083FD064B00225A60054B08
:100EC000054A1900100001F0EDFBC046BD4602B016
:100ED00080BDC0462005002000040048F704002023
:100EE000F80400204C510008FC04002000050020FC
:100EF000DC040020F404002080B500AF054B1B6823
:100F00001A01044B1A60034B1A68024B1A60C04660
:100F1000BD4680BDFC04002080B500AF064B1B68B9
:100F20001A01054B1A60044B1B685A1C024B1A60CD
:100F3000C046BD4680BDC046FC04002080B500AF61
:100F4000064B1B681A01054B1A60044B1B689A1C60
:100F5000024B1A60C046BD4680BDC046FC0400205E
:100F600080B500AF064B1B681A01054B1A60044B95
:100F70001B68DA1C024B1A60C046BD4680BDC046E5
:100F8000FC04002080B500AF064B1B681A01054B1E
:100F90001A60044B1B681A1D024B1A60C046BD46FE
:100FA00080BDC046FC04002080B500AF064B1B6826
:100FB0001A01054B1A60044B1B685A1D024B1A603C
:100FC000C046BD4680BDC046FC04002080B500AFD1
:100FD000064B1B681A01054B1A60044B1B689A1DCF
:100FE000024B1A60C046BD4680BDC046FC040020CE
:100FF00080B500AF064B1B681A01054B1A60044B05
:101000001B68DA1D024B1A60C046BD4680BDC04653
:10101000FC04002080B500AF064B1B681A01054B8D
:101020001A60044B1B6808331A00024B1A60C04652
:10103000BD4680BDFC04002080B500AF064B1B6898
:101040001A01054B1A60044B1B6809331A00024B46
:101050001A60C046BD4680BDFC04002080B500AFCC
:10106000064B1B681A01054B1A60044B1B680A33B8
:101070001A00024B1A60C046BD4680BDFC04002029
:1010800080B500AF064B1B681A01054B1A60044B74
:101090001B680B331A00024B1A60C046BD4680BD68
:1010A000FC04002080B500AF064B1B681A01054BFD
:1010B0001A60044B1B680C331A00024B1A60C046BE
:1010C000BD4680BDFC04002080B500AF064B1B6808
:1010D0001A01054B1A60044B1B680D331A00024BB2
:1010E0001A60C046BD4680BDFC04002080B500AF3C
:1010F000064B1B681A01054B1A60044B1B680E3324
:101100001A00024B1A60C046BD4680BDFC04002098
:1011100080B500AF064B1B681A01054B1A60044BE3
:101120001B680F331A00024B1A60C046BD4680BDD3
:10113000FC04002080B500AF064B1B781B01DAB21F
:10114000044B1A70034B1A78024B1A70C046BD4606
:1011500080BDC0460005002080B500AF074B1B785E
:101160001B01DAB2054B1A70044B1B780133DAB25B
:10117000024B1A70C046BD4680BDC0460005002027
:1011800080B500AF074B1B781B01DAB2054B1A7014
:10119000044B1B780233DAB2024B1A70C046BD46CC
:1011A00080BDC0460005002080B500AF074B1B780E
:1011B0001B01DAB2054B1A70044B1B780333DAB209
:1011C000024B1A70C046BD4680BDC04600050020D7
:1011D00080B500AF074B1B781B01DAB2054B1A70C4
:1011E000044B1B780433DAB2024B1A70C046BD467A
:1011F00080BDC0460005002080B500AF074B1B78BE
:101200001B01DAB2054B1A70044B1B780533DAB2B6
:10121000024B1A70C046BD4680BDC0460005002086
:1012200080B500AF074B1B781B01DAB2054B1A7073
:10123000044B1B780633DAB2024B1A70C046BD4627
:1012400080BDC0460005002080B500AF074B1B786D
:101250001B01DAB2054B1A70044B1B780733DAB264
:10126000024B1A70C046BD4680BDC0460005002036
:1012700080B500AF074B1B781B01DAB2054B1A7023
:10128000044B1B780833DAB2024B1A70C046BD46D5
:1012900080BDC0460005002080B500AF074B1B781D
:1012A0001B01DAB2054B1A70044B1B780933DAB212
:1012B000024B1A70C046BD4680BDC04600050020E6
:1012C00080B500AF074B1B781B01DAB2054B1A70D3
:1012D000044B1B780A33DAB2024B1A70C046BD4683
:1012E00080BDC0460005002080B500AF074B1B78CD
:1012F0001B01DAB2054B1A70044B1B780B33DAB2C0
:10130000024B1A70C046BD4680BDC0460005002095
:1013100080B500AF074B1B781B01DAB2054B1A7082
:10132000044B1B780C33DAB2024B1A70C046BD4630
:1013300080BDC0460005002080B500AF074B1B787C
:101340001B01DAB2054B1A70044B1B780D33DAB26D
:10135000024B1A70C046BD4680BDC0460005002045
:1013600080B500AF074B1B781B01DAB2054B1A7032
:10137000044B1B780E33DAB2024B1A70C046BD46DE
:1013800080BDC0460005002080B500AF074B1B782C
:101390001B01DAB2054B1A70044B1B780F33DAB21B
:1013A000024B1A70C046BD4680BDC04600050020F5
:1013B00080B500AF09E00A4B9B8C9BB21A007F23DB
:1013C0001A40084B9200D3589847054BDB692022FE
:1013D0001340F0D1024B0F221A62C046BD4680BDB9
:1013E00000380140B402002080B500AF00F064FD79
:1013F00000F02AF800F0A8FA00F076FA00F08CF875
:1014000000F09AF900F0E4F800F016FA0B4B1B68B4
:101410001A680A4B1B6820210A431A60084B0C21EA
:10142000180002F0BDF8074B0021180002F0B8F8D0
:10143000FFF7CAF9FFF730FAFCE7C0464C06002078
:10144000BC0500207405002090B595B000AF2024A5
:101450003B19180030231A000021FEF7CFFE10239D
:10146000FB18180010231A000021FEF7C7FE3B00EE
:10147000180010231A000021FEF7C0FE21007B187F
:1014800012221A607B180122DA607B1801225A614D
:101490007B1810221A617B1810229A617B18022295
:1014A0001A627B1800225A627B18A02292039A6269
:1014B0007B180022DA627B18180001F09DFA031EE7
:1014C00001D000F00DFB10217B1807221A607B1859
:1014D00002225A607B1800229A607B180022DA6090
:1014E0007B180121180001F0A1FD031E01D000F0BE
:1014F000F7FA3B0001221A603B0000229A603B0091
:10150000180001F0D7FE031E01D000F0E9FAC04632
:10151000BD4615B090BD000080B584B000AF3B1D46
:1015200018000C231A000021FEF768FE264B274AFC
:101530001A60254B00225A60234B00229A60224BEE
:101540000022DA60204B01221A611F4B04225A61EB
:101550001D4B00221A761C4B00225A761A4B002291
:101560009A76194B0022DA76174BC222FF32DA61E3
:10157000154B00221A62144B242200219954124B5D
:1015800001229A62104B180000F0FAFC031E01D0F1
:1015900000F0A6FA3B1D01221A603B1D8022520179
:1015A0005A603B1D802252059A603A1D064B11007D
:1015B000180000F025FE031E01D000F091FAC0468D
:1015C000BD4604B080BDC046340500200024014063
:1015D00080B596B000AF4823FB18180010231A00FE
:1015E0000021FEF70BFE4023FB18180008231A0009
:1015F0000021FEF703FE2423FB1818001C231A0009
:101600000021FEF7FBFD3B1D180020231A000021DE
:10161000FEF7F4FD464B474A1A60454B00225A60DC
:10162000434B00229A60424BFA22D200DA60404BD0
:1016300000221A613E4B00225A613D4B00229A6102
:101640003B4B180001F004FF031E01D000F048FAE4
:1016500048217B18802252011A607A18344B1100FD
:10166000180002F015F9031E01D000F039FA304BD2
:10167000180001F03DFF031E01D000F031FA4021B7
:101680007B1820221A607B1800225A607A18284B97
:101690001100180002F00EFD031E01D000F020FA28
:1016A00024217B1860221A607B1864225A607B1800
:1016B00000229A607B180022DA607B1800221A61EF
:1016C0007B1800225A617B1800229A617918184B06
:1016D0000022180002F016F8031E01D000F000FAF4
:1016E0003B1D00221A603B1D00225A603B1D002258
:1016F0009A603B1D0022DA603B1D00221A613B1DEF
:10170000802292015A613B1D0022DA613A1D084B8A
:101710001100180002F026FD031E01D000F0E0F9D0
:10172000034B180000F096FAC046BD4616B080BDC7
:1017300074050020002C014080B58EB000AF282336
:10174000FB18180010231A000021FEF757FD202374
:10175000FB18180008231A000021FEF74FFD3B1D5F
:1017600018001C231A000021FEF748FD304B314AB7
:101770001A602F4B00225A602D4B00229A602C4B8E
:10178000FA22D200DA602A4B00221A61284B00228A
:101790009A61274B180001F05BFE031E01D000F098
:1017A0009FF928217B18802252011A607A18204B59
:1017B0001100180002F06CF8031E01D000F090F93F
:1017C0001B4B180001F094FE031E01D000F088F9B5
:1017D00020217B1800221A607B1800225A607A1898
:1017E000134B1100180002F065FC031E01D000F03D
:1017F00077F93B1D60221A603B1DFA2292005A6065
:101800003B1D00229A603B1D00221A61391D084BC6
:101810000C22180001F076FF031E01D000F060F9E1
:10182000034B180000F016FAC046BD460EB080BD4E
:10183000BC0500200004004080B586B000AF08233E
:10184000FB18180010231A000021FEF7D7FC3B00FC
:10185000180008231A000021FEF7D0FC1F4B204A75
:101860001A601E4B00225A601C4B00229A601B4BD0
:101870001C4ADA60194B00221A61184B00225A6187
:10188000164B00229A61154B180001F0E1FD031E72
:1018900001D000F025F908217B18802252011A603E
:1018A0007A180E4B1100180001F0F2FF031E01D050
:1018B00000F016F93B0000221A603B0000225A603B
:1018C0003A00064B1100180002F0F4FB031E01D091
:1018D00000F006F9C046BD4606B080BD04060020F3
:1018E00000400140FFFF000080B500AF144B154AD7
:1018F0001A60134BE12252025A60114B00229A6087
:101900000F4B0022DA600E4B00221A610C4B0C22A6
:101910005A610B4B00229A61094B0022DA61084B95
:1019200000221A62064B00225A62054B180002F090
:1019300077FC031E01D000F0D3F8C046BD4680BD41
:101940004C0600200038014090B58BB000AF142445
:101950003B19180014231A000021FEF74FFC584BC6
:101960005A69574B802109030A435A61544B5A69FB
:1019700080231B0313403B613B69514B5A69504B19
:101980008021C9030A435A614D4B5A698023DB0306
:101990001340FB60FB684A4B5A69494B802189021E
:1019A0000A435A61464B5A6980239B021340BB602D
:1019B000BB68434B5A69424B8021C9020A435A61B2
:1019C0003F4B5A698023DB0213407B607B683C4BB2
:1019D0005A693B4B802149030A435A61384B5A6983
:1019E00080235B0313403B603B6880235B003548EA
:1019F0000122190000F0E3FF3B19334A1A603B193A
:101A000000225A603B1901229A603B192F4A1900A3
:101A1000100000F047FE3B19F3221A603B19002228
:101A20005A603B1901229A603B19294A190010009B
:101A300000F038FE3B19274A1A603B1900225A6011
:101A40003B1901229A603A199023DB051100180016
:101A500000F028FE3B19204A1A603B1900225A6008
:101A60003B1901229A603B19164A1900100000F038
:101A700019FE3B1904221A603B1900225A603B19D7
:101A800001229A603B19154A1900100000F00AFE65
:101A900021007B18802252001A607B1801225A60B4
:101AA0007B1800229A607B180022DA607B18054AB6
:101AB0001900100000F0F6FDC046BD460BB090BD09
:101AC0000010024000040048FFFD0000000800482C
:101AD00000140048F9F80000FFFE0000000C004868
:101AE00080B500AF72B6C046C046FDE780B582B093
:101AF00000AF0F4B9A690E4B01210A439A610C4BC0
:101B00009B69012213407B607B68094BDA69084BB3
:101B1000802149050A43DA61054BDA6980235B05B8
:101B200013403B603B68C046BD4602B080BDC04626
:101B30000010024090B58BB000AF786014243B19C0
:101B4000180014231A000021FEF758FB7B681B685D
:101B5000194A93422BD1194B9A69184B802189005D
:101B60000A439A61154B9A6980239B0013403B619D
:101B70003B69124B5A69114B802189020A435A6111
:101B80000E4B5A6980239B021340FB60FB683B1994
:101B900002221A603B1903225A603B1900229A6004
:101BA0003A199023DB051100180000F07BFDC046B8
:101BB000BD460BB090BDC04600240140001002405D
:101BC00080B586B000AF78607B681B681D4A934281
:101BD0000ED11D4B9A691C4B802109010A439A6161
:101BE000194B9A6980231B0113407B617B6924E0B8
:101BF0007B681B68154A93420CD1134BDA69124B70
:101C000002210A43DA61104BDB69022213403B6177
:101C10003B6912E07B681B680D4A93420DD10A4B69
:101C20009A69094B802149020A439A61064B9A69D5
:101C300080235B021340FB60FB68C046BD4606B0D4
:101C400080BDC046002C014000100240000400404E
:101C50000040014090B58BB000AF786014243B1970
:101C6000180014231A000021FEF7C8FA7B681B68CD
:101C70002B4A934226D12B4B5A692A4B8021890249
:101C80000A435A61274B5A6980239B0213403B61E8
:101C90003B693B19802252001A6021007B18022206
:101CA0005A607B1800229A607B180022DA607B1849
:101CB00002221A617A189023DB051100180000F047
:101CC000F1FC29E07B681B68174A934224D1154B2D
:101CD0005A69144B802109030A435A61114B5A690E
:101CE00080231B031340FB60FB6814217B188022B8
:101CF00092001A607B1802225A607B1800229A60B8
:101D00007B180022DA607B1800221A617B18074AD0
:101D10001900100000F0C6FCC046BD460BB090BDD7
:101D2000002C014000100240000400400008004860
:101D300090B58BB000AF786014243B1918001423C1
:101D40001A000021FEF75AFA7B681B682C4A93425E
:101D500052D12C4B9A692B4B8021C9010A439A61BD
:101D6000284B9A698023DB0113403B613B69254B7B
:101D70005A69244B802189020A435A61214B5A69CE
:101D800080239B021340FB60FB683B19802292007A
:101D90001A603B1912225A603B1901229A603B19C2
:101DA0000322DA603B1901221A613A199023DB05FC
:101DB0001100180000F076FC21007B188022D20070
:101DC0001A607B1802225A607B1800229A607B18E6
:101DD0000322DA607B1801221A617A189023DB054E
:101DE0001100180000F05EFC002200211B2000F012
:101DF000A9FB1B2000F0BBFBC046BD460BB090BD4D
:101E0000003801400010024080B500AFC046FDE739
:101E100080B500AFC046FDE780B500AFC046BD4607
:101E200080BD80B500AFC046BD4680BD80B500AF67
:101E300000F08AF8C046BD4680BD000080B500AF06
:101E4000FFF7B6FA034B180002F0DEFAC046BD46B3
:101E500080BDC0464C06002080B500AFC046BD46E0
:101E600080BD00000D488546FFF7F6FF0C480D4980
:101E70000D4A002302E0D458C4500433C4188C42E5
:101E8000F9D30A4A0A4C002301E013600432A2424B
:101E9000FBD3FEF78FF9FFF7A7FAFEE7002000203B
:101EA00000000020C0040020C4510008C00400202D
:101EB000DC060020FEE7000080B500AF074B1A6883
:101EC000064B10210A431A60032000F009F8FFF7BF
:101ED0000DFE00231800BD4680BDC0460020024014
:101EE00090B583B000AF7860144B1C68144B1B781E
:101EF0001900FA239800FEF7D5F903001900200015
:101F0000FEF7D0F90300180000F041FB031E01D0DA
:101F100001230FE07B68032B0BD8796801235B4218
:101F20000022180000F00EFB064B7A681A600023AE
:101F300000E001231800BD4603B090BDB4040020AA
:101F4000BC040020B804002080B500AF054B1B780E
:101F50001A00054B1B68D218034B1A60C046BD46D9
:101F600080BDC046BC040020D806002080B500AF6C
:101F7000024B1B681800BD4680BDC046D806002035
:101F800080B584B000AF78600F23FB1800221A7070
:101F90000023BB607B68002B01D1012325E17B6816
:101FA0009B6B002B0AD17B680022DA637B683422AA
:101FB000002199547B681800FFF7BCFD7B689B6B80
:101FC0001022134000D003E10F23FB181B78002BD5
:101FD00000D0FDE07B681B689B680422134000D0A2
:101FE000F6E07B689B6B834A134002221A437B68AE
:101FF0009A637B681B689B6803221340012B12D1F4
:102000007B681B681B6801221340012B09D07B6889
:102010001B68DA6880231B021A4080231B029A4245
:1020200001D1012300E00023002B16D17B681B683F
:10203000DB681822934319007B689A687B681B68E9
:102040000A43DA607B681B681B699B0099087B6800
:102050005A687B681B680A431A617B681B68DA68E8
:102060007B681B6864490A40DA607B681B7E9A03C0
:102070007B685B7EDB031A437B689B7E5B031A43B2
:102080007B689B6A012B02D080235B0100E0002368
:102090001A437B68DB681A437B681B69022B01D1FA
:1020A000042300E000231A437B6824215B5C5B006F
:1020B0001343BA681343BB607B68DB7E012B15D1E9
:1020C0007B689B7E002B05D1BB68802252021343A4
:1020D000BB600BE07B689B6B20221A437B689A6392
:1020E0007B68DB6B01221A437B68DA637B68DA6901
:1020F000C223FF339A4207D07B68DA697B681B6A88
:102100001343BA681343BB607B681B68D9687B685C
:102110001B68BA680A43DA607B68DA6A80235B0569
:102120009A421BD07B68DB6A012B17D07B68DB6A85
:10213000022B13D07B68DB6A032B0FD07B68DB6A32
:10214000042B0BD07B68DB6A052B07D07B68DB6A2E
:10215000062B03D07B68DB6A072B12D17B681B68D8
:102160005A697B681B6807218A435A617B681B6830
:1021700059697B68DB6A07221A407B681B680A433F
:102180005A617B681B68DB681C4A1340BA689A4234
:102190000BD17B680022DA637B689B6B032293433D
:1021A00001221A437B689A631CE07B689B6B1222B6
:1021B000934310221A437B689A637B68DB6B01228E
:1021C0001A437B68DA630F23FB1801221A7009E0B7
:1021D0007B689B6B10221A437B689A630F23FB1862
:1021E00001221A700F23FB181B781800BD4604B09B
:1021F00080BDC046FDFEFFFF1902FEFFE7FF3F83E3
:1022000080B584B000AF786039600F23FB180022DE
:102210001A700023BB607B68DA6A80235B059A42F0
:1022200011D07B68DB6A012B0DD07B68DB6A022B47
:1022300009D07B68DB6A032B05D07B68DB6A042B43
:1022400001D07B68DB6A7B6834229B5C012B01D167
:102250000223BBE07B683422012199547B681B6810
:102260009B680422134000D09FE03B685B68594A9A
:10227000934200D177E07B681B68996A3B681B68D2
:1022800001229A407B681B680A439A627B68DA6A7B
:1022900080235B059A4237D07B68DB6A012B33D001
:1022A0007B68DB6A022B2FD07B68DB6A032B2BD089
:1022B0007B68DB6A042B27D07B68DB6A052B23D085
:1022C0007B68DB6A062B1FD07B68DB6A072B1BD081
:1022D0003B689A687B681B685B6907210B409A42E0
:1022E00012D07B681B685A697B681B6807218A4388
:1022F0005A617B681B6859693B689B6807221A40D2
:102300007B681B680A435A613B681B68102B03D02B
:102310003B681B68112B52D12F4B19683B681B6817
:10232000102B02D180231B0401E08023DB032A4A07
:102330000B4313603B681B68102B40D1274B1B6875
:1023400027491800FDF7AEFF03001A0013009B0099
:102350009B185B00BB6002E0BB68013BBB60BB68D5
:10236000002BF9D12BE07B681B689A6A3B681B68DD
:10237000012199400B00D9437B681B680A409A628F
:102380003B681B68102B03D03B681B68112B16D1D0
:10239000114B19683B681B68102B01D1114A00E0F2
:1023A000114A0D4B0A401A6009E07B689B6B2022A2
:1023B0001A437B689A630F23FB1801221A707B680B
:1023C0003422002199540F23FB181B781800BD46B6
:1023D00004B080BD0110000008270140B4040020B3
:1023E00040420F00FFFF7FFFFFFFBFFF80B582B0BD
:1023F00000AF0200FB1D1A70FB1D1B787F2B09D854
:10240000FB1D1B781A001F231A40044B0121914029
:102410000A001A60C046BD4602B080BD00E100E07F
:1024200090B583B000AF02003960FB1D1A70FB1D30
:102430001B787F2B28D82F4AFB1D1B785BB29B088B
:10244000C0339B009B58FA1D1278110003220A40EA
:10245000D200FF2191400A00D2431A4011003B688C
:102460009B01FF221A40FB1D1B7818000323034029
:10247000DB009A401F48FB1D1B785BB29B080A4398
:10248000C0339B001A5031E01B4AFB1D1B7819001A
:102490000F230B40083B9B0806339B00D3180433E3
:1024A0001B68FA1D1278110003220A40D200FF2196
:1024B00091400A00D2431A4011003B689B01FF2261
:1024C0001A40FB1D1B78180003230340DB009A40D1
:1024D0000948FB1D1B781C000F232340083B9B0869
:1024E0000A4306339B00C31804331A60C046BD4636
:1024F00003B090BD00E100E000ED00E080B582B0E7
:1025000000AF78607B685A1E80235B049A4201D337
:10251000012310E00A4B7A68013A5A6001235B42BA
:1025200003211800FFF77CFF054B00229A60044B43
:1025300007221A6000231800BD4602B080BDC046C5
:1025400010E000E080B584B000AFB9607A600F2180
:102550007B18021C1A70BA687B181B785BB21100DA
:102560001800FFF75DFFC046BD4604B080BD80B5D2
:1025700082B000AF0200FB1D1A70FB1D1B785BB21E
:102580001800FFF733FFC046BD4602B080BD80B5DE
:1025900082B000AF78607B681800FFF7AFFF0300E0
:1025A0001800BD4602B080BD80B582B000AF786033
:1025B0007B6821229B5CDBB2022B08D07B68042263
:1025C0009A637B68202200219954012320E07B68D4
:1025D0001B681A687B681B680E218A431A607B6837
:1025E0001B681A687B681B6801218A431A607B6834
:1025F0001A6C7B68DB6B012191400A005A607B6892
:102600002122012199547B68202200219954002322
:102610001800BD4602B080BD80B584B000AF7860C0
:102620000F217B1800221A707B6821229B5CDBB291
:10263000022B06D07B6804229A637B1801221A7051
:1026400028E07B681B681A687B681B680E218A4338
:102650001A607B681B681A687B681B6801218A43C3
:102660001A607B681A6C7B68DB6B012191400A0061
:102670005A607B682122012199547B682022002125
:1026800099547B685B6B002B04D07B685B6B7A682A
:10269000100098470F23FB181B781800BD4604B0A4
:1026A00080BD000080B586B000AF7860396000233F
:1026B0007B614FE13B681B6801217A6991400A0008
:1026C0001340FB60FB68002B00D140E13B685B6876
:1026D00003221340012B05D03B685B6803221340A3
:1026E000022B30D17B689B683B617B695B000322D6
:1026F0009A401300DA433B6913403B613B68DA6858
:102700007B695B009A4013003A6913433B617B6825
:102710003A699A607B685B683B6101227B699A40F9
:102720001300DA433B6913403B613B685B681B095C
:1027300001221A407B699A4013003A6913433B61B6
:102740007B683A695A603B685B6803221340032B3D
:1027500017D07B68DB683B617B695B0003229A4092
:102760001300DA433B6913403B613B689A687B691D
:102770005B009A4013003A6913433B617B683A69F6
:10278000DA603B685B6803221340022B23D17B692C
:10279000DA087B6808329200D3583B617B690722D4
:1027A00013409B000F229A401300DA433B69134009
:1027B0003B613B681A697B6907210B409B009A408B
:1027C00013003A6913433B617B69DA087B6808327E
:1027D00092003969D1507B681B683B617B695B0063
:1027E00003229A401300DA433B6913403B613B6884
:1027F0005B6803221A407B695B009A4013003A69C8
:1028000013433B617B683A691A603B685A68C0238E
:102810009B02134000D19AE0544B9A69534B01211B
:102820000A439A61514B9B6901221340BB60BB680C
:102830004F4A7B699B0802339B009B583B617B6935
:10284000032213409B000F229A401300DA433B6996
:1028500013403B617A689023DB059A4213D07B6872
:10286000444A93420DD07B68434A934207D07B6829
:10287000424A934201D1032306E0052304E00223E8
:1028800002E0012300E000237A6903210A4092005C
:1028900093403A6913433B6135497B699B08023396
:1028A0009B003A695A50364B9B683B61FB68DA43A0
:1028B0003B6913403B613B685A6880235B031340CC
:1028C00003D03A69FB6813433B612D4B3A699A6028
:1028D0002B4BDB683B61FB68DA433B6913403B6190
:1028E0003B685A6880239B03134003D03A69FB6816
:1028F00013433B61224B3A69DA60214B5B683B61D1
:10290000FB68DA433B6913403B613B685A688023AC
:102910009B02134003D03A69FB6813433B61184B99
:102920003A695A60164B1B683B61FB68DA433B69A6
:1029300013403B613B685A6880235B02134003D01D
:102940003A69FB6813433B610D4B3A691A607B6936
:1029500001337B613B681A687B69DA40131E00D043
:10296000A8E6C046C046BD4606B080BD0010024085
:10297000000001400004004800080048000C004826
:102980000004014080B584B000AF78600A00BB1C31
:102990001A807B681B69BA1C1288134004D00F236D
:1029A000FB1801221A7003E00F23FB1800221A7093
:1029B0000F23FB181B781800BD4604B080BD80B5FE
:1029C00082B000AF786008001100BB1C021C1A80A6
:1029D0007B1C0A1C1A707B1C1B78002B04D0BB1CB0
:1029E0001A887B689A6103E0BB1C1A887B689A622C
:1029F000C046BD4602B080BD80B588B000AF7860EB
:102A00007B68002B01D1012301E37B681B68012255
:102A1000134000D18DE0C34B5B680C221340042BA4
:102A20000ED0C04B5B680C221340082B16D1BD4B57
:102A30005A6880235B021A4080235B029A420DD1C0
:102A4000B84B1A6880239B02134000D170E07B686A
:102A50005B68002B00D06BE00123D8E27B685B68E9
:102A6000012B07D1AF4B1A68AE4B802149020A43B4
:102A70001A602FE07B685B68002B0CD1A94B1A68A9
:102A8000A84BA9490A401A60A64B1A68A54BA7494A
:102A90000A401A601EE07B685B68052B0ED1A14BD3
:102AA0001A68A04B8021C9020A431A609D4B1A681C
:102AB0009C4B802149020A431A600BE0994B1A682B
:102AC000984B99490A401A60964B1A68954B97495A
:102AD0000A401A607B685B68002B14D0FFF746FA47
:102AE0000300BB6108E0FFF741FA0200BB69D31A9B
:102AF000642B01D903238AE28A4B1A6880239B0244
:102B00001340F0D015E0FFF731FA0300BB6108E095
:102B1000FFF72CFA0200BB69D31A642B01D90323F7
:102B200075E2804B1A6880239B021340F0D100E0CD
:102B3000C0467B681B680222134000D169E0794BD4
:102B40005B680C2213400BD0764B5B680C22134061
:102B5000082B1CD1734B5A6880235B02134016D19B
:102B6000704B1B680222134005D07B68DB68012B89
:102B700001D001234BE26B4B1B68F82293431900F1
:102B80007B681B69DA00674B0A431A6041E07B6887
:102B9000DB68002B24D0634B1A68624B01210A4387
:102BA0001A60FFF7E3F90300BB6108E0FFF7DEF905
:102BB0000200BB69D31A022B01D9032327E2594B28
:102BC0001B6802221340F1D0564B1B68F822934336
:102BD00019007B681B69DA00524B0A431A6018E03F
:102BE000504B1A684F4B01218A431A60FFF7BEF918
:102BF0000300BB6108E0FFF7B9F90200BB69D31A13
:102C0000022B01D9032302E2464B1B680222134028
:102C1000F1D17B681B680822134036D07B68DB69E2
:102C2000002B19D03F4B5A6A3E4B01210A435A628E
:102C3000FFF79CF90300BB6108E0FFF797F902007A
:102C4000BB69D31A022B01D90323E0E1354B5B6A40
:102C500002221340F1D018E0324B5A6A314B012165
:102C60008A435A62FFF782F90300BB6108E0FFF76D
:102C70007DF90200BB69D31A022B01D90323C6E1F7
:102C8000284B5B6A02221340F1D17B681B68042247
:102C9000134000D1B4E01F203B1800221A70214BD2
:102CA000DA6980235B05134010D11E4BDA691D4B96
:102CB000802149050A43DA611A4BDA6980235B05F2
:102CC0001340FB60FB683B1801221A70184B1A680E
:102CD00080235B0013401AD1154B1A68144B8021D6
:102CE00049000A431A60FFF741F90300BB6108E09D
:102CF000FFF73CF90200BB69D31A642B01D9032307
:102D000085E10B4B1A6880235B001340F0D07B6891
:102D10009B68012B0ED1034B1A6A024B01210A4317
:102D20001A6235E000100240FFFFFEFFFFFFFBFFCD
:102D3000007000407B689B68002B0CD1B64B1A6A70
:102D4000B54B01218A431A62B34B1A6AB24B042174
:102D50008A431A621CE07B689B68052B0CD1AE4B42
:102D60001A6AAD4B04210A431A62AB4B1A6AAA4B8A
:102D700001210A431A620BE0A74B1A6AA64B0121F4
:102D80008A431A62A44B1A6AA34B04218A431A622B
:102D90007B689B68002B14D0FFF7E8F80300BB6149
:102DA00009E0FFF7E3F80200BB69D31A9B4A93429C
:102DB00001D903232BE1984B1B6A02221340F0D068
:102DC00013E0FFF7D3F80300BB6109E0FFF7CEF88B
:102DD0000200BB69D31A914A934201D9032316E139
:102DE0008D4B1B6A02221340F0D11F23FB181B7866
:102DF000012B05D1884BDA69874B89490A40DA6192
:102E00007B681B681022134063D07B685B69012BD1
:102E10002AD1814B5A6B804B04210A435A637E4B63
:102E20005A6B7D4B01210A435A63FFF79FF8030059
:102E3000BB6108E0FFF79AF80200BB69D31A022BC6
:102E400001D90323E3E0744B5B6B02221340F1D002
:102E5000714B5B6BF822934319007B689B69DA0026
:102E60006D4B0A435A6334E07B685B69053311D1CB
:102E7000694B5A6B684B04218A435A63664B5B6B00
:102E8000F822934319007B689B69DA00624B0A437E
:102E90005A631EE0604B5A6B5F4B04210A435A632E
:102EA0005D4B5A6B5C4B01218A435A63FFF75EF816
:102EB0000300BB6108E0FFF759F80200BB69D31AB1
:102EC000022B01D90323A2E0534B5B6B0222134078
:102ED000F1D17B681B6A002B00D197E04E4B5B68F9
:102EE0000C221340082B00D16BE07B681B6A022B7D
:102EF0004CD1494B1A68484B4A490A401A60FFF7BF
:102F000035F80300BB6108E0FFF730F80200BB6949
:102F1000D31A022B01D9032379E03F4B1A6880238F
:102F20009B041340F0D13C4BDB6A0F229343190002
:102F30007B68DA6A384B0A43DA62374B5B683A4A95
:102F4000134019007B689A6A7B685B6A1A43324BAC
:102F50000A435A60304B1A682F4B802149040A43B8
:102F60001A60FFF703F80300BB6108E0FEF7FEFFFD
:102F70000200BB69D31A022B01D9032347E0264B79
:102F80001A6880239B041340F0D03FE0224B1A685C
:102F9000214B24490A401A60FEF7E8FF0300BB6199
:102FA00008E0FEF7E3FF0200BB69D31A022B01D948
:102FB00003232CE0184B1A6880239B041340F0D1A4
:102FC00024E07B681B6A012B01D101231FE0124B17
:102FD0005B687B61104BDB6A3B617A6980235B0233
:102FE0001A407B685B6A9A420ED13B690F221A40F5
:102FF0007B68DB6A9A4207D17A69F0239B031A4007
:103000007B689B6A9A4201D0012300E000231800EC
:10301000BD4608B080BDC0460010024088130000C5
:10302000FFFFFFEFFFFFFFFEFFFFC2FF80B584B091
:1030300000AF786039607B68002B01D10123B3E0D9
:103040005B4B1B68012213403A689A4211D9584BD6
:103050001B68012293431900554B3A680A431A60D2
:10306000534B1B68012213403A689A4201D0012356
:103070009AE07B681B680222134015D07B681B68AE
:103080000422134006D04B4B5A684A4BE021C9003A
:103090000A435A60474B5B68F022934319007B68F0
:1030A0009A68444B0A435A607B681B6801221340AC
:1030B00040D07B685B68012B07D13E4B1A688023A8
:1030C0009B02134014D101236EE07B685B68022BE6
:1030D00007D1384B1A6880239B04134008D1012381
:1030E00062E0344B1B680222134001D101235BE0F4
:1030F000304B5B680322934319007B685A682D4B61
:103100000A435A60FEF732FF0300FB6009E0FEF756
:103110002DFF0200FB68D31A274A934201D90323EB
:1031200042E0244B5B680C221A407B685B689B0082
:103130009A42ECD11E4B1B68012213403A689A4216
:1031400011D21B4B1B68012293431900184B3A689C
:103150000A431A60164B1B68012213403A689A42D0
:1031600001D0012320E07B681B680422134009D0B2
:10317000104B5B68114A134019007B68DA680D4BED
:103180000A435A6000F020F801000A4B5B681B09F3
:103190000F2213400A4AD35C0A00DA40094B1A6036
:1031A0000320FEF79DFE00231800BD4604B080BD3D
:1031B000002002400010024088130000FFF8FFFFCB
:1031C00084510008B404002080B586B000AF00230D
:1031D000FB600023BB6000237B6100237B60002336
:1031E0003B61204B5B68FB60FB680C221340042BA7
:1031F00002D0082B03D02CE01B4B3B612CE0FB687A
:103200009B0C0F221340194AD35C7B60154BDB6A81
:103210000F221340164AD35CBB60FA6880235B021E
:10322000134009D0B9681048FDF73CF803001A00B4
:103230007B6853437B6109E079680A005201521AA6
:1032400093019B1ADB005B181B027B617B693B616E
:1032500002E0054B3B61C0463B691800BD4606B025
:1032600080BDC0460010024000127A009C51000848
:10327000AC51000880B500AF024B1B681800BD467A
:1032800080BDC046B404002080B500AFFFF7F2FF58
:103290000100064B5B681B0A07221340044AD35CFB
:1032A000D9400B001800BD4680BDC046001002404A
:1032B0009451000880B586B000AF786000233B6170
:1032C0000023FB607B681A6880235B02134000D1F7
:1032D0008EE017203B1800221A70574BDA698023C2
:1032E0005B05134010D1544BDA69534B80214905DB
:1032F0000A43DA61504BDA6980235B051340BB60F7
:10330000BB683B1801221A704C4B1A6880235B0083
:1033100013401AD1494B1A68484B802149000A438F
:103320001A60FEF723FE03003B6108E0FEF71EFE75
:1033300002003B69D31A642B01D9032377E03F4B8A
:103340001A6880235B001340F0D03B4B1A6AC023FD
:103350009B001340FB60FB68002B34D07B685A68ED
:10336000C0239B001340FA689A422CD0324B1B6A50
:10337000334A1340FB60304B1A6A2F4B80214902BD
:103380000A431A622C4B1A6A2B4B2E490A401A62C6
:10339000294BFA681A62FB680122134013D0FEF72A
:1033A000E5FD03003B6109E0FEF7E0FD02003B693B
:1033B000D31A254A934201D9032338E01E4B1B6AD6
:1033C00002221340F0D01C4B1B6A1D4A1340190007
:1033D0007B685A68184B0A431A621723FB181B783C
:1033E000012B05D1144BDA69134B18490A40DA61F5
:1033F0007B681B680122134009D00F4B1B6B032213
:10340000934319007B689A680B4B0A431A637B68E5
:103410001B682022134009D0074B1B6B10229343DB
:1034200019007B68DA68044B0A431A63002318000A
:10343000BD4606B080BDC04600100240007000408E
:10344000FFFCFFFFFFFFFEFF88130000FFFFFFEF01
:1034500080B582B000AF78607B68002B01D101237A
:1034600042E07B683D229B5CDBB2002B07D17B688E
:103470003C22002199547B681800FEF7A1FB7B6871
:103480003D22022199547B681A687B680433190035
:10349000100000F0D1FA7B684622012199547B6824
:1034A0003E22012199547B683F22012199547B6877
:1034B0004022012199547B684122012199547B6863
:1034C0004222012199547B684322012199547B684F
:1034D0004422012199547B684522012199547B683B
:1034E0003D220121995400231800BD4602B080BD41
:1034F00080B582B000AF78607B68002B01D10123DA
:1035000042E07B683D229B5CDBB2002B07D17B68ED
:103510003C22002199547B68180000F039F87B6840
:103520003D22022199547B681A687B680433190094
:10353000100000F081FA7B684622012199547B68D3
:103540003E22012199547B683F22012199547B68D6
:103550004022012199547B684122012199547B68C2
:103560004222012199547B684322012199547B68AE
:103570004422012199547B684522012199547B689A
:103580003D220121995400231800BD4602B080BDA0
:1035900080B582B000AF7860C046BD4602B080BD45
:1035A00080B584B000AF786039603B68002B08D1EB
:1035B0007B683E229B5CDBB2013B5A1E9341DBB22F
:1035C0001FE03B68042B08D17B683F229B5CDBB289
:1035D000013B5A1E9341DBB213E03B68082B08D134
:1035E0007B6840229B5CDBB2013B5A1E9341DBB2FD
:1035F00007E07B6841229B5CDBB2013B5A1E934192
:10360000DBB2002B01D001236EE03B68002B04D11C
:103610007B683E220221995413E03B68042B04D1BD
:103620007B683F22022199540BE03B68082B04D1B0
:103630007B6840220221995403E07B6841220221E9
:1036400099547B681B6839680122180000F00EFD50
:103650007B681B68264A93420ED07B681B68254A0C
:10366000934209D07B681B68234A934204D07B684D
:103670001B68224A934201D1012300E00023002B62
:1036800008D07B681B685A6C7B681B688021090224
:103690000A435A647B681B68154A934209D07B68C9
:1036A0001B68174A934204D07B681B68114A9342F7
:1036B00011D17B681B689B6807221340FB60FB6885
:1036C000062B10D07B681B681A687B681B68012179
:1036D0000A431A6007E07B681B681A687B681B68EE
:1036E00001210A431A6000231800BD4604B080BDC2
:1036F000002C0140004001400044014000480140CE
:103700000004004080B586B000AFF860B9607A6010
:103710001723FB1800221A70FB683C229B5C012BCC
:1037200001D10223ADE0FB683C22012199547B6862
:103730000C2B00D176E07B680C2B00D995E07B68E0
:10374000082B4ED07B68082B00D98EE07B68002BBD
:1037500003D07B68042B21D087E0FB681B68BA6824
:103760001100180000F0ECF9FB681B689A69FB680F
:103770001B6808210A439A61FB681B689A69FB6809
:103780001B6804218A439A61FB681B689969BB68BE
:103790001A69FB681B680A439A616BE0FB681B6847
:1037A000BA681100180000F053FAFB681B689A69A8
:1037B000FB681B68802109010A439A61FB681B684A
:1037C0009A69FB681B6831490A409A61FB681B686B
:1037D0009969BB681B691A02FB681B680A439A61F6
:1037E00048E0FB681B68BA681100180000F0B4FAE2
:1037F000FB681B68DA69FB681B6808210A43DA6109
:10380000FB681B68DA69FB681B6804218A43DA617C
:10381000FB681B68D969BB681A69FB681B680A43A7
:10382000DA6127E0FB681B68BA681100180000F035
:1038300019FBFB681B68DA69FB681B6880210901BA
:103840000A43DA61FB681B68DA69FB681B680F4989
:103850000A40DA61FB681B68D969BB681B691A02F8
:10386000FB681B680A43DA6104E01723FB18012296
:103870001A70C046FB683C22002199541723FB189C
:103880001B781800BD4606B080BDC046FFFBFFFF99
:1038900080B584B000AF786039600F23FB18002238
:1038A0001A707B683C229B5C012B01D10223BCE097
:1038B0007B683C22012199547B683D220221995466
:1038C0007B681B689B68BB60BB6877229343BB60C7
:1038D000BB68584A1340BB607B681B68BA689A6033
:1038E0003B681B6880229201934240D08022920163
:1038F000934200D988E080225201934200D188E0AF
:1039000080225201934200D97EE0702B18D000D95A
:103910007AE0602B4FD000D976E0502B3BD000D915
:1039200072E0402B57D000D96EE0302B63D06BD8BB
:10393000202B60D068D8002B5DD0102B5BD063E0CB
:103940007B6818683B6899683B685A683B68DB6825
:1039500000F06CFB7B681B689B68BB60BB687722D0
:103960001343BB607B681B68BA689A6052E07B684F
:1039700018683B6899683B685A683B68DB6800F0E8
:1039800055FB7B681B689A687B681B688021C901AE
:103990000A439A603EE07B6818683B6859683B6858
:1039A000DB681A0000F0C8FA7B681B685021180019
:1039B00000F022FB2EE07B6818683B6859683B6882
:1039C000DB681A0000F0E6FA7B681B6860211800CB
:1039D00000F012FB1EE07B6818683B6859683B6882
:1039E000DB681A0000F0A8FA7B681B684021180009
:1039F00000F002FB0EE07B681A683B681B68190048
:103A0000100000F0F9FA05E00F23FB1801221A70EC
:103A100000E0C0467B683D22012199547B683C222E
:103A2000002199540F23FB181B781800BD4604B0E1
:103A300080BDC046FF00FFFF80B584B000AF786056
:103A400039607B681B68FB607B68364A934203D011
:103A50007B68354A934208D1FB6870229343FB6030
:103A60003B685B68FA681343FB607B682D4A9342AE
:103A700013D07B682C4A93420FD07B682B4A934229
:103A80000BD07B682A4A934207D07B68294A93422D
:103A900003D07B68284A934208D1FB68274A134029
:103AA000FB603B68DB68FA681343FB60FB688022BD
:103AB00093431A003B685B691343FB607B68FA68B9
:103AC0001A603B689A687B68DA623B681A687B68B0
:103AD0009A627B68134A93420BD07B68144A9342E4
:103AE00007D07B68134A934203D07B68124A934203
:103AF00003D13B681A697B681A637B6801225A61AB
:103B00007B681B6901221340012B06D17B681B696E
:103B1000012293431A007B681A61C046BD4604B077
:103B200080BDC046002C0140000400400020004041
:103B3000004001400044014000480140FFFCFFFFFD
:103B400080B586B000AF786039607B681B6A7B61A6
:103B50007B681B6A012293431A007B681A627B68A8
:103B60005B683B617B689B69FB60FB6870229343E9
:103B7000FB60FB6803229343FB603B681B68FA68A9
:103B80001343FB607B69022293437B613B689B6824
:103B90007A6913437B617B68274A93420BD07B6829
:103BA000264A934207D07B68254A934203D07B681C
:103BB000244A93420CD17B69082293437B613B6882
:103BC000DB687A6913437B617B69042293437B61E1
:103BD0007B68194A93420BD07B68184A934207D0FE
:103BE0007B68174A934203D07B68164A934211D1EF
:103BF0003B69154A13403B613B69144A13403B61E2
:103C00003B685B693A6913433B613B689B693A696E
:103C100013433B617B683A695A607B68FA689A6132
:103C20003B685A687B685A637B687A691A62C04647
:103C3000BD4606B080BDC046002C0140004001409A
:103C40000044014000480140FFFEFFFFFFFDFFFF71
:103C500080B586B000AF786039607B681B6A7B6195
:103C60007B681B6A102293431A007B681A627B6888
:103C70005B683B617B689B69FB60FB682E4A134075
:103C8000FB60FB682D4A1340FB603B681B681B020E
:103C9000FA681343FB607B69202293437B613B6896
:103CA0009B681B017A6913437B617B68244A9342BA
:103CB0000DD17B69802293437B613B68DB681B01EC
:103CC0007A6913437B617B69402293437B617B6804
:103CD0001B4A93420BD07B681A4A934207D07B68F9
:103CE000194A934203D07B68184A934213D13B6927
:103CF000174A13403B613B69164A13403B613B68DE
:103D00005B699B003A6913433B613B689B699B007D
:103D10003A6913433B617B683A695A607B68FA6889
:103D20009A613B685A687B689A637B687A691A6211
:103D3000C046BD4606B080BDFF8FFFFFFFFCFFFF02
:103D4000002C014000400140004401400048014077
:103D5000FFFBFFFFFFF7FFFF80B586B000AF786085
:103D600039607B681B6A7B617B681B6A334A1A4037
:103D70007B681A627B685B683B617B68DB69FB6020
:103D8000FB6870229343FB60FB6803229343FB6054
:103D90003B681B68FA681343FB607B69284A134041
:103DA0007B613B689B681B027A6913437B617B687C
:103DB000244A93420DD17B69234A13407B613B68BF
:103DC000DB681B027A6913437B617B691F4A1340DE
:103DD0007B617B681B4A93420BD07B681C4A9342F1
:103DE00007D07B681B4A934203D07B681A4A9342F0
:103DF00013D13B69194A13403B613B69184A134090
:103E00003B613B685B691B013A6913433B613B685B
:103E10009B691B013A6913433B617B683A695A60AD
:103E20007B68FA68DA613B685A687B68DA637B68AA
:103E30007A691A62C046BD4606B080BDFFFEFFFF2C
:103E4000FFFDFFFF002C0140FFF7FFFFFFFBFFFF1F
:103E5000004001400044014000480140FFEFFFFFE7
:103E6000FFDFFFFF80B586B000AF786039607B6808
:103E70001B6A3B617B681B6A264A1A407B681A6290
:103E80007B685B687B617B68DB69FB60FB68224A5F
:103E90001340FB60FB68214A1340FB603B681B68D2
:103EA0001B02FA681343FB603B691D4A13403B61E8
:103EB0003B689B681B033A6913433B617B68194A63
:103EC00093420BD07B68184A934207D07B68174A0D
:103ED000934203D07B68164A934209D17B69154A05
:103EE00013407B613B685B699B017A6913437B618B
:103EF0007B687A695A607B68FA68DA613B685A685D
:103F00007B681A647B683A691A62C046BD4606B08F
:103F100080BDC046FFEFFFFFFF8FFFFFFFFCFFFFED
:103F2000FFDFFFFF002C0140004001400044014042
:103F300000480140FFBFFFFF80B586B000AFF860CA
:103F4000B9607A60FB681B6A7B61FB681B6A0122AF
:103F500093431A00FB681A62FB689B693B613B69EB
:103F6000F02293433B617B681B013A6913433B6139
:103F70007B690A2293437B617A69BB6813437B6147
:103F8000FB683A699A61FB687A691A62C046BD4665
:103F900006B080BD80B586B000AFF860B9607A60C9
:103FA000FB681B6A7B61FB681B6A102293431A0043
:103FB000FB681A62FB689B693B613B690D4A1340D1
:103FC0003B617B681B033A6913433B617B69A02219
:103FD00093437B61BB681B017A6913437B61FB6878
:103FE0003A699A61FB687A691A62C046BD4606B0B2
:103FF00080BDC046FF0FFFFF80B584B000AF786082
:1040000039607B689B68FB60FB6870229343FB60B0
:104010003A68FB68134307221343FB607B68FA6826
:104020009A60C046BD4604B080BD000080B586B031
:1040300000AFF860B9607A603B60FB689B687B61A9
:104040007B69094A13407B613B681A027B681A430B
:10405000BB6813437A6913437B61FB687A699A6092
:10406000C046BD4606B080BDFF00FFFF80B586B0EC
:1040700000AFF860B9607A60BB681F22134001226C
:104080009A4013007B61FB681B6A7A69D2431A402D
:10409000FB681A62FB681A6ABB681F210B407968CB
:1040A00099400B001A43FB681A62C046BD4606B031
:1040B00080BD000080B584B000AF786039607B6857
:1040C0003C229B5C012B01D1022341E07B683C2216
:1040D000012199547B683D22022199547B681B6819
:1040E0005B68FB607B681B689B68BB60FB68702239
:1040F0009343FB603B681B68FA681343FB607B6873
:104100001B68FA685A607B681B68134A934209D09F
:104110007B681B68114A934204D07B681B68104A75
:1041200093420CD1BB6880229343BB603B685B68C1
:10413000BA681343BB607B681B68BA689A607B6887
:104140003D22012199547B683C220021995400238F
:104150001800BD4604B080BD002C014000040040A2
:104160000040014080B584B000AF78603960002322
:10417000FB607B683C229B5C012B01D102233EE06B
:104180007B683C2201219954FB68FF2293431A006B
:104190003B68DB681343FB60FB681B4A1A403B68C3
:1041A0009B681343FB60FB68184A1A403B685B68D6
:1041B0001343FB60FB68164A1A403B681B681343B5
:1041C000FB60FB68134A1A403B681B691343FB60A2
:1041D000FB68114A1A403B685B691343FB60FB684C
:1041E0000E4A1A403B68DB691343FB607B681B681F
:1041F000FA685A647B683C22002199540023180015
:10420000BD4604B080BDC046FFFCFFFFFFFBFFFFC3
:10421000FFF7FFFFFFEFFFFFFFDFFFFFFFBFFFFF26
:1042200080B582B000AF78607B68002B01D101239C
:1042300044E07B68DB6F002B07D17B68782200218C
:1042400099547B681800FDF773FD7B682422DA67B8
:104250007B681B681A687B681B6801218A431A60A7
:104260007B685B6A002B03D07B68180000F0F0FCD1
:104270007B68180000F0ACFB0300012B01D1012387
:104280001CE07B681B685A687B681B680D490A4004
:104290005A607B681B689A687B681B6808218A43A0
:1042A0009A607B681B681A687B681B6801210A4357
:1042B0001A607B68180000F07FFD03001800BD46FF
:1042C00002B080BDFFF7FFFF80B58AB002AFF86093
:1042D000B9603B60BB1D1A80FB68DB6F202B00D0F0
:1042E0008CE0BB68002B03D0BB1D1B88002B01D1C9
:1042F000012384E0FB689A6880235B019A4209D11C
:10430000FB681B69002B05D1BB680122134001D05B
:10431000012374E0FB68842200219950FB6821226C
:10432000DA67FDF723FE03007B61FB68BA1D5021AD
:1043300012885A52FB68BA1D522112885A52FB68E1
:104340009A6880235B019A4208D1FB681B69002BA5
:1043500004D10023FB61BB68BB6103E0BB68FB6168
:104360000023BB612FE07A69F8683B680093130073
:104370000022802100F0C8FD031E04D0FB6820222B
:10438000DA6703233BE0FB69002B0BD1BB691A887A
:10439000FB681B68D205D20D92B21A85BB69023345
:1043A000BB6107E0FB691A78FB681B681A85FB692B
:1043B0000133FB61FB6852229B5A9BB2013B99B2CD
:1043C000FB6852229952FB6852229B5A9BB2002BE7
:1043D000C9D17A69F8683B68009313000022402134
:1043E00000F092FD031E04D0FB682022DA6703234D
:1043F00005E0FB682022DA67002300E002231800B2
:10440000BD4608B080BD000090B5ABB000AF78608D
:104410007B681B68DB69A422B9180B607B681B688A
:104420001B68A02039180B607B681B689B689C2167
:1044300079180B601100BB181B68994A1340982229
:10444000BC182360BB181B68002B14D17B181B6899
:10445000202213400FD03B181B68202213400AD0A3
:104460007B689B6E002B00D186E27B689B6E7A682E
:104470001000984780E29823FB181B68002B00D19E
:1044800014E19C23FB181B680122134006D1A023D2
:10449000FB181B68834A134000D107E1A423FB18D3
:1044A0001B680122134012D0A023FB181A68802336
:1044B0005B0013400BD07B681B6801221A627B688B
:1044C00084229B5801221A437B6884215A50A423DA
:1044D000FB181B680222134011D09C23FB181B6899
:1044E000012213400BD07B681B6802221A627B6892
:1044F00084229B5804221A437B6884215A50A423A7
:10450000FB181B680422134011D09C23FB181B6866
:10451000012213400BD07B681B6804221A627B685F
:1045200084229B5802221A437B6884215A50A42378
:10453000FB181B680822134017D0A023FB181B6828
:104540002022134005D19C23FB181B680122134035
:104550000BD07B681B6808221A627B6884229B58F8
:1045600008221A437B6884215A50A423FB181A6836
:1045700080231B01134013D0A023FB181A6880234B
:10458000DB0413400CD07B681B68802212011A6286
:104590007B6884229B5820221A437B6884215A50CE
:1045A0007B6884229B58002B00D1E7E1A423FB18F1
:1045B0001B68202213400ED0A023FB181B6820226A
:1045C000134008D07B689B6E002B04D07B689B6EE9
:1045D0007A68100098477B6884229B5894217A1847
:1045E00013607B681B689B6840221340402B04D0FB
:1045F0007B181B682822134047D07B68180000F006
:10460000F3FC7B681B689B6840221340402B37D12A
:10461000EFF310833B663B6E90203A181360012342
:104620007B667B6E83F31088C0467B681B689A6844
:104630007B681B6840218A439A603B181B68BB66F5
:10464000BB6E83F31088C0467B685B6F002B12D073
:104650007B685B6F144A5A637B685B6F1800FDF7D9
:10466000DBFF031E1AD07B685B6F5A6B7B685B6F46
:104670001800904712E07B68180000F095F90DE0F3
:104680007B68180000F090F908E07B68180000F0E3
:104690008BF97B688422002199506FE1C0466DE15F
:1046A0000F08000020010004B15000087B681B6E59
:1046B000012B00D039E1A423FB181B681022134002
:1046C00000D132E1A023FB181B681022134000D157
:1046D0002BE17B681B6810221A627B681B689B6851
:1046E00040221340402B00D09FE07B685B6F1B682B
:1046F0005A687E217B181A807B181B88002B00D1FA
:104700003EE17B6858229B5A7A1812889A4200D35D
:1047100036E17B687A185A2112885A527B685B6F9F
:104720009B69202B6FD0EFF310833B633B6BBB6720
:1047300001237B637B6B83F31088C0467B681B6817
:104740001A687B681B6892490A401A60BB6FBB639A
:10475000BB6B83F31088C046EFF31083FB63FB6BE6
:104760007B6701233B643B6C83F31088C0467B6806
:104770001B689A687B681B6801218A439A607B6F7B
:104780007B647B6C83F31088C046EFF31083BB64BB
:10479000BB6C3B670123FB64FB6C83F31088C04652
:1047A0007B681B689A687B681B6840218A439A6013
:1047B0003B6F3B653B6D83F31088C0467B6880226E
:1047C000202199507B6800221A66EFF310837B65E5
:1047D0007B6DFB660123BB65BB6D83F31088C04610
:1047E0007B681B681A687B681B6810218A431A6003
:1047F000FB6EFB65FB6D83F31088C0467B685B6FC7
:104800001800FDF7D1FE7B6802225A667B685822A9
:104810009A5A7B685A215B5A9BB2D31A9AB27B6828
:104820001100180000F0C8F8AAE07B685822995AD5
:104830007B685A229B5A9AB28E203B188A1A1A8099
:104840007B685A229B5A9BB2002B00D19AE03B18FE
:104850001B88002B00D195E0EFF31083FB60FB6811
:1048600088243A19136001233B613B6983F3108864
:10487000C0467B681B681A687B681B6845490A400C
:104880001A603B191B687B617B6983F31088C04603
:10489000EFF31083BB61BB6984243A1913600123D1
:1048A000FB61FB6983F31088C0467B681B689A68CC
:1048B0007B681B6801218A439A603B191B683B6235
:1048C0003B6A83F31088C0467B6880222021995080
:1048D0007B6800221A667B6800229A66EFF31083D9
:1048E0007B627B6A80243A1913600123BB62BB6A36
:1048F00083F31088C0467B681B681A687B681B6856
:1049000010218A431A603B191B68FB62FB6A83F320
:104910001088C0467B6802225A663B181A887B685A
:104920001100180000F048F82CE0A423FB181B68C5
:10493000802213400FD0A023FB181B688022134055
:1049400009D07B68DB6E002B1ED07B68DB6E7A683B
:104950001000984718E0A423FB181B68402213405E
:1049600013D0A023FB181B68402213400DD07B6896
:10497000180000F0B4FB08E0C04606E0C04604E0C2
:10498000C04602E0C04600E0C046BD462BB090BD28
:10499000FFFEFFFFDFFEFFFF80B582B000AF786053
:1049A000C046BD4602B080BD80B582B000AF786021
:1049B000C046BD4602B080BD80B582B000AF786011
:1049C0000A00BB1C1A80C046BD4602B080BD000074
:1049D00080B588B000AF78601E23FB1800221A70E3
:1049E0007B689A687B681B691A437B685B691A431A
:1049F0007B68DB6913437B617B681B681B688D4A9E
:104A0000134019007B681B687A690A431A607B6847
:104A10001B685B68884A134019007B68DA687B680A
:104A20001B680A435A607B689B697B617B681B6AD1
:104A30007A6913437B617B681B689B687F4A1340DC
:104A400019007B681B687A690A439A607B681B6857
:104A50007B4A934227D17B4B1B6B03221340032BD2
:104A60000DD01BD8022B14D018D8002B02D0012B4C
:104A70000AD013E01F23FB1800221A7021E01F2325
:104A8000FB1802221A701CE01F23FB1804221A7064
:104A900017E01F23FB1808221A7012E01F23FB18CF
:104AA00010221A700DE07B681B68674A934204D19C
:104AB0001F23FB1800221A7003E01F23FB1810228B
:104AC0001A707B68DA6980231B029A425CD11F232B
:104AD000FB181B78082B15D018DC042B0DD015DC27
:104AE000002B02D0022B05D010E0FEF7CDFB030017
:104AF000BB6112E0554BBB610FE0FEF765FB0300A5
:104B0000BB610AE080231B02BB6106E00023BB619E
:104B10001E23FB1801221A70C046BB69002B00D16E
:104B20007AE0BB695A007B685B685B08D2187B68D7
:104B30005B6819001000FBF7B5FB03003B613B69A4
:104B40000F2B1CD93A6980235B029A4217D23B692A
:104B50009AB20E203B180F218A431A803B695B08EA
:104B60009BB20722134099B23B183A1812880A43A5
:104B70001A807B681B683A181288DA604CE01E23A2
:104B8000FB1801221A7047E01F23FB181B78082B23
:104B900015D018DC042B0DD015DC002B02D0022B15
:104BA00005D010E0FEF770FB0300BB6112E0274B5D
:104BB000BB610FE0FEF708FB0300BB610AE0802346
:104BC0001B02BB6106E00023BB611E23FB18012210
:104BD0001A70C046BB69002B1ED07B685B685A0800
:104BE000BB69D2187B685B6819001000FBF75AFBA1
:104BF00003003B613B690F2B0AD93A6980235B02B2
:104C00009A4205D23B699AB27B681B68DA6003E07E
:104C10001E23FB1801221A707B6800229A667B68AB
:104C20000022DA661E23FB181B781800BD4608B068
:104C300080BDC046F369FFFFFFCFFFFFFFF4FFFF1A
:104C400000380140001002400044004000127A0089
:104C500080B582B000AF78607B685B6A0822134041
:104C60000BD07B681B685B684A4A134019007B685D
:104C70005A6B7B681B680A435A607B685B6A012237
:104C800013400BD07B681B685B68434A13401900D4
:104C90007B689A6A7B681B680A435A607B685B6A18
:104CA000022213400BD07B681B685B683B4A1340B1
:104CB00019007B68DA6A7B681B680A435A607B6864
:104CC0005B6A042213400BD07B681B685B68344A24
:104CD000134019007B681A6B7B681B680A435A6093
:104CE0007B685B6A102213400BD07B681B689B6853
:104CF0002C4A134019007B689A6B7B681B680A4337
:104D00009A607B685B6A202213400BD07B681B682B
:104D10009B68254A134019007B68DA6B7B681B6827
:104D20000A439A607B685B6A402213401DD07B680F
:104D30001B685B681D4A134019007B681A6C7B680E
:104D40001B680A435A607B681A6C80235B039A4293
:104D50000BD17B681B685B68154A134019007B68A0
:104D60005A6C7B681B680A435A607B685B6A8022C6
:104D700013400BD07B681B685B680E4A1340190018
:104D80007B689A6C7B681B680A435A60C046BD46C4
:104D900002B080BDFF7FFFFFFFFFFDFFFFFFFEFFB3
:104DA000FFFFFBFFFFEFFFFFFFDFFFFFFFFFEFFF57
:104DB000FFFF9FFFFFFFF7FF80B592B002AF786063
:104DC0007B68842200219950FDF7D0F80300FB6333
:104DD0007B681B681B6808221340082B2CD1FB6BD7
:104DE000802291037868464A0092002200F08CF8F5
:104DF000031E21D0EFF310837B627B6ABB63012328
:104E0000BB62BB6A83F31088C0467B681B681A6864
:104E10007B681B6880218A431A60BB6BFB62FB6A5C
:104E200083F31088C0467B682022DA677B6878228B
:104E30000021995403235FE07B681B681B680422F0
:104E40001340042B46D1FB6B8022D10378682C4A97
:104E50000092002200F058F8031E3BD0EFF31083BD
:104E6000FB60FB687B6301233B613B6983F3108834
:104E7000C0467B681B681A687B681B6821490A402A
:104E80001A607B6B7B617B6983F31088C046EFF30C
:104E90001083BB61BB693B630123FB61FB6983F347
:104EA0001088C0467B681B689A687B681B68012174
:104EB0008A439A603B6B3B623B6A83F31088C0462F
:104EC0007B688022202199507B68782200219954A8
:104ED000032311E07B682022DA677B68802220218F
:104EE00099507B6800221A667B6800225A667B68AC
:104EF00078220021995400231800BD4610B080BDCF
:104F0000FFFFFF01DFFEFFFF80B584B000AFF86058
:104F1000B9603B60FB1D1A7051E0BB6901334ED094
:104F2000FDF724F802003B68D31ABA699A4202D30B
:104F3000BB69002B01D1032351E0FB681B681B6890
:104F4000042213403BD0BB68802B38D0BB68402B79
:104F500035D0FB681B68DB6908221340082B11D190
:104F6000FB681B6808221A62FB68180000F03CF816
:104F7000FB68842208219950FB687822002199540B
:104F800001232CE0FB681B68DA6980231B011A40AF
:104F900080231B019A4212D1FB681B6880221201F8
:104FA0001A62FB68180000F01FF8FB6884222021B9
:104FB0009950FB6878220021995403230FE0FB6885
:104FC0001B68DB69BA681340BA68D31A5A42534166
:104FD000DBB21A00FB1D1B789A429ED000231800FA
:104FE000BD4604B080BD000080B58EB000AF7860D3
:104FF000EFF310837B617B697B630123BB61BB693A
:1050000083F31088C0467B681B681A687B681B683E
:1050100026490A401A607B6BFB61FB6983F31088A9
:10502000C046EFF310833B623B6A3B6301237B6224
:105030007B6A83F31088C0467B681B689A687B682C
:105040001B6801218A439A603B6BBB62BB6A83F396
:105050001088C0467B681B6E012B18D1EFF31083BC
:10506000BB60BB68FB620123FB60FB6883F31088B5
:10507000C0467B681B681A687B681B6810218A43DE
:105080001A60FB6A3B613B6983F31088C0467B680A
:105090008022202199507B6800221A667B680022BA
:1050A0009A66C046BD460EB080BDC046DFFEFFFF1B
:1050B00080B584B000AF78607B685B6AFB60FB689A
:1050C0005A2200219952FB68522200219952FB6812
:1050D0001800FFF769FCC046BD4604B080BD80B52E
:1050E00086B000AF7860EFF31083BB60BB687B6174
:1050F0000123FB60FB6883F31088C0467B681B6854
:105100001A687B681B6840218A431A607B693B618F
:105110003B6983F31088C0467B682022DA677B688E
:105120000022DA667B681800FFF736FCC046BD46F1
:1051300006B080BDF8B5C046F8BC08BC9E467047B6
:0C514000F8B5C046F8BC08BC9E4670479D
:10514C0000000000501000000811000009110000C0
:10515C000A1100002412000068696A6B6C6D6E6F96
:10516C0070717273747576773031323334353637FB
:10517C00383941424344454600000000000000001D
:10518C0001020304060708090000000001020304E1
:10519C0002030405060708090A0B0C0D0E0F10106C
:1051AC000102030405060708090A0B0C0D0E0F106B
:0451BC0035010008B1
:0451C00009010008D9
:1051C400001400482000000002000000010000005C
:1051D400000000481000000002000000020000006F
:1051E400001400481000000002000000030000004A
:1051F400000000482000000002000000040000003D
:105204000000004808000000020000000500000043
:1052140000000048400000000200000006000000FA
:1052240000040048400000000200000007000000E5
:105234000004004800100000020000000800000004
:1052440000040048100000000200000009000000F3
:10525400000C004804000000020000000A000000E6
:105264000008004800080000020000000B000000D5
:105274000008004802000000020000000C000000CA
:105284000014004801000000020000000D000000AE
:105294000008004800400000020000000E0000006A
:1052A40000040048010000000200000001000000AA
:1052B4000004004802000000020000000200000098
:1052C4000008004820000000020000000300000065
:1052D4000004004804000000020000000400000074
:1052E4000008004810000000020000000500000053
:1052F4000004004800040000020000000600000052
:1053040000000048800000000200000007000000C8
:105314000004004800200000020000000800000013
:105324000004004820000000020000000900000002
:105334000004004808000000020000000A00000009
:105344000008004800100000020000000B000000EC
:105354000008004801000000020000000C000000EA
:105364000008004800800000020000000D0000005A
:105374000008004800200000020000000E000000A9
:10538400000400480040000001000000010000008B
:10539400000400480080000001000000020000003A
:1053A4000008004840000000010000000300000065
:1053B4000008004880000000010000000400000014
:1053C4000008004800010000010000000500000082
:1053D400000800480800000001000000060000006A
:1053E400000800480400000001000000070000005D
:1053F4000000004800080000010000000800000050
:10540400010000002F2F20483153332053572052DE
:10541400696768740A0000000000000000000000D2
:105424000000000000000000000000000000000078
:105434000000000000000000000000000000000068
:105444000000000000000000000000000000000058
:105454000000000000000000000000000000000048
:105464000000000000000000010000000100000036
:10547400FF000000F10C0008F10C0008F10C00081A
:10548400F10C0008F10C0008F10C0008F10C000804
:10549400F10C0008F10C0008F10C0008E90D0008FB
:1054A400F10C0008F10C0008F10C0008F10C0008E4
:1054B400F10C0008F10C0008F10C0008F10C0008D4
:1054C400F10C0008F10C0008F10C0008F10C0008C4
:1054D400F10C0008F10C0008F10C0008F10C0008B4
:1054E400F10C0008F10C0008F10C0008F10C0008A4
:1054F400F10C0008F10C0008F10C0008F10C000894
:10550400F10C0008F10C0008F10C0008A10D0008D2
:10551400F10C0008F10C0008F10C0008F10C000873
:10552400F10C0008F10C0008550D00083D0D0008B1
:105534008D0D00083511000859110008811100086B
:10554400A9110008D1110008F9110008211200085E
:10555400491200087112000899120008250D00086C
:10556400790D0008F10C0008F10C0008F10C00089A
:10557400650D0008F10C0008C1120008E9120008CA
:105584001113000839130008611300088913000877
:10559400F10C0008F10C0008F10C0008F10C0008F3
:1055A400F10C0008F10C0008F10C0008F10C0008E3
:1055B400F10C0008F10C0008F10C0008F10C0008D3
:1055C400F10C0008F10C0008F10C0008F10C0008C3
:1055D400F10C0008F10C0008F10C0008F10C0008B3
:1055E400F10C0008F10C0008F10C0008F10C0008A3
:1055F400F10C0008F10C0008C1120008E9120008BF
:1056040011130008391300086113000889130008F6
:10561400F10C0008F90E0008190F00083D0F0008EE
:10562400610F0008850F0008A90F0008CD0F0008BE
:10563400F10F000815100008391000085D1000086B
:1056440081100008A5100008C9100008ED1000081A
:1056540011110008F10C0008F10C0008F10C00080D
:10566400F10C0008190D0008F10C0008050D0008E4
:10567400F10C000800127A00040000000100000090
:0400000508001E656C
:00000001FF
